{
  "_format": "hh-sol-artifact-1",
  "contractName": "Marketplace",
  "sourceName": "contracts/Marketplace.sol",
  "abi": [
    {
      "inputs": [
        {
          "internalType": "address",
          "name": "_nftContract",
          "type": "address"
        }
      ],
      "stateMutability": "nonpayable",
      "type": "constructor"
    },
    {
      "inputs": [
        {
          "internalType": "address",
          "name": "owner",
          "type": "address"
        }
      ],
      "name": "OwnableInvalidOwner",
      "type": "error"
    },
    {
      "inputs": [
        {
          "internalType": "address",
          "name": "account",
          "type": "address"
        }
      ],
      "name": "OwnableUnauthorizedAccount",
      "type": "error"
    },
    {
      "inputs": [],
      "name": "ReentrancyGuardReentrantCall",
      "type": "error"
    },
    {
      "anonymous": false,
      "inputs": [
        {
          "indexed": true,
          "internalType": "address",
          "name": "seller",
          "type": "address"
        },
        {
          "indexed": true,
          "internalType": "uint256",
          "name": "tokenId",
          "type": "uint256"
        }
      ],
      "name": "ItemCanceled",
      "type": "event"
    },
    {
      "anonymous": false,
      "inputs": [
        {
          "indexed": true,
          "internalType": "address",
          "name": "seller",
          "type": "address"
        },
        {
          "indexed": true,
          "internalType": "uint256",
          "name": "tokenId",
          "type": "uint256"
        },
        {
          "indexed": false,
          "internalType": "uint256",
          "name": "price",
          "type": "uint256"
        }
      ],
      "name": "ItemListed",
      "type": "event"
    },
    {
      "anonymous": false,
      "inputs": [
        {
          "indexed": true,
          "internalType": "address",
          "name": "seller",
          "type": "address"
        },
        {
          "indexed": true,
          "internalType": "address",
          "name": "buyer",
          "type": "address"
        },
        {
          "indexed": true,
          "internalType": "uint256",
          "name": "tokenId",
          "type": "uint256"
        },
        {
          "indexed": false,
          "internalType": "uint256",
          "name": "price",
          "type": "uint256"
        }
      ],
      "name": "ItemSold",
      "type": "event"
    },
    {
      "anonymous": false,
      "inputs": [
        {
          "indexed": true,
          "internalType": "address",
          "name": "previousOwner",
          "type": "address"
        },
        {
          "indexed": true,
          "internalType": "address",
          "name": "newOwner",
          "type": "address"
        }
      ],
      "name": "OwnershipTransferred",
      "type": "event"
    },
    {
      "inputs": [
        {
          "internalType": "uint256",
          "name": "tokenId",
          "type": "uint256"
        }
      ],
      "name": "buyItem",
      "outputs": [],
      "stateMutability": "payable",
      "type": "function"
    },
    {
      "inputs": [
        {
          "internalType": "uint256",
          "name": "tokenId",
          "type": "uint256"
        }
      ],
      "name": "cancelListing",
      "outputs": [],
      "stateMutability": "nonpayable",
      "type": "function"
    },
    {
      "inputs": [],
      "name": "feePercentage",
      "outputs": [
        {
          "internalType": "uint256",
          "name": "",
          "type": "uint256"
        }
      ],
      "stateMutability": "view",
      "type": "function"
    },
    {
      "inputs": [],
      "name": "getAllListedItems",
      "outputs": [
        {
          "internalType": "uint256[]",
          "name": "",
          "type": "uint256[]"
        },
        {
          "internalType": "uint256[]",
          "name": "",
          "type": "uint256[]"
        }
      ],
      "stateMutability": "view",
      "type": "function"
    },
    {
      "inputs": [
        {
          "internalType": "uint256",
          "name": "tokenId",
          "type": "uint256"
        },
        {
          "internalType": "uint256",
          "name": "price",
          "type": "uint256"
        }
      ],
      "name": "listItem",
      "outputs": [],
      "stateMutability": "nonpayable",
      "type": "function"
    },
    {
      "inputs": [
        {
          "internalType": "uint256",
          "name": "",
          "type": "uint256"
        }
      ],
      "name": "listings",
      "outputs": [
        {
          "internalType": "address",
          "name": "seller",
          "type": "address"
        },
        {
          "internalType": "uint256",
          "name": "price",
          "type": "uint256"
        },
        {
          "internalType": "bool",
          "name": "isListed",
          "type": "bool"
        }
      ],
      "stateMutability": "view",
      "type": "function"
    },
    {
      "inputs": [],
      "name": "nftContract",
      "outputs": [
        {
          "internalType": "address",
          "name": "",
          "type": "address"
        }
      ],
      "stateMutability": "view",
      "type": "function"
    },
    {
      "inputs": [],
      "name": "owner",
      "outputs": [
        {
          "internalType": "address",
          "name": "",
          "type": "address"
        }
      ],
      "stateMutability": "view",
      "type": "function"
    },
    {
      "inputs": [],
      "name": "renounceOwnership",
      "outputs": [],
      "stateMutability": "nonpayable",
      "type": "function"
    },
    {
      "inputs": [
        {
          "internalType": "address",
          "name": "newOwner",
          "type": "address"
        }
      ],
      "name": "transferOwnership",
      "outputs": [],
      "stateMutability": "nonpayable",
      "type": "function"
    }
  ],
  "bytecode": "0x608060405260fa60045534801561001557600080fd5b50604051611ae5380380611ae58339818101604052810190610037919061022f565b33600073ffffffffffffffffffffffffffffffffffffffff168173ffffffffffffffffffffffffffffffffffffffff16036100aa5760006040517f1e4fbdf70000000000000000000000000000000000000000000000000000000081526004016100a1919061026b565b60405180910390fd5b6100b98161010860201b60201c565b506001808190555080600260006101000a81548173ffffffffffffffffffffffffffffffffffffffff021916908373ffffffffffffffffffffffffffffffffffffffff16021790555050610286565b60008060009054906101000a900473ffffffffffffffffffffffffffffffffffffffff169050816000806101000a81548173ffffffffffffffffffffffffffffffffffffffff021916908373ffffffffffffffffffffffffffffffffffffffff1602179055508173ffffffffffffffffffffffffffffffffffffffff168173ffffffffffffffffffffffffffffffffffffffff167f8be0079c531659141344cd1fd0a4f28419497f9722a3daafe3b4186f6b6457e060405160405180910390a35050565b600080fd5b600073ffffffffffffffffffffffffffffffffffffffff82169050919050565b60006101fc826101d1565b9050919050565b61020c816101f1565b811461021757600080fd5b50565b60008151905061022981610203565b92915050565b600060208284031215610245576102446101cc565b5b60006102538482850161021a565b91505092915050565b610265816101f1565b82525050565b6000602082019050610280600083018461025c565b92915050565b611850806102956000396000f3fe6080604052600436106100915760003560e01c8063a001ecdd11610059578063a001ecdd14610156578063d56d229d14610181578063de74e57b146101ac578063e7fb74c7146101eb578063f2fde38b1461020757610091565b8063305a67a8146100965780633b1b1ad0146100bf578063715018a6146100eb578063883efa67146101025780638da5cb5b1461012b575b600080fd5b3480156100a257600080fd5b506100bd60048036038101906100b89190611038565b610230565b005b3480156100cb57600080fd5b506100d46104c5565b6040516100e2929190611123565b60405180910390f35b3480156100f757600080fd5b5061010061066c565b005b34801561010e57600080fd5b506101296004803603810190610124919061115a565b610680565b005b34801561013757600080fd5b506101406109c3565b60405161014d91906111db565b60405180910390f35b34801561016257600080fd5b5061016b6109ec565b6040516101789190611205565b60405180910390f35b34801561018d57600080fd5b506101966109f2565b6040516101a391906111db565b60405180910390f35b3480156101b857600080fd5b506101d360048036038101906101ce9190611038565b610a18565b6040516101e29392919061123b565b60405180910390f35b61020560048036038101906102009190611038565b610a6f565b005b34801561021357600080fd5b5061022e6004803603810190610229919061129e565b610dd5565b005b610238610e5b565b6000600360008381526020019081526020016000206040518060600160405290816000820160009054906101000a900473ffffffffffffffffffffffffffffffffffffffff1673ffffffffffffffffffffffffffffffffffffffff1673ffffffffffffffffffffffffffffffffffffffff168152602001600182015481526020016002820160009054906101000a900460ff16151515158152505090508060400151610319576040517f08c379a000000000000000000000000000000000000000000000000000000000815260040161031090611328565b60405180910390fd5b3373ffffffffffffffffffffffffffffffffffffffff16816000015173ffffffffffffffffffffffffffffffffffffffff161461038b576040517f08c379a0000000000000000000000000000000000000000000000000000000008152600401610382906113ba565b60405180910390fd5b60036000838152602001908152602001600020600080820160006101000a81549073ffffffffffffffffffffffffffffffffffffffff021916905560018201600090556002820160006101000a81549060ff02191690555050600260009054906101000a900473ffffffffffffffffffffffffffffffffffffffff1673ffffffffffffffffffffffffffffffffffffffff166342842e0e3033856040518463ffffffff1660e01b8152600401610443939291906113da565b600060405180830381600087803b15801561045d57600080fd5b505af1158015610471573d6000803e3d6000fd5b50505050813373ffffffffffffffffffffffffffffffffffffffff167ff86e54241e209ee4b38db8e64af9614b083d18f23c32f3293c8a87c6b8bf894360405160405180910390a3506104c2610ea1565b50565b6060806000805b606481101561051a576003600082815260200190815260200160002060020160009054906101000a900460ff161561050d57818061050990611440565b9250505b80806001019150506104cc565b5060008167ffffffffffffffff81111561053757610536611488565b5b6040519080825280602002602001820160405280156105655781602001602082028036833780820191505090505b50905060008267ffffffffffffffff81111561058457610583611488565b5b6040519080825280602002602001820160405280156105b25781602001602082028036833780820191505090505b5090506000805b606481101561065d576003600082815260200190815260200160002060020160009054906101000a900460ff161561065057808483815181106105ff576105fe6114b7565b5b6020026020010181815250506003600082815260200190815260200160002060010154838381518110610635576106346114b7565b5b602002602001018181525050818061064c90611440565b9250505b80806001019150506105b9565b50828295509550505050509091565b610674610eaa565b61067e6000610f31565b565b610688610e5b565b600081116106cb576040517f08c379a00000000000000000000000000000000000000000000000000000000081526004016106c290611532565b60405180910390fd5b6000600260009054906101000a900473ffffffffffffffffffffffffffffffffffffffff1690503373ffffffffffffffffffffffffffffffffffffffff168173ffffffffffffffffffffffffffffffffffffffff16636352211e856040518263ffffffff1660e01b81526004016107429190611205565b602060405180830381865afa15801561075f573d6000803e3d6000fd5b505050506040513d601f19601f820116820180604052508101906107839190611567565b73ffffffffffffffffffffffffffffffffffffffff16146107d9576040517f08c379a00000000000000000000000000000000000000000000000000000000081526004016107d0906115e0565b60405180910390fd5b6003600084815260200190815260200160002060020160009054906101000a900460ff161561083d576040517f08c379a00000000000000000000000000000000000000000000000000000000081526004016108349061164c565b60405180910390fd5b8073ffffffffffffffffffffffffffffffffffffffff166323b872dd3330866040518463ffffffff1660e01b815260040161087a939291906113da565b600060405180830381600087803b15801561089457600080fd5b505af11580156108a8573d6000803e3d6000fd5b5050505060405180606001604052803373ffffffffffffffffffffffffffffffffffffffff168152602001838152602001600115158152506003600085815260200190815260200160002060008201518160000160006101000a81548173ffffffffffffffffffffffffffffffffffffffff021916908373ffffffffffffffffffffffffffffffffffffffff1602179055506020820151816001015560408201518160020160006101000a81548160ff021916908315150217905550905050823373ffffffffffffffffffffffffffffffffffffffff167f94e7b934c857a9e3202e8ed9c1f3f96e396b7d2b5885930d2001abcb51ff58fa846040516109ae9190611205565b60405180910390a3506109bf610ea1565b5050565b60008060009054906101000a900473ffffffffffffffffffffffffffffffffffffffff16905090565b60045481565b600260009054906101000a900473ffffffffffffffffffffffffffffffffffffffff1681565b60036020528060005260406000206000915090508060000160009054906101000a900473ffffffffffffffffffffffffffffffffffffffff16908060010154908060020160009054906101000a900460ff16905083565b610a77610e5b565b6000600360008381526020019081526020016000206040518060600160405290816000820160009054906101000a900473ffffffffffffffffffffffffffffffffffffffff1673ffffffffffffffffffffffffffffffffffffffff1673ffffffffffffffffffffffffffffffffffffffff168152602001600182015481526020016002820160009054906101000a900460ff16151515158152505090508060400151610b58576040517f08c379a0000000000000000000000000000000000000000000000000000000008152600401610b4f906116b8565b60405180910390fd5b8060200151341015610b9f576040517f08c379a0000000000000000000000000000000000000000000000000000000008152600401610b9690611724565b60405180910390fd5b60006127106004548360200151610bb69190611744565b610bc091906117b5565b90506000818360200151610bd491906117e6565b9050826000015173ffffffffffffffffffffffffffffffffffffffff166108fc829081150290604051600060405180830381858888f19350505050158015610c20573d6000803e3d6000fd5b50610c296109c3565b73ffffffffffffffffffffffffffffffffffffffff166108fc839081150290604051600060405180830381858888f19350505050158015610c6e573d6000803e3d6000fd5b50600260009054906101000a900473ffffffffffffffffffffffffffffffffffffffff1673ffffffffffffffffffffffffffffffffffffffff166342842e0e3033876040518463ffffffff1660e01b8152600401610cce939291906113da565b600060405180830381600087803b158015610ce857600080fd5b505af1158015610cfc573d6000803e3d6000fd5b5050505060036000858152602001908152602001600020600080820160006101000a81549073ffffffffffffffffffffffffffffffffffffffff021916905560018201600090556002820160006101000a81549060ff02191690555050833373ffffffffffffffffffffffffffffffffffffffff16846000015173ffffffffffffffffffffffffffffffffffffffff167fc36542c7a190a4c20a7f15a0ddc46871de452f269f15b0e621f11b48463b299f8660200151604051610dbf9190611205565b60405180910390a4505050610dd2610ea1565b50565b610ddd610eaa565b600073ffffffffffffffffffffffffffffffffffffffff168173ffffffffffffffffffffffffffffffffffffffff1603610e4f5760006040517f1e4fbdf7000000000000000000000000000000000000000000000000000000008152600401610e4691906111db565b60405180910390fd5b610e5881610f31565b50565b600260015403610e97576040517f3ee5aeb500000000000000000000000000000000000000000000000000000000815260040160405180910390fd5b6002600181905550565b60018081905550565b610eb2610ff5565b73ffffffffffffffffffffffffffffffffffffffff16610ed06109c3565b73ffffffffffffffffffffffffffffffffffffffff1614610f2f57610ef3610ff5565b6040517f118cdaa7000000000000000000000000000000000000000000000000000000008152600401610f2691906111db565b60405180910390fd5b565b60008060009054906101000a900473ffffffffffffffffffffffffffffffffffffffff169050816000806101000a81548173ffffffffffffffffffffffffffffffffffffffff021916908373ffffffffffffffffffffffffffffffffffffffff1602179055508173ffffffffffffffffffffffffffffffffffffffff168173ffffffffffffffffffffffffffffffffffffffff167f8be0079c531659141344cd1fd0a4f28419497f9722a3daafe3b4186f6b6457e060405160405180910390a35050565b600033905090565b600080fd5b6000819050919050565b61101581611002565b811461102057600080fd5b50565b6000813590506110328161100c565b92915050565b60006020828403121561104e5761104d610ffd565b5b600061105c84828501611023565b91505092915050565b600081519050919050565b600082825260208201905092915050565b6000819050602082019050919050565b61109a81611002565b82525050565b60006110ac8383611091565b60208301905092915050565b6000602082019050919050565b60006110d082611065565b6110da8185611070565b93506110e583611081565b8060005b838110156111165781516110fd88826110a0565b9750611108836110b8565b9250506001810190506110e9565b5085935050505092915050565b6000604082019050818103600083015261113d81856110c5565b9050818103602083015261115181846110c5565b90509392505050565b6000806040838503121561117157611170610ffd565b5b600061117f85828601611023565b925050602061119085828601611023565b9150509250929050565b600073ffffffffffffffffffffffffffffffffffffffff82169050919050565b60006111c58261119a565b9050919050565b6111d5816111ba565b82525050565b60006020820190506111f060008301846111cc565b92915050565b6111ff81611002565b82525050565b600060208201905061121a60008301846111f6565b92915050565b60008115159050919050565b61123581611220565b82525050565b600060608201905061125060008301866111cc565b61125d60208301856111f6565b61126a604083018461122c565b949350505050565b61127b816111ba565b811461128657600080fd5b50565b60008135905061129881611272565b92915050565b6000602082840312156112b4576112b3610ffd565b5b60006112c284828501611289565b91505092915050565b600082825260208201905092915050565b7f4974656d206e6f74206c69737465640000000000000000000000000000000000600082015250565b6000611312600f836112cb565b915061131d826112dc565b602082019050919050565b6000602082019050818103600083015261134181611305565b9050919050565b7f4f6e6c79207468652073656c6c65722063616e2063616e63656c20746865206c60008201527f697374696e670000000000000000000000000000000000000000000000000000602082015250565b60006113a46026836112cb565b91506113af82611348565b604082019050919050565b600060208201905081810360008301526113d381611397565b9050919050565b60006060820190506113ef60008301866111cc565b6113fc60208301856111cc565b61140960408301846111f6565b949350505050565b7f4e487b7100000000000000000000000000000000000000000000000000000000600052601160045260246000fd5b600061144b82611002565b91507fffffffffffffffffffffffffffffffffffffffffffffffffffffffffffffffff820361147d5761147c611411565b5b600182019050919050565b7f4e487b7100000000000000000000000000000000000000000000000000000000600052604160045260246000fd5b7f4e487b7100000000000000000000000000000000000000000000000000000000600052603260045260246000fd5b7f5072696365206d7573742062652067726561746572207468616e203000000000600082015250565b600061151c601c836112cb565b9150611527826114e6565b602082019050919050565b6000602082019050818103600083015261154b8161150f565b9050919050565b60008151905061156181611272565b92915050565b60006020828403121561157d5761157c610ffd565b5b600061158b84828501611552565b91505092915050565b7f596f75206d757374206f776e20746865204e465420746f206c69737420697400600082015250565b60006115ca601f836112cb565b91506115d582611594565b602082019050919050565b600060208201905081810360008301526115f9816115bd565b9050919050565b7f4974656d20616c7265616479206c697374656400000000000000000000000000600082015250565b60006116366013836112cb565b915061164182611600565b602082019050919050565b6000602082019050818103600083015261166581611629565b9050919050565b7f4974656d206e6f74206c697374656420666f722073616c650000000000000000600082015250565b60006116a26018836112cb565b91506116ad8261166c565b602082019050919050565b600060208201905081810360008301526116d181611695565b9050919050565b7f496e73756666696369656e742066756e64730000000000000000000000000000600082015250565b600061170e6012836112cb565b9150611719826116d8565b602082019050919050565b6000602082019050818103600083015261173d81611701565b9050919050565b600061174f82611002565b915061175a83611002565b925082820261176881611002565b9150828204841483151761177f5761177e611411565b5b5092915050565b7f4e487b7100000000000000000000000000000000000000000000000000000000600052601260045260246000fd5b60006117c082611002565b91506117cb83611002565b9250826117db576117da611786565b5b828204905092915050565b60006117f182611002565b91506117fc83611002565b925082820390508181111561181457611813611411565b5b9291505056fea26469706673582212205d99e0eb4cfa8ecc985ddc7c7efa894f6535fa1cd4de3800ea326e8e0d9c0a6f64736f6c634300081b0033",
  "linkReferences": {},
  "deployedLinkReferences": {}
}