{
  "_format": "hh-sol-artifact-1",
  "contractName": "SudokuMarketplacetest",
  "sourceName": "contracts/SudokuMarketplacetest.sol",
  "abi": [
    {
      "inputs": [],
      "stateMutability": "nonpayable",
      "type": "constructor"
    },
    {
      "inputs": [
        {
          "internalType": "address",
          "name": "sender",
          "type": "address"
        },
        {
          "internalType": "uint256",
          "name": "tokenId",
          "type": "uint256"
        },
        {
          "internalType": "address",
          "name": "owner",
          "type": "address"
        }
      ],
      "name": "ERC721IncorrectOwner",
      "type": "error"
    },
    {
      "inputs": [
        {
          "internalType": "address",
          "name": "operator",
          "type": "address"
        },
        {
          "internalType": "uint256",
          "name": "tokenId",
          "type": "uint256"
        }
      ],
      "name": "ERC721InsufficientApproval",
      "type": "error"
    },
    {
      "inputs": [
        {
          "internalType": "address",
          "name": "approver",
          "type": "address"
        }
      ],
      "name": "ERC721InvalidApprover",
      "type": "error"
    },
    {
      "inputs": [
        {
          "internalType": "address",
          "name": "operator",
          "type": "address"
        }
      ],
      "name": "ERC721InvalidOperator",
      "type": "error"
    },
    {
      "inputs": [
        {
          "internalType": "address",
          "name": "owner",
          "type": "address"
        }
      ],
      "name": "ERC721InvalidOwner",
      "type": "error"
    },
    {
      "inputs": [
        {
          "internalType": "address",
          "name": "receiver",
          "type": "address"
        }
      ],
      "name": "ERC721InvalidReceiver",
      "type": "error"
    },
    {
      "inputs": [
        {
          "internalType": "address",
          "name": "sender",
          "type": "address"
        }
      ],
      "name": "ERC721InvalidSender",
      "type": "error"
    },
    {
      "inputs": [
        {
          "internalType": "uint256",
          "name": "tokenId",
          "type": "uint256"
        }
      ],
      "name": "ERC721NonexistentToken",
      "type": "error"
    },
    {
      "inputs": [
        {
          "internalType": "address",
          "name": "owner",
          "type": "address"
        }
      ],
      "name": "OwnableInvalidOwner",
      "type": "error"
    },
    {
      "inputs": [
        {
          "internalType": "address",
          "name": "account",
          "type": "address"
        }
      ],
      "name": "OwnableUnauthorizedAccount",
      "type": "error"
    },
    {
      "anonymous": false,
      "inputs": [
        {
          "indexed": true,
          "internalType": "address",
          "name": "owner",
          "type": "address"
        },
        {
          "indexed": true,
          "internalType": "address",
          "name": "approved",
          "type": "address"
        },
        {
          "indexed": true,
          "internalType": "uint256",
          "name": "tokenId",
          "type": "uint256"
        }
      ],
      "name": "Approval",
      "type": "event"
    },
    {
      "anonymous": false,
      "inputs": [
        {
          "indexed": true,
          "internalType": "address",
          "name": "owner",
          "type": "address"
        },
        {
          "indexed": true,
          "internalType": "address",
          "name": "operator",
          "type": "address"
        },
        {
          "indexed": false,
          "internalType": "bool",
          "name": "approved",
          "type": "bool"
        }
      ],
      "name": "ApprovalForAll",
      "type": "event"
    },
    {
      "anonymous": false,
      "inputs": [
        {
          "indexed": false,
          "internalType": "uint256",
          "name": "_fromTokenId",
          "type": "uint256"
        },
        {
          "indexed": false,
          "internalType": "uint256",
          "name": "_toTokenId",
          "type": "uint256"
        }
      ],
      "name": "BatchMetadataUpdate",
      "type": "event"
    },
    {
      "anonymous": false,
      "inputs": [
        {
          "indexed": true,
          "internalType": "uint256",
          "name": "tokenId",
          "type": "uint256"
        },
        {
          "indexed": true,
          "internalType": "address",
          "name": "buyer",
          "type": "address"
        }
      ],
      "name": "BuyNFT",
      "type": "event"
    },
    {
      "anonymous": false,
      "inputs": [
        {
          "indexed": false,
          "internalType": "uint256",
          "name": "newGameFee",
          "type": "uint256"
        }
      ],
      "name": "GameFeeChanged",
      "type": "event"
    },
    {
      "anonymous": false,
      "inputs": [
        {
          "indexed": true,
          "internalType": "uint256",
          "name": "tokenId",
          "type": "uint256"
        },
        {
          "indexed": false,
          "internalType": "uint256",
          "name": "price",
          "type": "uint256"
        }
      ],
      "name": "ListNFT",
      "type": "event"
    },
    {
      "anonymous": false,
      "inputs": [
        {
          "indexed": false,
          "internalType": "uint256",
          "name": "_tokenId",
          "type": "uint256"
        }
      ],
      "name": "MetadataUpdate",
      "type": "event"
    },
    {
      "anonymous": false,
      "inputs": [
        {
          "indexed": true,
          "internalType": "address",
          "name": "owner",
          "type": "address"
        },
        {
          "indexed": true,
          "internalType": "uint256",
          "name": "tokenId",
          "type": "uint256"
        },
        {
          "indexed": false,
          "internalType": "string",
          "name": "tokenURI",
          "type": "string"
        }
      ],
      "name": "MintNFT",
      "type": "event"
    },
    {
      "anonymous": false,
      "inputs": [
        {
          "indexed": true,
          "internalType": "address",
          "name": "previousOwner",
          "type": "address"
        },
        {
          "indexed": true,
          "internalType": "address",
          "name": "newOwner",
          "type": "address"
        }
      ],
      "name": "OwnershipTransferred",
      "type": "event"
    },
    {
      "anonymous": false,
      "inputs": [
        {
          "indexed": true,
          "internalType": "address",
          "name": "player",
          "type": "address"
        }
      ],
      "name": "StartGame",
      "type": "event"
    },
    {
      "anonymous": false,
      "inputs": [
        {
          "indexed": true,
          "internalType": "address",
          "name": "from",
          "type": "address"
        },
        {
          "indexed": true,
          "internalType": "address",
          "name": "to",
          "type": "address"
        },
        {
          "indexed": true,
          "internalType": "uint256",
          "name": "tokenId",
          "type": "uint256"
        }
      ],
      "name": "Transfer",
      "type": "event"
    },
    {
      "inputs": [
        {
          "internalType": "address",
          "name": "to",
          "type": "address"
        },
        {
          "internalType": "uint256",
          "name": "tokenId",
          "type": "uint256"
        }
      ],
      "name": "approve",
      "outputs": [],
      "stateMutability": "nonpayable",
      "type": "function"
    },
    {
      "inputs": [
        {
          "internalType": "address",
          "name": "owner",
          "type": "address"
        }
      ],
      "name": "balanceOf",
      "outputs": [
        {
          "internalType": "uint256",
          "name": "",
          "type": "uint256"
        }
      ],
      "stateMutability": "view",
      "type": "function"
    },
    {
      "inputs": [
        {
          "internalType": "uint256",
          "name": "tokenId",
          "type": "uint256"
        }
      ],
      "name": "buyNFT",
      "outputs": [],
      "stateMutability": "payable",
      "type": "function"
    },
    {
      "inputs": [],
      "name": "gameFee",
      "outputs": [
        {
          "internalType": "uint256",
          "name": "",
          "type": "uint256"
        }
      ],
      "stateMutability": "view",
      "type": "function"
    },
    {
      "inputs": [],
      "name": "getAllListedNFTs",
      "outputs": [
        {
          "components": [
            {
              "internalType": "uint256",
              "name": "tokenId",
              "type": "uint256"
            },
            {
              "internalType": "address",
              "name": "owner",
              "type": "address"
            },
            {
              "internalType": "uint256",
              "name": "price",
              "type": "uint256"
            },
            {
              "internalType": "bool",
              "name": "isListed",
              "type": "bool"
            }
          ],
          "internalType": "struct SudokuMarketplacetest.NFTItem[]",
          "name": "",
          "type": "tuple[]"
        }
      ],
      "stateMutability": "view",
      "type": "function"
    },
    {
      "inputs": [
        {
          "internalType": "uint256",
          "name": "tokenId",
          "type": "uint256"
        }
      ],
      "name": "getApproved",
      "outputs": [
        {
          "internalType": "address",
          "name": "",
          "type": "address"
        }
      ],
      "stateMutability": "view",
      "type": "function"
    },
    {
      "inputs": [],
      "name": "getGameFee",
      "outputs": [
        {
          "internalType": "uint256",
          "name": "",
          "type": "uint256"
        }
      ],
      "stateMutability": "view",
      "type": "function"
    },
    {
      "inputs": [
        {
          "internalType": "address",
          "name": "user",
          "type": "address"
        }
      ],
      "name": "getUserNFTs",
      "outputs": [
        {
          "components": [
            {
              "internalType": "uint256",
              "name": "tokenId",
              "type": "uint256"
            },
            {
              "internalType": "address",
              "name": "owner",
              "type": "address"
            },
            {
              "internalType": "uint256",
              "name": "price",
              "type": "uint256"
            },
            {
              "internalType": "bool",
              "name": "isListed",
              "type": "bool"
            }
          ],
          "internalType": "struct SudokuMarketplacetest.NFTItem[]",
          "name": "",
          "type": "tuple[]"
        }
      ],
      "stateMutability": "view",
      "type": "function"
    },
    {
      "inputs": [
        {
          "internalType": "address",
          "name": "owner",
          "type": "address"
        },
        {
          "internalType": "address",
          "name": "operator",
          "type": "address"
        }
      ],
      "name": "isApprovedForAll",
      "outputs": [
        {
          "internalType": "bool",
          "name": "",
          "type": "bool"
        }
      ],
      "stateMutability": "view",
      "type": "function"
    },
    {
      "inputs": [
        {
          "internalType": "uint256",
          "name": "tokenId",
          "type": "uint256"
        },
        {
          "internalType": "uint256",
          "name": "price",
          "type": "uint256"
        }
      ],
      "name": "listNFT",
      "outputs": [],
      "stateMutability": "nonpayable",
      "type": "function"
    },
    {
      "inputs": [
        {
          "internalType": "string",
          "name": "tokenURI",
          "type": "string"
        }
      ],
      "name": "mintAfterGame",
      "outputs": [],
      "stateMutability": "nonpayable",
      "type": "function"
    },
    {
      "inputs": [],
      "name": "name",
      "outputs": [
        {
          "internalType": "string",
          "name": "",
          "type": "string"
        }
      ],
      "stateMutability": "view",
      "type": "function"
    },
    {
      "inputs": [],
      "name": "nextTokenId",
      "outputs": [
        {
          "internalType": "uint256",
          "name": "",
          "type": "uint256"
        }
      ],
      "stateMutability": "view",
      "type": "function"
    },
    {
      "inputs": [
        {
          "internalType": "uint256",
          "name": "",
          "type": "uint256"
        }
      ],
      "name": "nftItems",
      "outputs": [
        {
          "internalType": "uint256",
          "name": "tokenId",
          "type": "uint256"
        },
        {
          "internalType": "address",
          "name": "owner",
          "type": "address"
        },
        {
          "internalType": "uint256",
          "name": "price",
          "type": "uint256"
        },
        {
          "internalType": "bool",
          "name": "isListed",
          "type": "bool"
        }
      ],
      "stateMutability": "view",
      "type": "function"
    },
    {
      "inputs": [],
      "name": "owner",
      "outputs": [
        {
          "internalType": "address",
          "name": "",
          "type": "address"
        }
      ],
      "stateMutability": "view",
      "type": "function"
    },
    {
      "inputs": [
        {
          "internalType": "uint256",
          "name": "tokenId",
          "type": "uint256"
        }
      ],
      "name": "ownerOf",
      "outputs": [
        {
          "internalType": "address",
          "name": "",
          "type": "address"
        }
      ],
      "stateMutability": "view",
      "type": "function"
    },
    {
      "inputs": [],
      "name": "renounceOwnership",
      "outputs": [],
      "stateMutability": "nonpayable",
      "type": "function"
    },
    {
      "inputs": [
        {
          "internalType": "address",
          "name": "from",
          "type": "address"
        },
        {
          "internalType": "address",
          "name": "to",
          "type": "address"
        },
        {
          "internalType": "uint256",
          "name": "tokenId",
          "type": "uint256"
        }
      ],
      "name": "safeTransferFrom",
      "outputs": [],
      "stateMutability": "nonpayable",
      "type": "function"
    },
    {
      "inputs": [
        {
          "internalType": "address",
          "name": "from",
          "type": "address"
        },
        {
          "internalType": "address",
          "name": "to",
          "type": "address"
        },
        {
          "internalType": "uint256",
          "name": "tokenId",
          "type": "uint256"
        },
        {
          "internalType": "bytes",
          "name": "data",
          "type": "bytes"
        }
      ],
      "name": "safeTransferFrom",
      "outputs": [],
      "stateMutability": "nonpayable",
      "type": "function"
    },
    {
      "inputs": [
        {
          "internalType": "address",
          "name": "operator",
          "type": "address"
        },
        {
          "internalType": "bool",
          "name": "approved",
          "type": "bool"
        }
      ],
      "name": "setApprovalForAll",
      "outputs": [],
      "stateMutability": "nonpayable",
      "type": "function"
    },
    {
      "inputs": [
        {
          "internalType": "uint256",
          "name": "newGameFee",
          "type": "uint256"
        }
      ],
      "name": "setGameFee",
      "outputs": [],
      "stateMutability": "nonpayable",
      "type": "function"
    },
    {
      "inputs": [],
      "name": "startGame",
      "outputs": [],
      "stateMutability": "payable",
      "type": "function"
    },
    {
      "inputs": [
        {
          "internalType": "bytes4",
          "name": "interfaceId",
          "type": "bytes4"
        }
      ],
      "name": "supportsInterface",
      "outputs": [
        {
          "internalType": "bool",
          "name": "",
          "type": "bool"
        }
      ],
      "stateMutability": "view",
      "type": "function"
    },
    {
      "inputs": [],
      "name": "symbol",
      "outputs": [
        {
          "internalType": "string",
          "name": "",
          "type": "string"
        }
      ],
      "stateMutability": "view",
      "type": "function"
    },
    {
      "inputs": [
        {
          "internalType": "uint256",
          "name": "tokenId",
          "type": "uint256"
        }
      ],
      "name": "tokenURI",
      "outputs": [
        {
          "internalType": "string",
          "name": "",
          "type": "string"
        }
      ],
      "stateMutability": "view",
      "type": "function"
    },
    {
      "inputs": [
        {
          "internalType": "address",
          "name": "from",
          "type": "address"
        },
        {
          "internalType": "address",
          "name": "to",
          "type": "address"
        },
        {
          "internalType": "uint256",
          "name": "tokenId",
          "type": "uint256"
        }
      ],
      "name": "transferFrom",
      "outputs": [],
      "stateMutability": "nonpayable",
      "type": "function"
    },
    {
      "inputs": [
        {
          "internalType": "address",
          "name": "newOwner",
          "type": "address"
        }
      ],
      "name": "transferOwnership",
      "outputs": [],
      "stateMutability": "nonpayable",
      "type": "function"
    },
    {
      "inputs": [],
      "name": "withdrawFunds",
      "outputs": [],
      "stateMutability": "nonpayable",
      "type": "function"
    }
  ],
  "bytecode": "0x608060405266038d7ea4c6800060095534801561001b57600080fd5b50336040518060400160405280600d81526020017f5375646f6b754e465474657374000000000000000000000000000000000000008152506040518060400160405280600581526020017f5355444f5400000000000000000000000000000000000000000000000000000081525081600090816100989190610448565b5080600190816100a89190610448565b505050600073ffffffffffffffffffffffffffffffffffffffff168173ffffffffffffffffffffffffffffffffffffffff160361011d5760006040517f1e4fbdf7000000000000000000000000000000000000000000000000000000008152600401610114919061055b565b60405180910390fd5b61012c8161013260201b60201c565b50610576565b6000600760009054906101000a900473ffffffffffffffffffffffffffffffffffffffff16905081600760006101000a81548173ffffffffffffffffffffffffffffffffffffffff021916908373ffffffffffffffffffffffffffffffffffffffff1602179055508173ffffffffffffffffffffffffffffffffffffffff168173ffffffffffffffffffffffffffffffffffffffff167f8be0079c531659141344cd1fd0a4f28419497f9722a3daafe3b4186f6b6457e060405160405180910390a35050565b600081519050919050565b7f4e487b7100000000000000000000000000000000000000000000000000000000600052604160045260246000fd5b7f4e487b7100000000000000000000000000000000000000000000000000000000600052602260045260246000fd5b6000600282049050600182168061027957607f821691505b60208210810361028c5761028b610232565b5b50919050565b60008190508160005260206000209050919050565b60006020601f8301049050919050565b600082821b905092915050565b6000600883026102f47fffffffffffffffffffffffffffffffffffffffffffffffffffffffffffffffff826102b7565b6102fe86836102b7565b95508019841693508086168417925050509392505050565b6000819050919050565b6000819050919050565b600061034561034061033b84610316565b610320565b610316565b9050919050565b6000819050919050565b61035f8361032a565b61037361036b8261034c565b8484546102c4565b825550505050565b600090565b61038861037b565b610393818484610356565b505050565b5b818110156103b7576103ac600082610380565b600181019050610399565b5050565b601f8211156103fc576103cd81610292565b6103d6846102a7565b810160208510156103e5578190505b6103f96103f1856102a7565b830182610398565b50505b505050565b600082821c905092915050565b600061041f60001984600802610401565b1980831691505092915050565b6000610438838361040e565b9150826002028217905092915050565b610451826101f8565b67ffffffffffffffff81111561046a57610469610203565b5b6104748254610261565b61047f8282856103bb565b600060209050601f8311600181146104b257600084156104a0578287015190505b6104aa858261042c565b865550610512565b601f1984166104c086610292565b60005b828110156104e8578489015182556001820191506020850194506020810190506104c3565b868310156105055784890151610501601f89168261040e565b8355505b6001600288020188555050505b505050505050565b600073ffffffffffffffffffffffffffffffffffffffff82169050919050565b60006105458261051a565b9050919050565b6105558161053a565b82525050565b6000602082019050610570600083018461054c565b92915050565b6138f0806105856000396000f3fe6080604052600436106101b75760003560e01c806370a08231116100ec578063a38bcc781161008a578063d65ab5f211610064578063d65ab5f2146105fe578063e985e9c514610608578063ea777eec14610645578063f2fde38b14610670576101b7565b8063a38bcc781461056f578063b88d4fde14610598578063c87b56dd146105c1576101b7565b80638da5cb5b116100c65780638da5cb5b146104c757806394383f14146104f257806395d89b411461051b578063a22cb46514610546576101b7565b806370a0823114610448578063715018a61461048557806375794a3c1461049c576101b7565b806342842e0e1161015957806352de4ee51161013357806352de4ee5146103635780635bba88f1146103a057806362821396146103cb5780636352211e1461040b576101b7565b806342842e0e146102f35780634b58ffaa1461031c57806351ed828814610347576101b7565b8063082ef3dc11610195578063082ef3dc14610261578063095ea7b31461028a57806323b872dd146102b357806324600fc3146102dc576101b7565b806301ffc9a7146101bc57806306fdde03146101f9578063081812fc14610224575b600080fd5b3480156101c857600080fd5b506101e360048036038101906101de9190612912565b610699565b6040516101f0919061295a565b60405180910390f35b34801561020557600080fd5b5061020e6106fa565b60405161021b9190612a05565b60405180910390f35b34801561023057600080fd5b5061024b60048036038101906102469190612a5d565b61078c565b6040516102589190612acb565b60405180910390f35b34801561026d57600080fd5b5061028860048036038101906102839190612c1b565b6107a8565b005b34801561029657600080fd5b506102b160048036038101906102ac9190612c90565b6108fa565b005b3480156102bf57600080fd5b506102da60048036038101906102d59190612cd0565b610910565b005b3480156102e857600080fd5b506102f1610a12565b005b3480156102ff57600080fd5b5061031a60048036038101906103159190612cd0565b610a6a565b005b34801561032857600080fd5b50610331610a8a565b60405161033e9190612e54565b60405180910390f35b610361600480360381019061035c9190612a5d565b610c62565b005b34801561036f57600080fd5b5061038a60048036038101906103859190612e76565b610e39565b6040516103979190612e54565b60405180910390f35b3480156103ac57600080fd5b506103b5611000565b6040516103c29190612eb2565b60405180910390f35b3480156103d757600080fd5b506103f260048036038101906103ed9190612a5d565b61100a565b6040516104029493929190612ecd565b60405180910390f35b34801561041757600080fd5b50610432600480360381019061042d9190612a5d565b611067565b60405161043f9190612acb565b60405180910390f35b34801561045457600080fd5b5061046f600480360381019061046a9190612e76565b611079565b60405161047c9190612eb2565b60405180910390f35b34801561049157600080fd5b5061049a611133565b005b3480156104a857600080fd5b506104b1611147565b6040516104be9190612eb2565b60405180910390f35b3480156104d357600080fd5b506104dc61114d565b6040516104e99190612acb565b60405180910390f35b3480156104fe57600080fd5b5061051960048036038101906105149190612f12565b611177565b005b34801561052757600080fd5b506105306112b6565b60405161053d9190612a05565b60405180910390f35b34801561055257600080fd5b5061056d60048036038101906105689190612f7e565b611348565b005b34801561057b57600080fd5b5061059660048036038101906105919190612a5d565b61135e565b005b3480156105a457600080fd5b506105bf60048036038101906105ba919061305f565b6113a7565b005b3480156105cd57600080fd5b506105e860048036038101906105e39190612a5d565b6113cc565b6040516105f59190612a05565b60405180910390f35b6106066114df565b005b34801561061457600080fd5b5061062f600480360381019061062a91906130e2565b611568565b60405161063c919061295a565b60405180910390f35b34801561065157600080fd5b5061065a6115fc565b6040516106679190612eb2565b60405180910390f35b34801561067c57600080fd5b5061069760048036038101906106929190612e76565b611602565b005b6000634906490660e01b7bffffffffffffffffffffffffffffffffffffffffffffffffffffffff1916827bffffffffffffffffffffffffffffffffffffffffffffffffffffffff191614806106f357506106f282611688565b5b9050919050565b60606000805461070990613151565b80601f016020809104026020016040519081016040528092919081815260200182805461073590613151565b80156107825780601f1061075757610100808354040283529160200191610782565b820191906000526020600020905b81548152906001019060200180831161076557829003601f168201915b5050505050905090565b60006107978261176a565b506107a1826117f2565b9050919050565b60006008549050600860008154809291906107c2906131b1565b91905055506107d1338261182f565b6107db818361184d565b60405180608001604052808281526020013373ffffffffffffffffffffffffffffffffffffffff1681526020016000815260200160001515815250600a60008381526020019081526020016000206000820151816000015560208201518160010160006101000a81548173ffffffffffffffffffffffffffffffffffffffff021916908373ffffffffffffffffffffffffffffffffffffffff1602179055506040820151816002015560608201518160030160006101000a81548160ff021916908315150217905550905050803373ffffffffffffffffffffffffffffffffffffffff167f86094769a8d8b54a575d56650097d483bd4ecdeb3c8dd7ac9ac20df1e0d5ae03846040516108ee9190612a05565b60405180910390a35050565b61090c82826109076118a9565b6118b1565b5050565b600073ffffffffffffffffffffffffffffffffffffffff168273ffffffffffffffffffffffffffffffffffffffff16036109825760006040517f64a0ae920000000000000000000000000000000000000000000000000000000081526004016109799190612acb565b60405180910390fd5b600061099683836109916118a9565b6118c3565b90508373ffffffffffffffffffffffffffffffffffffffff168173ffffffffffffffffffffffffffffffffffffffff1614610a0c578382826040517f64283d7b000000000000000000000000000000000000000000000000000000008152600401610a03939291906131f9565b60405180910390fd5b50505050565b610a1a611add565b610a2261114d565b73ffffffffffffffffffffffffffffffffffffffff166108fc479081150290604051600060405180830381858888f19350505050158015610a67573d6000803e3d6000fd5b50565b610a85838383604051806020016040528060008152506113a7565b505050565b606060006008549050600080600090505b82811015610ae857600a600082815260200190815260200160002060030160009054906101000a900460ff1615610adb578180610ad7906131b1565b9250505b8080600101915050610a9b565b5060008167ffffffffffffffff811115610b0557610b04612af0565b5b604051908082528060200260200182016040528015610b3e57816020015b610b2b612866565b815260200190600190039081610b235790505b509050600080600090505b84811015610c5757600a600082815260200190815260200160002060030160009054906101000a900460ff1615610c4a57600a6000828152602001908152602001600020604051806080016040529081600082015481526020016001820160009054906101000a900473ffffffffffffffffffffffffffffffffffffffff1673ffffffffffffffffffffffffffffffffffffffff1673ffffffffffffffffffffffffffffffffffffffff168152602001600282015481526020016003820160009054906101000a900460ff161515151581525050838381518110610c3057610c2f613230565b5b60200260200101819052508180610c46906131b1565b9250505b8080600101915050610b49565b508194505050505090565b6000600a600083815260200190815260200160002090508060030160009054906101000a900460ff16610cca576040517f08c379a0000000000000000000000000000000000000000000000000000000008152600401610cc1906132ab565b60405180910390fd5b8060020154341015610d11576040517f08c379a0000000000000000000000000000000000000000000000000000000008152600401610d0890613317565b60405180910390fd5b60008160010160009054906101000a900473ffffffffffffffffffffffffffffffffffffffff169050338260010160006101000a81548173ffffffffffffffffffffffffffffffffffffffff021916908373ffffffffffffffffffffffffffffffffffffffff16021790555060008260030160006101000a81548160ff021916908315150217905550610da5813385611b64565b8073ffffffffffffffffffffffffffffffffffffffff166108fc83600201549081150290604051600060405180830381858888f19350505050158015610def573d6000803e3d6000fd5b503373ffffffffffffffffffffffffffffffffffffffff16837f079fc0f01dc38ba287c48d683564d13539db09719cb3532fee3c1b1b61bbcf9560405160405180910390a3505050565b60606000610e4683611079565b90506000808267ffffffffffffffff811115610e6557610e64612af0565b5b604051908082528060200260200182016040528015610e9e57816020015b610e8b612866565b815260200190600190039081610e835790505b50905060005b600854811015610ff4578573ffffffffffffffffffffffffffffffffffffffff16600a600083815260200190815260200160002060010160009054906101000a900473ffffffffffffffffffffffffffffffffffffffff1673ffffffffffffffffffffffffffffffffffffffff1603610fe757600a6000828152602001908152602001600020604051806080016040529081600082015481526020016001820160009054906101000a900473ffffffffffffffffffffffffffffffffffffffff1673ffffffffffffffffffffffffffffffffffffffff1673ffffffffffffffffffffffffffffffffffffffff168152602001600282015481526020016003820160009054906101000a900460ff161515151581525050828481518110610fcd57610fcc613230565b5b60200260200101819052508280610fe3906131b1565b9350505b8080600101915050610ea4565b50809350505050919050565b6000600954905090565b600a6020528060005260406000206000915090508060000154908060010160009054906101000a900473ffffffffffffffffffffffffffffffffffffffff16908060020154908060030160009054906101000a900460ff16905084565b60006110728261176a565b9050919050565b60008073ffffffffffffffffffffffffffffffffffffffff168273ffffffffffffffffffffffffffffffffffffffff16036110ec5760006040517f89c62b640000000000000000000000000000000000000000000000000000000081526004016110e39190612acb565b60405180910390fd5b600360008373ffffffffffffffffffffffffffffffffffffffff1673ffffffffffffffffffffffffffffffffffffffff168152602001908152602001600020549050919050565b61113b611add565b6111456000611cd1565b565b60085481565b6000600760009054906101000a900473ffffffffffffffffffffffffffffffffffffffff16905090565b3373ffffffffffffffffffffffffffffffffffffffff1661119783611067565b73ffffffffffffffffffffffffffffffffffffffff16146111ed576040517f08c379a00000000000000000000000000000000000000000000000000000000081526004016111e490613383565b60405180910390fd5b60008111611230576040517f08c379a0000000000000000000000000000000000000000000000000000000008152600401611227906133ef565b60405180910390fd5b80600a6000848152602001908152602001600020600201819055506001600a600084815260200190815260200160002060030160006101000a81548160ff021916908315150217905550817fadc2524c8f93616be9bad3bcab121a8de2a297699e78d4762481efcd6d26a926826040516112aa9190612eb2565b60405180910390a25050565b6060600180546112c590613151565b80601f01602080910402602001604051908101604052809291908181526020018280546112f190613151565b801561133e5780601f106113135761010080835404028352916020019161133e565b820191906000526020600020905b81548152906001019060200180831161132157829003601f168201915b5050505050905090565b61135a6113536118a9565b8383611d97565b5050565b611366611add565b806009819055507f8731ad568a8afb574b5745a33f10a2cabe0e2024881fa4772464ff63477c7c968160405161139c9190612eb2565b60405180910390a150565b6113b2848484610910565b6113c66113bd6118a9565b85858585611f06565b50505050565b60606113d78261176a565b5060006006600084815260200190815260200160002080546113f890613151565b80601f016020809104026020016040519081016040528092919081815260200182805461142490613151565b80156114715780601f1061144657610100808354040283529160200191611471565b820191906000526020600020905b81548152906001019060200180831161145457829003601f168201915b5050505050905060006114826120b7565b905060008151036114975781925050506114da565b6000825111156114cc5780826040516020016114b492919061344b565b604051602081830303815290604052925050506114da565b6114d5846120ce565b925050505b919050565b6009543414611523576040517f08c379a000000000000000000000000000000000000000000000000000000000815260040161151a906134e1565b60405180910390fd5b3373ffffffffffffffffffffffffffffffffffffffff167f0525d7a7a13b93b5891ea81c1579a8a9f0c146d4e17c4acea58648452154f14760405160405180910390a2565b6000600560008473ffffffffffffffffffffffffffffffffffffffff1673ffffffffffffffffffffffffffffffffffffffff16815260200190815260200160002060008373ffffffffffffffffffffffffffffffffffffffff1673ffffffffffffffffffffffffffffffffffffffff16815260200190815260200160002060009054906101000a900460ff16905092915050565b60095481565b61160a611add565b600073ffffffffffffffffffffffffffffffffffffffff168173ffffffffffffffffffffffffffffffffffffffff160361167c5760006040517f1e4fbdf70000000000000000000000000000000000000000000000000000000081526004016116739190612acb565b60405180910390fd5b61168581611cd1565b50565b60007f80ac58cd000000000000000000000000000000000000000000000000000000007bffffffffffffffffffffffffffffffffffffffffffffffffffffffff1916827bffffffffffffffffffffffffffffffffffffffffffffffffffffffff1916148061175357507f5b5e139f000000000000000000000000000000000000000000000000000000007bffffffffffffffffffffffffffffffffffffffffffffffffffffffff1916827bffffffffffffffffffffffffffffffffffffffffffffffffffffffff1916145b80611763575061176282612137565b5b9050919050565b600080611776836121a1565b9050600073ffffffffffffffffffffffffffffffffffffffff168173ffffffffffffffffffffffffffffffffffffffff16036117e957826040517f7e2732890000000000000000000000000000000000000000000000000000000081526004016117e09190612eb2565b60405180910390fd5b80915050919050565b60006004600083815260200190815260200160002060009054906101000a900473ffffffffffffffffffffffffffffffffffffffff169050919050565b6118498282604051806020016040528060008152506121de565b5050565b8060066000848152602001908152602001600020908161186d91906136ad565b507ff8e1a15aba9398e019f0b49df1a4fde98ee17ae345cb5f6b5e2c27f5033e8ce78260405161189d9190612eb2565b60405180910390a15050565b600033905090565b6118be8383836001612202565b505050565b6000806118cf846121a1565b9050600073ffffffffffffffffffffffffffffffffffffffff168373ffffffffffffffffffffffffffffffffffffffff1614611911576119108184866123c7565b5b600073ffffffffffffffffffffffffffffffffffffffff168173ffffffffffffffffffffffffffffffffffffffff16146119a257611953600085600080612202565b6001600360008373ffffffffffffffffffffffffffffffffffffffff1673ffffffffffffffffffffffffffffffffffffffff168152602001908152602001600020600082825403925050819055505b600073ffffffffffffffffffffffffffffffffffffffff168573ffffffffffffffffffffffffffffffffffffffff1614611a25576001600360008773ffffffffffffffffffffffffffffffffffffffff1673ffffffffffffffffffffffffffffffffffffffff168152602001908152602001600020600082825401925050819055505b846002600086815260200190815260200160002060006101000a81548173ffffffffffffffffffffffffffffffffffffffff021916908373ffffffffffffffffffffffffffffffffffffffff160217905550838573ffffffffffffffffffffffffffffffffffffffff168273ffffffffffffffffffffffffffffffffffffffff167fddf252ad1be2c89b69c2b068fc378daa952ba7f163c4a11628f55a4df523b3ef60405160405180910390a4809150509392505050565b611ae56118a9565b73ffffffffffffffffffffffffffffffffffffffff16611b0361114d565b73ffffffffffffffffffffffffffffffffffffffff1614611b6257611b266118a9565b6040517f118cdaa7000000000000000000000000000000000000000000000000000000008152600401611b599190612acb565b60405180910390fd5b565b600073ffffffffffffffffffffffffffffffffffffffff168273ffffffffffffffffffffffffffffffffffffffff1603611bd65760006040517f64a0ae92000000000000000000000000000000000000000000000000000000008152600401611bcd9190612acb565b60405180910390fd5b6000611be4838360006118c3565b9050600073ffffffffffffffffffffffffffffffffffffffff168173ffffffffffffffffffffffffffffffffffffffff1603611c5757816040517f7e273289000000000000000000000000000000000000000000000000000000008152600401611c4e9190612eb2565b60405180910390fd5b8373ffffffffffffffffffffffffffffffffffffffff168173ffffffffffffffffffffffffffffffffffffffff1614611ccb578382826040517f64283d7b000000000000000000000000000000000000000000000000000000008152600401611cc2939291906131f9565b60405180910390fd5b50505050565b6000600760009054906101000a900473ffffffffffffffffffffffffffffffffffffffff16905081600760006101000a81548173ffffffffffffffffffffffffffffffffffffffff021916908373ffffffffffffffffffffffffffffffffffffffff1602179055508173ffffffffffffffffffffffffffffffffffffffff168173ffffffffffffffffffffffffffffffffffffffff167f8be0079c531659141344cd1fd0a4f28419497f9722a3daafe3b4186f6b6457e060405160405180910390a35050565b600073ffffffffffffffffffffffffffffffffffffffff168273ffffffffffffffffffffffffffffffffffffffff1603611e0857816040517f5b08ba18000000000000000000000000000000000000000000000000000000008152600401611dff9190612acb565b60405180910390fd5b80600560008573ffffffffffffffffffffffffffffffffffffffff1673ffffffffffffffffffffffffffffffffffffffff16815260200190815260200160002060008473ffffffffffffffffffffffffffffffffffffffff1673ffffffffffffffffffffffffffffffffffffffff16815260200190815260200160002060006101000a81548160ff0219169083151502179055508173ffffffffffffffffffffffffffffffffffffffff168373ffffffffffffffffffffffffffffffffffffffff167f17307eab39ab6107e8899845ad3d59bd9653f200f220920489ca2b5937696c3183604051611ef9919061295a565b60405180910390a3505050565b60008373ffffffffffffffffffffffffffffffffffffffff163b11156120b0578273ffffffffffffffffffffffffffffffffffffffff1663150b7a02868685856040518563ffffffff1660e01b8152600401611f6594939291906137d4565b6020604051808303816000875af1925050508015611fa157506040513d601f19601f82011682018060405250810190611f9e9190613835565b60015b612025573d8060008114611fd1576040519150601f19603f3d011682016040523d82523d6000602084013e611fd6565b606091505b50600081510361201d57836040517f64a0ae920000000000000000000000000000000000000000000000000000000081526004016120149190612acb565b60405180910390fd5b805181602001fd5b63150b7a0260e01b7bffffffffffffffffffffffffffffffffffffffffffffffffffffffff1916817bffffffffffffffffffffffffffffffffffffffffffffffffffffffff1916146120ae57836040517f64a0ae920000000000000000000000000000000000000000000000000000000081526004016120a59190612acb565b60405180910390fd5b505b5050505050565b606060405180602001604052806000815250905090565b60606120d98261176a565b5060006120e46120b7565b90506000815111612104576040518060200160405280600081525061212f565b8061210e8461248b565b60405160200161211f92919061344b565b6040516020818303038152906040525b915050919050565b60007f01ffc9a7000000000000000000000000000000000000000000000000000000007bffffffffffffffffffffffffffffffffffffffffffffffffffffffff1916827bffffffffffffffffffffffffffffffffffffffffffffffffffffffff1916149050919050565b60006002600083815260200190815260200160002060009054906101000a900473ffffffffffffffffffffffffffffffffffffffff169050919050565b6121e88383612559565b6121fd6121f36118a9565b6000858585611f06565b505050565b808061223b5750600073ffffffffffffffffffffffffffffffffffffffff168273ffffffffffffffffffffffffffffffffffffffff1614155b1561236f57600061224b8461176a565b9050600073ffffffffffffffffffffffffffffffffffffffff168373ffffffffffffffffffffffffffffffffffffffff16141580156122b657508273ffffffffffffffffffffffffffffffffffffffff168173ffffffffffffffffffffffffffffffffffffffff1614155b80156122c957506122c78184611568565b155b1561230b57826040517fa9fbf51f0000000000000000000000000000000000000000000000000000000081526004016123029190612acb565b60405180910390fd5b811561236d57838573ffffffffffffffffffffffffffffffffffffffff168273ffffffffffffffffffffffffffffffffffffffff167f8c5be1e5ebec7d5bd14f71427d1e84f3dd0314c0f7b2291e5b200ac8c7c3b92560405160405180910390a45b505b836004600085815260200190815260200160002060006101000a81548173ffffffffffffffffffffffffffffffffffffffff021916908373ffffffffffffffffffffffffffffffffffffffff16021790555050505050565b6123d2838383612652565b61248657600073ffffffffffffffffffffffffffffffffffffffff168373ffffffffffffffffffffffffffffffffffffffff160361244757806040517f7e27328900000000000000000000000000000000000000000000000000000000815260040161243e9190612eb2565b60405180910390fd5b81816040517f177e802f00000000000000000000000000000000000000000000000000000000815260040161247d929190613862565b60405180910390fd5b505050565b60606000600161249a84612713565b01905060008167ffffffffffffffff8111156124b9576124b8612af0565b5b6040519080825280601f01601f1916602001820160405280156124eb5781602001600182028036833780820191505090505b509050600082602001820190505b60011561254e578080600190039150507f3031323334353637383961626364656600000000000000000000000000000000600a86061a8153600a85816125425761254161388b565b5b049450600085036124f9575b819350505050919050565b600073ffffffffffffffffffffffffffffffffffffffff168273ffffffffffffffffffffffffffffffffffffffff16036125cb5760006040517f64a0ae920000000000000000000000000000000000000000000000000000000081526004016125c29190612acb565b60405180910390fd5b60006125d9838360006118c3565b9050600073ffffffffffffffffffffffffffffffffffffffff168173ffffffffffffffffffffffffffffffffffffffff161461264d5760006040517f73c6ac6e0000000000000000000000000000000000000000000000000000000081526004016126449190612acb565b60405180910390fd5b505050565b60008073ffffffffffffffffffffffffffffffffffffffff168373ffffffffffffffffffffffffffffffffffffffff161415801561270a57508273ffffffffffffffffffffffffffffffffffffffff168473ffffffffffffffffffffffffffffffffffffffff1614806126cb57506126ca8484611568565b5b8061270957508273ffffffffffffffffffffffffffffffffffffffff166126f1836117f2565b73ffffffffffffffffffffffffffffffffffffffff16145b5b90509392505050565b600080600090507a184f03e93ff9f4daa797ed6e38ed64bf6a1f0100000000000000008310612771577a184f03e93ff9f4daa797ed6e38ed64bf6a1f01000000000000000083816127675761276661388b565b5b0492506040810190505b6d04ee2d6d415b85acef810000000083106127ae576d04ee2d6d415b85acef810000000083816127a4576127a361388b565b5b0492506020810190505b662386f26fc1000083106127dd57662386f26fc1000083816127d3576127d261388b565b5b0492506010810190505b6305f5e1008310612806576305f5e10083816127fc576127fb61388b565b5b0492506008810190505b612710831061282b5761271083816128215761282061388b565b5b0492506004810190505b6064831061284e57606483816128445761284361388b565b5b0492506002810190505b600a831061285d576001810190505b80915050919050565b604051806080016040528060008152602001600073ffffffffffffffffffffffffffffffffffffffff168152602001600081526020016000151581525090565b6000604051905090565b600080fd5b600080fd5b60007fffffffff0000000000000000000000000000000000000000000000000000000082169050919050565b6128ef816128ba565b81146128fa57600080fd5b50565b60008135905061290c816128e6565b92915050565b600060208284031215612928576129276128b0565b5b6000612936848285016128fd565b91505092915050565b60008115159050919050565b6129548161293f565b82525050565b600060208201905061296f600083018461294b565b92915050565b600081519050919050565b600082825260208201905092915050565b60005b838110156129af578082015181840152602081019050612994565b60008484015250505050565b6000601f19601f8301169050919050565b60006129d782612975565b6129e18185612980565b93506129f1818560208601612991565b6129fa816129bb565b840191505092915050565b60006020820190508181036000830152612a1f81846129cc565b905092915050565b6000819050919050565b612a3a81612a27565b8114612a4557600080fd5b50565b600081359050612a5781612a31565b92915050565b600060208284031215612a7357612a726128b0565b5b6000612a8184828501612a48565b91505092915050565b600073ffffffffffffffffffffffffffffffffffffffff82169050919050565b6000612ab582612a8a565b9050919050565b612ac581612aaa565b82525050565b6000602082019050612ae06000830184612abc565b92915050565b600080fd5b600080fd5b7f4e487b7100000000000000000000000000000000000000000000000000000000600052604160045260246000fd5b612b28826129bb565b810181811067ffffffffffffffff82111715612b4757612b46612af0565b5b80604052505050565b6000612b5a6128a6565b9050612b668282612b1f565b919050565b600067ffffffffffffffff821115612b8657612b85612af0565b5b612b8f826129bb565b9050602081019050919050565b82818337600083830152505050565b6000612bbe612bb984612b6b565b612b50565b905082815260208101848484011115612bda57612bd9612aeb565b5b612be5848285612b9c565b509392505050565b600082601f830112612c0257612c01612ae6565b5b8135612c12848260208601612bab565b91505092915050565b600060208284031215612c3157612c306128b0565b5b600082013567ffffffffffffffff811115612c4f57612c4e6128b5565b5b612c5b84828501612bed565b91505092915050565b612c6d81612aaa565b8114612c7857600080fd5b50565b600081359050612c8a81612c64565b92915050565b60008060408385031215612ca757612ca66128b0565b5b6000612cb585828601612c7b565b9250506020612cc685828601612a48565b9150509250929050565b600080600060608486031215612ce957612ce86128b0565b5b6000612cf786828701612c7b565b9350506020612d0886828701612c7b565b9250506040612d1986828701612a48565b9150509250925092565b600081519050919050565b600082825260208201905092915050565b6000819050602082019050919050565b612d5881612a27565b82525050565b612d6781612aaa565b82525050565b612d768161293f565b82525050565b608082016000820151612d926000850182612d4f565b506020820151612da56020850182612d5e565b506040820151612db86040850182612d4f565b506060820151612dcb6060850182612d6d565b50505050565b6000612ddd8383612d7c565b60808301905092915050565b6000602082019050919050565b6000612e0182612d23565b612e0b8185612d2e565b9350612e1683612d3f565b8060005b83811015612e47578151612e2e8882612dd1565b9750612e3983612de9565b925050600181019050612e1a565b5085935050505092915050565b60006020820190508181036000830152612e6e8184612df6565b905092915050565b600060208284031215612e8c57612e8b6128b0565b5b6000612e9a84828501612c7b565b91505092915050565b612eac81612a27565b82525050565b6000602082019050612ec76000830184612ea3565b92915050565b6000608082019050612ee26000830187612ea3565b612eef6020830186612abc565b612efc6040830185612ea3565b612f09606083018461294b565b95945050505050565b60008060408385031215612f2957612f286128b0565b5b6000612f3785828601612a48565b9250506020612f4885828601612a48565b9150509250929050565b612f5b8161293f565b8114612f6657600080fd5b50565b600081359050612f7881612f52565b92915050565b60008060408385031215612f9557612f946128b0565b5b6000612fa385828601612c7b565b9250506020612fb485828601612f69565b9150509250929050565b600067ffffffffffffffff821115612fd957612fd8612af0565b5b612fe2826129bb565b9050602081019050919050565b6000613002612ffd84612fbe565b612b50565b90508281526020810184848401111561301e5761301d612aeb565b5b613029848285612b9c565b509392505050565b600082601f83011261304657613045612ae6565b5b8135613056848260208601612fef565b91505092915050565b60008060008060808587031215613079576130786128b0565b5b600061308787828801612c7b565b945050602061309887828801612c7b565b93505060406130a987828801612a48565b925050606085013567ffffffffffffffff8111156130ca576130c96128b5565b5b6130d687828801613031565b91505092959194509250565b600080604083850312156130f9576130f86128b0565b5b600061310785828601612c7b565b925050602061311885828601612c7b565b9150509250929050565b7f4e487b7100000000000000000000000000000000000000000000000000000000600052602260045260246000fd5b6000600282049050600182168061316957607f821691505b60208210810361317c5761317b613122565b5b50919050565b7f4e487b7100000000000000000000000000000000000000000000000000000000600052601160045260246000fd5b60006131bc82612a27565b91507fffffffffffffffffffffffffffffffffffffffffffffffffffffffffffffffff82036131ee576131ed613182565b5b600182019050919050565b600060608201905061320e6000830186612abc565b61321b6020830185612ea3565b6132286040830184612abc565b949350505050565b7f4e487b7100000000000000000000000000000000000000000000000000000000600052603260045260246000fd5b7f4e4654206973206e6f74206c697374656420666f722073616c65000000000000600082015250565b6000613295601a83612980565b91506132a08261325f565b602082019050919050565b600060208201905081810360008301526132c481613288565b9050919050565b7f4e6f7420656e6f7567682045544820746f20627579204e465400000000000000600082015250565b6000613301601983612980565b915061330c826132cb565b602082019050919050565b60006020820190508181036000830152613330816132f4565b9050919050565b7f596f7520617265206e6f7420746865206f776e65720000000000000000000000600082015250565b600061336d601583612980565b915061337882613337565b602082019050919050565b6000602082019050818103600083015261339c81613360565b9050919050565b7f5072696365206d7573742062652067726561746572207468616e207a65726f00600082015250565b60006133d9601f83612980565b91506133e4826133a3565b602082019050919050565b60006020820190508181036000830152613408816133cc565b9050919050565b600081905092915050565b600061342582612975565b61342f818561340f565b935061343f818560208601612991565b80840191505092915050565b6000613457828561341a565b9150613463828461341a565b91508190509392505050565b7f596f75206d75737420706179207468652065786163742067616d65206665652060008201527f746f207374617274000000000000000000000000000000000000000000000000602082015250565b60006134cb602883612980565b91506134d68261346f565b604082019050919050565b600060208201905081810360008301526134fa816134be565b9050919050565b60008190508160005260206000209050919050565b60006020601f8301049050919050565b600082821b905092915050565b6000600883026135637fffffffffffffffffffffffffffffffffffffffffffffffffffffffffffffffff82613526565b61356d8683613526565b95508019841693508086168417925050509392505050565b6000819050919050565b60006135aa6135a56135a084612a27565b613585565b612a27565b9050919050565b6000819050919050565b6135c48361358f565b6135d86135d0826135b1565b848454613533565b825550505050565b600090565b6135ed6135e0565b6135f88184846135bb565b505050565b5b8181101561361c576136116000826135e5565b6001810190506135fe565b5050565b601f8211156136615761363281613501565b61363b84613516565b8101602085101561364a578190505b61365e61365685613516565b8301826135fd565b50505b505050565b600082821c905092915050565b600061368460001984600802613666565b1980831691505092915050565b600061369d8383613673565b9150826002028217905092915050565b6136b682612975565b67ffffffffffffffff8111156136cf576136ce612af0565b5b6136d98254613151565b6136e4828285613620565b600060209050601f8311600181146137175760008415613705578287015190505b61370f8582613691565b865550613777565b601f19841661372586613501565b60005b8281101561374d57848901518255600182019150602085019450602081019050613728565b8683101561376a5784890151613766601f891682613673565b8355505b6001600288020188555050505b505050505050565b600081519050919050565b600082825260208201905092915050565b60006137a68261377f565b6137b0818561378a565b93506137c0818560208601612991565b6137c9816129bb565b840191505092915050565b60006080820190506137e96000830187612abc565b6137f66020830186612abc565b6138036040830185612ea3565b8181036060830152613815818461379b565b905095945050505050565b60008151905061382f816128e6565b92915050565b60006020828403121561384b5761384a6128b0565b5b600061385984828501613820565b91505092915050565b60006040820190506138776000830185612abc565b6138846020830184612ea3565b9392505050565b7f4e487b7100000000000000000000000000000000000000000000000000000000600052601260045260246000fdfea2646970667358221220f7df797dee2416e7148d3fd2b5a4b4a71cc615f11ca014299092ffaa1cf9c7ba64736f6c634300081b0033",
  "linkReferences": {},
  "deployedLinkReferences": {}
}