{
  "_format": "hh-sol-artifact-1",
  "contractName": "SudokuMarketplace",
  "sourceName": "contracts/SudokuMarketplace.sol",
  "abi": [
    {
      "inputs": [],
      "stateMutability": "nonpayable",
      "type": "constructor"
    },
    {
      "inputs": [
        {
          "internalType": "address",
          "name": "sender",
          "type": "address"
        },
        {
          "internalType": "uint256",
          "name": "tokenId",
          "type": "uint256"
        },
        {
          "internalType": "address",
          "name": "owner",
          "type": "address"
        }
      ],
      "name": "ERC721IncorrectOwner",
      "type": "error"
    },
    {
      "inputs": [
        {
          "internalType": "address",
          "name": "operator",
          "type": "address"
        },
        {
          "internalType": "uint256",
          "name": "tokenId",
          "type": "uint256"
        }
      ],
      "name": "ERC721InsufficientApproval",
      "type": "error"
    },
    {
      "inputs": [
        {
          "internalType": "address",
          "name": "approver",
          "type": "address"
        }
      ],
      "name": "ERC721InvalidApprover",
      "type": "error"
    },
    {
      "inputs": [
        {
          "internalType": "address",
          "name": "operator",
          "type": "address"
        }
      ],
      "name": "ERC721InvalidOperator",
      "type": "error"
    },
    {
      "inputs": [
        {
          "internalType": "address",
          "name": "owner",
          "type": "address"
        }
      ],
      "name": "ERC721InvalidOwner",
      "type": "error"
    },
    {
      "inputs": [
        {
          "internalType": "address",
          "name": "receiver",
          "type": "address"
        }
      ],
      "name": "ERC721InvalidReceiver",
      "type": "error"
    },
    {
      "inputs": [
        {
          "internalType": "address",
          "name": "sender",
          "type": "address"
        }
      ],
      "name": "ERC721InvalidSender",
      "type": "error"
    },
    {
      "inputs": [
        {
          "internalType": "uint256",
          "name": "tokenId",
          "type": "uint256"
        }
      ],
      "name": "ERC721NonexistentToken",
      "type": "error"
    },
    {
      "inputs": [
        {
          "internalType": "address",
          "name": "owner",
          "type": "address"
        }
      ],
      "name": "OwnableInvalidOwner",
      "type": "error"
    },
    {
      "inputs": [
        {
          "internalType": "address",
          "name": "account",
          "type": "address"
        }
      ],
      "name": "OwnableUnauthorizedAccount",
      "type": "error"
    },
    {
      "anonymous": false,
      "inputs": [
        {
          "indexed": true,
          "internalType": "address",
          "name": "owner",
          "type": "address"
        },
        {
          "indexed": true,
          "internalType": "address",
          "name": "approved",
          "type": "address"
        },
        {
          "indexed": true,
          "internalType": "uint256",
          "name": "tokenId",
          "type": "uint256"
        }
      ],
      "name": "Approval",
      "type": "event"
    },
    {
      "anonymous": false,
      "inputs": [
        {
          "indexed": true,
          "internalType": "address",
          "name": "owner",
          "type": "address"
        },
        {
          "indexed": true,
          "internalType": "address",
          "name": "operator",
          "type": "address"
        },
        {
          "indexed": false,
          "internalType": "bool",
          "name": "approved",
          "type": "bool"
        }
      ],
      "name": "ApprovalForAll",
      "type": "event"
    },
    {
      "anonymous": false,
      "inputs": [
        {
          "indexed": false,
          "internalType": "uint256",
          "name": "_fromTokenId",
          "type": "uint256"
        },
        {
          "indexed": false,
          "internalType": "uint256",
          "name": "_toTokenId",
          "type": "uint256"
        }
      ],
      "name": "BatchMetadataUpdate",
      "type": "event"
    },
    {
      "anonymous": false,
      "inputs": [
        {
          "indexed": true,
          "internalType": "uint256",
          "name": "tokenId",
          "type": "uint256"
        },
        {
          "indexed": true,
          "internalType": "address",
          "name": "buyer",
          "type": "address"
        }
      ],
      "name": "BuyNFT",
      "type": "event"
    },
    {
      "anonymous": false,
      "inputs": [
        {
          "indexed": true,
          "internalType": "uint256",
          "name": "tokenId",
          "type": "uint256"
        },
        {
          "indexed": false,
          "internalType": "uint256",
          "name": "price",
          "type": "uint256"
        }
      ],
      "name": "ListNFT",
      "type": "event"
    },
    {
      "anonymous": false,
      "inputs": [
        {
          "indexed": false,
          "internalType": "uint256",
          "name": "_tokenId",
          "type": "uint256"
        }
      ],
      "name": "MetadataUpdate",
      "type": "event"
    },
    {
      "anonymous": false,
      "inputs": [
        {
          "indexed": false,
          "internalType": "uint256",
          "name": "newMintFee",
          "type": "uint256"
        }
      ],
      "name": "MintFeeChanged",
      "type": "event"
    },
    {
      "anonymous": false,
      "inputs": [
        {
          "indexed": true,
          "internalType": "address",
          "name": "owner",
          "type": "address"
        },
        {
          "indexed": true,
          "internalType": "uint256",
          "name": "tokenId",
          "type": "uint256"
        },
        {
          "indexed": false,
          "internalType": "string",
          "name": "tokenURI",
          "type": "string"
        }
      ],
      "name": "MintNFT",
      "type": "event"
    },
    {
      "anonymous": false,
      "inputs": [
        {
          "indexed": true,
          "internalType": "address",
          "name": "previousOwner",
          "type": "address"
        },
        {
          "indexed": true,
          "internalType": "address",
          "name": "newOwner",
          "type": "address"
        }
      ],
      "name": "OwnershipTransferred",
      "type": "event"
    },
    {
      "anonymous": false,
      "inputs": [
        {
          "indexed": true,
          "internalType": "address",
          "name": "from",
          "type": "address"
        },
        {
          "indexed": true,
          "internalType": "address",
          "name": "to",
          "type": "address"
        },
        {
          "indexed": true,
          "internalType": "uint256",
          "name": "tokenId",
          "type": "uint256"
        }
      ],
      "name": "Transfer",
      "type": "event"
    },
    {
      "inputs": [
        {
          "internalType": "address",
          "name": "to",
          "type": "address"
        },
        {
          "internalType": "uint256",
          "name": "tokenId",
          "type": "uint256"
        }
      ],
      "name": "approve",
      "outputs": [],
      "stateMutability": "nonpayable",
      "type": "function"
    },
    {
      "inputs": [
        {
          "internalType": "address",
          "name": "owner",
          "type": "address"
        }
      ],
      "name": "balanceOf",
      "outputs": [
        {
          "internalType": "uint256",
          "name": "",
          "type": "uint256"
        }
      ],
      "stateMutability": "view",
      "type": "function"
    },
    {
      "inputs": [
        {
          "internalType": "uint256",
          "name": "tokenId",
          "type": "uint256"
        }
      ],
      "name": "buyNFT",
      "outputs": [],
      "stateMutability": "payable",
      "type": "function"
    },
    {
      "inputs": [],
      "name": "getAllListedNFTs",
      "outputs": [
        {
          "components": [
            {
              "internalType": "uint256",
              "name": "tokenId",
              "type": "uint256"
            },
            {
              "internalType": "address",
              "name": "owner",
              "type": "address"
            },
            {
              "internalType": "uint256",
              "name": "price",
              "type": "uint256"
            },
            {
              "internalType": "bool",
              "name": "isListed",
              "type": "bool"
            }
          ],
          "internalType": "struct SudokuMarketplace.NFTItem[]",
          "name": "",
          "type": "tuple[]"
        }
      ],
      "stateMutability": "view",
      "type": "function"
    },
    {
      "inputs": [
        {
          "internalType": "uint256",
          "name": "tokenId",
          "type": "uint256"
        }
      ],
      "name": "getApproved",
      "outputs": [
        {
          "internalType": "address",
          "name": "",
          "type": "address"
        }
      ],
      "stateMutability": "view",
      "type": "function"
    },
    {
      "inputs": [],
      "name": "getMintFee",
      "outputs": [
        {
          "internalType": "uint256",
          "name": "",
          "type": "uint256"
        }
      ],
      "stateMutability": "view",
      "type": "function"
    },
    {
      "inputs": [
        {
          "internalType": "uint256",
          "name": "tokenId",
          "type": "uint256"
        }
      ],
      "name": "getNFTById",
      "outputs": [
        {
          "components": [
            {
              "internalType": "uint256",
              "name": "tokenId",
              "type": "uint256"
            },
            {
              "internalType": "address",
              "name": "owner",
              "type": "address"
            },
            {
              "internalType": "uint256",
              "name": "price",
              "type": "uint256"
            },
            {
              "internalType": "bool",
              "name": "isListed",
              "type": "bool"
            }
          ],
          "internalType": "struct SudokuMarketplace.NFTItem",
          "name": "",
          "type": "tuple"
        }
      ],
      "stateMutability": "view",
      "type": "function"
    },
    {
      "inputs": [
        {
          "internalType": "address",
          "name": "user",
          "type": "address"
        }
      ],
      "name": "getUserNFTs",
      "outputs": [
        {
          "components": [
            {
              "internalType": "uint256",
              "name": "tokenId",
              "type": "uint256"
            },
            {
              "internalType": "address",
              "name": "owner",
              "type": "address"
            },
            {
              "internalType": "uint256",
              "name": "price",
              "type": "uint256"
            },
            {
              "internalType": "bool",
              "name": "isListed",
              "type": "bool"
            }
          ],
          "internalType": "struct SudokuMarketplace.NFTItem[]",
          "name": "",
          "type": "tuple[]"
        }
      ],
      "stateMutability": "view",
      "type": "function"
    },
    {
      "inputs": [
        {
          "internalType": "address",
          "name": "owner",
          "type": "address"
        },
        {
          "internalType": "address",
          "name": "operator",
          "type": "address"
        }
      ],
      "name": "isApprovedForAll",
      "outputs": [
        {
          "internalType": "bool",
          "name": "",
          "type": "bool"
        }
      ],
      "stateMutability": "view",
      "type": "function"
    },
    {
      "inputs": [
        {
          "internalType": "uint256",
          "name": "tokenId",
          "type": "uint256"
        },
        {
          "internalType": "uint256",
          "name": "price",
          "type": "uint256"
        }
      ],
      "name": "listNFT",
      "outputs": [],
      "stateMutability": "nonpayable",
      "type": "function"
    },
    {
      "inputs": [],
      "name": "mintFee",
      "outputs": [
        {
          "internalType": "uint256",
          "name": "",
          "type": "uint256"
        }
      ],
      "stateMutability": "view",
      "type": "function"
    },
    {
      "inputs": [
        {
          "internalType": "string",
          "name": "tokenURI",
          "type": "string"
        }
      ],
      "name": "mintNFT",
      "outputs": [],
      "stateMutability": "payable",
      "type": "function"
    },
    {
      "inputs": [],
      "name": "name",
      "outputs": [
        {
          "internalType": "string",
          "name": "",
          "type": "string"
        }
      ],
      "stateMutability": "view",
      "type": "function"
    },
    {
      "inputs": [],
      "name": "nextTokenId",
      "outputs": [
        {
          "internalType": "uint256",
          "name": "",
          "type": "uint256"
        }
      ],
      "stateMutability": "view",
      "type": "function"
    },
    {
      "inputs": [
        {
          "internalType": "uint256",
          "name": "",
          "type": "uint256"
        }
      ],
      "name": "nftItems",
      "outputs": [
        {
          "internalType": "uint256",
          "name": "tokenId",
          "type": "uint256"
        },
        {
          "internalType": "address",
          "name": "owner",
          "type": "address"
        },
        {
          "internalType": "uint256",
          "name": "price",
          "type": "uint256"
        },
        {
          "internalType": "bool",
          "name": "isListed",
          "type": "bool"
        }
      ],
      "stateMutability": "view",
      "type": "function"
    },
    {
      "inputs": [],
      "name": "owner",
      "outputs": [
        {
          "internalType": "address",
          "name": "",
          "type": "address"
        }
      ],
      "stateMutability": "view",
      "type": "function"
    },
    {
      "inputs": [
        {
          "internalType": "uint256",
          "name": "tokenId",
          "type": "uint256"
        }
      ],
      "name": "ownerOf",
      "outputs": [
        {
          "internalType": "address",
          "name": "",
          "type": "address"
        }
      ],
      "stateMutability": "view",
      "type": "function"
    },
    {
      "inputs": [],
      "name": "renounceOwnership",
      "outputs": [],
      "stateMutability": "nonpayable",
      "type": "function"
    },
    {
      "inputs": [
        {
          "internalType": "address",
          "name": "from",
          "type": "address"
        },
        {
          "internalType": "address",
          "name": "to",
          "type": "address"
        },
        {
          "internalType": "uint256",
          "name": "tokenId",
          "type": "uint256"
        }
      ],
      "name": "safeTransferFrom",
      "outputs": [],
      "stateMutability": "nonpayable",
      "type": "function"
    },
    {
      "inputs": [
        {
          "internalType": "address",
          "name": "from",
          "type": "address"
        },
        {
          "internalType": "address",
          "name": "to",
          "type": "address"
        },
        {
          "internalType": "uint256",
          "name": "tokenId",
          "type": "uint256"
        },
        {
          "internalType": "bytes",
          "name": "data",
          "type": "bytes"
        }
      ],
      "name": "safeTransferFrom",
      "outputs": [],
      "stateMutability": "nonpayable",
      "type": "function"
    },
    {
      "inputs": [
        {
          "internalType": "address",
          "name": "operator",
          "type": "address"
        },
        {
          "internalType": "bool",
          "name": "approved",
          "type": "bool"
        }
      ],
      "name": "setApprovalForAll",
      "outputs": [],
      "stateMutability": "nonpayable",
      "type": "function"
    },
    {
      "inputs": [
        {
          "internalType": "uint256",
          "name": "newMintFee",
          "type": "uint256"
        }
      ],
      "name": "setMintFee",
      "outputs": [],
      "stateMutability": "nonpayable",
      "type": "function"
    },
    {
      "inputs": [
        {
          "internalType": "bytes4",
          "name": "interfaceId",
          "type": "bytes4"
        }
      ],
      "name": "supportsInterface",
      "outputs": [
        {
          "internalType": "bool",
          "name": "",
          "type": "bool"
        }
      ],
      "stateMutability": "view",
      "type": "function"
    },
    {
      "inputs": [],
      "name": "symbol",
      "outputs": [
        {
          "internalType": "string",
          "name": "",
          "type": "string"
        }
      ],
      "stateMutability": "view",
      "type": "function"
    },
    {
      "inputs": [
        {
          "internalType": "uint256",
          "name": "tokenId",
          "type": "uint256"
        }
      ],
      "name": "tokenURI",
      "outputs": [
        {
          "internalType": "string",
          "name": "",
          "type": "string"
        }
      ],
      "stateMutability": "view",
      "type": "function"
    },
    {
      "inputs": [
        {
          "internalType": "address",
          "name": "from",
          "type": "address"
        },
        {
          "internalType": "address",
          "name": "to",
          "type": "address"
        },
        {
          "internalType": "uint256",
          "name": "tokenId",
          "type": "uint256"
        }
      ],
      "name": "transferFrom",
      "outputs": [],
      "stateMutability": "nonpayable",
      "type": "function"
    },
    {
      "inputs": [
        {
          "internalType": "address",
          "name": "newOwner",
          "type": "address"
        }
      ],
      "name": "transferOwnership",
      "outputs": [],
      "stateMutability": "nonpayable",
      "type": "function"
    },
    {
      "inputs": [],
      "name": "withdrawFunds",
      "outputs": [],
      "stateMutability": "nonpayable",
      "type": "function"
    }
  ],
  "bytecode": "0x608060405266038d7ea4c6800060095534801561001b57600080fd5b50336040518060400160405280600981526020017f5375646f6b754e465400000000000000000000000000000000000000000000008152506040518060400160405280600481526020017f5355444f0000000000000000000000000000000000000000000000000000000081525081600090816100989190610448565b5080600190816100a89190610448565b505050600073ffffffffffffffffffffffffffffffffffffffff168173ffffffffffffffffffffffffffffffffffffffff160361011d5760006040517f1e4fbdf7000000000000000000000000000000000000000000000000000000008152600401610114919061055b565b60405180910390fd5b61012c8161013260201b60201c565b50610576565b6000600760009054906101000a900473ffffffffffffffffffffffffffffffffffffffff16905081600760006101000a81548173ffffffffffffffffffffffffffffffffffffffff021916908373ffffffffffffffffffffffffffffffffffffffff1602179055508173ffffffffffffffffffffffffffffffffffffffff168173ffffffffffffffffffffffffffffffffffffffff167f8be0079c531659141344cd1fd0a4f28419497f9722a3daafe3b4186f6b6457e060405160405180910390a35050565b600081519050919050565b7f4e487b7100000000000000000000000000000000000000000000000000000000600052604160045260246000fd5b7f4e487b7100000000000000000000000000000000000000000000000000000000600052602260045260246000fd5b6000600282049050600182168061027957607f821691505b60208210810361028c5761028b610232565b5b50919050565b60008190508160005260206000209050919050565b60006020601f8301049050919050565b600082821b905092915050565b6000600883026102f47fffffffffffffffffffffffffffffffffffffffffffffffffffffffffffffffff826102b7565b6102fe86836102b7565b95508019841693508086168417925050509392505050565b6000819050919050565b6000819050919050565b600061034561034061033b84610316565b610320565b610316565b9050919050565b6000819050919050565b61035f8361032a565b61037361036b8261034c565b8484546102c4565b825550505050565b600090565b61038861037b565b610393818484610356565b505050565b5b818110156103b7576103ac600082610380565b600181019050610399565b5050565b601f8211156103fc576103cd81610292565b6103d6846102a7565b810160208510156103e5578190505b6103f96103f1856102a7565b830182610398565b50505b505050565b600082821c905092915050565b600061041f60001984600802610401565b1980831691505092915050565b6000610438838361040e565b9150826002028217905092915050565b610451826101f8565b67ffffffffffffffff81111561046a57610469610203565b5b6104748254610261565b61047f8282856103bb565b600060209050601f8311600181146104b257600084156104a0578287015190505b6104aa858261042c565b865550610512565b601f1984166104c086610292565b60005b828110156104e8578489015182556001820191506020850194506020810190506104c3565b868310156105055784890151610501601f89168261040e565b8355505b6001600288020188555050505b505050505050565b600073ffffffffffffffffffffffffffffffffffffffff82169050919050565b60006105458261051a565b9050919050565b6105558161053a565b82525050565b6000602082019050610570600083018461054c565b92915050565b613ab1806105856000396000f3fe6080604052600436106101b75760003560e01c8063715018a6116100ec578063a22cb4651161008a578063e985e9c511610064578063e985e9c514610614578063eddd0d9c14610651578063f2fde38b1461067a578063fb37e883146106a3576101b7565b8063a22cb46514610585578063b88d4fde146105ae578063c87b56dd146105d7576101b7565b80638da5cb5b116100c65780638da5cb5b146104c957806394383f14146104f457806395d89b411461051d578063a168b80514610548576101b7565b8063715018a61461045c57806375794a3c146104735780637a5caab31461049e576101b7565b806342842e0e1161015957806352de4ee51161013357806352de4ee51461036557806362821396146103a25780636352211e146103e257806370a082311461041f576101b7565b806342842e0e146102f55780634b58ffaa1461031e57806351ed828814610349576101b7565b8063095ea7b311610195578063095ea7b31461026157806313966db51461028a57806323b872dd146102b557806324600fc3146102de576101b7565b806301ffc9a7146101bc57806306fdde03146101f9578063081812fc14610224575b600080fd5b3480156101c857600080fd5b506101e360048036038101906101de9190612a1d565b6106bf565b6040516101f09190612a65565b60405180910390f35b34801561020557600080fd5b5061020e610720565b60405161021b9190612b10565b60405180910390f35b34801561023057600080fd5b5061024b60048036038101906102469190612b68565b6107b2565b6040516102589190612bd6565b60405180910390f35b34801561026d57600080fd5b5061028860048036038101906102839190612c1d565b6107ce565b005b34801561029657600080fd5b5061029f6107e4565b6040516102ac9190612c6c565b60405180910390f35b3480156102c157600080fd5b506102dc60048036038101906102d79190612c87565b6107ea565b005b3480156102ea57600080fd5b506102f36108ec565b005b34801561030157600080fd5b5061031c60048036038101906103179190612c87565b610944565b005b34801561032a57600080fd5b50610333610964565b6040516103409190612e0b565b60405180910390f35b610363600480360381019061035e9190612b68565b610b3c565b005b34801561037157600080fd5b5061038c60048036038101906103879190612e2d565b610d13565b6040516103999190612e0b565b60405180910390f35b3480156103ae57600080fd5b506103c960048036038101906103c49190612b68565b610eda565b6040516103d99493929190612e5a565b60405180910390f35b3480156103ee57600080fd5b5061040960048036038101906104049190612b68565b610f37565b6040516104169190612bd6565b60405180910390f35b34801561042b57600080fd5b5061044660048036038101906104419190612e2d565b610f49565b6040516104539190612c6c565b60405180910390f35b34801561046857600080fd5b50610471611003565b005b34801561047f57600080fd5b50610488611017565b6040516104959190612c6c565b60405180910390f35b3480156104aa57600080fd5b506104b361101d565b6040516104c09190612c6c565b60405180910390f35b3480156104d557600080fd5b506104de611027565b6040516104eb9190612bd6565b60405180910390f35b34801561050057600080fd5b5061051b60048036038101906105169190612e9f565b611051565b005b34801561052957600080fd5b50610532611190565b60405161053f9190612b10565b60405180910390f35b34801561055457600080fd5b5061056f600480360381019061056a9190612b68565b611222565b60405161057c9190612f34565b60405180910390f35b34801561059157600080fd5b506105ac60048036038101906105a79190612f7b565b61134b565b005b3480156105ba57600080fd5b506105d560048036038101906105d091906130f0565b611361565b005b3480156105e357600080fd5b506105fe60048036038101906105f99190612b68565b611386565b60405161060b9190612b10565b60405180910390f35b34801561062057600080fd5b5061063b60048036038101906106369190613173565b611499565b6040516106489190612a65565b60405180910390f35b34801561065d57600080fd5b5061067860048036038101906106739190612b68565b61152d565b005b34801561068657600080fd5b506106a1600480360381019061069c9190612e2d565b611576565b005b6106bd60048036038101906106b89190613254565b6115fc565b005b6000634906490660e01b7bffffffffffffffffffffffffffffffffffffffffffffffffffffffff1916827bffffffffffffffffffffffffffffffffffffffffffffffffffffffff19161480610719575061071882611793565b5b9050919050565b60606000805461072f906132cc565b80601f016020809104026020016040519081016040528092919081815260200182805461075b906132cc565b80156107a85780601f1061077d576101008083540402835291602001916107a8565b820191906000526020600020905b81548152906001019060200180831161078b57829003601f168201915b5050505050905090565b60006107bd82611875565b506107c7826118fd565b9050919050565b6107e082826107db61193a565b611942565b5050565b60095481565b600073ffffffffffffffffffffffffffffffffffffffff168273ffffffffffffffffffffffffffffffffffffffff160361085c5760006040517f64a0ae920000000000000000000000000000000000000000000000000000000081526004016108539190612bd6565b60405180910390fd5b6000610870838361086b61193a565b611954565b90508373ffffffffffffffffffffffffffffffffffffffff168173ffffffffffffffffffffffffffffffffffffffff16146108e6578382826040517f64283d7b0000000000000000000000000000000000000000000000000000000081526004016108dd939291906132fd565b60405180910390fd5b50505050565b6108f4611b6e565b6108fc611027565b73ffffffffffffffffffffffffffffffffffffffff166108fc479081150290604051600060405180830381858888f19350505050158015610941573d6000803e3d6000fd5b50565b61095f83838360405180602001604052806000815250611361565b505050565b606060006008549050600080600090505b828110156109c257600a600082815260200190815260200160002060030160009054906101000a900460ff16156109b55781806109b190613363565b9250505b8080600101915050610975565b5060008167ffffffffffffffff8111156109df576109de612fc5565b5b604051908082528060200260200182016040528015610a1857816020015b610a05612971565b8152602001906001900390816109fd5790505b509050600080600090505b84811015610b3157600a600082815260200190815260200160002060030160009054906101000a900460ff1615610b2457600a6000828152602001908152602001600020604051806080016040529081600082015481526020016001820160009054906101000a900473ffffffffffffffffffffffffffffffffffffffff1673ffffffffffffffffffffffffffffffffffffffff1673ffffffffffffffffffffffffffffffffffffffff168152602001600282015481526020016003820160009054906101000a900460ff161515151581525050838381518110610b0a57610b096133ab565b5b60200260200101819052508180610b2090613363565b9250505b8080600101915050610a23565b508194505050505090565b6000600a600083815260200190815260200160002090508060030160009054906101000a900460ff16610ba4576040517f08c379a0000000000000000000000000000000000000000000000000000000008152600401610b9b90613426565b60405180910390fd5b8060020154341015610beb576040517f08c379a0000000000000000000000000000000000000000000000000000000008152600401610be290613492565b60405180910390fd5b60008160010160009054906101000a900473ffffffffffffffffffffffffffffffffffffffff169050338260010160006101000a81548173ffffffffffffffffffffffffffffffffffffffff021916908373ffffffffffffffffffffffffffffffffffffffff16021790555060008260030160006101000a81548160ff021916908315150217905550610c7f813385611bf5565b8073ffffffffffffffffffffffffffffffffffffffff166108fc83600201549081150290604051600060405180830381858888f19350505050158015610cc9573d6000803e3d6000fd5b503373ffffffffffffffffffffffffffffffffffffffff16837f079fc0f01dc38ba287c48d683564d13539db09719cb3532fee3c1b1b61bbcf9560405160405180910390a3505050565b60606000610d2083610f49565b90506000808267ffffffffffffffff811115610d3f57610d3e612fc5565b5b604051908082528060200260200182016040528015610d7857816020015b610d65612971565b815260200190600190039081610d5d5790505b50905060005b600854811015610ece578573ffffffffffffffffffffffffffffffffffffffff16600a600083815260200190815260200160002060010160009054906101000a900473ffffffffffffffffffffffffffffffffffffffff1673ffffffffffffffffffffffffffffffffffffffff1603610ec157600a6000828152602001908152602001600020604051806080016040529081600082015481526020016001820160009054906101000a900473ffffffffffffffffffffffffffffffffffffffff1673ffffffffffffffffffffffffffffffffffffffff1673ffffffffffffffffffffffffffffffffffffffff168152602001600282015481526020016003820160009054906101000a900460ff161515151581525050828481518110610ea757610ea66133ab565b5b60200260200101819052508280610ebd90613363565b9350505b8080600101915050610d7e565b50809350505050919050565b600a6020528060005260406000206000915090508060000154908060010160009054906101000a900473ffffffffffffffffffffffffffffffffffffffff16908060020154908060030160009054906101000a900460ff16905084565b6000610f4282611875565b9050919050565b60008073ffffffffffffffffffffffffffffffffffffffff168273ffffffffffffffffffffffffffffffffffffffff1603610fbc5760006040517f89c62b64000000000000000000000000000000000000000000000000000000008152600401610fb39190612bd6565b60405180910390fd5b600360008373ffffffffffffffffffffffffffffffffffffffff1673ffffffffffffffffffffffffffffffffffffffff168152602001908152602001600020549050919050565b61100b611b6e565b6110156000611d62565b565b60085481565b6000600954905090565b6000600760009054906101000a900473ffffffffffffffffffffffffffffffffffffffff16905090565b3373ffffffffffffffffffffffffffffffffffffffff1661107183610f37565b73ffffffffffffffffffffffffffffffffffffffff16146110c7576040517f08c379a00000000000000000000000000000000000000000000000000000000081526004016110be906134fe565b60405180910390fd5b6000811161110a576040517f08c379a00000000000000000000000000000000000000000000000000000000081526004016111019061356a565b60405180910390fd5b80600a6000848152602001908152602001600020600201819055506001600a600084815260200190815260200160002060030160006101000a81548160ff021916908315150217905550817fadc2524c8f93616be9bad3bcab121a8de2a297699e78d4762481efcd6d26a926826040516111849190612c6c565b60405180910390a25050565b60606001805461119f906132cc565b80601f01602080910402602001604051908101604052809291908181526020018280546111cb906132cc565b80156112185780601f106111ed57610100808354040283529160200191611218565b820191906000526020600020905b8154815290600101906020018083116111fb57829003601f168201915b5050505050905090565b61122a612971565b600073ffffffffffffffffffffffffffffffffffffffff1661124b83610f37565b73ffffffffffffffffffffffffffffffffffffffff16036112a1576040517f08c379a0000000000000000000000000000000000000000000000000000000008152600401611298906135d6565b60405180910390fd5b600a6000838152602001908152602001600020604051806080016040529081600082015481526020016001820160009054906101000a900473ffffffffffffffffffffffffffffffffffffffff1673ffffffffffffffffffffffffffffffffffffffff1673ffffffffffffffffffffffffffffffffffffffff168152602001600282015481526020016003820160009054906101000a900460ff1615151515815250509050919050565b61135d61135661193a565b8383611e28565b5050565b61136c8484846107ea565b61138061137761193a565b85858585611f97565b50505050565b606061139182611875565b5060006006600084815260200190815260200160002080546113b2906132cc565b80601f01602080910402602001604051908101604052809291908181526020018280546113de906132cc565b801561142b5780601f106114005761010080835404028352916020019161142b565b820191906000526020600020905b81548152906001019060200180831161140e57829003601f168201915b50505050509050600061143c612148565b90506000815103611451578192505050611494565b60008251111561148657808260405160200161146e929190613632565b60405160208183030381529060405292505050611494565b61148f8461215f565b925050505b919050565b6000600560008473ffffffffffffffffffffffffffffffffffffffff1673ffffffffffffffffffffffffffffffffffffffff16815260200190815260200160002060008373ffffffffffffffffffffffffffffffffffffffff1673ffffffffffffffffffffffffffffffffffffffff16815260200190815260200160002060009054906101000a900460ff16905092915050565b611535611b6e565b806009819055507fe427e272b122e738fd867ac5defcedb2bc9362341166a49d793d8b230f75670c8160405161156b9190612c6c565b60405180910390a150565b61157e611b6e565b600073ffffffffffffffffffffffffffffffffffffffff168173ffffffffffffffffffffffffffffffffffffffff16036115f05760006040517f1e4fbdf70000000000000000000000000000000000000000000000000000000081526004016115e79190612bd6565b60405180910390fd5b6115f981611d62565b50565b600954341015611641576040517f08c379a0000000000000000000000000000000000000000000000000000000008152600401611638906136a2565b60405180910390fd5b600060085490506008600081548092919061165b90613363565b919050555061166a33826121c8565b61167481836121e6565b60405180608001604052808281526020013373ffffffffffffffffffffffffffffffffffffffff1681526020016000815260200160001515815250600a60008381526020019081526020016000206000820151816000015560208201518160010160006101000a81548173ffffffffffffffffffffffffffffffffffffffff021916908373ffffffffffffffffffffffffffffffffffffffff1602179055506040820151816002015560608201518160030160006101000a81548160ff021916908315150217905550905050803373ffffffffffffffffffffffffffffffffffffffff167f86094769a8d8b54a575d56650097d483bd4ecdeb3c8dd7ac9ac20df1e0d5ae03846040516117879190612b10565b60405180910390a35050565b60007f80ac58cd000000000000000000000000000000000000000000000000000000007bffffffffffffffffffffffffffffffffffffffffffffffffffffffff1916827bffffffffffffffffffffffffffffffffffffffffffffffffffffffff1916148061185e57507f5b5e139f000000000000000000000000000000000000000000000000000000007bffffffffffffffffffffffffffffffffffffffffffffffffffffffff1916827bffffffffffffffffffffffffffffffffffffffffffffffffffffffff1916145b8061186e575061186d82612242565b5b9050919050565b600080611881836122ac565b9050600073ffffffffffffffffffffffffffffffffffffffff168173ffffffffffffffffffffffffffffffffffffffff16036118f457826040517f7e2732890000000000000000000000000000000000000000000000000000000081526004016118eb9190612c6c565b60405180910390fd5b80915050919050565b60006004600083815260200190815260200160002060009054906101000a900473ffffffffffffffffffffffffffffffffffffffff169050919050565b600033905090565b61194f83838360016122e9565b505050565b600080611960846122ac565b9050600073ffffffffffffffffffffffffffffffffffffffff168373ffffffffffffffffffffffffffffffffffffffff16146119a2576119a18184866124ae565b5b600073ffffffffffffffffffffffffffffffffffffffff168173ffffffffffffffffffffffffffffffffffffffff1614611a33576119e46000856000806122e9565b6001600360008373ffffffffffffffffffffffffffffffffffffffff1673ffffffffffffffffffffffffffffffffffffffff168152602001908152602001600020600082825403925050819055505b600073ffffffffffffffffffffffffffffffffffffffff168573ffffffffffffffffffffffffffffffffffffffff1614611ab6576001600360008773ffffffffffffffffffffffffffffffffffffffff1673ffffffffffffffffffffffffffffffffffffffff168152602001908152602001600020600082825401925050819055505b846002600086815260200190815260200160002060006101000a81548173ffffffffffffffffffffffffffffffffffffffff021916908373ffffffffffffffffffffffffffffffffffffffff160217905550838573ffffffffffffffffffffffffffffffffffffffff168273ffffffffffffffffffffffffffffffffffffffff167fddf252ad1be2c89b69c2b068fc378daa952ba7f163c4a11628f55a4df523b3ef60405160405180910390a4809150509392505050565b611b7661193a565b73ffffffffffffffffffffffffffffffffffffffff16611b94611027565b73ffffffffffffffffffffffffffffffffffffffff1614611bf357611bb761193a565b6040517f118cdaa7000000000000000000000000000000000000000000000000000000008152600401611bea9190612bd6565b60405180910390fd5b565b600073ffffffffffffffffffffffffffffffffffffffff168273ffffffffffffffffffffffffffffffffffffffff1603611c675760006040517f64a0ae92000000000000000000000000000000000000000000000000000000008152600401611c5e9190612bd6565b60405180910390fd5b6000611c7583836000611954565b9050600073ffffffffffffffffffffffffffffffffffffffff168173ffffffffffffffffffffffffffffffffffffffff1603611ce857816040517f7e273289000000000000000000000000000000000000000000000000000000008152600401611cdf9190612c6c565b60405180910390fd5b8373ffffffffffffffffffffffffffffffffffffffff168173ffffffffffffffffffffffffffffffffffffffff1614611d5c578382826040517f64283d7b000000000000000000000000000000000000000000000000000000008152600401611d53939291906132fd565b60405180910390fd5b50505050565b6000600760009054906101000a900473ffffffffffffffffffffffffffffffffffffffff16905081600760006101000a81548173ffffffffffffffffffffffffffffffffffffffff021916908373ffffffffffffffffffffffffffffffffffffffff1602179055508173ffffffffffffffffffffffffffffffffffffffff168173ffffffffffffffffffffffffffffffffffffffff167f8be0079c531659141344cd1fd0a4f28419497f9722a3daafe3b4186f6b6457e060405160405180910390a35050565b600073ffffffffffffffffffffffffffffffffffffffff168273ffffffffffffffffffffffffffffffffffffffff1603611e9957816040517f5b08ba18000000000000000000000000000000000000000000000000000000008152600401611e909190612bd6565b60405180910390fd5b80600560008573ffffffffffffffffffffffffffffffffffffffff1673ffffffffffffffffffffffffffffffffffffffff16815260200190815260200160002060008473ffffffffffffffffffffffffffffffffffffffff1673ffffffffffffffffffffffffffffffffffffffff16815260200190815260200160002060006101000a81548160ff0219169083151502179055508173ffffffffffffffffffffffffffffffffffffffff168373ffffffffffffffffffffffffffffffffffffffff167f17307eab39ab6107e8899845ad3d59bd9653f200f220920489ca2b5937696c3183604051611f8a9190612a65565b60405180910390a3505050565b60008373ffffffffffffffffffffffffffffffffffffffff163b1115612141578273ffffffffffffffffffffffffffffffffffffffff1663150b7a02868685856040518563ffffffff1660e01b8152600401611ff69493929190613717565b6020604051808303816000875af192505050801561203257506040513d601f19601f8201168201806040525081019061202f9190613778565b60015b6120b6573d8060008114612062576040519150601f19603f3d011682016040523d82523d6000602084013e612067565b606091505b5060008151036120ae57836040517f64a0ae920000000000000000000000000000000000000000000000000000000081526004016120a59190612bd6565b60405180910390fd5b805181602001fd5b63150b7a0260e01b7bffffffffffffffffffffffffffffffffffffffffffffffffffffffff1916817bffffffffffffffffffffffffffffffffffffffffffffffffffffffff19161461213f57836040517f64a0ae920000000000000000000000000000000000000000000000000000000081526004016121369190612bd6565b60405180910390fd5b505b5050505050565b606060405180602001604052806000815250905090565b606061216a82611875565b506000612175612148565b9050600081511161219557604051806020016040528060008152506121c0565b8061219f84612572565b6040516020016121b0929190613632565b6040516020818303038152906040525b915050919050565b6121e2828260405180602001604052806000815250612640565b5050565b806006600084815260200190815260200160002090816122069190613951565b507ff8e1a15aba9398e019f0b49df1a4fde98ee17ae345cb5f6b5e2c27f5033e8ce7826040516122369190612c6c565b60405180910390a15050565b60007f01ffc9a7000000000000000000000000000000000000000000000000000000007bffffffffffffffffffffffffffffffffffffffffffffffffffffffff1916827bffffffffffffffffffffffffffffffffffffffffffffffffffffffff1916149050919050565b60006002600083815260200190815260200160002060009054906101000a900473ffffffffffffffffffffffffffffffffffffffff169050919050565b80806123225750600073ffffffffffffffffffffffffffffffffffffffff168273ffffffffffffffffffffffffffffffffffffffff1614155b1561245657600061233284611875565b9050600073ffffffffffffffffffffffffffffffffffffffff168373ffffffffffffffffffffffffffffffffffffffff161415801561239d57508273ffffffffffffffffffffffffffffffffffffffff168173ffffffffffffffffffffffffffffffffffffffff1614155b80156123b057506123ae8184611499565b155b156123f257826040517fa9fbf51f0000000000000000000000000000000000000000000000000000000081526004016123e99190612bd6565b60405180910390fd5b811561245457838573ffffffffffffffffffffffffffffffffffffffff168273ffffffffffffffffffffffffffffffffffffffff167f8c5be1e5ebec7d5bd14f71427d1e84f3dd0314c0f7b2291e5b200ac8c7c3b92560405160405180910390a45b505b836004600085815260200190815260200160002060006101000a81548173ffffffffffffffffffffffffffffffffffffffff021916908373ffffffffffffffffffffffffffffffffffffffff16021790555050505050565b6124b9838383612664565b61256d57600073ffffffffffffffffffffffffffffffffffffffff168373ffffffffffffffffffffffffffffffffffffffff160361252e57806040517f7e2732890000000000000000000000000000000000000000000000000000000081526004016125259190612c6c565b60405180910390fd5b81816040517f177e802f000000000000000000000000000000000000000000000000000000008152600401612564929190613a23565b60405180910390fd5b505050565b60606000600161258184612725565b01905060008167ffffffffffffffff8111156125a05761259f612fc5565b5b6040519080825280601f01601f1916602001820160405280156125d25781602001600182028036833780820191505090505b509050600082602001820190505b600115612635578080600190039150507f3031323334353637383961626364656600000000000000000000000000000000600a86061a8153600a858161262957612628613a4c565b5b049450600085036125e0575b819350505050919050565b61264a8383612878565b61265f61265561193a565b6000858585611f97565b505050565b60008073ffffffffffffffffffffffffffffffffffffffff168373ffffffffffffffffffffffffffffffffffffffff161415801561271c57508273ffffffffffffffffffffffffffffffffffffffff168473ffffffffffffffffffffffffffffffffffffffff1614806126dd57506126dc8484611499565b5b8061271b57508273ffffffffffffffffffffffffffffffffffffffff16612703836118fd565b73ffffffffffffffffffffffffffffffffffffffff16145b5b90509392505050565b600080600090507a184f03e93ff9f4daa797ed6e38ed64bf6a1f0100000000000000008310612783577a184f03e93ff9f4daa797ed6e38ed64bf6a1f010000000000000000838161277957612778613a4c565b5b0492506040810190505b6d04ee2d6d415b85acef810000000083106127c0576d04ee2d6d415b85acef810000000083816127b6576127b5613a4c565b5b0492506020810190505b662386f26fc1000083106127ef57662386f26fc1000083816127e5576127e4613a4c565b5b0492506010810190505b6305f5e1008310612818576305f5e100838161280e5761280d613a4c565b5b0492506008810190505b612710831061283d57612710838161283357612832613a4c565b5b0492506004810190505b60648310612860576064838161285657612855613a4c565b5b0492506002810190505b600a831061286f576001810190505b80915050919050565b600073ffffffffffffffffffffffffffffffffffffffff168273ffffffffffffffffffffffffffffffffffffffff16036128ea5760006040517f64a0ae920000000000000000000000000000000000000000000000000000000081526004016128e19190612bd6565b60405180910390fd5b60006128f883836000611954565b9050600073ffffffffffffffffffffffffffffffffffffffff168173ffffffffffffffffffffffffffffffffffffffff161461296c5760006040517f73c6ac6e0000000000000000000000000000000000000000000000000000000081526004016129639190612bd6565b60405180910390fd5b505050565b604051806080016040528060008152602001600073ffffffffffffffffffffffffffffffffffffffff168152602001600081526020016000151581525090565b6000604051905090565b600080fd5b600080fd5b60007fffffffff0000000000000000000000000000000000000000000000000000000082169050919050565b6129fa816129c5565b8114612a0557600080fd5b50565b600081359050612a17816129f1565b92915050565b600060208284031215612a3357612a326129bb565b5b6000612a4184828501612a08565b91505092915050565b60008115159050919050565b612a5f81612a4a565b82525050565b6000602082019050612a7a6000830184612a56565b92915050565b600081519050919050565b600082825260208201905092915050565b60005b83811015612aba578082015181840152602081019050612a9f565b60008484015250505050565b6000601f19601f8301169050919050565b6000612ae282612a80565b612aec8185612a8b565b9350612afc818560208601612a9c565b612b0581612ac6565b840191505092915050565b60006020820190508181036000830152612b2a8184612ad7565b905092915050565b6000819050919050565b612b4581612b32565b8114612b5057600080fd5b50565b600081359050612b6281612b3c565b92915050565b600060208284031215612b7e57612b7d6129bb565b5b6000612b8c84828501612b53565b91505092915050565b600073ffffffffffffffffffffffffffffffffffffffff82169050919050565b6000612bc082612b95565b9050919050565b612bd081612bb5565b82525050565b6000602082019050612beb6000830184612bc7565b92915050565b612bfa81612bb5565b8114612c0557600080fd5b50565b600081359050612c1781612bf1565b92915050565b60008060408385031215612c3457612c336129bb565b5b6000612c4285828601612c08565b9250506020612c5385828601612b53565b9150509250929050565b612c6681612b32565b82525050565b6000602082019050612c816000830184612c5d565b92915050565b600080600060608486031215612ca057612c9f6129bb565b5b6000612cae86828701612c08565b9350506020612cbf86828701612c08565b9250506040612cd086828701612b53565b9150509250925092565b600081519050919050565b600082825260208201905092915050565b6000819050602082019050919050565b612d0f81612b32565b82525050565b612d1e81612bb5565b82525050565b612d2d81612a4a565b82525050565b608082016000820151612d496000850182612d06565b506020820151612d5c6020850182612d15565b506040820151612d6f6040850182612d06565b506060820151612d826060850182612d24565b50505050565b6000612d948383612d33565b60808301905092915050565b6000602082019050919050565b6000612db882612cda565b612dc28185612ce5565b9350612dcd83612cf6565b8060005b83811015612dfe578151612de58882612d88565b9750612df083612da0565b925050600181019050612dd1565b5085935050505092915050565b60006020820190508181036000830152612e258184612dad565b905092915050565b600060208284031215612e4357612e426129bb565b5b6000612e5184828501612c08565b91505092915050565b6000608082019050612e6f6000830187612c5d565b612e7c6020830186612bc7565b612e896040830185612c5d565b612e966060830184612a56565b95945050505050565b60008060408385031215612eb657612eb56129bb565b5b6000612ec485828601612b53565b9250506020612ed585828601612b53565b9150509250929050565b608082016000820151612ef56000850182612d06565b506020820151612f086020850182612d15565b506040820151612f1b6040850182612d06565b506060820151612f2e6060850182612d24565b50505050565b6000608082019050612f496000830184612edf565b92915050565b612f5881612a4a565b8114612f6357600080fd5b50565b600081359050612f7581612f4f565b92915050565b60008060408385031215612f9257612f916129bb565b5b6000612fa085828601612c08565b9250506020612fb185828601612f66565b9150509250929050565b600080fd5b600080fd5b7f4e487b7100000000000000000000000000000000000000000000000000000000600052604160045260246000fd5b612ffd82612ac6565b810181811067ffffffffffffffff8211171561301c5761301b612fc5565b5b80604052505050565b600061302f6129b1565b905061303b8282612ff4565b919050565b600067ffffffffffffffff82111561305b5761305a612fc5565b5b61306482612ac6565b9050602081019050919050565b82818337600083830152505050565b600061309361308e84613040565b613025565b9050828152602081018484840111156130af576130ae612fc0565b5b6130ba848285613071565b509392505050565b600082601f8301126130d7576130d6612fbb565b5b81356130e7848260208601613080565b91505092915050565b6000806000806080858703121561310a576131096129bb565b5b600061311887828801612c08565b945050602061312987828801612c08565b935050604061313a87828801612b53565b925050606085013567ffffffffffffffff81111561315b5761315a6129c0565b5b613167878288016130c2565b91505092959194509250565b6000806040838503121561318a576131896129bb565b5b600061319885828601612c08565b92505060206131a985828601612c08565b9150509250929050565b600067ffffffffffffffff8211156131ce576131cd612fc5565b5b6131d782612ac6565b9050602081019050919050565b60006131f76131f2846131b3565b613025565b90508281526020810184848401111561321357613212612fc0565b5b61321e848285613071565b509392505050565b600082601f83011261323b5761323a612fbb565b5b813561324b8482602086016131e4565b91505092915050565b60006020828403121561326a576132696129bb565b5b600082013567ffffffffffffffff811115613288576132876129c0565b5b61329484828501613226565b91505092915050565b7f4e487b7100000000000000000000000000000000000000000000000000000000600052602260045260246000fd5b600060028204905060018216806132e457607f821691505b6020821081036132f7576132f661329d565b5b50919050565b60006060820190506133126000830186612bc7565b61331f6020830185612c5d565b61332c6040830184612bc7565b949350505050565b7f4e487b7100000000000000000000000000000000000000000000000000000000600052601160045260246000fd5b600061336e82612b32565b91507fffffffffffffffffffffffffffffffffffffffffffffffffffffffffffffffff82036133a05761339f613334565b5b600182019050919050565b7f4e487b7100000000000000000000000000000000000000000000000000000000600052603260045260246000fd5b7f4e4654206973206e6f74206c697374656420666f722073616c65000000000000600082015250565b6000613410601a83612a8b565b915061341b826133da565b602082019050919050565b6000602082019050818103600083015261343f81613403565b9050919050565b7f4e6f7420656e6f7567682045544820746f20627579204e465400000000000000600082015250565b600061347c601983612a8b565b915061348782613446565b602082019050919050565b600060208201905081810360008301526134ab8161346f565b9050919050565b7f596f7520617265206e6f7420746865206f776e65720000000000000000000000600082015250565b60006134e8601583612a8b565b91506134f3826134b2565b602082019050919050565b60006020820190508181036000830152613517816134db565b9050919050565b7f5072696365206d7573742062652067726561746572207468616e207a65726f00600082015250565b6000613554601f83612a8b565b915061355f8261351e565b602082019050919050565b6000602082019050818103600083015261358381613547565b9050919050565b7f4e465420646f6573206e6f742065786973740000000000000000000000000000600082015250565b60006135c0601283612a8b565b91506135cb8261358a565b602082019050919050565b600060208201905081810360008301526135ef816135b3565b9050919050565b600081905092915050565b600061360c82612a80565b61361681856135f6565b9350613626818560208601612a9c565b80840191505092915050565b600061363e8285613601565b915061364a8284613601565b91508190509392505050565b7f4e6f7420656e6f7567682045544820746f206d696e74204e4654000000000000600082015250565b600061368c601a83612a8b565b915061369782613656565b602082019050919050565b600060208201905081810360008301526136bb8161367f565b9050919050565b600081519050919050565b600082825260208201905092915050565b60006136e9826136c2565b6136f381856136cd565b9350613703818560208601612a9c565b61370c81612ac6565b840191505092915050565b600060808201905061372c6000830187612bc7565b6137396020830186612bc7565b6137466040830185612c5d565b818103606083015261375881846136de565b905095945050505050565b600081519050613772816129f1565b92915050565b60006020828403121561378e5761378d6129bb565b5b600061379c84828501613763565b91505092915050565b60008190508160005260206000209050919050565b60006020601f8301049050919050565b600082821b905092915050565b6000600883026138077fffffffffffffffffffffffffffffffffffffffffffffffffffffffffffffffff826137ca565b61381186836137ca565b95508019841693508086168417925050509392505050565b6000819050919050565b600061384e61384961384484612b32565b613829565b612b32565b9050919050565b6000819050919050565b61386883613833565b61387c61387482613855565b8484546137d7565b825550505050565b600090565b613891613884565b61389c81848461385f565b505050565b5b818110156138c0576138b5600082613889565b6001810190506138a2565b5050565b601f821115613905576138d6816137a5565b6138df846137ba565b810160208510156138ee578190505b6139026138fa856137ba565b8301826138a1565b50505b505050565b600082821c905092915050565b60006139286000198460080261390a565b1980831691505092915050565b60006139418383613917565b9150826002028217905092915050565b61395a82612a80565b67ffffffffffffffff81111561397357613972612fc5565b5b61397d82546132cc565b6139888282856138c4565b600060209050601f8311600181146139bb57600084156139a9578287015190505b6139b38582613935565b865550613a1b565b601f1984166139c9866137a5565b60005b828110156139f1578489015182556001820191506020850194506020810190506139cc565b86831015613a0e5784890151613a0a601f891682613917565b8355505b6001600288020188555050505b505050505050565b6000604082019050613a386000830185612bc7565b613a456020830184612c5d565b9392505050565b7f4e487b7100000000000000000000000000000000000000000000000000000000600052601260045260246000fdfea2646970667358221220511d1a0978cb4a12f774c80adb0dfb0274a15d2888fe43333e42dd17f66501e864736f6c634300081b0033",
  "linkReferences": {},
  "deployedLinkReferences": {}
}