{
  "_format": "hh-sol-artifact-1",
  "contractName": "SquishySouls",
  "sourceName": "contracts/SquishySouls.sol",
  "abi": [
    {
      "inputs": [],
      "stateMutability": "nonpayable",
      "type": "constructor"
    },
    {
      "inputs": [
        {
          "internalType": "address",
          "name": "sender",
          "type": "address"
        },
        {
          "internalType": "uint256",
          "name": "tokenId",
          "type": "uint256"
        },
        {
          "internalType": "address",
          "name": "owner",
          "type": "address"
        }
      ],
      "name": "ERC721IncorrectOwner",
      "type": "error"
    },
    {
      "inputs": [
        {
          "internalType": "address",
          "name": "operator",
          "type": "address"
        },
        {
          "internalType": "uint256",
          "name": "tokenId",
          "type": "uint256"
        }
      ],
      "name": "ERC721InsufficientApproval",
      "type": "error"
    },
    {
      "inputs": [
        {
          "internalType": "address",
          "name": "approver",
          "type": "address"
        }
      ],
      "name": "ERC721InvalidApprover",
      "type": "error"
    },
    {
      "inputs": [
        {
          "internalType": "address",
          "name": "operator",
          "type": "address"
        }
      ],
      "name": "ERC721InvalidOperator",
      "type": "error"
    },
    {
      "inputs": [
        {
          "internalType": "address",
          "name": "owner",
          "type": "address"
        }
      ],
      "name": "ERC721InvalidOwner",
      "type": "error"
    },
    {
      "inputs": [
        {
          "internalType": "address",
          "name": "receiver",
          "type": "address"
        }
      ],
      "name": "ERC721InvalidReceiver",
      "type": "error"
    },
    {
      "inputs": [
        {
          "internalType": "address",
          "name": "sender",
          "type": "address"
        }
      ],
      "name": "ERC721InvalidSender",
      "type": "error"
    },
    {
      "inputs": [
        {
          "internalType": "uint256",
          "name": "tokenId",
          "type": "uint256"
        }
      ],
      "name": "ERC721NonexistentToken",
      "type": "error"
    },
    {
      "inputs": [
        {
          "internalType": "address",
          "name": "owner",
          "type": "address"
        }
      ],
      "name": "OwnableInvalidOwner",
      "type": "error"
    },
    {
      "inputs": [
        {
          "internalType": "address",
          "name": "account",
          "type": "address"
        }
      ],
      "name": "OwnableUnauthorizedAccount",
      "type": "error"
    },
    {
      "anonymous": false,
      "inputs": [
        {
          "indexed": true,
          "internalType": "address",
          "name": "owner",
          "type": "address"
        },
        {
          "indexed": true,
          "internalType": "address",
          "name": "approved",
          "type": "address"
        },
        {
          "indexed": true,
          "internalType": "uint256",
          "name": "tokenId",
          "type": "uint256"
        }
      ],
      "name": "Approval",
      "type": "event"
    },
    {
      "anonymous": false,
      "inputs": [
        {
          "indexed": true,
          "internalType": "address",
          "name": "owner",
          "type": "address"
        },
        {
          "indexed": true,
          "internalType": "address",
          "name": "operator",
          "type": "address"
        },
        {
          "indexed": false,
          "internalType": "bool",
          "name": "approved",
          "type": "bool"
        }
      ],
      "name": "ApprovalForAll",
      "type": "event"
    },
    {
      "anonymous": false,
      "inputs": [
        {
          "indexed": false,
          "internalType": "uint256",
          "name": "_fromTokenId",
          "type": "uint256"
        },
        {
          "indexed": false,
          "internalType": "uint256",
          "name": "_toTokenId",
          "type": "uint256"
        }
      ],
      "name": "BatchMetadataUpdate",
      "type": "event"
    },
    {
      "anonymous": false,
      "inputs": [
        {
          "indexed": false,
          "internalType": "uint256",
          "name": "_tokenId",
          "type": "uint256"
        }
      ],
      "name": "MetadataUpdate",
      "type": "event"
    },
    {
      "anonymous": false,
      "inputs": [
        {
          "indexed": true,
          "internalType": "address",
          "name": "to",
          "type": "address"
        },
        {
          "indexed": true,
          "internalType": "uint256",
          "name": "tokenId",
          "type": "uint256"
        },
        {
          "indexed": false,
          "internalType": "string",
          "name": "tokenURI",
          "type": "string"
        }
      ],
      "name": "Mint",
      "type": "event"
    },
    {
      "anonymous": false,
      "inputs": [
        {
          "indexed": true,
          "internalType": "address",
          "name": "previousOwner",
          "type": "address"
        },
        {
          "indexed": true,
          "internalType": "address",
          "name": "newOwner",
          "type": "address"
        }
      ],
      "name": "OwnershipTransferred",
      "type": "event"
    },
    {
      "anonymous": false,
      "inputs": [
        {
          "indexed": true,
          "internalType": "address",
          "name": "from",
          "type": "address"
        },
        {
          "indexed": true,
          "internalType": "address",
          "name": "to",
          "type": "address"
        },
        {
          "indexed": true,
          "internalType": "uint256",
          "name": "tokenId",
          "type": "uint256"
        }
      ],
      "name": "Transfer",
      "type": "event"
    },
    {
      "inputs": [
        {
          "internalType": "address",
          "name": "to",
          "type": "address"
        },
        {
          "internalType": "uint256",
          "name": "tokenId",
          "type": "uint256"
        }
      ],
      "name": "approve",
      "outputs": [],
      "stateMutability": "nonpayable",
      "type": "function"
    },
    {
      "inputs": [
        {
          "internalType": "address",
          "name": "owner",
          "type": "address"
        }
      ],
      "name": "balanceOf",
      "outputs": [
        {
          "internalType": "uint256",
          "name": "",
          "type": "uint256"
        }
      ],
      "stateMutability": "view",
      "type": "function"
    },
    {
      "inputs": [
        {
          "internalType": "uint256",
          "name": "tokenId",
          "type": "uint256"
        }
      ],
      "name": "getApproved",
      "outputs": [
        {
          "internalType": "address",
          "name": "",
          "type": "address"
        }
      ],
      "stateMutability": "view",
      "type": "function"
    },
    {
      "inputs": [
        {
          "internalType": "address",
          "name": "user",
          "type": "address"
        }
      ],
      "name": "getMintedCount",
      "outputs": [
        {
          "internalType": "uint256",
          "name": "",
          "type": "uint256"
        }
      ],
      "stateMutability": "view",
      "type": "function"
    },
    {
      "inputs": [],
      "name": "getRemainingSupply",
      "outputs": [
        {
          "internalType": "uint256",
          "name": "",
          "type": "uint256"
        }
      ],
      "stateMutability": "view",
      "type": "function"
    },
    {
      "inputs": [
        {
          "internalType": "address",
          "name": "owner",
          "type": "address"
        },
        {
          "internalType": "address",
          "name": "operator",
          "type": "address"
        }
      ],
      "name": "isApprovedForAll",
      "outputs": [
        {
          "internalType": "bool",
          "name": "",
          "type": "bool"
        }
      ],
      "stateMutability": "view",
      "type": "function"
    },
    {
      "inputs": [],
      "name": "maxTokens",
      "outputs": [
        {
          "internalType": "uint256",
          "name": "",
          "type": "uint256"
        }
      ],
      "stateMutability": "view",
      "type": "function"
    },
    {
      "inputs": [
        {
          "internalType": "address",
          "name": "to",
          "type": "address"
        },
        {
          "internalType": "string",
          "name": "tokenURI",
          "type": "string"
        }
      ],
      "name": "mint",
      "outputs": [],
      "stateMutability": "nonpayable",
      "type": "function"
    },
    {
      "inputs": [
        {
          "internalType": "address",
          "name": "",
          "type": "address"
        }
      ],
      "name": "minted",
      "outputs": [
        {
          "internalType": "uint256",
          "name": "",
          "type": "uint256"
        }
      ],
      "stateMutability": "view",
      "type": "function"
    },
    {
      "inputs": [],
      "name": "name",
      "outputs": [
        {
          "internalType": "string",
          "name": "",
          "type": "string"
        }
      ],
      "stateMutability": "view",
      "type": "function"
    },
    {
      "inputs": [],
      "name": "nextTokenId",
      "outputs": [
        {
          "internalType": "uint256",
          "name": "",
          "type": "uint256"
        }
      ],
      "stateMutability": "view",
      "type": "function"
    },
    {
      "inputs": [],
      "name": "owner",
      "outputs": [
        {
          "internalType": "address",
          "name": "",
          "type": "address"
        }
      ],
      "stateMutability": "view",
      "type": "function"
    },
    {
      "inputs": [
        {
          "internalType": "uint256",
          "name": "tokenId",
          "type": "uint256"
        }
      ],
      "name": "ownerOf",
      "outputs": [
        {
          "internalType": "address",
          "name": "",
          "type": "address"
        }
      ],
      "stateMutability": "view",
      "type": "function"
    },
    {
      "inputs": [],
      "name": "renounceOwnership",
      "outputs": [],
      "stateMutability": "nonpayable",
      "type": "function"
    },
    {
      "inputs": [
        {
          "internalType": "address",
          "name": "from",
          "type": "address"
        },
        {
          "internalType": "address",
          "name": "to",
          "type": "address"
        },
        {
          "internalType": "uint256",
          "name": "tokenId",
          "type": "uint256"
        }
      ],
      "name": "safeTransferFrom",
      "outputs": [],
      "stateMutability": "nonpayable",
      "type": "function"
    },
    {
      "inputs": [
        {
          "internalType": "address",
          "name": "from",
          "type": "address"
        },
        {
          "internalType": "address",
          "name": "to",
          "type": "address"
        },
        {
          "internalType": "uint256",
          "name": "tokenId",
          "type": "uint256"
        },
        {
          "internalType": "bytes",
          "name": "data",
          "type": "bytes"
        }
      ],
      "name": "safeTransferFrom",
      "outputs": [],
      "stateMutability": "nonpayable",
      "type": "function"
    },
    {
      "inputs": [
        {
          "internalType": "address",
          "name": "operator",
          "type": "address"
        },
        {
          "internalType": "bool",
          "name": "approved",
          "type": "bool"
        }
      ],
      "name": "setApprovalForAll",
      "outputs": [],
      "stateMutability": "nonpayable",
      "type": "function"
    },
    {
      "inputs": [
        {
          "internalType": "bytes4",
          "name": "interfaceId",
          "type": "bytes4"
        }
      ],
      "name": "supportsInterface",
      "outputs": [
        {
          "internalType": "bool",
          "name": "",
          "type": "bool"
        }
      ],
      "stateMutability": "view",
      "type": "function"
    },
    {
      "inputs": [],
      "name": "symbol",
      "outputs": [
        {
          "internalType": "string",
          "name": "",
          "type": "string"
        }
      ],
      "stateMutability": "view",
      "type": "function"
    },
    {
      "inputs": [
        {
          "internalType": "uint256",
          "name": "tokenId",
          "type": "uint256"
        }
      ],
      "name": "tokenURI",
      "outputs": [
        {
          "internalType": "string",
          "name": "",
          "type": "string"
        }
      ],
      "stateMutability": "view",
      "type": "function"
    },
    {
      "inputs": [
        {
          "internalType": "address",
          "name": "from",
          "type": "address"
        },
        {
          "internalType": "address",
          "name": "to",
          "type": "address"
        },
        {
          "internalType": "uint256",
          "name": "tokenId",
          "type": "uint256"
        }
      ],
      "name": "transferFrom",
      "outputs": [],
      "stateMutability": "nonpayable",
      "type": "function"
    },
    {
      "inputs": [
        {
          "internalType": "address",
          "name": "newOwner",
          "type": "address"
        }
      ],
      "name": "transferOwnership",
      "outputs": [],
      "stateMutability": "nonpayable",
      "type": "function"
    }
  ],
  "bytecode": "0x608060405234801561001057600080fd5b50336040518060400160405280600c81526020017f53717569736879536f756c7300000000000000000000000000000000000000008152506040518060400160405280600381526020017f53534c0000000000000000000000000000000000000000000000000000000000815250816000908161008d919061043d565b50806001908161009d919061043d565b505050600073ffffffffffffffffffffffffffffffffffffffff168173ffffffffffffffffffffffffffffffffffffffff16036101125760006040517f1e4fbdf70000000000000000000000000000000000000000000000000000000081526004016101099190610550565b60405180910390fd5b6101218161012760201b60201c565b5061056b565b6000600760009054906101000a900473ffffffffffffffffffffffffffffffffffffffff16905081600760006101000a81548173ffffffffffffffffffffffffffffffffffffffff021916908373ffffffffffffffffffffffffffffffffffffffff1602179055508173ffffffffffffffffffffffffffffffffffffffff168173ffffffffffffffffffffffffffffffffffffffff167f8be0079c531659141344cd1fd0a4f28419497f9722a3daafe3b4186f6b6457e060405160405180910390a35050565b600081519050919050565b7f4e487b7100000000000000000000000000000000000000000000000000000000600052604160045260246000fd5b7f4e487b7100000000000000000000000000000000000000000000000000000000600052602260045260246000fd5b6000600282049050600182168061026e57607f821691505b60208210810361028157610280610227565b5b50919050565b60008190508160005260206000209050919050565b60006020601f8301049050919050565b600082821b905092915050565b6000600883026102e97fffffffffffffffffffffffffffffffffffffffffffffffffffffffffffffffff826102ac565b6102f386836102ac565b95508019841693508086168417925050509392505050565b6000819050919050565b6000819050919050565b600061033a6103356103308461030b565b610315565b61030b565b9050919050565b6000819050919050565b6103548361031f565b61036861036082610341565b8484546102b9565b825550505050565b600090565b61037d610370565b61038881848461034b565b505050565b5b818110156103ac576103a1600082610375565b60018101905061038e565b5050565b601f8211156103f1576103c281610287565b6103cb8461029c565b810160208510156103da578190505b6103ee6103e68561029c565b83018261038d565b50505b505050565b600082821c905092915050565b6000610414600019846008026103f6565b1980831691505092915050565b600061042d8383610403565b9150826002028217905092915050565b610446826101ed565b67ffffffffffffffff81111561045f5761045e6101f8565b5b6104698254610256565b6104748282856103b0565b600060209050601f8311600181146104a75760008415610495578287015190505b61049f8582610421565b865550610507565b601f1984166104b586610287565b60005b828110156104dd578489015182556001820191506020850194506020810190506104b8565b868310156104fa57848901516104f6601f891682610403565b8355505b6001600288020188555050505b505050505050565b600073ffffffffffffffffffffffffffffffffffffffff82169050919050565b600061053a8261050f565b9050919050565b61054a8161052f565b82525050565b60006020820190506105656000830184610541565b92915050565b612a4a8061057a6000396000f3fe608060405234801561001057600080fd5b50600436106101425760003560e01c80638da5cb5b116100b8578063c87b56dd1161007c578063c87b56dd14610375578063d0def521146103a5578063e4b7fb73146103c1578063e8315742146103df578063e985e9c5146103fd578063f2fde38b1461042d57610142565b80638da5cb5b146102d157806395d89b41146102ef57806397d6696b1461030d578063a22cb4651461033d578063b88d4fde1461035957610142565b806323b872dd1161010a57806323b872dd1461021157806342842e0e1461022d5780636352211e1461024957806370a0823114610279578063715018a6146102a957806375794a3c146102b357610142565b806301ffc9a71461014757806306fdde0314610177578063081812fc14610195578063095ea7b3146101c55780631e7269c5146101e1575b600080fd5b610161600480360381019061015c9190611d96565b610449565b60405161016e9190611dde565b60405180910390f35b61017f6104aa565b60405161018c9190611e89565b60405180910390f35b6101af60048036038101906101aa9190611ee1565b61053c565b6040516101bc9190611f4f565b60405180910390f35b6101df60048036038101906101da9190611f96565b610558565b005b6101fb60048036038101906101f69190611fd6565b61056e565b6040516102089190612012565b60405180910390f35b61022b6004803603810190610226919061202d565b610586565b005b6102476004803603810190610242919061202d565b610688565b005b610263600480360381019061025e9190611ee1565b6106a8565b6040516102709190611f4f565b60405180910390f35b610293600480360381019061028e9190611fd6565b6106ba565b6040516102a09190612012565b60405180910390f35b6102b1610774565b005b6102bb610788565b6040516102c89190612012565b60405180910390f35b6102d961078e565b6040516102e69190611f4f565b60405180910390f35b6102f76107b8565b6040516103049190611e89565b60405180910390f35b61032760048036038101906103229190611fd6565b61084a565b6040516103349190612012565b60405180910390f35b610357600480360381019061035291906120ac565b610893565b005b610373600480360381019061036e9190612221565b6108a9565b005b61038f600480360381019061038a9190611ee1565b6108ce565b60405161039c9190611e89565b60405180910390f35b6103bf60048036038101906103ba9190612345565b6109e1565b005b6103c9610b84565b6040516103d69190612012565b60405180910390f35b6103e7610b9a565b6040516103f49190612012565b60405180910390f35b610417600480360381019061041291906123a1565b610b9f565b6040516104249190611dde565b60405180910390f35b61044760048036038101906104429190611fd6565b610c33565b005b6000634906490660e01b7bffffffffffffffffffffffffffffffffffffffffffffffffffffffff1916827bffffffffffffffffffffffffffffffffffffffffffffffffffffffff191614806104a357506104a282610cb9565b5b9050919050565b6060600080546104b990612410565b80601f01602080910402602001604051908101604052809291908181526020018280546104e590612410565b80156105325780601f1061050757610100808354040283529160200191610532565b820191906000526020600020905b81548152906001019060200180831161051557829003601f168201915b5050505050905090565b600061054782610d9b565b5061055182610e23565b9050919050565b61056a8282610565610e60565b610e68565b5050565b60096020528060005260406000206000915090505481565b600073ffffffffffffffffffffffffffffffffffffffff168273ffffffffffffffffffffffffffffffffffffffff16036105f85760006040517f64a0ae920000000000000000000000000000000000000000000000000000000081526004016105ef9190611f4f565b60405180910390fd5b600061060c8383610607610e60565b610e7a565b90508373ffffffffffffffffffffffffffffffffffffffff168173ffffffffffffffffffffffffffffffffffffffff1614610682578382826040517f64283d7b00000000000000000000000000000000000000000000000000000000815260040161067993929190612441565b60405180910390fd5b50505050565b6106a3838383604051806020016040528060008152506108a9565b505050565b60006106b382610d9b565b9050919050565b60008073ffffffffffffffffffffffffffffffffffffffff168273ffffffffffffffffffffffffffffffffffffffff160361072d5760006040517f89c62b640000000000000000000000000000000000000000000000000000000081526004016107249190611f4f565b60405180910390fd5b600360008373ffffffffffffffffffffffffffffffffffffffff1673ffffffffffffffffffffffffffffffffffffffff168152602001908152602001600020549050919050565b61077c611094565b610786600061111b565b565b60085481565b6000600760009054906101000a900473ffffffffffffffffffffffffffffffffffffffff16905090565b6060600180546107c790612410565b80601f01602080910402602001604051908101604052809291908181526020018280546107f390612410565b80156108405780601f1061081557610100808354040283529160200191610840565b820191906000526020600020905b81548152906001019060200180831161082357829003601f168201915b5050505050905090565b6000600960008373ffffffffffffffffffffffffffffffffffffffff1673ffffffffffffffffffffffffffffffffffffffff168152602001908152602001600020549050919050565b6108a561089e610e60565b83836111e1565b5050565b6108b4848484610586565b6108c86108bf610e60565b85858585611350565b50505050565b60606108d982610d9b565b5060006006600084815260200190815260200160002080546108fa90612410565b80601f016020809104026020016040519081016040528092919081815260200182805461092690612410565b80156109735780601f1061094857610100808354040283529160200191610973565b820191906000526020600020905b81548152906001019060200180831161095657829003601f168201915b505050505090506000610984611501565b905060008151036109995781925050506109dc565b6000825111156109ce5780826040516020016109b69291906124b4565b604051602081830303815290604052925050506109dc565b6109d784611518565b925050505b919050565b600a600960008473ffffffffffffffffffffffffffffffffffffffff1673ffffffffffffffffffffffffffffffffffffffff1681526020019081526020016000205410610a63576040517f08c379a0000000000000000000000000000000000000000000000000000000008152600401610a5a90612524565b60405180910390fd5b606460085410610aa8576040517f08c379a0000000000000000000000000000000000000000000000000000000008152600401610a9f90612590565b60405180910390fd5b6000600854905060086000815480929190610ac2906125df565b9190505550610ad18382611581565b610adb818361159f565b600960008473ffffffffffffffffffffffffffffffffffffffff1673ffffffffffffffffffffffffffffffffffffffff1681526020019081526020016000206000815480929190610b2b906125df565b9190505550808373ffffffffffffffffffffffffffffffffffffffff167f85a66b9141978db9980f7e0ce3b468cebf4f7999f32b23091c5c03e798b1ba7a84604051610b779190611e89565b60405180910390a3505050565b60006008546064610b959190612627565b905090565b606481565b6000600560008473ffffffffffffffffffffffffffffffffffffffff1673ffffffffffffffffffffffffffffffffffffffff16815260200190815260200160002060008373ffffffffffffffffffffffffffffffffffffffff1673ffffffffffffffffffffffffffffffffffffffff16815260200190815260200160002060009054906101000a900460ff16905092915050565b610c3b611094565b600073ffffffffffffffffffffffffffffffffffffffff168173ffffffffffffffffffffffffffffffffffffffff1603610cad5760006040517f1e4fbdf7000000000000000000000000000000000000000000000000000000008152600401610ca49190611f4f565b60405180910390fd5b610cb68161111b565b50565b60007f80ac58cd000000000000000000000000000000000000000000000000000000007bffffffffffffffffffffffffffffffffffffffffffffffffffffffff1916827bffffffffffffffffffffffffffffffffffffffffffffffffffffffff19161480610d8457507f5b5e139f000000000000000000000000000000000000000000000000000000007bffffffffffffffffffffffffffffffffffffffffffffffffffffffff1916827bffffffffffffffffffffffffffffffffffffffffffffffffffffffff1916145b80610d945750610d93826115fb565b5b9050919050565b600080610da783611665565b9050600073ffffffffffffffffffffffffffffffffffffffff168173ffffffffffffffffffffffffffffffffffffffff1603610e1a57826040517f7e273289000000000000000000000000000000000000000000000000000000008152600401610e119190612012565b60405180910390fd5b80915050919050565b60006004600083815260200190815260200160002060009054906101000a900473ffffffffffffffffffffffffffffffffffffffff169050919050565b600033905090565b610e7583838360016116a2565b505050565b600080610e8684611665565b9050600073ffffffffffffffffffffffffffffffffffffffff168373ffffffffffffffffffffffffffffffffffffffff1614610ec857610ec7818486611867565b5b600073ffffffffffffffffffffffffffffffffffffffff168173ffffffffffffffffffffffffffffffffffffffff1614610f5957610f0a6000856000806116a2565b6001600360008373ffffffffffffffffffffffffffffffffffffffff1673ffffffffffffffffffffffffffffffffffffffff168152602001908152602001600020600082825403925050819055505b600073ffffffffffffffffffffffffffffffffffffffff168573ffffffffffffffffffffffffffffffffffffffff1614610fdc576001600360008773ffffffffffffffffffffffffffffffffffffffff1673ffffffffffffffffffffffffffffffffffffffff168152602001908152602001600020600082825401925050819055505b846002600086815260200190815260200160002060006101000a81548173ffffffffffffffffffffffffffffffffffffffff021916908373ffffffffffffffffffffffffffffffffffffffff160217905550838573ffffffffffffffffffffffffffffffffffffffff168273ffffffffffffffffffffffffffffffffffffffff167fddf252ad1be2c89b69c2b068fc378daa952ba7f163c4a11628f55a4df523b3ef60405160405180910390a4809150509392505050565b61109c610e60565b73ffffffffffffffffffffffffffffffffffffffff166110ba61078e565b73ffffffffffffffffffffffffffffffffffffffff1614611119576110dd610e60565b6040517f118cdaa70000000000000000000000000000000000000000000000000000000081526004016111109190611f4f565b60405180910390fd5b565b6000600760009054906101000a900473ffffffffffffffffffffffffffffffffffffffff16905081600760006101000a81548173ffffffffffffffffffffffffffffffffffffffff021916908373ffffffffffffffffffffffffffffffffffffffff1602179055508173ffffffffffffffffffffffffffffffffffffffff168173ffffffffffffffffffffffffffffffffffffffff167f8be0079c531659141344cd1fd0a4f28419497f9722a3daafe3b4186f6b6457e060405160405180910390a35050565b600073ffffffffffffffffffffffffffffffffffffffff168273ffffffffffffffffffffffffffffffffffffffff160361125257816040517f5b08ba180000000000000000000000000000000000000000000000000000000081526004016112499190611f4f565b60405180910390fd5b80600560008573ffffffffffffffffffffffffffffffffffffffff1673ffffffffffffffffffffffffffffffffffffffff16815260200190815260200160002060008473ffffffffffffffffffffffffffffffffffffffff1673ffffffffffffffffffffffffffffffffffffffff16815260200190815260200160002060006101000a81548160ff0219169083151502179055508173ffffffffffffffffffffffffffffffffffffffff168373ffffffffffffffffffffffffffffffffffffffff167f17307eab39ab6107e8899845ad3d59bd9653f200f220920489ca2b5937696c31836040516113439190611dde565b60405180910390a3505050565b60008373ffffffffffffffffffffffffffffffffffffffff163b11156114fa578273ffffffffffffffffffffffffffffffffffffffff1663150b7a02868685856040518563ffffffff1660e01b81526004016113af94939291906126b0565b6020604051808303816000875af19250505080156113eb57506040513d601f19601f820116820180604052508101906113e89190612711565b60015b61146f573d806000811461141b576040519150601f19603f3d011682016040523d82523d6000602084013e611420565b606091505b50600081510361146757836040517f64a0ae9200000000000000000000000000000000000000000000000000000000815260040161145e9190611f4f565b60405180910390fd5b805181602001fd5b63150b7a0260e01b7bffffffffffffffffffffffffffffffffffffffffffffffffffffffff1916817bffffffffffffffffffffffffffffffffffffffffffffffffffffffff1916146114f857836040517f64a0ae920000000000000000000000000000000000000000000000000000000081526004016114ef9190611f4f565b60405180910390fd5b505b5050505050565b606060405180602001604052806000815250905090565b606061152382610d9b565b50600061152e611501565b9050600081511161154e5760405180602001604052806000815250611579565b806115588461192b565b6040516020016115699291906124b4565b6040516020818303038152906040525b915050919050565b61159b8282604051806020016040528060008152506119f9565b5050565b806006600084815260200190815260200160002090816115bf91906128ea565b507ff8e1a15aba9398e019f0b49df1a4fde98ee17ae345cb5f6b5e2c27f5033e8ce7826040516115ef9190612012565b60405180910390a15050565b60007f01ffc9a7000000000000000000000000000000000000000000000000000000007bffffffffffffffffffffffffffffffffffffffffffffffffffffffff1916827bffffffffffffffffffffffffffffffffffffffffffffffffffffffff1916149050919050565b60006002600083815260200190815260200160002060009054906101000a900473ffffffffffffffffffffffffffffffffffffffff169050919050565b80806116db5750600073ffffffffffffffffffffffffffffffffffffffff168273ffffffffffffffffffffffffffffffffffffffff1614155b1561180f5760006116eb84610d9b565b9050600073ffffffffffffffffffffffffffffffffffffffff168373ffffffffffffffffffffffffffffffffffffffff161415801561175657508273ffffffffffffffffffffffffffffffffffffffff168173ffffffffffffffffffffffffffffffffffffffff1614155b801561176957506117678184610b9f565b155b156117ab57826040517fa9fbf51f0000000000000000000000000000000000000000000000000000000081526004016117a29190611f4f565b60405180910390fd5b811561180d57838573ffffffffffffffffffffffffffffffffffffffff168273ffffffffffffffffffffffffffffffffffffffff167f8c5be1e5ebec7d5bd14f71427d1e84f3dd0314c0f7b2291e5b200ac8c7c3b92560405160405180910390a45b505b836004600085815260200190815260200160002060006101000a81548173ffffffffffffffffffffffffffffffffffffffff021916908373ffffffffffffffffffffffffffffffffffffffff16021790555050505050565b611872838383611a1d565b61192657600073ffffffffffffffffffffffffffffffffffffffff168373ffffffffffffffffffffffffffffffffffffffff16036118e757806040517f7e2732890000000000000000000000000000000000000000000000000000000081526004016118de9190612012565b60405180910390fd5b81816040517f177e802f00000000000000000000000000000000000000000000000000000000815260040161191d9291906129bc565b60405180910390fd5b505050565b60606000600161193a84611ade565b01905060008167ffffffffffffffff811115611959576119586120f6565b5b6040519080825280601f01601f19166020018201604052801561198b5781602001600182028036833780820191505090505b509050600082602001820190505b6001156119ee578080600190039150507f3031323334353637383961626364656600000000000000000000000000000000600a86061a8153600a85816119e2576119e16129e5565b5b04945060008503611999575b819350505050919050565b611a038383611c31565b611a18611a0e610e60565b6000858585611350565b505050565b60008073ffffffffffffffffffffffffffffffffffffffff168373ffffffffffffffffffffffffffffffffffffffff1614158015611ad557508273ffffffffffffffffffffffffffffffffffffffff168473ffffffffffffffffffffffffffffffffffffffff161480611a965750611a958484610b9f565b5b80611ad457508273ffffffffffffffffffffffffffffffffffffffff16611abc83610e23565b73ffffffffffffffffffffffffffffffffffffffff16145b5b90509392505050565b600080600090507a184f03e93ff9f4daa797ed6e38ed64bf6a1f0100000000000000008310611b3c577a184f03e93ff9f4daa797ed6e38ed64bf6a1f0100000000000000008381611b3257611b316129e5565b5b0492506040810190505b6d04ee2d6d415b85acef81000000008310611b79576d04ee2d6d415b85acef81000000008381611b6f57611b6e6129e5565b5b0492506020810190505b662386f26fc100008310611ba857662386f26fc100008381611b9e57611b9d6129e5565b5b0492506010810190505b6305f5e1008310611bd1576305f5e1008381611bc757611bc66129e5565b5b0492506008810190505b6127108310611bf6576127108381611bec57611beb6129e5565b5b0492506004810190505b60648310611c195760648381611c0f57611c0e6129e5565b5b0492506002810190505b600a8310611c28576001810190505b80915050919050565b600073ffffffffffffffffffffffffffffffffffffffff168273ffffffffffffffffffffffffffffffffffffffff1603611ca35760006040517f64a0ae92000000000000000000000000000000000000000000000000000000008152600401611c9a9190611f4f565b60405180910390fd5b6000611cb183836000610e7a565b9050600073ffffffffffffffffffffffffffffffffffffffff168173ffffffffffffffffffffffffffffffffffffffff1614611d255760006040517f73c6ac6e000000000000000000000000000000000000000000000000000000008152600401611d1c9190611f4f565b60405180910390fd5b505050565b6000604051905090565b600080fd5b600080fd5b60007fffffffff0000000000000000000000000000000000000000000000000000000082169050919050565b611d7381611d3e565b8114611d7e57600080fd5b50565b600081359050611d9081611d6a565b92915050565b600060208284031215611dac57611dab611d34565b5b6000611dba84828501611d81565b91505092915050565b60008115159050919050565b611dd881611dc3565b82525050565b6000602082019050611df36000830184611dcf565b92915050565b600081519050919050565b600082825260208201905092915050565b60005b83811015611e33578082015181840152602081019050611e18565b60008484015250505050565b6000601f19601f8301169050919050565b6000611e5b82611df9565b611e658185611e04565b9350611e75818560208601611e15565b611e7e81611e3f565b840191505092915050565b60006020820190508181036000830152611ea38184611e50565b905092915050565b6000819050919050565b611ebe81611eab565b8114611ec957600080fd5b50565b600081359050611edb81611eb5565b92915050565b600060208284031215611ef757611ef6611d34565b5b6000611f0584828501611ecc565b91505092915050565b600073ffffffffffffffffffffffffffffffffffffffff82169050919050565b6000611f3982611f0e565b9050919050565b611f4981611f2e565b82525050565b6000602082019050611f646000830184611f40565b92915050565b611f7381611f2e565b8114611f7e57600080fd5b50565b600081359050611f9081611f6a565b92915050565b60008060408385031215611fad57611fac611d34565b5b6000611fbb85828601611f81565b9250506020611fcc85828601611ecc565b9150509250929050565b600060208284031215611fec57611feb611d34565b5b6000611ffa84828501611f81565b91505092915050565b61200c81611eab565b82525050565b60006020820190506120276000830184612003565b92915050565b60008060006060848603121561204657612045611d34565b5b600061205486828701611f81565b935050602061206586828701611f81565b925050604061207686828701611ecc565b9150509250925092565b61208981611dc3565b811461209457600080fd5b50565b6000813590506120a681612080565b92915050565b600080604083850312156120c3576120c2611d34565b5b60006120d185828601611f81565b92505060206120e285828601612097565b9150509250929050565b600080fd5b600080fd5b7f4e487b7100000000000000000000000000000000000000000000000000000000600052604160045260246000fd5b61212e82611e3f565b810181811067ffffffffffffffff8211171561214d5761214c6120f6565b5b80604052505050565b6000612160611d2a565b905061216c8282612125565b919050565b600067ffffffffffffffff82111561218c5761218b6120f6565b5b61219582611e3f565b9050602081019050919050565b82818337600083830152505050565b60006121c46121bf84612171565b612156565b9050828152602081018484840111156121e0576121df6120f1565b5b6121eb8482856121a2565b509392505050565b600082601f830112612208576122076120ec565b5b81356122188482602086016121b1565b91505092915050565b6000806000806080858703121561223b5761223a611d34565b5b600061224987828801611f81565b945050602061225a87828801611f81565b935050604061226b87828801611ecc565b925050606085013567ffffffffffffffff81111561228c5761228b611d39565b5b612298878288016121f3565b91505092959194509250565b600067ffffffffffffffff8211156122bf576122be6120f6565b5b6122c882611e3f565b9050602081019050919050565b60006122e86122e3846122a4565b612156565b905082815260208101848484011115612304576123036120f1565b5b61230f8482856121a2565b509392505050565b600082601f83011261232c5761232b6120ec565b5b813561233c8482602086016122d5565b91505092915050565b6000806040838503121561235c5761235b611d34565b5b600061236a85828601611f81565b925050602083013567ffffffffffffffff81111561238b5761238a611d39565b5b61239785828601612317565b9150509250929050565b600080604083850312156123b8576123b7611d34565b5b60006123c685828601611f81565b92505060206123d785828601611f81565b9150509250929050565b7f4e487b7100000000000000000000000000000000000000000000000000000000600052602260045260246000fd5b6000600282049050600182168061242857607f821691505b60208210810361243b5761243a6123e1565b5b50919050565b60006060820190506124566000830186611f40565b6124636020830185612003565b6124706040830184611f40565b949350505050565b600081905092915050565b600061248e82611df9565b6124988185612478565b93506124a8818560208601611e15565b80840191505092915050565b60006124c08285612483565b91506124cc8284612483565b91508190509392505050565b7f4120757365722063616e206d696e74206f6e6c79203130204e46547300000000600082015250565b600061250e601c83611e04565b9150612519826124d8565b602082019050919050565b6000602082019050818103600083015261253d81612501565b9050919050565b7f4d617820737570706c7920726561636865640000000000000000000000000000600082015250565b600061257a601283611e04565b915061258582612544565b602082019050919050565b600060208201905081810360008301526125a98161256d565b9050919050565b7f4e487b7100000000000000000000000000000000000000000000000000000000600052601160045260246000fd5b60006125ea82611eab565b91507fffffffffffffffffffffffffffffffffffffffffffffffffffffffffffffffff820361261c5761261b6125b0565b5b600182019050919050565b600061263282611eab565b915061263d83611eab565b9250828203905081811115612655576126546125b0565b5b92915050565b600081519050919050565b600082825260208201905092915050565b60006126828261265b565b61268c8185612666565b935061269c818560208601611e15565b6126a581611e3f565b840191505092915050565b60006080820190506126c56000830187611f40565b6126d26020830186611f40565b6126df6040830185612003565b81810360608301526126f18184612677565b905095945050505050565b60008151905061270b81611d6a565b92915050565b60006020828403121561272757612726611d34565b5b6000612735848285016126fc565b91505092915050565b60008190508160005260206000209050919050565b60006020601f8301049050919050565b600082821b905092915050565b6000600883026127a07fffffffffffffffffffffffffffffffffffffffffffffffffffffffffffffffff82612763565b6127aa8683612763565b95508019841693508086168417925050509392505050565b6000819050919050565b60006127e76127e26127dd84611eab565b6127c2565b611eab565b9050919050565b6000819050919050565b612801836127cc565b61281561280d826127ee565b848454612770565b825550505050565b600090565b61282a61281d565b6128358184846127f8565b505050565b5b818110156128595761284e600082612822565b60018101905061283b565b5050565b601f82111561289e5761286f8161273e565b61287884612753565b81016020851015612887578190505b61289b61289385612753565b83018261283a565b50505b505050565b600082821c905092915050565b60006128c1600019846008026128a3565b1980831691505092915050565b60006128da83836128b0565b9150826002028217905092915050565b6128f382611df9565b67ffffffffffffffff81111561290c5761290b6120f6565b5b6129168254612410565b61292182828561285d565b600060209050601f8311600181146129545760008415612942578287015190505b61294c85826128ce565b8655506129b4565b601f1984166129628661273e565b60005b8281101561298a57848901518255600182019150602085019450602081019050612965565b868310156129a757848901516129a3601f8916826128b0565b8355505b6001600288020188555050505b505050505050565b60006040820190506129d16000830185611f40565b6129de6020830184612003565b9392505050565b7f4e487b7100000000000000000000000000000000000000000000000000000000600052601260045260246000fdfea26469706673582212201b3cb881529fade218e820c4c3d44fe17930593c2bec2b15acf745644b00713c64736f6c634300081b0033",
  "linkReferences": {},
  "deployedLinkReferences": {}
}