{
  "_format": "hh-sol-artifact-1",
  "contractName": "SudokuMarketplace",
  "sourceName": "contracts/SudokuMarketplace.sol",
  "abi": [
    {
      "inputs": [],
      "stateMutability": "nonpayable",
      "type": "constructor"
    },
    {
      "inputs": [
        {
          "internalType": "address",
          "name": "sender",
          "type": "address"
        },
        {
          "internalType": "uint256",
          "name": "tokenId",
          "type": "uint256"
        },
        {
          "internalType": "address",
          "name": "owner",
          "type": "address"
        }
      ],
      "name": "ERC721IncorrectOwner",
      "type": "error"
    },
    {
      "inputs": [
        {
          "internalType": "address",
          "name": "operator",
          "type": "address"
        },
        {
          "internalType": "uint256",
          "name": "tokenId",
          "type": "uint256"
        }
      ],
      "name": "ERC721InsufficientApproval",
      "type": "error"
    },
    {
      "inputs": [
        {
          "internalType": "address",
          "name": "approver",
          "type": "address"
        }
      ],
      "name": "ERC721InvalidApprover",
      "type": "error"
    },
    {
      "inputs": [
        {
          "internalType": "address",
          "name": "operator",
          "type": "address"
        }
      ],
      "name": "ERC721InvalidOperator",
      "type": "error"
    },
    {
      "inputs": [
        {
          "internalType": "address",
          "name": "owner",
          "type": "address"
        }
      ],
      "name": "ERC721InvalidOwner",
      "type": "error"
    },
    {
      "inputs": [
        {
          "internalType": "address",
          "name": "receiver",
          "type": "address"
        }
      ],
      "name": "ERC721InvalidReceiver",
      "type": "error"
    },
    {
      "inputs": [
        {
          "internalType": "address",
          "name": "sender",
          "type": "address"
        }
      ],
      "name": "ERC721InvalidSender",
      "type": "error"
    },
    {
      "inputs": [
        {
          "internalType": "uint256",
          "name": "tokenId",
          "type": "uint256"
        }
      ],
      "name": "ERC721NonexistentToken",
      "type": "error"
    },
    {
      "inputs": [
        {
          "internalType": "address",
          "name": "owner",
          "type": "address"
        }
      ],
      "name": "OwnableInvalidOwner",
      "type": "error"
    },
    {
      "inputs": [
        {
          "internalType": "address",
          "name": "account",
          "type": "address"
        }
      ],
      "name": "OwnableUnauthorizedAccount",
      "type": "error"
    },
    {
      "anonymous": false,
      "inputs": [
        {
          "indexed": true,
          "internalType": "address",
          "name": "owner",
          "type": "address"
        },
        {
          "indexed": true,
          "internalType": "address",
          "name": "approved",
          "type": "address"
        },
        {
          "indexed": true,
          "internalType": "uint256",
          "name": "tokenId",
          "type": "uint256"
        }
      ],
      "name": "Approval",
      "type": "event"
    },
    {
      "anonymous": false,
      "inputs": [
        {
          "indexed": true,
          "internalType": "address",
          "name": "owner",
          "type": "address"
        },
        {
          "indexed": true,
          "internalType": "address",
          "name": "operator",
          "type": "address"
        },
        {
          "indexed": false,
          "internalType": "bool",
          "name": "approved",
          "type": "bool"
        }
      ],
      "name": "ApprovalForAll",
      "type": "event"
    },
    {
      "anonymous": false,
      "inputs": [
        {
          "indexed": false,
          "internalType": "uint256",
          "name": "_fromTokenId",
          "type": "uint256"
        },
        {
          "indexed": false,
          "internalType": "uint256",
          "name": "_toTokenId",
          "type": "uint256"
        }
      ],
      "name": "BatchMetadataUpdate",
      "type": "event"
    },
    {
      "anonymous": false,
      "inputs": [
        {
          "indexed": true,
          "internalType": "uint256",
          "name": "tokenId",
          "type": "uint256"
        },
        {
          "indexed": true,
          "internalType": "address",
          "name": "buyer",
          "type": "address"
        }
      ],
      "name": "BuyNFT",
      "type": "event"
    },
    {
      "anonymous": false,
      "inputs": [
        {
          "indexed": true,
          "internalType": "uint256",
          "name": "tokenId",
          "type": "uint256"
        },
        {
          "indexed": false,
          "internalType": "uint256",
          "name": "price",
          "type": "uint256"
        }
      ],
      "name": "ListNFT",
      "type": "event"
    },
    {
      "anonymous": false,
      "inputs": [
        {
          "indexed": false,
          "internalType": "uint256",
          "name": "_tokenId",
          "type": "uint256"
        }
      ],
      "name": "MetadataUpdate",
      "type": "event"
    },
    {
      "anonymous": false,
      "inputs": [
        {
          "indexed": true,
          "internalType": "address",
          "name": "owner",
          "type": "address"
        },
        {
          "indexed": true,
          "internalType": "uint256",
          "name": "tokenId",
          "type": "uint256"
        },
        {
          "indexed": false,
          "internalType": "string",
          "name": "tokenURI",
          "type": "string"
        }
      ],
      "name": "MintNFT",
      "type": "event"
    },
    {
      "anonymous": false,
      "inputs": [
        {
          "indexed": true,
          "internalType": "address",
          "name": "previousOwner",
          "type": "address"
        },
        {
          "indexed": true,
          "internalType": "address",
          "name": "newOwner",
          "type": "address"
        }
      ],
      "name": "OwnershipTransferred",
      "type": "event"
    },
    {
      "anonymous": false,
      "inputs": [
        {
          "indexed": true,
          "internalType": "address",
          "name": "from",
          "type": "address"
        },
        {
          "indexed": true,
          "internalType": "address",
          "name": "to",
          "type": "address"
        },
        {
          "indexed": true,
          "internalType": "uint256",
          "name": "tokenId",
          "type": "uint256"
        }
      ],
      "name": "Transfer",
      "type": "event"
    },
    {
      "inputs": [
        {
          "internalType": "address",
          "name": "to",
          "type": "address"
        },
        {
          "internalType": "uint256",
          "name": "tokenId",
          "type": "uint256"
        }
      ],
      "name": "approve",
      "outputs": [],
      "stateMutability": "nonpayable",
      "type": "function"
    },
    {
      "inputs": [
        {
          "internalType": "address",
          "name": "owner",
          "type": "address"
        }
      ],
      "name": "balanceOf",
      "outputs": [
        {
          "internalType": "uint256",
          "name": "",
          "type": "uint256"
        }
      ],
      "stateMutability": "view",
      "type": "function"
    },
    {
      "inputs": [
        {
          "internalType": "uint256",
          "name": "tokenId",
          "type": "uint256"
        }
      ],
      "name": "buyNFT",
      "outputs": [],
      "stateMutability": "payable",
      "type": "function"
    },
    {
      "inputs": [],
      "name": "getAllListedNFTs",
      "outputs": [
        {
          "components": [
            {
              "internalType": "uint256",
              "name": "tokenId",
              "type": "uint256"
            },
            {
              "internalType": "address",
              "name": "owner",
              "type": "address"
            },
            {
              "internalType": "uint256",
              "name": "price",
              "type": "uint256"
            },
            {
              "internalType": "bool",
              "name": "isListed",
              "type": "bool"
            }
          ],
          "internalType": "struct SudokuMarketplace.NFTItem[]",
          "name": "",
          "type": "tuple[]"
        }
      ],
      "stateMutability": "view",
      "type": "function"
    },
    {
      "inputs": [
        {
          "internalType": "uint256",
          "name": "tokenId",
          "type": "uint256"
        }
      ],
      "name": "getApproved",
      "outputs": [
        {
          "internalType": "address",
          "name": "",
          "type": "address"
        }
      ],
      "stateMutability": "view",
      "type": "function"
    },
    {
      "inputs": [
        {
          "internalType": "address",
          "name": "user",
          "type": "address"
        }
      ],
      "name": "getUserNFTs",
      "outputs": [
        {
          "components": [
            {
              "internalType": "uint256",
              "name": "tokenId",
              "type": "uint256"
            },
            {
              "internalType": "address",
              "name": "owner",
              "type": "address"
            },
            {
              "internalType": "uint256",
              "name": "price",
              "type": "uint256"
            },
            {
              "internalType": "bool",
              "name": "isListed",
              "type": "bool"
            }
          ],
          "internalType": "struct SudokuMarketplace.NFTItem[]",
          "name": "",
          "type": "tuple[]"
        }
      ],
      "stateMutability": "view",
      "type": "function"
    },
    {
      "inputs": [
        {
          "internalType": "address",
          "name": "owner",
          "type": "address"
        },
        {
          "internalType": "address",
          "name": "operator",
          "type": "address"
        }
      ],
      "name": "isApprovedForAll",
      "outputs": [
        {
          "internalType": "bool",
          "name": "",
          "type": "bool"
        }
      ],
      "stateMutability": "view",
      "type": "function"
    },
    {
      "inputs": [
        {
          "internalType": "uint256",
          "name": "tokenId",
          "type": "uint256"
        },
        {
          "internalType": "uint256",
          "name": "price",
          "type": "uint256"
        }
      ],
      "name": "listNFT",
      "outputs": [],
      "stateMutability": "nonpayable",
      "type": "function"
    },
    {
      "inputs": [],
      "name": "mintFee",
      "outputs": [
        {
          "internalType": "uint256",
          "name": "",
          "type": "uint256"
        }
      ],
      "stateMutability": "view",
      "type": "function"
    },
    {
      "inputs": [
        {
          "internalType": "string",
          "name": "tokenURI",
          "type": "string"
        }
      ],
      "name": "mintNFT",
      "outputs": [],
      "stateMutability": "payable",
      "type": "function"
    },
    {
      "inputs": [],
      "name": "name",
      "outputs": [
        {
          "internalType": "string",
          "name": "",
          "type": "string"
        }
      ],
      "stateMutability": "view",
      "type": "function"
    },
    {
      "inputs": [],
      "name": "nextTokenId",
      "outputs": [
        {
          "internalType": "uint256",
          "name": "",
          "type": "uint256"
        }
      ],
      "stateMutability": "view",
      "type": "function"
    },
    {
      "inputs": [
        {
          "internalType": "uint256",
          "name": "",
          "type": "uint256"
        }
      ],
      "name": "nftItems",
      "outputs": [
        {
          "internalType": "uint256",
          "name": "tokenId",
          "type": "uint256"
        },
        {
          "internalType": "address",
          "name": "owner",
          "type": "address"
        },
        {
          "internalType": "uint256",
          "name": "price",
          "type": "uint256"
        },
        {
          "internalType": "bool",
          "name": "isListed",
          "type": "bool"
        }
      ],
      "stateMutability": "view",
      "type": "function"
    },
    {
      "inputs": [],
      "name": "owner",
      "outputs": [
        {
          "internalType": "address",
          "name": "",
          "type": "address"
        }
      ],
      "stateMutability": "view",
      "type": "function"
    },
    {
      "inputs": [
        {
          "internalType": "uint256",
          "name": "tokenId",
          "type": "uint256"
        }
      ],
      "name": "ownerOf",
      "outputs": [
        {
          "internalType": "address",
          "name": "",
          "type": "address"
        }
      ],
      "stateMutability": "view",
      "type": "function"
    },
    {
      "inputs": [],
      "name": "renounceOwnership",
      "outputs": [],
      "stateMutability": "nonpayable",
      "type": "function"
    },
    {
      "inputs": [
        {
          "internalType": "address",
          "name": "from",
          "type": "address"
        },
        {
          "internalType": "address",
          "name": "to",
          "type": "address"
        },
        {
          "internalType": "uint256",
          "name": "tokenId",
          "type": "uint256"
        }
      ],
      "name": "safeTransferFrom",
      "outputs": [],
      "stateMutability": "nonpayable",
      "type": "function"
    },
    {
      "inputs": [
        {
          "internalType": "address",
          "name": "from",
          "type": "address"
        },
        {
          "internalType": "address",
          "name": "to",
          "type": "address"
        },
        {
          "internalType": "uint256",
          "name": "tokenId",
          "type": "uint256"
        },
        {
          "internalType": "bytes",
          "name": "data",
          "type": "bytes"
        }
      ],
      "name": "safeTransferFrom",
      "outputs": [],
      "stateMutability": "nonpayable",
      "type": "function"
    },
    {
      "inputs": [
        {
          "internalType": "address",
          "name": "operator",
          "type": "address"
        },
        {
          "internalType": "bool",
          "name": "approved",
          "type": "bool"
        }
      ],
      "name": "setApprovalForAll",
      "outputs": [],
      "stateMutability": "nonpayable",
      "type": "function"
    },
    {
      "inputs": [
        {
          "internalType": "bytes4",
          "name": "interfaceId",
          "type": "bytes4"
        }
      ],
      "name": "supportsInterface",
      "outputs": [
        {
          "internalType": "bool",
          "name": "",
          "type": "bool"
        }
      ],
      "stateMutability": "view",
      "type": "function"
    },
    {
      "inputs": [],
      "name": "symbol",
      "outputs": [
        {
          "internalType": "string",
          "name": "",
          "type": "string"
        }
      ],
      "stateMutability": "view",
      "type": "function"
    },
    {
      "inputs": [
        {
          "internalType": "uint256",
          "name": "tokenId",
          "type": "uint256"
        }
      ],
      "name": "tokenURI",
      "outputs": [
        {
          "internalType": "string",
          "name": "",
          "type": "string"
        }
      ],
      "stateMutability": "view",
      "type": "function"
    },
    {
      "inputs": [
        {
          "internalType": "address",
          "name": "from",
          "type": "address"
        },
        {
          "internalType": "address",
          "name": "to",
          "type": "address"
        },
        {
          "internalType": "uint256",
          "name": "tokenId",
          "type": "uint256"
        }
      ],
      "name": "transferFrom",
      "outputs": [],
      "stateMutability": "nonpayable",
      "type": "function"
    },
    {
      "inputs": [
        {
          "internalType": "address",
          "name": "newOwner",
          "type": "address"
        }
      ],
      "name": "transferOwnership",
      "outputs": [],
      "stateMutability": "nonpayable",
      "type": "function"
    },
    {
      "inputs": [],
      "name": "withdrawFunds",
      "outputs": [],
      "stateMutability": "nonpayable",
      "type": "function"
    }
  ],
  "bytecode": "0x608060405266038d7ea4c6800060095534801561001b57600080fd5b50336040518060400160405280600981526020017f5375646f6b754e465400000000000000000000000000000000000000000000008152506040518060400160405280600481526020017f5355444f0000000000000000000000000000000000000000000000000000000081525081600090816100989190610448565b5080600190816100a89190610448565b505050600073ffffffffffffffffffffffffffffffffffffffff168173ffffffffffffffffffffffffffffffffffffffff160361011d5760006040517f1e4fbdf7000000000000000000000000000000000000000000000000000000008152600401610114919061055b565b60405180910390fd5b61012c8161013260201b60201c565b50610576565b6000600760009054906101000a900473ffffffffffffffffffffffffffffffffffffffff16905081600760006101000a81548173ffffffffffffffffffffffffffffffffffffffff021916908373ffffffffffffffffffffffffffffffffffffffff1602179055508173ffffffffffffffffffffffffffffffffffffffff168173ffffffffffffffffffffffffffffffffffffffff167f8be0079c531659141344cd1fd0a4f28419497f9722a3daafe3b4186f6b6457e060405160405180910390a35050565b600081519050919050565b7f4e487b7100000000000000000000000000000000000000000000000000000000600052604160045260246000fd5b7f4e487b7100000000000000000000000000000000000000000000000000000000600052602260045260246000fd5b6000600282049050600182168061027957607f821691505b60208210810361028c5761028b610232565b5b50919050565b60008190508160005260206000209050919050565b60006020601f8301049050919050565b600082821b905092915050565b6000600883026102f47fffffffffffffffffffffffffffffffffffffffffffffffffffffffffffffffff826102b7565b6102fe86836102b7565b95508019841693508086168417925050509392505050565b6000819050919050565b6000819050919050565b600061034561034061033b84610316565b610320565b610316565b9050919050565b6000819050919050565b61035f8361032a565b61037361036b8261034c565b8484546102c4565b825550505050565b600090565b61038861037b565b610393818484610356565b505050565b5b818110156103b7576103ac600082610380565b600181019050610399565b5050565b601f8211156103fc576103cd81610292565b6103d6846102a7565b810160208510156103e5578190505b6103f96103f1856102a7565b830182610398565b50505b505050565b600082821c905092915050565b600061041f60001984600802610401565b1980831691505092915050565b6000610438838361040e565b9150826002028217905092915050565b610451826101f8565b67ffffffffffffffff81111561046a57610469610203565b5b6104748254610261565b61047f8282856103bb565b600060209050601f8311600181146104b257600084156104a0578287015190505b6104aa858261042c565b865550610512565b601f1984166104c086610292565b60005b828110156104e8578489015182556001820191506020850194506020810190506104c3565b868310156105055784890151610501601f89168261040e565b8355505b6001600288020188555050505b505050505050565b600073ffffffffffffffffffffffffffffffffffffffff82169050919050565b60006105458261051a565b9050919050565b6105558161053a565b82525050565b6000602082019050610570600083018461054c565b92915050565b613777806105856000396000f3fe6080604052600436106101665760003560e01c80636352211e116100d157806395d89b411161008a578063c87b56dd11610064578063c87b56dd1461051e578063e985e9c51461055b578063f2fde38b14610598578063fb37e883146105c157610166565b806395d89b41146104a1578063a22cb465146104cc578063b88d4fde146104f557610166565b80636352211e1461039157806370a08231146103ce578063715018a61461040b57806375794a3c146104225780638da5cb5b1461044d57806394383f141461047857610166565b806324600fc31161012357806324600fc31461028d57806342842e0e146102a45780634b58ffaa146102cd57806351ed8288146102f857806352de4ee514610314578063628213961461035157610166565b806301ffc9a71461016b57806306fdde03146101a8578063081812fc146101d3578063095ea7b31461021057806313966db51461023957806323b872dd14610264575b600080fd5b34801561017757600080fd5b50610192600480360381019061018d91906127bf565b6105dd565b60405161019f9190612807565b60405180910390f35b3480156101b457600080fd5b506101bd61063e565b6040516101ca91906128b2565b60405180910390f35b3480156101df57600080fd5b506101fa60048036038101906101f5919061290a565b6106d0565b6040516102079190612978565b60405180910390f35b34801561021c57600080fd5b50610237600480360381019061023291906129bf565b6106ec565b005b34801561024557600080fd5b5061024e610702565b60405161025b9190612a0e565b60405180910390f35b34801561027057600080fd5b5061028b60048036038101906102869190612a29565b610708565b005b34801561029957600080fd5b506102a261080a565b005b3480156102b057600080fd5b506102cb60048036038101906102c69190612a29565b610862565b005b3480156102d957600080fd5b506102e2610882565b6040516102ef9190612bad565b60405180910390f35b610312600480360381019061030d919061290a565b610a5a565b005b34801561032057600080fd5b5061033b60048036038101906103369190612bcf565b610c31565b6040516103489190612bad565b60405180910390f35b34801561035d57600080fd5b506103786004803603810190610373919061290a565b610df8565b6040516103889493929190612bfc565b60405180910390f35b34801561039d57600080fd5b506103b860048036038101906103b3919061290a565b610e55565b6040516103c59190612978565b60405180910390f35b3480156103da57600080fd5b506103f560048036038101906103f09190612bcf565b610e67565b6040516104029190612a0e565b60405180910390f35b34801561041757600080fd5b50610420610f21565b005b34801561042e57600080fd5b50610437610f35565b6040516104449190612a0e565b60405180910390f35b34801561045957600080fd5b50610462610f3b565b60405161046f9190612978565b60405180910390f35b34801561048457600080fd5b5061049f600480360381019061049a9190612c41565b610f65565b005b3480156104ad57600080fd5b506104b66110a4565b6040516104c391906128b2565b60405180910390f35b3480156104d857600080fd5b506104f360048036038101906104ee9190612cad565b611136565b005b34801561050157600080fd5b5061051c60048036038101906105179190612e22565b61114c565b005b34801561052a57600080fd5b506105456004803603810190610540919061290a565b611171565b60405161055291906128b2565b60405180910390f35b34801561056757600080fd5b50610582600480360381019061057d9190612ea5565b611284565b60405161058f9190612807565b60405180910390f35b3480156105a457600080fd5b506105bf60048036038101906105ba9190612bcf565b611318565b005b6105db60048036038101906105d69190612f86565b61139e565b005b6000634906490660e01b7bffffffffffffffffffffffffffffffffffffffffffffffffffffffff1916827bffffffffffffffffffffffffffffffffffffffffffffffffffffffff19161480610637575061063682611535565b5b9050919050565b60606000805461064d90612ffe565b80601f016020809104026020016040519081016040528092919081815260200182805461067990612ffe565b80156106c65780601f1061069b576101008083540402835291602001916106c6565b820191906000526020600020905b8154815290600101906020018083116106a957829003601f168201915b5050505050905090565b60006106db82611617565b506106e58261169f565b9050919050565b6106fe82826106f96116dc565b6116e4565b5050565b60095481565b600073ffffffffffffffffffffffffffffffffffffffff168273ffffffffffffffffffffffffffffffffffffffff160361077a5760006040517f64a0ae920000000000000000000000000000000000000000000000000000000081526004016107719190612978565b60405180910390fd5b600061078e83836107896116dc565b6116f6565b90508373ffffffffffffffffffffffffffffffffffffffff168173ffffffffffffffffffffffffffffffffffffffff1614610804578382826040517f64283d7b0000000000000000000000000000000000000000000000000000000081526004016107fb9392919061302f565b60405180910390fd5b50505050565b610812611910565b61081a610f3b565b73ffffffffffffffffffffffffffffffffffffffff166108fc479081150290604051600060405180830381858888f1935050505015801561085f573d6000803e3d6000fd5b50565b61087d8383836040518060200160405280600081525061114c565b505050565b606060006008549050600080600090505b828110156108e057600a600082815260200190815260200160002060030160009054906101000a900460ff16156108d35781806108cf90613095565b9250505b8080600101915050610893565b5060008167ffffffffffffffff8111156108fd576108fc612cf7565b5b60405190808252806020026020018201604052801561093657816020015b610923612713565b81526020019060019003908161091b5790505b509050600080600090505b84811015610a4f57600a600082815260200190815260200160002060030160009054906101000a900460ff1615610a4257600a6000828152602001908152602001600020604051806080016040529081600082015481526020016001820160009054906101000a900473ffffffffffffffffffffffffffffffffffffffff1673ffffffffffffffffffffffffffffffffffffffff1673ffffffffffffffffffffffffffffffffffffffff168152602001600282015481526020016003820160009054906101000a900460ff161515151581525050838381518110610a2857610a276130dd565b5b60200260200101819052508180610a3e90613095565b9250505b8080600101915050610941565b508194505050505090565b6000600a600083815260200190815260200160002090508060030160009054906101000a900460ff16610ac2576040517f08c379a0000000000000000000000000000000000000000000000000000000008152600401610ab990613158565b60405180910390fd5b8060020154341015610b09576040517f08c379a0000000000000000000000000000000000000000000000000000000008152600401610b00906131c4565b60405180910390fd5b60008160010160009054906101000a900473ffffffffffffffffffffffffffffffffffffffff169050338260010160006101000a81548173ffffffffffffffffffffffffffffffffffffffff021916908373ffffffffffffffffffffffffffffffffffffffff16021790555060008260030160006101000a81548160ff021916908315150217905550610b9d813385611997565b8073ffffffffffffffffffffffffffffffffffffffff166108fc83600201549081150290604051600060405180830381858888f19350505050158015610be7573d6000803e3d6000fd5b503373ffffffffffffffffffffffffffffffffffffffff16837f079fc0f01dc38ba287c48d683564d13539db09719cb3532fee3c1b1b61bbcf9560405160405180910390a3505050565b60606000610c3e83610e67565b90506000808267ffffffffffffffff811115610c5d57610c5c612cf7565b5b604051908082528060200260200182016040528015610c9657816020015b610c83612713565b815260200190600190039081610c7b5790505b50905060005b600854811015610dec578573ffffffffffffffffffffffffffffffffffffffff16600a600083815260200190815260200160002060010160009054906101000a900473ffffffffffffffffffffffffffffffffffffffff1673ffffffffffffffffffffffffffffffffffffffff1603610ddf57600a6000828152602001908152602001600020604051806080016040529081600082015481526020016001820160009054906101000a900473ffffffffffffffffffffffffffffffffffffffff1673ffffffffffffffffffffffffffffffffffffffff1673ffffffffffffffffffffffffffffffffffffffff168152602001600282015481526020016003820160009054906101000a900460ff161515151581525050828481518110610dc557610dc46130dd565b5b60200260200101819052508280610ddb90613095565b9350505b8080600101915050610c9c565b50809350505050919050565b600a6020528060005260406000206000915090508060000154908060010160009054906101000a900473ffffffffffffffffffffffffffffffffffffffff16908060020154908060030160009054906101000a900460ff16905084565b6000610e6082611617565b9050919050565b60008073ffffffffffffffffffffffffffffffffffffffff168273ffffffffffffffffffffffffffffffffffffffff1603610eda5760006040517f89c62b64000000000000000000000000000000000000000000000000000000008152600401610ed19190612978565b60405180910390fd5b600360008373ffffffffffffffffffffffffffffffffffffffff1673ffffffffffffffffffffffffffffffffffffffff168152602001908152602001600020549050919050565b610f29611910565b610f336000611b04565b565b60085481565b6000600760009054906101000a900473ffffffffffffffffffffffffffffffffffffffff16905090565b3373ffffffffffffffffffffffffffffffffffffffff16610f8583610e55565b73ffffffffffffffffffffffffffffffffffffffff1614610fdb576040517f08c379a0000000000000000000000000000000000000000000000000000000008152600401610fd290613230565b60405180910390fd5b6000811161101e576040517f08c379a00000000000000000000000000000000000000000000000000000000081526004016110159061329c565b60405180910390fd5b80600a6000848152602001908152602001600020600201819055506001600a600084815260200190815260200160002060030160006101000a81548160ff021916908315150217905550817fadc2524c8f93616be9bad3bcab121a8de2a297699e78d4762481efcd6d26a926826040516110989190612a0e565b60405180910390a25050565b6060600180546110b390612ffe565b80601f01602080910402602001604051908101604052809291908181526020018280546110df90612ffe565b801561112c5780601f106111015761010080835404028352916020019161112c565b820191906000526020600020905b81548152906001019060200180831161110f57829003601f168201915b5050505050905090565b6111486111416116dc565b8383611bca565b5050565b611157848484610708565b61116b6111626116dc565b85858585611d39565b50505050565b606061117c82611617565b50600060066000848152602001908152602001600020805461119d90612ffe565b80601f01602080910402602001604051908101604052809291908181526020018280546111c990612ffe565b80156112165780601f106111eb57610100808354040283529160200191611216565b820191906000526020600020905b8154815290600101906020018083116111f957829003601f168201915b505050505090506000611227611eea565b9050600081510361123c57819250505061127f565b6000825111156112715780826040516020016112599291906132f8565b6040516020818303038152906040529250505061127f565b61127a84611f01565b925050505b919050565b6000600560008473ffffffffffffffffffffffffffffffffffffffff1673ffffffffffffffffffffffffffffffffffffffff16815260200190815260200160002060008373ffffffffffffffffffffffffffffffffffffffff1673ffffffffffffffffffffffffffffffffffffffff16815260200190815260200160002060009054906101000a900460ff16905092915050565b611320611910565b600073ffffffffffffffffffffffffffffffffffffffff168173ffffffffffffffffffffffffffffffffffffffff16036113925760006040517f1e4fbdf70000000000000000000000000000000000000000000000000000000081526004016113899190612978565b60405180910390fd5b61139b81611b04565b50565b6009543410156113e3576040517f08c379a00000000000000000000000000000000000000000000000000000000081526004016113da90613368565b60405180910390fd5b60006008549050600860008154809291906113fd90613095565b919050555061140c3382611f6a565b6114168183611f88565b60405180608001604052808281526020013373ffffffffffffffffffffffffffffffffffffffff1681526020016000815260200160001515815250600a60008381526020019081526020016000206000820151816000015560208201518160010160006101000a81548173ffffffffffffffffffffffffffffffffffffffff021916908373ffffffffffffffffffffffffffffffffffffffff1602179055506040820151816002015560608201518160030160006101000a81548160ff021916908315150217905550905050803373ffffffffffffffffffffffffffffffffffffffff167f86094769a8d8b54a575d56650097d483bd4ecdeb3c8dd7ac9ac20df1e0d5ae038460405161152991906128b2565b60405180910390a35050565b60007f80ac58cd000000000000000000000000000000000000000000000000000000007bffffffffffffffffffffffffffffffffffffffffffffffffffffffff1916827bffffffffffffffffffffffffffffffffffffffffffffffffffffffff1916148061160057507f5b5e139f000000000000000000000000000000000000000000000000000000007bffffffffffffffffffffffffffffffffffffffffffffffffffffffff1916827bffffffffffffffffffffffffffffffffffffffffffffffffffffffff1916145b80611610575061160f82611fe4565b5b9050919050565b6000806116238361204e565b9050600073ffffffffffffffffffffffffffffffffffffffff168173ffffffffffffffffffffffffffffffffffffffff160361169657826040517f7e27328900000000000000000000000000000000000000000000000000000000815260040161168d9190612a0e565b60405180910390fd5b80915050919050565b60006004600083815260200190815260200160002060009054906101000a900473ffffffffffffffffffffffffffffffffffffffff169050919050565b600033905090565b6116f1838383600161208b565b505050565b6000806117028461204e565b9050600073ffffffffffffffffffffffffffffffffffffffff168373ffffffffffffffffffffffffffffffffffffffff161461174457611743818486612250565b5b600073ffffffffffffffffffffffffffffffffffffffff168173ffffffffffffffffffffffffffffffffffffffff16146117d55761178660008560008061208b565b6001600360008373ffffffffffffffffffffffffffffffffffffffff1673ffffffffffffffffffffffffffffffffffffffff168152602001908152602001600020600082825403925050819055505b600073ffffffffffffffffffffffffffffffffffffffff168573ffffffffffffffffffffffffffffffffffffffff1614611858576001600360008773ffffffffffffffffffffffffffffffffffffffff1673ffffffffffffffffffffffffffffffffffffffff168152602001908152602001600020600082825401925050819055505b846002600086815260200190815260200160002060006101000a81548173ffffffffffffffffffffffffffffffffffffffff021916908373ffffffffffffffffffffffffffffffffffffffff160217905550838573ffffffffffffffffffffffffffffffffffffffff168273ffffffffffffffffffffffffffffffffffffffff167fddf252ad1be2c89b69c2b068fc378daa952ba7f163c4a11628f55a4df523b3ef60405160405180910390a4809150509392505050565b6119186116dc565b73ffffffffffffffffffffffffffffffffffffffff16611936610f3b565b73ffffffffffffffffffffffffffffffffffffffff1614611995576119596116dc565b6040517f118cdaa700000000000000000000000000000000000000000000000000000000815260040161198c9190612978565b60405180910390fd5b565b600073ffffffffffffffffffffffffffffffffffffffff168273ffffffffffffffffffffffffffffffffffffffff1603611a095760006040517f64a0ae92000000000000000000000000000000000000000000000000000000008152600401611a009190612978565b60405180910390fd5b6000611a17838360006116f6565b9050600073ffffffffffffffffffffffffffffffffffffffff168173ffffffffffffffffffffffffffffffffffffffff1603611a8a57816040517f7e273289000000000000000000000000000000000000000000000000000000008152600401611a819190612a0e565b60405180910390fd5b8373ffffffffffffffffffffffffffffffffffffffff168173ffffffffffffffffffffffffffffffffffffffff1614611afe578382826040517f64283d7b000000000000000000000000000000000000000000000000000000008152600401611af59392919061302f565b60405180910390fd5b50505050565b6000600760009054906101000a900473ffffffffffffffffffffffffffffffffffffffff16905081600760006101000a81548173ffffffffffffffffffffffffffffffffffffffff021916908373ffffffffffffffffffffffffffffffffffffffff1602179055508173ffffffffffffffffffffffffffffffffffffffff168173ffffffffffffffffffffffffffffffffffffffff167f8be0079c531659141344cd1fd0a4f28419497f9722a3daafe3b4186f6b6457e060405160405180910390a35050565b600073ffffffffffffffffffffffffffffffffffffffff168273ffffffffffffffffffffffffffffffffffffffff1603611c3b57816040517f5b08ba18000000000000000000000000000000000000000000000000000000008152600401611c329190612978565b60405180910390fd5b80600560008573ffffffffffffffffffffffffffffffffffffffff1673ffffffffffffffffffffffffffffffffffffffff16815260200190815260200160002060008473ffffffffffffffffffffffffffffffffffffffff1673ffffffffffffffffffffffffffffffffffffffff16815260200190815260200160002060006101000a81548160ff0219169083151502179055508173ffffffffffffffffffffffffffffffffffffffff168373ffffffffffffffffffffffffffffffffffffffff167f17307eab39ab6107e8899845ad3d59bd9653f200f220920489ca2b5937696c3183604051611d2c9190612807565b60405180910390a3505050565b60008373ffffffffffffffffffffffffffffffffffffffff163b1115611ee3578273ffffffffffffffffffffffffffffffffffffffff1663150b7a02868685856040518563ffffffff1660e01b8152600401611d9894939291906133dd565b6020604051808303816000875af1925050508015611dd457506040513d601f19601f82011682018060405250810190611dd1919061343e565b60015b611e58573d8060008114611e04576040519150601f19603f3d011682016040523d82523d6000602084013e611e09565b606091505b506000815103611e5057836040517f64a0ae92000000000000000000000000000000000000000000000000000000008152600401611e479190612978565b60405180910390fd5b805181602001fd5b63150b7a0260e01b7bffffffffffffffffffffffffffffffffffffffffffffffffffffffff1916817bffffffffffffffffffffffffffffffffffffffffffffffffffffffff191614611ee157836040517f64a0ae92000000000000000000000000000000000000000000000000000000008152600401611ed89190612978565b60405180910390fd5b505b5050505050565b606060405180602001604052806000815250905090565b6060611f0c82611617565b506000611f17611eea565b90506000815111611f375760405180602001604052806000815250611f62565b80611f4184612314565b604051602001611f529291906132f8565b6040516020818303038152906040525b915050919050565b611f848282604051806020016040528060008152506123e2565b5050565b80600660008481526020019081526020016000209081611fa89190613617565b507ff8e1a15aba9398e019f0b49df1a4fde98ee17ae345cb5f6b5e2c27f5033e8ce782604051611fd89190612a0e565b60405180910390a15050565b60007f01ffc9a7000000000000000000000000000000000000000000000000000000007bffffffffffffffffffffffffffffffffffffffffffffffffffffffff1916827bffffffffffffffffffffffffffffffffffffffffffffffffffffffff1916149050919050565b60006002600083815260200190815260200160002060009054906101000a900473ffffffffffffffffffffffffffffffffffffffff169050919050565b80806120c45750600073ffffffffffffffffffffffffffffffffffffffff168273ffffffffffffffffffffffffffffffffffffffff1614155b156121f85760006120d484611617565b9050600073ffffffffffffffffffffffffffffffffffffffff168373ffffffffffffffffffffffffffffffffffffffff161415801561213f57508273ffffffffffffffffffffffffffffffffffffffff168173ffffffffffffffffffffffffffffffffffffffff1614155b801561215257506121508184611284565b155b1561219457826040517fa9fbf51f00000000000000000000000000000000000000000000000000000000815260040161218b9190612978565b60405180910390fd5b81156121f657838573ffffffffffffffffffffffffffffffffffffffff168273ffffffffffffffffffffffffffffffffffffffff167f8c5be1e5ebec7d5bd14f71427d1e84f3dd0314c0f7b2291e5b200ac8c7c3b92560405160405180910390a45b505b836004600085815260200190815260200160002060006101000a81548173ffffffffffffffffffffffffffffffffffffffff021916908373ffffffffffffffffffffffffffffffffffffffff16021790555050505050565b61225b838383612406565b61230f57600073ffffffffffffffffffffffffffffffffffffffff168373ffffffffffffffffffffffffffffffffffffffff16036122d057806040517f7e2732890000000000000000000000000000000000000000000000000000000081526004016122c79190612a0e565b60405180910390fd5b81816040517f177e802f0000000000000000000000000000000000000000000000000000000081526004016123069291906136e9565b60405180910390fd5b505050565b606060006001612323846124c7565b01905060008167ffffffffffffffff81111561234257612341612cf7565b5b6040519080825280601f01601f1916602001820160405280156123745781602001600182028036833780820191505090505b509050600082602001820190505b6001156123d7578080600190039150507f3031323334353637383961626364656600000000000000000000000000000000600a86061a8153600a85816123cb576123ca613712565b5b04945060008503612382575b819350505050919050565b6123ec838361261a565b6124016123f76116dc565b6000858585611d39565b505050565b60008073ffffffffffffffffffffffffffffffffffffffff168373ffffffffffffffffffffffffffffffffffffffff16141580156124be57508273ffffffffffffffffffffffffffffffffffffffff168473ffffffffffffffffffffffffffffffffffffffff16148061247f575061247e8484611284565b5b806124bd57508273ffffffffffffffffffffffffffffffffffffffff166124a58361169f565b73ffffffffffffffffffffffffffffffffffffffff16145b5b90509392505050565b600080600090507a184f03e93ff9f4daa797ed6e38ed64bf6a1f0100000000000000008310612525577a184f03e93ff9f4daa797ed6e38ed64bf6a1f010000000000000000838161251b5761251a613712565b5b0492506040810190505b6d04ee2d6d415b85acef81000000008310612562576d04ee2d6d415b85acef8100000000838161255857612557613712565b5b0492506020810190505b662386f26fc10000831061259157662386f26fc10000838161258757612586613712565b5b0492506010810190505b6305f5e10083106125ba576305f5e10083816125b0576125af613712565b5b0492506008810190505b61271083106125df5761271083816125d5576125d4613712565b5b0492506004810190505b6064831061260257606483816125f8576125f7613712565b5b0492506002810190505b600a8310612611576001810190505b80915050919050565b600073ffffffffffffffffffffffffffffffffffffffff168273ffffffffffffffffffffffffffffffffffffffff160361268c5760006040517f64a0ae920000000000000000000000000000000000000000000000000000000081526004016126839190612978565b60405180910390fd5b600061269a838360006116f6565b9050600073ffffffffffffffffffffffffffffffffffffffff168173ffffffffffffffffffffffffffffffffffffffff161461270e5760006040517f73c6ac6e0000000000000000000000000000000000000000000000000000000081526004016127059190612978565b60405180910390fd5b505050565b604051806080016040528060008152602001600073ffffffffffffffffffffffffffffffffffffffff168152602001600081526020016000151581525090565b6000604051905090565b600080fd5b600080fd5b60007fffffffff0000000000000000000000000000000000000000000000000000000082169050919050565b61279c81612767565b81146127a757600080fd5b50565b6000813590506127b981612793565b92915050565b6000602082840312156127d5576127d461275d565b5b60006127e3848285016127aa565b91505092915050565b60008115159050919050565b612801816127ec565b82525050565b600060208201905061281c60008301846127f8565b92915050565b600081519050919050565b600082825260208201905092915050565b60005b8381101561285c578082015181840152602081019050612841565b60008484015250505050565b6000601f19601f8301169050919050565b600061288482612822565b61288e818561282d565b935061289e81856020860161283e565b6128a781612868565b840191505092915050565b600060208201905081810360008301526128cc8184612879565b905092915050565b6000819050919050565b6128e7816128d4565b81146128f257600080fd5b50565b600081359050612904816128de565b92915050565b6000602082840312156129205761291f61275d565b5b600061292e848285016128f5565b91505092915050565b600073ffffffffffffffffffffffffffffffffffffffff82169050919050565b600061296282612937565b9050919050565b61297281612957565b82525050565b600060208201905061298d6000830184612969565b92915050565b61299c81612957565b81146129a757600080fd5b50565b6000813590506129b981612993565b92915050565b600080604083850312156129d6576129d561275d565b5b60006129e4858286016129aa565b92505060206129f5858286016128f5565b9150509250929050565b612a08816128d4565b82525050565b6000602082019050612a2360008301846129ff565b92915050565b600080600060608486031215612a4257612a4161275d565b5b6000612a50868287016129aa565b9350506020612a61868287016129aa565b9250506040612a72868287016128f5565b9150509250925092565b600081519050919050565b600082825260208201905092915050565b6000819050602082019050919050565b612ab1816128d4565b82525050565b612ac081612957565b82525050565b612acf816127ec565b82525050565b608082016000820151612aeb6000850182612aa8565b506020820151612afe6020850182612ab7565b506040820151612b116040850182612aa8565b506060820151612b246060850182612ac6565b50505050565b6000612b368383612ad5565b60808301905092915050565b6000602082019050919050565b6000612b5a82612a7c565b612b648185612a87565b9350612b6f83612a98565b8060005b83811015612ba0578151612b878882612b2a565b9750612b9283612b42565b925050600181019050612b73565b5085935050505092915050565b60006020820190508181036000830152612bc78184612b4f565b905092915050565b600060208284031215612be557612be461275d565b5b6000612bf3848285016129aa565b91505092915050565b6000608082019050612c1160008301876129ff565b612c1e6020830186612969565b612c2b60408301856129ff565b612c3860608301846127f8565b95945050505050565b60008060408385031215612c5857612c5761275d565b5b6000612c66858286016128f5565b9250506020612c77858286016128f5565b9150509250929050565b612c8a816127ec565b8114612c9557600080fd5b50565b600081359050612ca781612c81565b92915050565b60008060408385031215612cc457612cc361275d565b5b6000612cd2858286016129aa565b9250506020612ce385828601612c98565b9150509250929050565b600080fd5b600080fd5b7f4e487b7100000000000000000000000000000000000000000000000000000000600052604160045260246000fd5b612d2f82612868565b810181811067ffffffffffffffff82111715612d4e57612d4d612cf7565b5b80604052505050565b6000612d61612753565b9050612d6d8282612d26565b919050565b600067ffffffffffffffff821115612d8d57612d8c612cf7565b5b612d9682612868565b9050602081019050919050565b82818337600083830152505050565b6000612dc5612dc084612d72565b612d57565b905082815260208101848484011115612de157612de0612cf2565b5b612dec848285612da3565b509392505050565b600082601f830112612e0957612e08612ced565b5b8135612e19848260208601612db2565b91505092915050565b60008060008060808587031215612e3c57612e3b61275d565b5b6000612e4a878288016129aa565b9450506020612e5b878288016129aa565b9350506040612e6c878288016128f5565b925050606085013567ffffffffffffffff811115612e8d57612e8c612762565b5b612e9987828801612df4565b91505092959194509250565b60008060408385031215612ebc57612ebb61275d565b5b6000612eca858286016129aa565b9250506020612edb858286016129aa565b9150509250929050565b600067ffffffffffffffff821115612f0057612eff612cf7565b5b612f0982612868565b9050602081019050919050565b6000612f29612f2484612ee5565b612d57565b905082815260208101848484011115612f4557612f44612cf2565b5b612f50848285612da3565b509392505050565b600082601f830112612f6d57612f6c612ced565b5b8135612f7d848260208601612f16565b91505092915050565b600060208284031215612f9c57612f9b61275d565b5b600082013567ffffffffffffffff811115612fba57612fb9612762565b5b612fc684828501612f58565b91505092915050565b7f4e487b7100000000000000000000000000000000000000000000000000000000600052602260045260246000fd5b6000600282049050600182168061301657607f821691505b60208210810361302957613028612fcf565b5b50919050565b60006060820190506130446000830186612969565b61305160208301856129ff565b61305e6040830184612969565b949350505050565b7f4e487b7100000000000000000000000000000000000000000000000000000000600052601160045260246000fd5b60006130a0826128d4565b91507fffffffffffffffffffffffffffffffffffffffffffffffffffffffffffffffff82036130d2576130d1613066565b5b600182019050919050565b7f4e487b7100000000000000000000000000000000000000000000000000000000600052603260045260246000fd5b7f4e4654206973206e6f74206c697374656420666f722073616c65000000000000600082015250565b6000613142601a8361282d565b915061314d8261310c565b602082019050919050565b6000602082019050818103600083015261317181613135565b9050919050565b7f4e6f7420656e6f7567682045544820746f20627579204e465400000000000000600082015250565b60006131ae60198361282d565b91506131b982613178565b602082019050919050565b600060208201905081810360008301526131dd816131a1565b9050919050565b7f596f7520617265206e6f7420746865206f776e65720000000000000000000000600082015250565b600061321a60158361282d565b9150613225826131e4565b602082019050919050565b600060208201905081810360008301526132498161320d565b9050919050565b7f5072696365206d7573742062652067726561746572207468616e207a65726f00600082015250565b6000613286601f8361282d565b915061329182613250565b602082019050919050565b600060208201905081810360008301526132b581613279565b9050919050565b600081905092915050565b60006132d282612822565b6132dc81856132bc565b93506132ec81856020860161283e565b80840191505092915050565b600061330482856132c7565b915061331082846132c7565b91508190509392505050565b7f4e6f7420656e6f7567682045544820746f206d696e74204e4654000000000000600082015250565b6000613352601a8361282d565b915061335d8261331c565b602082019050919050565b6000602082019050818103600083015261338181613345565b9050919050565b600081519050919050565b600082825260208201905092915050565b60006133af82613388565b6133b98185613393565b93506133c981856020860161283e565b6133d281612868565b840191505092915050565b60006080820190506133f26000830187612969565b6133ff6020830186612969565b61340c60408301856129ff565b818103606083015261341e81846133a4565b905095945050505050565b60008151905061343881612793565b92915050565b6000602082840312156134545761345361275d565b5b600061346284828501613429565b91505092915050565b60008190508160005260206000209050919050565b60006020601f8301049050919050565b600082821b905092915050565b6000600883026134cd7fffffffffffffffffffffffffffffffffffffffffffffffffffffffffffffffff82613490565b6134d78683613490565b95508019841693508086168417925050509392505050565b6000819050919050565b600061351461350f61350a846128d4565b6134ef565b6128d4565b9050919050565b6000819050919050565b61352e836134f9565b61354261353a8261351b565b84845461349d565b825550505050565b600090565b61355761354a565b613562818484613525565b505050565b5b818110156135865761357b60008261354f565b600181019050613568565b5050565b601f8211156135cb5761359c8161346b565b6135a584613480565b810160208510156135b4578190505b6135c86135c085613480565b830182613567565b50505b505050565b600082821c905092915050565b60006135ee600019846008026135d0565b1980831691505092915050565b600061360783836135dd565b9150826002028217905092915050565b61362082612822565b67ffffffffffffffff81111561363957613638612cf7565b5b6136438254612ffe565b61364e82828561358a565b600060209050601f831160018114613681576000841561366f578287015190505b61367985826135fb565b8655506136e1565b601f19841661368f8661346b565b60005b828110156136b757848901518255600182019150602085019450602081019050613692565b868310156136d457848901516136d0601f8916826135dd565b8355505b6001600288020188555050505b505050505050565b60006040820190506136fe6000830185612969565b61370b60208301846129ff565b9392505050565b7f4e487b7100000000000000000000000000000000000000000000000000000000600052601260045260246000fdfea26469706673582212206306501ae4c75e794584a832cfd395ff7d50ee148a9d19ea76a2529bd1efd58964736f6c634300081b0033",
  "linkReferences": {},
  "deployedLinkReferences": {}
}