{
  "_format": "hh-sol-artifact-1",
  "contractName": "SudokuMarketplacetest",
  "sourceName": "contracts/SudokuMarketplacetest.sol",
  "abi": [
    {
      "inputs": [],
      "stateMutability": "nonpayable",
      "type": "constructor"
    },
    {
      "inputs": [
        {
          "internalType": "address",
          "name": "sender",
          "type": "address"
        },
        {
          "internalType": "uint256",
          "name": "tokenId",
          "type": "uint256"
        },
        {
          "internalType": "address",
          "name": "owner",
          "type": "address"
        }
      ],
      "name": "ERC721IncorrectOwner",
      "type": "error"
    },
    {
      "inputs": [
        {
          "internalType": "address",
          "name": "operator",
          "type": "address"
        },
        {
          "internalType": "uint256",
          "name": "tokenId",
          "type": "uint256"
        }
      ],
      "name": "ERC721InsufficientApproval",
      "type": "error"
    },
    {
      "inputs": [
        {
          "internalType": "address",
          "name": "approver",
          "type": "address"
        }
      ],
      "name": "ERC721InvalidApprover",
      "type": "error"
    },
    {
      "inputs": [
        {
          "internalType": "address",
          "name": "operator",
          "type": "address"
        }
      ],
      "name": "ERC721InvalidOperator",
      "type": "error"
    },
    {
      "inputs": [
        {
          "internalType": "address",
          "name": "owner",
          "type": "address"
        }
      ],
      "name": "ERC721InvalidOwner",
      "type": "error"
    },
    {
      "inputs": [
        {
          "internalType": "address",
          "name": "receiver",
          "type": "address"
        }
      ],
      "name": "ERC721InvalidReceiver",
      "type": "error"
    },
    {
      "inputs": [
        {
          "internalType": "address",
          "name": "sender",
          "type": "address"
        }
      ],
      "name": "ERC721InvalidSender",
      "type": "error"
    },
    {
      "inputs": [
        {
          "internalType": "uint256",
          "name": "tokenId",
          "type": "uint256"
        }
      ],
      "name": "ERC721NonexistentToken",
      "type": "error"
    },
    {
      "inputs": [
        {
          "internalType": "address",
          "name": "owner",
          "type": "address"
        }
      ],
      "name": "OwnableInvalidOwner",
      "type": "error"
    },
    {
      "inputs": [
        {
          "internalType": "address",
          "name": "account",
          "type": "address"
        }
      ],
      "name": "OwnableUnauthorizedAccount",
      "type": "error"
    },
    {
      "anonymous": false,
      "inputs": [
        {
          "indexed": true,
          "internalType": "address",
          "name": "owner",
          "type": "address"
        },
        {
          "indexed": true,
          "internalType": "address",
          "name": "approved",
          "type": "address"
        },
        {
          "indexed": true,
          "internalType": "uint256",
          "name": "tokenId",
          "type": "uint256"
        }
      ],
      "name": "Approval",
      "type": "event"
    },
    {
      "anonymous": false,
      "inputs": [
        {
          "indexed": true,
          "internalType": "address",
          "name": "owner",
          "type": "address"
        },
        {
          "indexed": true,
          "internalType": "address",
          "name": "operator",
          "type": "address"
        },
        {
          "indexed": false,
          "internalType": "bool",
          "name": "approved",
          "type": "bool"
        }
      ],
      "name": "ApprovalForAll",
      "type": "event"
    },
    {
      "anonymous": false,
      "inputs": [
        {
          "indexed": false,
          "internalType": "uint256",
          "name": "_fromTokenId",
          "type": "uint256"
        },
        {
          "indexed": false,
          "internalType": "uint256",
          "name": "_toTokenId",
          "type": "uint256"
        }
      ],
      "name": "BatchMetadataUpdate",
      "type": "event"
    },
    {
      "anonymous": false,
      "inputs": [
        {
          "indexed": true,
          "internalType": "uint256",
          "name": "tokenId",
          "type": "uint256"
        },
        {
          "indexed": true,
          "internalType": "address",
          "name": "buyer",
          "type": "address"
        }
      ],
      "name": "BuyNFT",
      "type": "event"
    },
    {
      "anonymous": false,
      "inputs": [
        {
          "indexed": false,
          "internalType": "uint256",
          "name": "newGameFee",
          "type": "uint256"
        }
      ],
      "name": "GameFeeChanged",
      "type": "event"
    },
    {
      "anonymous": false,
      "inputs": [
        {
          "indexed": true,
          "internalType": "uint256",
          "name": "tokenId",
          "type": "uint256"
        },
        {
          "indexed": false,
          "internalType": "uint256",
          "name": "price",
          "type": "uint256"
        }
      ],
      "name": "ListNFT",
      "type": "event"
    },
    {
      "anonymous": false,
      "inputs": [
        {
          "indexed": false,
          "internalType": "uint256",
          "name": "_tokenId",
          "type": "uint256"
        }
      ],
      "name": "MetadataUpdate",
      "type": "event"
    },
    {
      "anonymous": false,
      "inputs": [
        {
          "indexed": true,
          "internalType": "address",
          "name": "owner",
          "type": "address"
        },
        {
          "indexed": true,
          "internalType": "uint256",
          "name": "tokenId",
          "type": "uint256"
        },
        {
          "indexed": false,
          "internalType": "string",
          "name": "tokenURI",
          "type": "string"
        }
      ],
      "name": "MintNFT",
      "type": "event"
    },
    {
      "anonymous": false,
      "inputs": [
        {
          "indexed": true,
          "internalType": "address",
          "name": "previousOwner",
          "type": "address"
        },
        {
          "indexed": true,
          "internalType": "address",
          "name": "newOwner",
          "type": "address"
        }
      ],
      "name": "OwnershipTransferred",
      "type": "event"
    },
    {
      "anonymous": false,
      "inputs": [
        {
          "indexed": true,
          "internalType": "address",
          "name": "player",
          "type": "address"
        }
      ],
      "name": "StartGame",
      "type": "event"
    },
    {
      "anonymous": false,
      "inputs": [
        {
          "indexed": true,
          "internalType": "address",
          "name": "from",
          "type": "address"
        },
        {
          "indexed": true,
          "internalType": "address",
          "name": "to",
          "type": "address"
        },
        {
          "indexed": true,
          "internalType": "uint256",
          "name": "tokenId",
          "type": "uint256"
        }
      ],
      "name": "Transfer",
      "type": "event"
    },
    {
      "inputs": [
        {
          "internalType": "address",
          "name": "to",
          "type": "address"
        },
        {
          "internalType": "uint256",
          "name": "tokenId",
          "type": "uint256"
        }
      ],
      "name": "approve",
      "outputs": [],
      "stateMutability": "nonpayable",
      "type": "function"
    },
    {
      "inputs": [
        {
          "internalType": "address",
          "name": "owner",
          "type": "address"
        }
      ],
      "name": "balanceOf",
      "outputs": [
        {
          "internalType": "uint256",
          "name": "",
          "type": "uint256"
        }
      ],
      "stateMutability": "view",
      "type": "function"
    },
    {
      "inputs": [
        {
          "internalType": "uint256",
          "name": "tokenId",
          "type": "uint256"
        }
      ],
      "name": "buyNFT",
      "outputs": [],
      "stateMutability": "payable",
      "type": "function"
    },
    {
      "inputs": [],
      "name": "gameFee",
      "outputs": [
        {
          "internalType": "uint256",
          "name": "",
          "type": "uint256"
        }
      ],
      "stateMutability": "view",
      "type": "function"
    },
    {
      "inputs": [],
      "name": "getAllListedNFTs",
      "outputs": [
        {
          "components": [
            {
              "internalType": "uint256",
              "name": "tokenId",
              "type": "uint256"
            },
            {
              "internalType": "address",
              "name": "owner",
              "type": "address"
            },
            {
              "internalType": "uint256",
              "name": "price",
              "type": "uint256"
            },
            {
              "internalType": "bool",
              "name": "isListed",
              "type": "bool"
            }
          ],
          "internalType": "struct SudokuMarketplacetest.NFTItem[]",
          "name": "",
          "type": "tuple[]"
        }
      ],
      "stateMutability": "view",
      "type": "function"
    },
    {
      "inputs": [
        {
          "internalType": "uint256",
          "name": "tokenId",
          "type": "uint256"
        }
      ],
      "name": "getApproved",
      "outputs": [
        {
          "internalType": "address",
          "name": "",
          "type": "address"
        }
      ],
      "stateMutability": "view",
      "type": "function"
    },
    {
      "inputs": [
        {
          "internalType": "address",
          "name": "user",
          "type": "address"
        }
      ],
      "name": "getUserNFTs",
      "outputs": [
        {
          "components": [
            {
              "internalType": "uint256",
              "name": "tokenId",
              "type": "uint256"
            },
            {
              "internalType": "address",
              "name": "owner",
              "type": "address"
            },
            {
              "internalType": "uint256",
              "name": "price",
              "type": "uint256"
            },
            {
              "internalType": "bool",
              "name": "isListed",
              "type": "bool"
            }
          ],
          "internalType": "struct SudokuMarketplacetest.NFTItem[]",
          "name": "",
          "type": "tuple[]"
        }
      ],
      "stateMutability": "view",
      "type": "function"
    },
    {
      "inputs": [
        {
          "internalType": "address",
          "name": "owner",
          "type": "address"
        },
        {
          "internalType": "address",
          "name": "operator",
          "type": "address"
        }
      ],
      "name": "isApprovedForAll",
      "outputs": [
        {
          "internalType": "bool",
          "name": "",
          "type": "bool"
        }
      ],
      "stateMutability": "view",
      "type": "function"
    },
    {
      "inputs": [
        {
          "internalType": "uint256",
          "name": "tokenId",
          "type": "uint256"
        },
        {
          "internalType": "uint256",
          "name": "price",
          "type": "uint256"
        }
      ],
      "name": "listNFT",
      "outputs": [],
      "stateMutability": "nonpayable",
      "type": "function"
    },
    {
      "inputs": [
        {
          "internalType": "string",
          "name": "tokenURI",
          "type": "string"
        }
      ],
      "name": "mintAfterGame",
      "outputs": [],
      "stateMutability": "nonpayable",
      "type": "function"
    },
    {
      "inputs": [],
      "name": "name",
      "outputs": [
        {
          "internalType": "string",
          "name": "",
          "type": "string"
        }
      ],
      "stateMutability": "view",
      "type": "function"
    },
    {
      "inputs": [],
      "name": "nextTokenId",
      "outputs": [
        {
          "internalType": "uint256",
          "name": "",
          "type": "uint256"
        }
      ],
      "stateMutability": "view",
      "type": "function"
    },
    {
      "inputs": [
        {
          "internalType": "uint256",
          "name": "",
          "type": "uint256"
        }
      ],
      "name": "nftItems",
      "outputs": [
        {
          "internalType": "uint256",
          "name": "tokenId",
          "type": "uint256"
        },
        {
          "internalType": "address",
          "name": "owner",
          "type": "address"
        },
        {
          "internalType": "uint256",
          "name": "price",
          "type": "uint256"
        },
        {
          "internalType": "bool",
          "name": "isListed",
          "type": "bool"
        }
      ],
      "stateMutability": "view",
      "type": "function"
    },
    {
      "inputs": [],
      "name": "owner",
      "outputs": [
        {
          "internalType": "address",
          "name": "",
          "type": "address"
        }
      ],
      "stateMutability": "view",
      "type": "function"
    },
    {
      "inputs": [
        {
          "internalType": "uint256",
          "name": "tokenId",
          "type": "uint256"
        }
      ],
      "name": "ownerOf",
      "outputs": [
        {
          "internalType": "address",
          "name": "",
          "type": "address"
        }
      ],
      "stateMutability": "view",
      "type": "function"
    },
    {
      "inputs": [],
      "name": "renounceOwnership",
      "outputs": [],
      "stateMutability": "nonpayable",
      "type": "function"
    },
    {
      "inputs": [
        {
          "internalType": "address",
          "name": "from",
          "type": "address"
        },
        {
          "internalType": "address",
          "name": "to",
          "type": "address"
        },
        {
          "internalType": "uint256",
          "name": "tokenId",
          "type": "uint256"
        }
      ],
      "name": "safeTransferFrom",
      "outputs": [],
      "stateMutability": "nonpayable",
      "type": "function"
    },
    {
      "inputs": [
        {
          "internalType": "address",
          "name": "from",
          "type": "address"
        },
        {
          "internalType": "address",
          "name": "to",
          "type": "address"
        },
        {
          "internalType": "uint256",
          "name": "tokenId",
          "type": "uint256"
        },
        {
          "internalType": "bytes",
          "name": "data",
          "type": "bytes"
        }
      ],
      "name": "safeTransferFrom",
      "outputs": [],
      "stateMutability": "nonpayable",
      "type": "function"
    },
    {
      "inputs": [
        {
          "internalType": "address",
          "name": "operator",
          "type": "address"
        },
        {
          "internalType": "bool",
          "name": "approved",
          "type": "bool"
        }
      ],
      "name": "setApprovalForAll",
      "outputs": [],
      "stateMutability": "nonpayable",
      "type": "function"
    },
    {
      "inputs": [
        {
          "internalType": "uint256",
          "name": "newGameFee",
          "type": "uint256"
        }
      ],
      "name": "setGameFee",
      "outputs": [],
      "stateMutability": "nonpayable",
      "type": "function"
    },
    {
      "inputs": [],
      "name": "startGame",
      "outputs": [],
      "stateMutability": "payable",
      "type": "function"
    },
    {
      "inputs": [
        {
          "internalType": "bytes4",
          "name": "interfaceId",
          "type": "bytes4"
        }
      ],
      "name": "supportsInterface",
      "outputs": [
        {
          "internalType": "bool",
          "name": "",
          "type": "bool"
        }
      ],
      "stateMutability": "view",
      "type": "function"
    },
    {
      "inputs": [],
      "name": "symbol",
      "outputs": [
        {
          "internalType": "string",
          "name": "",
          "type": "string"
        }
      ],
      "stateMutability": "view",
      "type": "function"
    },
    {
      "inputs": [
        {
          "internalType": "uint256",
          "name": "tokenId",
          "type": "uint256"
        }
      ],
      "name": "tokenURI",
      "outputs": [
        {
          "internalType": "string",
          "name": "",
          "type": "string"
        }
      ],
      "stateMutability": "view",
      "type": "function"
    },
    {
      "inputs": [
        {
          "internalType": "address",
          "name": "from",
          "type": "address"
        },
        {
          "internalType": "address",
          "name": "to",
          "type": "address"
        },
        {
          "internalType": "uint256",
          "name": "tokenId",
          "type": "uint256"
        }
      ],
      "name": "transferFrom",
      "outputs": [],
      "stateMutability": "nonpayable",
      "type": "function"
    },
    {
      "inputs": [
        {
          "internalType": "address",
          "name": "newOwner",
          "type": "address"
        }
      ],
      "name": "transferOwnership",
      "outputs": [],
      "stateMutability": "nonpayable",
      "type": "function"
    },
    {
      "inputs": [],
      "name": "withdrawFunds",
      "outputs": [],
      "stateMutability": "nonpayable",
      "type": "function"
    }
  ],
  "bytecode": "0x608060405266038d7ea4c6800060095534801561001b57600080fd5b50336040518060400160405280600d81526020017f5375646f6b754e465474657374000000000000000000000000000000000000008152506040518060400160405280600581526020017f5355444f5400000000000000000000000000000000000000000000000000000081525081600090816100989190610448565b5080600190816100a89190610448565b505050600073ffffffffffffffffffffffffffffffffffffffff168173ffffffffffffffffffffffffffffffffffffffff160361011d5760006040517f1e4fbdf7000000000000000000000000000000000000000000000000000000008152600401610114919061055b565b60405180910390fd5b61012c8161013260201b60201c565b50610576565b6000600760009054906101000a900473ffffffffffffffffffffffffffffffffffffffff16905081600760006101000a81548173ffffffffffffffffffffffffffffffffffffffff021916908373ffffffffffffffffffffffffffffffffffffffff1602179055508173ffffffffffffffffffffffffffffffffffffffff168173ffffffffffffffffffffffffffffffffffffffff167f8be0079c531659141344cd1fd0a4f28419497f9722a3daafe3b4186f6b6457e060405160405180910390a35050565b600081519050919050565b7f4e487b7100000000000000000000000000000000000000000000000000000000600052604160045260246000fd5b7f4e487b7100000000000000000000000000000000000000000000000000000000600052602260045260246000fd5b6000600282049050600182168061027957607f821691505b60208210810361028c5761028b610232565b5b50919050565b60008190508160005260206000209050919050565b60006020601f8301049050919050565b600082821b905092915050565b6000600883026102f47fffffffffffffffffffffffffffffffffffffffffffffffffffffffffffffffff826102b7565b6102fe86836102b7565b95508019841693508086168417925050509392505050565b6000819050919050565b6000819050919050565b600061034561034061033b84610316565b610320565b610316565b9050919050565b6000819050919050565b61035f8361032a565b61037361036b8261034c565b8484546102c4565b825550505050565b600090565b61038861037b565b610393818484610356565b505050565b5b818110156103b7576103ac600082610380565b600181019050610399565b5050565b601f8211156103fc576103cd81610292565b6103d6846102a7565b810160208510156103e5578190505b6103f96103f1856102a7565b830182610398565b50505b505050565b600082821c905092915050565b600061041f60001984600802610401565b1980831691505092915050565b6000610438838361040e565b9150826002028217905092915050565b610451826101f8565b67ffffffffffffffff81111561046a57610469610203565b5b6104748254610261565b61047f8282856103bb565b600060209050601f8311600181146104b257600084156104a0578287015190505b6104aa858261042c565b865550610512565b601f1984166104c086610292565b60005b828110156104e8578489015182556001820191506020850194506020810190506104c3565b868310156105055784890151610501601f89168261040e565b8355505b6001600288020188555050505b505050505050565b600073ffffffffffffffffffffffffffffffffffffffff82169050919050565b60006105458261051a565b9050919050565b6105558161053a565b82525050565b6000602082019050610570600083018461054c565b92915050565b6138a0806105856000396000f3fe60806040526004361061019c5760003560e01c806370a08231116100ec578063a38bcc781161008a578063d65ab5f211610064578063d65ab5f2146105b8578063e985e9c5146105c2578063ea777eec146105ff578063f2fde38b1461062a5761019c565b8063a38bcc7814610529578063b88d4fde14610552578063c87b56dd1461057b5761019c565b80638da5cb5b116100c65780638da5cb5b1461048157806394383f14146104ac57806395d89b41146104d5578063a22cb465146105005761019c565b806370a0823114610402578063715018a61461043f57806375794a3c146104565761019c565b806324600fc31161015957806351ed82881161013357806351ed82881461032c57806352de4ee51461034857806362821396146103855780636352211e146103c55761019c565b806324600fc3146102c157806342842e0e146102d85780634b58ffaa146103015761019c565b806301ffc9a7146101a157806306fdde03146101de578063081812fc14610209578063082ef3dc14610246578063095ea7b31461026f57806323b872dd14610298575b600080fd5b3480156101ad57600080fd5b506101c860048036038101906101c391906128c2565b610653565b6040516101d5919061290a565b60405180910390f35b3480156101ea57600080fd5b506101f36106b4565b60405161020091906129b5565b60405180910390f35b34801561021557600080fd5b50610230600480360381019061022b9190612a0d565b610746565b60405161023d9190612a7b565b60405180910390f35b34801561025257600080fd5b5061026d60048036038101906102689190612bcb565b610762565b005b34801561027b57600080fd5b5061029660048036038101906102919190612c40565b6108b4565b005b3480156102a457600080fd5b506102bf60048036038101906102ba9190612c80565b6108ca565b005b3480156102cd57600080fd5b506102d66109cc565b005b3480156102e457600080fd5b506102ff60048036038101906102fa9190612c80565b610a24565b005b34801561030d57600080fd5b50610316610a44565b6040516103239190612e04565b60405180910390f35b61034660048036038101906103419190612a0d565b610c1c565b005b34801561035457600080fd5b5061036f600480360381019061036a9190612e26565b610df3565b60405161037c9190612e04565b60405180910390f35b34801561039157600080fd5b506103ac60048036038101906103a79190612a0d565b610fba565b6040516103bc9493929190612e62565b60405180910390f35b3480156103d157600080fd5b506103ec60048036038101906103e79190612a0d565b611017565b6040516103f99190612a7b565b60405180910390f35b34801561040e57600080fd5b5061042960048036038101906104249190612e26565b611029565b6040516104369190612ea7565b60405180910390f35b34801561044b57600080fd5b506104546110e3565b005b34801561046257600080fd5b5061046b6110f7565b6040516104789190612ea7565b60405180910390f35b34801561048d57600080fd5b506104966110fd565b6040516104a39190612a7b565b60405180910390f35b3480156104b857600080fd5b506104d360048036038101906104ce9190612ec2565b611127565b005b3480156104e157600080fd5b506104ea611266565b6040516104f791906129b5565b60405180910390f35b34801561050c57600080fd5b5061052760048036038101906105229190612f2e565b6112f8565b005b34801561053557600080fd5b50610550600480360381019061054b9190612a0d565b61130e565b005b34801561055e57600080fd5b506105796004803603810190610574919061300f565b611357565b005b34801561058757600080fd5b506105a2600480360381019061059d9190612a0d565b61137c565b6040516105af91906129b5565b60405180910390f35b6105c061148f565b005b3480156105ce57600080fd5b506105e960048036038101906105e49190613092565b611518565b6040516105f6919061290a565b60405180910390f35b34801561060b57600080fd5b506106146115ac565b6040516106219190612ea7565b60405180910390f35b34801561063657600080fd5b50610651600480360381019061064c9190612e26565b6115b2565b005b6000634906490660e01b7bffffffffffffffffffffffffffffffffffffffffffffffffffffffff1916827bffffffffffffffffffffffffffffffffffffffffffffffffffffffff191614806106ad57506106ac82611638565b5b9050919050565b6060600080546106c390613101565b80601f01602080910402602001604051908101604052809291908181526020018280546106ef90613101565b801561073c5780601f106107115761010080835404028352916020019161073c565b820191906000526020600020905b81548152906001019060200180831161071f57829003601f168201915b5050505050905090565b60006107518261171a565b5061075b826117a2565b9050919050565b600060085490506008600081548092919061077c90613161565b919050555061078b33826117df565b61079581836117fd565b60405180608001604052808281526020013373ffffffffffffffffffffffffffffffffffffffff1681526020016000815260200160001515815250600a60008381526020019081526020016000206000820151816000015560208201518160010160006101000a81548173ffffffffffffffffffffffffffffffffffffffff021916908373ffffffffffffffffffffffffffffffffffffffff1602179055506040820151816002015560608201518160030160006101000a81548160ff021916908315150217905550905050803373ffffffffffffffffffffffffffffffffffffffff167f86094769a8d8b54a575d56650097d483bd4ecdeb3c8dd7ac9ac20df1e0d5ae03846040516108a891906129b5565b60405180910390a35050565b6108c682826108c1611859565b611861565b5050565b600073ffffffffffffffffffffffffffffffffffffffff168273ffffffffffffffffffffffffffffffffffffffff160361093c5760006040517f64a0ae920000000000000000000000000000000000000000000000000000000081526004016109339190612a7b565b60405180910390fd5b6000610950838361094b611859565b611873565b90508373ffffffffffffffffffffffffffffffffffffffff168173ffffffffffffffffffffffffffffffffffffffff16146109c6578382826040517f64283d7b0000000000000000000000000000000000000000000000000000000081526004016109bd939291906131a9565b60405180910390fd5b50505050565b6109d4611a8d565b6109dc6110fd565b73ffffffffffffffffffffffffffffffffffffffff166108fc479081150290604051600060405180830381858888f19350505050158015610a21573d6000803e3d6000fd5b50565b610a3f83838360405180602001604052806000815250611357565b505050565b606060006008549050600080600090505b82811015610aa257600a600082815260200190815260200160002060030160009054906101000a900460ff1615610a95578180610a9190613161565b9250505b8080600101915050610a55565b5060008167ffffffffffffffff811115610abf57610abe612aa0565b5b604051908082528060200260200182016040528015610af857816020015b610ae5612816565b815260200190600190039081610add5790505b509050600080600090505b84811015610c1157600a600082815260200190815260200160002060030160009054906101000a900460ff1615610c0457600a6000828152602001908152602001600020604051806080016040529081600082015481526020016001820160009054906101000a900473ffffffffffffffffffffffffffffffffffffffff1673ffffffffffffffffffffffffffffffffffffffff1673ffffffffffffffffffffffffffffffffffffffff168152602001600282015481526020016003820160009054906101000a900460ff161515151581525050838381518110610bea57610be96131e0565b5b60200260200101819052508180610c0090613161565b9250505b8080600101915050610b03565b508194505050505090565b6000600a600083815260200190815260200160002090508060030160009054906101000a900460ff16610c84576040517f08c379a0000000000000000000000000000000000000000000000000000000008152600401610c7b9061325b565b60405180910390fd5b8060020154341015610ccb576040517f08c379a0000000000000000000000000000000000000000000000000000000008152600401610cc2906132c7565b60405180910390fd5b60008160010160009054906101000a900473ffffffffffffffffffffffffffffffffffffffff169050338260010160006101000a81548173ffffffffffffffffffffffffffffffffffffffff021916908373ffffffffffffffffffffffffffffffffffffffff16021790555060008260030160006101000a81548160ff021916908315150217905550610d5f813385611b14565b8073ffffffffffffffffffffffffffffffffffffffff166108fc83600201549081150290604051600060405180830381858888f19350505050158015610da9573d6000803e3d6000fd5b503373ffffffffffffffffffffffffffffffffffffffff16837f079fc0f01dc38ba287c48d683564d13539db09719cb3532fee3c1b1b61bbcf9560405160405180910390a3505050565b60606000610e0083611029565b90506000808267ffffffffffffffff811115610e1f57610e1e612aa0565b5b604051908082528060200260200182016040528015610e5857816020015b610e45612816565b815260200190600190039081610e3d5790505b50905060005b600854811015610fae578573ffffffffffffffffffffffffffffffffffffffff16600a600083815260200190815260200160002060010160009054906101000a900473ffffffffffffffffffffffffffffffffffffffff1673ffffffffffffffffffffffffffffffffffffffff1603610fa157600a6000828152602001908152602001600020604051806080016040529081600082015481526020016001820160009054906101000a900473ffffffffffffffffffffffffffffffffffffffff1673ffffffffffffffffffffffffffffffffffffffff1673ffffffffffffffffffffffffffffffffffffffff168152602001600282015481526020016003820160009054906101000a900460ff161515151581525050828481518110610f8757610f866131e0565b5b60200260200101819052508280610f9d90613161565b9350505b8080600101915050610e5e565b50809350505050919050565b600a6020528060005260406000206000915090508060000154908060010160009054906101000a900473ffffffffffffffffffffffffffffffffffffffff16908060020154908060030160009054906101000a900460ff16905084565b60006110228261171a565b9050919050565b60008073ffffffffffffffffffffffffffffffffffffffff168273ffffffffffffffffffffffffffffffffffffffff160361109c5760006040517f89c62b640000000000000000000000000000000000000000000000000000000081526004016110939190612a7b565b60405180910390fd5b600360008373ffffffffffffffffffffffffffffffffffffffff1673ffffffffffffffffffffffffffffffffffffffff168152602001908152602001600020549050919050565b6110eb611a8d565b6110f56000611c81565b565b60085481565b6000600760009054906101000a900473ffffffffffffffffffffffffffffffffffffffff16905090565b3373ffffffffffffffffffffffffffffffffffffffff1661114783611017565b73ffffffffffffffffffffffffffffffffffffffff161461119d576040517f08c379a000000000000000000000000000000000000000000000000000000000815260040161119490613333565b60405180910390fd5b600081116111e0576040517f08c379a00000000000000000000000000000000000000000000000000000000081526004016111d79061339f565b60405180910390fd5b80600a6000848152602001908152602001600020600201819055506001600a600084815260200190815260200160002060030160006101000a81548160ff021916908315150217905550817fadc2524c8f93616be9bad3bcab121a8de2a297699e78d4762481efcd6d26a9268260405161125a9190612ea7565b60405180910390a25050565b60606001805461127590613101565b80601f01602080910402602001604051908101604052809291908181526020018280546112a190613101565b80156112ee5780601f106112c3576101008083540402835291602001916112ee565b820191906000526020600020905b8154815290600101906020018083116112d157829003601f168201915b5050505050905090565b61130a611303611859565b8383611d47565b5050565b611316611a8d565b806009819055507f8731ad568a8afb574b5745a33f10a2cabe0e2024881fa4772464ff63477c7c968160405161134c9190612ea7565b60405180910390a150565b6113628484846108ca565b61137661136d611859565b85858585611eb6565b50505050565b60606113878261171a565b5060006006600084815260200190815260200160002080546113a890613101565b80601f01602080910402602001604051908101604052809291908181526020018280546113d490613101565b80156114215780601f106113f657610100808354040283529160200191611421565b820191906000526020600020905b81548152906001019060200180831161140457829003601f168201915b505050505090506000611432612067565b9050600081510361144757819250505061148a565b60008251111561147c5780826040516020016114649291906133fb565b6040516020818303038152906040529250505061148a565b6114858461207e565b925050505b919050565b60095434146114d3576040517f08c379a00000000000000000000000000000000000000000000000000000000081526004016114ca90613491565b60405180910390fd5b3373ffffffffffffffffffffffffffffffffffffffff167f0525d7a7a13b93b5891ea81c1579a8a9f0c146d4e17c4acea58648452154f14760405160405180910390a2565b6000600560008473ffffffffffffffffffffffffffffffffffffffff1673ffffffffffffffffffffffffffffffffffffffff16815260200190815260200160002060008373ffffffffffffffffffffffffffffffffffffffff1673ffffffffffffffffffffffffffffffffffffffff16815260200190815260200160002060009054906101000a900460ff16905092915050565b60095481565b6115ba611a8d565b600073ffffffffffffffffffffffffffffffffffffffff168173ffffffffffffffffffffffffffffffffffffffff160361162c5760006040517f1e4fbdf70000000000000000000000000000000000000000000000000000000081526004016116239190612a7b565b60405180910390fd5b61163581611c81565b50565b60007f80ac58cd000000000000000000000000000000000000000000000000000000007bffffffffffffffffffffffffffffffffffffffffffffffffffffffff1916827bffffffffffffffffffffffffffffffffffffffffffffffffffffffff1916148061170357507f5b5e139f000000000000000000000000000000000000000000000000000000007bffffffffffffffffffffffffffffffffffffffffffffffffffffffff1916827bffffffffffffffffffffffffffffffffffffffffffffffffffffffff1916145b806117135750611712826120e7565b5b9050919050565b60008061172683612151565b9050600073ffffffffffffffffffffffffffffffffffffffff168173ffffffffffffffffffffffffffffffffffffffff160361179957826040517f7e2732890000000000000000000000000000000000000000000000000000000081526004016117909190612ea7565b60405180910390fd5b80915050919050565b60006004600083815260200190815260200160002060009054906101000a900473ffffffffffffffffffffffffffffffffffffffff169050919050565b6117f982826040518060200160405280600081525061218e565b5050565b8060066000848152602001908152602001600020908161181d919061365d565b507ff8e1a15aba9398e019f0b49df1a4fde98ee17ae345cb5f6b5e2c27f5033e8ce78260405161184d9190612ea7565b60405180910390a15050565b600033905090565b61186e83838360016121b2565b505050565b60008061187f84612151565b9050600073ffffffffffffffffffffffffffffffffffffffff168373ffffffffffffffffffffffffffffffffffffffff16146118c1576118c0818486612377565b5b600073ffffffffffffffffffffffffffffffffffffffff168173ffffffffffffffffffffffffffffffffffffffff1614611952576119036000856000806121b2565b6001600360008373ffffffffffffffffffffffffffffffffffffffff1673ffffffffffffffffffffffffffffffffffffffff168152602001908152602001600020600082825403925050819055505b600073ffffffffffffffffffffffffffffffffffffffff168573ffffffffffffffffffffffffffffffffffffffff16146119d5576001600360008773ffffffffffffffffffffffffffffffffffffffff1673ffffffffffffffffffffffffffffffffffffffff168152602001908152602001600020600082825401925050819055505b846002600086815260200190815260200160002060006101000a81548173ffffffffffffffffffffffffffffffffffffffff021916908373ffffffffffffffffffffffffffffffffffffffff160217905550838573ffffffffffffffffffffffffffffffffffffffff168273ffffffffffffffffffffffffffffffffffffffff167fddf252ad1be2c89b69c2b068fc378daa952ba7f163c4a11628f55a4df523b3ef60405160405180910390a4809150509392505050565b611a95611859565b73ffffffffffffffffffffffffffffffffffffffff16611ab36110fd565b73ffffffffffffffffffffffffffffffffffffffff1614611b1257611ad6611859565b6040517f118cdaa7000000000000000000000000000000000000000000000000000000008152600401611b099190612a7b565b60405180910390fd5b565b600073ffffffffffffffffffffffffffffffffffffffff168273ffffffffffffffffffffffffffffffffffffffff1603611b865760006040517f64a0ae92000000000000000000000000000000000000000000000000000000008152600401611b7d9190612a7b565b60405180910390fd5b6000611b9483836000611873565b9050600073ffffffffffffffffffffffffffffffffffffffff168173ffffffffffffffffffffffffffffffffffffffff1603611c0757816040517f7e273289000000000000000000000000000000000000000000000000000000008152600401611bfe9190612ea7565b60405180910390fd5b8373ffffffffffffffffffffffffffffffffffffffff168173ffffffffffffffffffffffffffffffffffffffff1614611c7b578382826040517f64283d7b000000000000000000000000000000000000000000000000000000008152600401611c72939291906131a9565b60405180910390fd5b50505050565b6000600760009054906101000a900473ffffffffffffffffffffffffffffffffffffffff16905081600760006101000a81548173ffffffffffffffffffffffffffffffffffffffff021916908373ffffffffffffffffffffffffffffffffffffffff1602179055508173ffffffffffffffffffffffffffffffffffffffff168173ffffffffffffffffffffffffffffffffffffffff167f8be0079c531659141344cd1fd0a4f28419497f9722a3daafe3b4186f6b6457e060405160405180910390a35050565b600073ffffffffffffffffffffffffffffffffffffffff168273ffffffffffffffffffffffffffffffffffffffff1603611db857816040517f5b08ba18000000000000000000000000000000000000000000000000000000008152600401611daf9190612a7b565b60405180910390fd5b80600560008573ffffffffffffffffffffffffffffffffffffffff1673ffffffffffffffffffffffffffffffffffffffff16815260200190815260200160002060008473ffffffffffffffffffffffffffffffffffffffff1673ffffffffffffffffffffffffffffffffffffffff16815260200190815260200160002060006101000a81548160ff0219169083151502179055508173ffffffffffffffffffffffffffffffffffffffff168373ffffffffffffffffffffffffffffffffffffffff167f17307eab39ab6107e8899845ad3d59bd9653f200f220920489ca2b5937696c3183604051611ea9919061290a565b60405180910390a3505050565b60008373ffffffffffffffffffffffffffffffffffffffff163b1115612060578273ffffffffffffffffffffffffffffffffffffffff1663150b7a02868685856040518563ffffffff1660e01b8152600401611f159493929190613784565b6020604051808303816000875af1925050508015611f5157506040513d601f19601f82011682018060405250810190611f4e91906137e5565b60015b611fd5573d8060008114611f81576040519150601f19603f3d011682016040523d82523d6000602084013e611f86565b606091505b506000815103611fcd57836040517f64a0ae92000000000000000000000000000000000000000000000000000000008152600401611fc49190612a7b565b60405180910390fd5b805181602001fd5b63150b7a0260e01b7bffffffffffffffffffffffffffffffffffffffffffffffffffffffff1916817bffffffffffffffffffffffffffffffffffffffffffffffffffffffff19161461205e57836040517f64a0ae920000000000000000000000000000000000000000000000000000000081526004016120559190612a7b565b60405180910390fd5b505b5050505050565b606060405180602001604052806000815250905090565b60606120898261171a565b506000612094612067565b905060008151116120b457604051806020016040528060008152506120df565b806120be8461243b565b6040516020016120cf9291906133fb565b6040516020818303038152906040525b915050919050565b60007f01ffc9a7000000000000000000000000000000000000000000000000000000007bffffffffffffffffffffffffffffffffffffffffffffffffffffffff1916827bffffffffffffffffffffffffffffffffffffffffffffffffffffffff1916149050919050565b60006002600083815260200190815260200160002060009054906101000a900473ffffffffffffffffffffffffffffffffffffffff169050919050565b6121988383612509565b6121ad6121a3611859565b6000858585611eb6565b505050565b80806121eb5750600073ffffffffffffffffffffffffffffffffffffffff168273ffffffffffffffffffffffffffffffffffffffff1614155b1561231f5760006121fb8461171a565b9050600073ffffffffffffffffffffffffffffffffffffffff168373ffffffffffffffffffffffffffffffffffffffff161415801561226657508273ffffffffffffffffffffffffffffffffffffffff168173ffffffffffffffffffffffffffffffffffffffff1614155b801561227957506122778184611518565b155b156122bb57826040517fa9fbf51f0000000000000000000000000000000000000000000000000000000081526004016122b29190612a7b565b60405180910390fd5b811561231d57838573ffffffffffffffffffffffffffffffffffffffff168273ffffffffffffffffffffffffffffffffffffffff167f8c5be1e5ebec7d5bd14f71427d1e84f3dd0314c0f7b2291e5b200ac8c7c3b92560405160405180910390a45b505b836004600085815260200190815260200160002060006101000a81548173ffffffffffffffffffffffffffffffffffffffff021916908373ffffffffffffffffffffffffffffffffffffffff16021790555050505050565b612382838383612602565b61243657600073ffffffffffffffffffffffffffffffffffffffff168373ffffffffffffffffffffffffffffffffffffffff16036123f757806040517f7e2732890000000000000000000000000000000000000000000000000000000081526004016123ee9190612ea7565b60405180910390fd5b81816040517f177e802f00000000000000000000000000000000000000000000000000000000815260040161242d929190613812565b60405180910390fd5b505050565b60606000600161244a846126c3565b01905060008167ffffffffffffffff81111561246957612468612aa0565b5b6040519080825280601f01601f19166020018201604052801561249b5781602001600182028036833780820191505090505b509050600082602001820190505b6001156124fe578080600190039150507f3031323334353637383961626364656600000000000000000000000000000000600a86061a8153600a85816124f2576124f161383b565b5b049450600085036124a9575b819350505050919050565b600073ffffffffffffffffffffffffffffffffffffffff168273ffffffffffffffffffffffffffffffffffffffff160361257b5760006040517f64a0ae920000000000000000000000000000000000000000000000000000000081526004016125729190612a7b565b60405180910390fd5b600061258983836000611873565b9050600073ffffffffffffffffffffffffffffffffffffffff168173ffffffffffffffffffffffffffffffffffffffff16146125fd5760006040517f73c6ac6e0000000000000000000000000000000000000000000000000000000081526004016125f49190612a7b565b60405180910390fd5b505050565b60008073ffffffffffffffffffffffffffffffffffffffff168373ffffffffffffffffffffffffffffffffffffffff16141580156126ba57508273ffffffffffffffffffffffffffffffffffffffff168473ffffffffffffffffffffffffffffffffffffffff16148061267b575061267a8484611518565b5b806126b957508273ffffffffffffffffffffffffffffffffffffffff166126a1836117a2565b73ffffffffffffffffffffffffffffffffffffffff16145b5b90509392505050565b600080600090507a184f03e93ff9f4daa797ed6e38ed64bf6a1f0100000000000000008310612721577a184f03e93ff9f4daa797ed6e38ed64bf6a1f01000000000000000083816127175761271661383b565b5b0492506040810190505b6d04ee2d6d415b85acef8100000000831061275e576d04ee2d6d415b85acef810000000083816127545761275361383b565b5b0492506020810190505b662386f26fc10000831061278d57662386f26fc1000083816127835761278261383b565b5b0492506010810190505b6305f5e10083106127b6576305f5e10083816127ac576127ab61383b565b5b0492506008810190505b61271083106127db5761271083816127d1576127d061383b565b5b0492506004810190505b606483106127fe57606483816127f4576127f361383b565b5b0492506002810190505b600a831061280d576001810190505b80915050919050565b604051806080016040528060008152602001600073ffffffffffffffffffffffffffffffffffffffff168152602001600081526020016000151581525090565b6000604051905090565b600080fd5b600080fd5b60007fffffffff0000000000000000000000000000000000000000000000000000000082169050919050565b61289f8161286a565b81146128aa57600080fd5b50565b6000813590506128bc81612896565b92915050565b6000602082840312156128d8576128d7612860565b5b60006128e6848285016128ad565b91505092915050565b60008115159050919050565b612904816128ef565b82525050565b600060208201905061291f60008301846128fb565b92915050565b600081519050919050565b600082825260208201905092915050565b60005b8381101561295f578082015181840152602081019050612944565b60008484015250505050565b6000601f19601f8301169050919050565b600061298782612925565b6129918185612930565b93506129a1818560208601612941565b6129aa8161296b565b840191505092915050565b600060208201905081810360008301526129cf818461297c565b905092915050565b6000819050919050565b6129ea816129d7565b81146129f557600080fd5b50565b600081359050612a07816129e1565b92915050565b600060208284031215612a2357612a22612860565b5b6000612a31848285016129f8565b91505092915050565b600073ffffffffffffffffffffffffffffffffffffffff82169050919050565b6000612a6582612a3a565b9050919050565b612a7581612a5a565b82525050565b6000602082019050612a906000830184612a6c565b92915050565b600080fd5b600080fd5b7f4e487b7100000000000000000000000000000000000000000000000000000000600052604160045260246000fd5b612ad88261296b565b810181811067ffffffffffffffff82111715612af757612af6612aa0565b5b80604052505050565b6000612b0a612856565b9050612b168282612acf565b919050565b600067ffffffffffffffff821115612b3657612b35612aa0565b5b612b3f8261296b565b9050602081019050919050565b82818337600083830152505050565b6000612b6e612b6984612b1b565b612b00565b905082815260208101848484011115612b8a57612b89612a9b565b5b612b95848285612b4c565b509392505050565b600082601f830112612bb257612bb1612a96565b5b8135612bc2848260208601612b5b565b91505092915050565b600060208284031215612be157612be0612860565b5b600082013567ffffffffffffffff811115612bff57612bfe612865565b5b612c0b84828501612b9d565b91505092915050565b612c1d81612a5a565b8114612c2857600080fd5b50565b600081359050612c3a81612c14565b92915050565b60008060408385031215612c5757612c56612860565b5b6000612c6585828601612c2b565b9250506020612c76858286016129f8565b9150509250929050565b600080600060608486031215612c9957612c98612860565b5b6000612ca786828701612c2b565b9350506020612cb886828701612c2b565b9250506040612cc9868287016129f8565b9150509250925092565b600081519050919050565b600082825260208201905092915050565b6000819050602082019050919050565b612d08816129d7565b82525050565b612d1781612a5a565b82525050565b612d26816128ef565b82525050565b608082016000820151612d426000850182612cff565b506020820151612d556020850182612d0e565b506040820151612d686040850182612cff565b506060820151612d7b6060850182612d1d565b50505050565b6000612d8d8383612d2c565b60808301905092915050565b6000602082019050919050565b6000612db182612cd3565b612dbb8185612cde565b9350612dc683612cef565b8060005b83811015612df7578151612dde8882612d81565b9750612de983612d99565b925050600181019050612dca565b5085935050505092915050565b60006020820190508181036000830152612e1e8184612da6565b905092915050565b600060208284031215612e3c57612e3b612860565b5b6000612e4a84828501612c2b565b91505092915050565b612e5c816129d7565b82525050565b6000608082019050612e776000830187612e53565b612e846020830186612a6c565b612e916040830185612e53565b612e9e60608301846128fb565b95945050505050565b6000602082019050612ebc6000830184612e53565b92915050565b60008060408385031215612ed957612ed8612860565b5b6000612ee7858286016129f8565b9250506020612ef8858286016129f8565b9150509250929050565b612f0b816128ef565b8114612f1657600080fd5b50565b600081359050612f2881612f02565b92915050565b60008060408385031215612f4557612f44612860565b5b6000612f5385828601612c2b565b9250506020612f6485828601612f19565b9150509250929050565b600067ffffffffffffffff821115612f8957612f88612aa0565b5b612f928261296b565b9050602081019050919050565b6000612fb2612fad84612f6e565b612b00565b905082815260208101848484011115612fce57612fcd612a9b565b5b612fd9848285612b4c565b509392505050565b600082601f830112612ff657612ff5612a96565b5b8135613006848260208601612f9f565b91505092915050565b6000806000806080858703121561302957613028612860565b5b600061303787828801612c2b565b945050602061304887828801612c2b565b9350506040613059878288016129f8565b925050606085013567ffffffffffffffff81111561307a57613079612865565b5b61308687828801612fe1565b91505092959194509250565b600080604083850312156130a9576130a8612860565b5b60006130b785828601612c2b565b92505060206130c885828601612c2b565b9150509250929050565b7f4e487b7100000000000000000000000000000000000000000000000000000000600052602260045260246000fd5b6000600282049050600182168061311957607f821691505b60208210810361312c5761312b6130d2565b5b50919050565b7f4e487b7100000000000000000000000000000000000000000000000000000000600052601160045260246000fd5b600061316c826129d7565b91507fffffffffffffffffffffffffffffffffffffffffffffffffffffffffffffffff820361319e5761319d613132565b5b600182019050919050565b60006060820190506131be6000830186612a6c565b6131cb6020830185612e53565b6131d86040830184612a6c565b949350505050565b7f4e487b7100000000000000000000000000000000000000000000000000000000600052603260045260246000fd5b7f4e4654206973206e6f74206c697374656420666f722073616c65000000000000600082015250565b6000613245601a83612930565b91506132508261320f565b602082019050919050565b6000602082019050818103600083015261327481613238565b9050919050565b7f4e6f7420656e6f7567682045544820746f20627579204e465400000000000000600082015250565b60006132b1601983612930565b91506132bc8261327b565b602082019050919050565b600060208201905081810360008301526132e0816132a4565b9050919050565b7f596f7520617265206e6f7420746865206f776e65720000000000000000000000600082015250565b600061331d601583612930565b9150613328826132e7565b602082019050919050565b6000602082019050818103600083015261334c81613310565b9050919050565b7f5072696365206d7573742062652067726561746572207468616e207a65726f00600082015250565b6000613389601f83612930565b915061339482613353565b602082019050919050565b600060208201905081810360008301526133b88161337c565b9050919050565b600081905092915050565b60006133d582612925565b6133df81856133bf565b93506133ef818560208601612941565b80840191505092915050565b600061340782856133ca565b915061341382846133ca565b91508190509392505050565b7f596f75206d75737420706179207468652065786163742067616d65206665652060008201527f746f207374617274000000000000000000000000000000000000000000000000602082015250565b600061347b602883612930565b91506134868261341f565b604082019050919050565b600060208201905081810360008301526134aa8161346e565b9050919050565b60008190508160005260206000209050919050565b60006020601f8301049050919050565b600082821b905092915050565b6000600883026135137fffffffffffffffffffffffffffffffffffffffffffffffffffffffffffffffff826134d6565b61351d86836134d6565b95508019841693508086168417925050509392505050565b6000819050919050565b600061355a613555613550846129d7565b613535565b6129d7565b9050919050565b6000819050919050565b6135748361353f565b61358861358082613561565b8484546134e3565b825550505050565b600090565b61359d613590565b6135a881848461356b565b505050565b5b818110156135cc576135c1600082613595565b6001810190506135ae565b5050565b601f821115613611576135e2816134b1565b6135eb846134c6565b810160208510156135fa578190505b61360e613606856134c6565b8301826135ad565b50505b505050565b600082821c905092915050565b600061363460001984600802613616565b1980831691505092915050565b600061364d8383613623565b9150826002028217905092915050565b61366682612925565b67ffffffffffffffff81111561367f5761367e612aa0565b5b6136898254613101565b6136948282856135d0565b600060209050601f8311600181146136c757600084156136b5578287015190505b6136bf8582613641565b865550613727565b601f1984166136d5866134b1565b60005b828110156136fd578489015182556001820191506020850194506020810190506136d8565b8683101561371a5784890151613716601f891682613623565b8355505b6001600288020188555050505b505050505050565b600081519050919050565b600082825260208201905092915050565b60006137568261372f565b613760818561373a565b9350613770818560208601612941565b6137798161296b565b840191505092915050565b60006080820190506137996000830187612a6c565b6137a66020830186612a6c565b6137b36040830185612e53565b81810360608301526137c5818461374b565b905095945050505050565b6000815190506137df81612896565b92915050565b6000602082840312156137fb576137fa612860565b5b6000613809848285016137d0565b91505092915050565b60006040820190506138276000830185612a6c565b6138346020830184612e53565b9392505050565b7f4e487b7100000000000000000000000000000000000000000000000000000000600052601260045260246000fdfea264697066735822122019adc74b19121df5d24f4326593c3f9201e5482bbe596b222af463f0939fb5fd64736f6c634300081b0033",
  "linkReferences": {},
  "deployedLinkReferences": {}
}