{
  "_format": "hh-sol-artifact-1",
  "contractName": "SquishySouls",
  "sourceName": "contracts/SquishySouls.sol",
  "abi": [
    {
      "inputs": [],
      "stateMutability": "nonpayable",
      "type": "constructor"
    },
    {
      "inputs": [
        {
          "internalType": "address",
          "name": "sender",
          "type": "address"
        },
        {
          "internalType": "uint256",
          "name": "tokenId",
          "type": "uint256"
        },
        {
          "internalType": "address",
          "name": "owner",
          "type": "address"
        }
      ],
      "name": "ERC721IncorrectOwner",
      "type": "error"
    },
    {
      "inputs": [
        {
          "internalType": "address",
          "name": "operator",
          "type": "address"
        },
        {
          "internalType": "uint256",
          "name": "tokenId",
          "type": "uint256"
        }
      ],
      "name": "ERC721InsufficientApproval",
      "type": "error"
    },
    {
      "inputs": [
        {
          "internalType": "address",
          "name": "approver",
          "type": "address"
        }
      ],
      "name": "ERC721InvalidApprover",
      "type": "error"
    },
    {
      "inputs": [
        {
          "internalType": "address",
          "name": "operator",
          "type": "address"
        }
      ],
      "name": "ERC721InvalidOperator",
      "type": "error"
    },
    {
      "inputs": [
        {
          "internalType": "address",
          "name": "owner",
          "type": "address"
        }
      ],
      "name": "ERC721InvalidOwner",
      "type": "error"
    },
    {
      "inputs": [
        {
          "internalType": "address",
          "name": "receiver",
          "type": "address"
        }
      ],
      "name": "ERC721InvalidReceiver",
      "type": "error"
    },
    {
      "inputs": [
        {
          "internalType": "address",
          "name": "sender",
          "type": "address"
        }
      ],
      "name": "ERC721InvalidSender",
      "type": "error"
    },
    {
      "inputs": [
        {
          "internalType": "uint256",
          "name": "tokenId",
          "type": "uint256"
        }
      ],
      "name": "ERC721NonexistentToken",
      "type": "error"
    },
    {
      "inputs": [
        {
          "internalType": "address",
          "name": "owner",
          "type": "address"
        }
      ],
      "name": "OwnableInvalidOwner",
      "type": "error"
    },
    {
      "inputs": [
        {
          "internalType": "address",
          "name": "account",
          "type": "address"
        }
      ],
      "name": "OwnableUnauthorizedAccount",
      "type": "error"
    },
    {
      "anonymous": false,
      "inputs": [
        {
          "indexed": true,
          "internalType": "address",
          "name": "owner",
          "type": "address"
        },
        {
          "indexed": true,
          "internalType": "address",
          "name": "approved",
          "type": "address"
        },
        {
          "indexed": true,
          "internalType": "uint256",
          "name": "tokenId",
          "type": "uint256"
        }
      ],
      "name": "Approval",
      "type": "event"
    },
    {
      "anonymous": false,
      "inputs": [
        {
          "indexed": true,
          "internalType": "address",
          "name": "owner",
          "type": "address"
        },
        {
          "indexed": true,
          "internalType": "address",
          "name": "operator",
          "type": "address"
        },
        {
          "indexed": false,
          "internalType": "bool",
          "name": "approved",
          "type": "bool"
        }
      ],
      "name": "ApprovalForAll",
      "type": "event"
    },
    {
      "anonymous": false,
      "inputs": [
        {
          "indexed": false,
          "internalType": "uint256",
          "name": "_fromTokenId",
          "type": "uint256"
        },
        {
          "indexed": false,
          "internalType": "uint256",
          "name": "_toTokenId",
          "type": "uint256"
        }
      ],
      "name": "BatchMetadataUpdate",
      "type": "event"
    },
    {
      "anonymous": false,
      "inputs": [
        {
          "indexed": false,
          "internalType": "uint256",
          "name": "_tokenId",
          "type": "uint256"
        }
      ],
      "name": "MetadataUpdate",
      "type": "event"
    },
    {
      "anonymous": false,
      "inputs": [
        {
          "indexed": true,
          "internalType": "address",
          "name": "minter",
          "type": "address"
        },
        {
          "indexed": true,
          "internalType": "uint256",
          "name": "tokenId",
          "type": "uint256"
        }
      ],
      "name": "Mint",
      "type": "event"
    },
    {
      "anonymous": false,
      "inputs": [
        {
          "indexed": true,
          "internalType": "address",
          "name": "previousOwner",
          "type": "address"
        },
        {
          "indexed": true,
          "internalType": "address",
          "name": "newOwner",
          "type": "address"
        }
      ],
      "name": "OwnershipTransferred",
      "type": "event"
    },
    {
      "anonymous": false,
      "inputs": [
        {
          "indexed": true,
          "internalType": "address",
          "name": "from",
          "type": "address"
        },
        {
          "indexed": true,
          "internalType": "address",
          "name": "to",
          "type": "address"
        },
        {
          "indexed": true,
          "internalType": "uint256",
          "name": "tokenId",
          "type": "uint256"
        }
      ],
      "name": "Transfer",
      "type": "event"
    },
    {
      "inputs": [
        {
          "internalType": "address",
          "name": "to",
          "type": "address"
        },
        {
          "internalType": "uint256",
          "name": "tokenId",
          "type": "uint256"
        }
      ],
      "name": "approve",
      "outputs": [],
      "stateMutability": "nonpayable",
      "type": "function"
    },
    {
      "inputs": [
        {
          "internalType": "address",
          "name": "owner",
          "type": "address"
        }
      ],
      "name": "balanceOf",
      "outputs": [
        {
          "internalType": "uint256",
          "name": "",
          "type": "uint256"
        }
      ],
      "stateMutability": "view",
      "type": "function"
    },
    {
      "inputs": [
        {
          "internalType": "uint256",
          "name": "tokenId",
          "type": "uint256"
        }
      ],
      "name": "getApproved",
      "outputs": [
        {
          "internalType": "address",
          "name": "",
          "type": "address"
        }
      ],
      "stateMutability": "view",
      "type": "function"
    },
    {
      "inputs": [
        {
          "internalType": "address",
          "name": "owner",
          "type": "address"
        },
        {
          "internalType": "address",
          "name": "operator",
          "type": "address"
        }
      ],
      "name": "isApprovedForAll",
      "outputs": [
        {
          "internalType": "bool",
          "name": "",
          "type": "bool"
        }
      ],
      "stateMutability": "view",
      "type": "function"
    },
    {
      "inputs": [],
      "name": "maxTokens",
      "outputs": [
        {
          "internalType": "uint256",
          "name": "",
          "type": "uint256"
        }
      ],
      "stateMutability": "view",
      "type": "function"
    },
    {
      "inputs": [
        {
          "internalType": "address",
          "name": "to",
          "type": "address"
        },
        {
          "internalType": "string",
          "name": "tokenURI",
          "type": "string"
        }
      ],
      "name": "mint",
      "outputs": [],
      "stateMutability": "nonpayable",
      "type": "function"
    },
    {
      "inputs": [
        {
          "internalType": "address",
          "name": "",
          "type": "address"
        }
      ],
      "name": "minted",
      "outputs": [
        {
          "internalType": "uint256",
          "name": "",
          "type": "uint256"
        }
      ],
      "stateMutability": "view",
      "type": "function"
    },
    {
      "inputs": [],
      "name": "name",
      "outputs": [
        {
          "internalType": "string",
          "name": "",
          "type": "string"
        }
      ],
      "stateMutability": "view",
      "type": "function"
    },
    {
      "inputs": [],
      "name": "nextTokenId",
      "outputs": [
        {
          "internalType": "uint256",
          "name": "",
          "type": "uint256"
        }
      ],
      "stateMutability": "view",
      "type": "function"
    },
    {
      "inputs": [],
      "name": "owner",
      "outputs": [
        {
          "internalType": "address",
          "name": "",
          "type": "address"
        }
      ],
      "stateMutability": "view",
      "type": "function"
    },
    {
      "inputs": [
        {
          "internalType": "uint256",
          "name": "tokenId",
          "type": "uint256"
        }
      ],
      "name": "ownerOf",
      "outputs": [
        {
          "internalType": "address",
          "name": "",
          "type": "address"
        }
      ],
      "stateMutability": "view",
      "type": "function"
    },
    {
      "inputs": [],
      "name": "renounceOwnership",
      "outputs": [],
      "stateMutability": "nonpayable",
      "type": "function"
    },
    {
      "inputs": [
        {
          "internalType": "address",
          "name": "from",
          "type": "address"
        },
        {
          "internalType": "address",
          "name": "to",
          "type": "address"
        },
        {
          "internalType": "uint256",
          "name": "tokenId",
          "type": "uint256"
        }
      ],
      "name": "safeTransferFrom",
      "outputs": [],
      "stateMutability": "nonpayable",
      "type": "function"
    },
    {
      "inputs": [
        {
          "internalType": "address",
          "name": "from",
          "type": "address"
        },
        {
          "internalType": "address",
          "name": "to",
          "type": "address"
        },
        {
          "internalType": "uint256",
          "name": "tokenId",
          "type": "uint256"
        },
        {
          "internalType": "bytes",
          "name": "data",
          "type": "bytes"
        }
      ],
      "name": "safeTransferFrom",
      "outputs": [],
      "stateMutability": "nonpayable",
      "type": "function"
    },
    {
      "inputs": [
        {
          "internalType": "address",
          "name": "operator",
          "type": "address"
        },
        {
          "internalType": "bool",
          "name": "approved",
          "type": "bool"
        }
      ],
      "name": "setApprovalForAll",
      "outputs": [],
      "stateMutability": "nonpayable",
      "type": "function"
    },
    {
      "inputs": [
        {
          "internalType": "uint256",
          "name": "_maxTokens",
          "type": "uint256"
        }
      ],
      "name": "setMaxSupply",
      "outputs": [],
      "stateMutability": "nonpayable",
      "type": "function"
    },
    {
      "inputs": [
        {
          "internalType": "bytes4",
          "name": "interfaceId",
          "type": "bytes4"
        }
      ],
      "name": "supportsInterface",
      "outputs": [
        {
          "internalType": "bool",
          "name": "",
          "type": "bool"
        }
      ],
      "stateMutability": "view",
      "type": "function"
    },
    {
      "inputs": [],
      "name": "symbol",
      "outputs": [
        {
          "internalType": "string",
          "name": "",
          "type": "string"
        }
      ],
      "stateMutability": "view",
      "type": "function"
    },
    {
      "inputs": [
        {
          "internalType": "uint256",
          "name": "tokenId",
          "type": "uint256"
        }
      ],
      "name": "tokenURI",
      "outputs": [
        {
          "internalType": "string",
          "name": "",
          "type": "string"
        }
      ],
      "stateMutability": "view",
      "type": "function"
    },
    {
      "inputs": [
        {
          "internalType": "address",
          "name": "from",
          "type": "address"
        },
        {
          "internalType": "address",
          "name": "to",
          "type": "address"
        },
        {
          "internalType": "uint256",
          "name": "tokenId",
          "type": "uint256"
        }
      ],
      "name": "transferFrom",
      "outputs": [],
      "stateMutability": "nonpayable",
      "type": "function"
    },
    {
      "inputs": [
        {
          "internalType": "address",
          "name": "newOwner",
          "type": "address"
        }
      ],
      "name": "transferOwnership",
      "outputs": [],
      "stateMutability": "nonpayable",
      "type": "function"
    }
  ],
  "bytecode": "0x6080604052606460095534801561001557600080fd5b50336040518060400160405280600c81526020017f53717569736879536f756c7300000000000000000000000000000000000000008152506040518060400160405280600381526020017f53534c000000000000000000000000000000000000000000000000000000000081525081600090816100929190610442565b5080600190816100a29190610442565b505050600073ffffffffffffffffffffffffffffffffffffffff168173ffffffffffffffffffffffffffffffffffffffff16036101175760006040517f1e4fbdf700000000000000000000000000000000000000000000000000000000815260040161010e9190610555565b60405180910390fd5b6101268161012c60201b60201c565b50610570565b6000600760009054906101000a900473ffffffffffffffffffffffffffffffffffffffff16905081600760006101000a81548173ffffffffffffffffffffffffffffffffffffffff021916908373ffffffffffffffffffffffffffffffffffffffff1602179055508173ffffffffffffffffffffffffffffffffffffffff168173ffffffffffffffffffffffffffffffffffffffff167f8be0079c531659141344cd1fd0a4f28419497f9722a3daafe3b4186f6b6457e060405160405180910390a35050565b600081519050919050565b7f4e487b7100000000000000000000000000000000000000000000000000000000600052604160045260246000fd5b7f4e487b7100000000000000000000000000000000000000000000000000000000600052602260045260246000fd5b6000600282049050600182168061027357607f821691505b6020821081036102865761028561022c565b5b50919050565b60008190508160005260206000209050919050565b60006020601f8301049050919050565b600082821b905092915050565b6000600883026102ee7fffffffffffffffffffffffffffffffffffffffffffffffffffffffffffffffff826102b1565b6102f886836102b1565b95508019841693508086168417925050509392505050565b6000819050919050565b6000819050919050565b600061033f61033a61033584610310565b61031a565b610310565b9050919050565b6000819050919050565b61035983610324565b61036d61036582610346565b8484546102be565b825550505050565b600090565b610382610375565b61038d818484610350565b505050565b5b818110156103b1576103a660008261037a565b600181019050610393565b5050565b601f8211156103f6576103c78161028c565b6103d0846102a1565b810160208510156103df578190505b6103f36103eb856102a1565b830182610392565b50505b505050565b600082821c905092915050565b6000610419600019846008026103fb565b1980831691505092915050565b60006104328383610408565b9150826002028217905092915050565b61044b826101f2565b67ffffffffffffffff811115610464576104636101fd565b5b61046e825461025b565b6104798282856103b5565b600060209050601f8311600181146104ac576000841561049a578287015190505b6104a48582610426565b86555061050c565b601f1984166104ba8661028c565b60005b828110156104e2578489015182556001820191506020850194506020810190506104bd565b868310156104ff57848901516104fb601f891682610408565b8355505b6001600288020188555050505b505050505050565b600073ffffffffffffffffffffffffffffffffffffffff82169050919050565b600061053f82610514565b9050919050565b61054f81610534565b82525050565b600060208201905061056a6000830184610546565b92915050565b6129828061057f6000396000f3fe608060405234801561001057600080fd5b50600436106101375760003560e01c8063715018a6116100b8578063b88d4fde1161007c578063b88d4fde1461033a578063c87b56dd14610356578063d0def52114610386578063e8315742146103a2578063e985e9c5146103c0578063f2fde38b146103f057610137565b8063715018a6146102ba57806375794a3c146102c45780638da5cb5b146102e257806395d89b4114610300578063a22cb4651461031e57610137565b806323b872dd116100ff57806323b872dd1461020657806342842e0e146102225780636352211e1461023e5780636f8b44b01461026e57806370a082311461028a57610137565b806301ffc9a71461013c57806306fdde031461016c578063081812fc1461018a578063095ea7b3146101ba5780631e7269c5146101d6575b600080fd5b61015660048036038101906101519190611d02565b61040c565b6040516101639190611d4a565b60405180910390f35b61017461046d565b6040516101819190611df5565b60405180910390f35b6101a4600480360381019061019f9190611e4d565b6104ff565b6040516101b19190611ebb565b60405180910390f35b6101d460048036038101906101cf9190611f02565b61051b565b005b6101f060048036038101906101eb9190611f42565b610531565b6040516101fd9190611f7e565b60405180910390f35b610220600480360381019061021b9190611f99565b610549565b005b61023c60048036038101906102379190611f99565b61064b565b005b61025860048036038101906102539190611e4d565b61066b565b6040516102659190611ebb565b60405180910390f35b61028860048036038101906102839190611e4d565b61067d565b005b6102a4600480360381019061029f9190611f42565b61068f565b6040516102b19190611f7e565b60405180910390f35b6102c2610749565b005b6102cc61075d565b6040516102d99190611f7e565b60405180910390f35b6102ea610763565b6040516102f79190611ebb565b60405180910390f35b61030861078d565b6040516103159190611df5565b60405180910390f35b61033860048036038101906103339190612018565b61081f565b005b610354600480360381019061034f919061218d565b610835565b005b610370600480360381019061036b9190611e4d565b61085a565b60405161037d9190611df5565b60405180910390f35b6103a0600480360381019061039b91906122b1565b61096d565b005b6103aa610b05565b6040516103b79190611f7e565b60405180910390f35b6103da60048036038101906103d5919061230d565b610b0b565b6040516103e79190611d4a565b60405180910390f35b61040a60048036038101906104059190611f42565b610b9f565b005b6000634906490660e01b7bffffffffffffffffffffffffffffffffffffffffffffffffffffffff1916827bffffffffffffffffffffffffffffffffffffffffffffffffffffffff19161480610466575061046582610c25565b5b9050919050565b60606000805461047c9061237c565b80601f01602080910402602001604051908101604052809291908181526020018280546104a89061237c565b80156104f55780601f106104ca576101008083540402835291602001916104f5565b820191906000526020600020905b8154815290600101906020018083116104d857829003601f168201915b5050505050905090565b600061050a82610d07565b5061051482610d8f565b9050919050565b61052d8282610528610dcc565b610dd4565b5050565b600a6020528060005260406000206000915090505481565b600073ffffffffffffffffffffffffffffffffffffffff168273ffffffffffffffffffffffffffffffffffffffff16036105bb5760006040517f64a0ae920000000000000000000000000000000000000000000000000000000081526004016105b29190611ebb565b60405180910390fd5b60006105cf83836105ca610dcc565b610de6565b90508373ffffffffffffffffffffffffffffffffffffffff168173ffffffffffffffffffffffffffffffffffffffff1614610645578382826040517f64283d7b00000000000000000000000000000000000000000000000000000000815260040161063c939291906123ad565b60405180910390fd5b50505050565b61066683838360405180602001604052806000815250610835565b505050565b600061067682610d07565b9050919050565b610685611000565b8060098190555050565b60008073ffffffffffffffffffffffffffffffffffffffff168273ffffffffffffffffffffffffffffffffffffffff16036107025760006040517f89c62b640000000000000000000000000000000000000000000000000000000081526004016106f99190611ebb565b60405180910390fd5b600360008373ffffffffffffffffffffffffffffffffffffffff1673ffffffffffffffffffffffffffffffffffffffff168152602001908152602001600020549050919050565b610751611000565b61075b6000611087565b565b60085481565b6000600760009054906101000a900473ffffffffffffffffffffffffffffffffffffffff16905090565b60606001805461079c9061237c565b80601f01602080910402602001604051908101604052809291908181526020018280546107c89061237c565b80156108155780601f106107ea57610100808354040283529160200191610815565b820191906000526020600020905b8154815290600101906020018083116107f857829003601f168201915b5050505050905090565b61083161082a610dcc565b838361114d565b5050565b610840848484610549565b61085461084b610dcc565b858585856112bc565b50505050565b606061086582610d07565b5060006006600084815260200190815260200160002080546108869061237c565b80601f01602080910402602001604051908101604052809291908181526020018280546108b29061237c565b80156108ff5780601f106108d4576101008083540402835291602001916108ff565b820191906000526020600020905b8154815290600101906020018083116108e257829003601f168201915b50505050509050600061091061146d565b90506000815103610925578192505050610968565b60008251111561095a578082604051602001610942929190612420565b60405160208183030381529060405292505050610968565b61096384611484565b925050505b919050565b600a8060008473ffffffffffffffffffffffffffffffffffffffff1673ffffffffffffffffffffffffffffffffffffffff16815260200190815260200160002054106109ee576040517f08c379a00000000000000000000000000000000000000000000000000000000081526004016109e590612490565b60405180910390fd5b60095460085410610a34576040517f08c379a0000000000000000000000000000000000000000000000000000000008152600401610a2b906124fc565b60405180910390fd5b6000600854905060086000815480929190610a4e9061254b565b9190505550610a5d83826114ed565b610a67818361150b565b600a60008473ffffffffffffffffffffffffffffffffffffffff1673ffffffffffffffffffffffffffffffffffffffff1681526020019081526020016000206000815480929190610ab79061254b565b9190505550808373ffffffffffffffffffffffffffffffffffffffff167f0f6798a560793a54c3bcfe86a93cde1e73087d944c0ea20544137d412139688560405160405180910390a3505050565b60095481565b6000600560008473ffffffffffffffffffffffffffffffffffffffff1673ffffffffffffffffffffffffffffffffffffffff16815260200190815260200160002060008373ffffffffffffffffffffffffffffffffffffffff1673ffffffffffffffffffffffffffffffffffffffff16815260200190815260200160002060009054906101000a900460ff16905092915050565b610ba7611000565b600073ffffffffffffffffffffffffffffffffffffffff168173ffffffffffffffffffffffffffffffffffffffff1603610c195760006040517f1e4fbdf7000000000000000000000000000000000000000000000000000000008152600401610c109190611ebb565b60405180910390fd5b610c2281611087565b50565b60007f80ac58cd000000000000000000000000000000000000000000000000000000007bffffffffffffffffffffffffffffffffffffffffffffffffffffffff1916827bffffffffffffffffffffffffffffffffffffffffffffffffffffffff19161480610cf057507f5b5e139f000000000000000000000000000000000000000000000000000000007bffffffffffffffffffffffffffffffffffffffffffffffffffffffff1916827bffffffffffffffffffffffffffffffffffffffffffffffffffffffff1916145b80610d005750610cff82611567565b5b9050919050565b600080610d13836115d1565b9050600073ffffffffffffffffffffffffffffffffffffffff168173ffffffffffffffffffffffffffffffffffffffff1603610d8657826040517f7e273289000000000000000000000000000000000000000000000000000000008152600401610d7d9190611f7e565b60405180910390fd5b80915050919050565b60006004600083815260200190815260200160002060009054906101000a900473ffffffffffffffffffffffffffffffffffffffff169050919050565b600033905090565b610de1838383600161160e565b505050565b600080610df2846115d1565b9050600073ffffffffffffffffffffffffffffffffffffffff168373ffffffffffffffffffffffffffffffffffffffff1614610e3457610e338184866117d3565b5b600073ffffffffffffffffffffffffffffffffffffffff168173ffffffffffffffffffffffffffffffffffffffff1614610ec557610e7660008560008061160e565b6001600360008373ffffffffffffffffffffffffffffffffffffffff1673ffffffffffffffffffffffffffffffffffffffff168152602001908152602001600020600082825403925050819055505b600073ffffffffffffffffffffffffffffffffffffffff168573ffffffffffffffffffffffffffffffffffffffff1614610f48576001600360008773ffffffffffffffffffffffffffffffffffffffff1673ffffffffffffffffffffffffffffffffffffffff168152602001908152602001600020600082825401925050819055505b846002600086815260200190815260200160002060006101000a81548173ffffffffffffffffffffffffffffffffffffffff021916908373ffffffffffffffffffffffffffffffffffffffff160217905550838573ffffffffffffffffffffffffffffffffffffffff168273ffffffffffffffffffffffffffffffffffffffff167fddf252ad1be2c89b69c2b068fc378daa952ba7f163c4a11628f55a4df523b3ef60405160405180910390a4809150509392505050565b611008610dcc565b73ffffffffffffffffffffffffffffffffffffffff16611026610763565b73ffffffffffffffffffffffffffffffffffffffff161461108557611049610dcc565b6040517f118cdaa700000000000000000000000000000000000000000000000000000000815260040161107c9190611ebb565b60405180910390fd5b565b6000600760009054906101000a900473ffffffffffffffffffffffffffffffffffffffff16905081600760006101000a81548173ffffffffffffffffffffffffffffffffffffffff021916908373ffffffffffffffffffffffffffffffffffffffff1602179055508173ffffffffffffffffffffffffffffffffffffffff168173ffffffffffffffffffffffffffffffffffffffff167f8be0079c531659141344cd1fd0a4f28419497f9722a3daafe3b4186f6b6457e060405160405180910390a35050565b600073ffffffffffffffffffffffffffffffffffffffff168273ffffffffffffffffffffffffffffffffffffffff16036111be57816040517f5b08ba180000000000000000000000000000000000000000000000000000000081526004016111b59190611ebb565b60405180910390fd5b80600560008573ffffffffffffffffffffffffffffffffffffffff1673ffffffffffffffffffffffffffffffffffffffff16815260200190815260200160002060008473ffffffffffffffffffffffffffffffffffffffff1673ffffffffffffffffffffffffffffffffffffffff16815260200190815260200160002060006101000a81548160ff0219169083151502179055508173ffffffffffffffffffffffffffffffffffffffff168373ffffffffffffffffffffffffffffffffffffffff167f17307eab39ab6107e8899845ad3d59bd9653f200f220920489ca2b5937696c31836040516112af9190611d4a565b60405180910390a3505050565b60008373ffffffffffffffffffffffffffffffffffffffff163b1115611466578273ffffffffffffffffffffffffffffffffffffffff1663150b7a02868685856040518563ffffffff1660e01b815260040161131b94939291906125e8565b6020604051808303816000875af192505050801561135757506040513d601f19601f820116820180604052508101906113549190612649565b60015b6113db573d8060008114611387576040519150601f19603f3d011682016040523d82523d6000602084013e61138c565b606091505b5060008151036113d357836040517f64a0ae920000000000000000000000000000000000000000000000000000000081526004016113ca9190611ebb565b60405180910390fd5b805181602001fd5b63150b7a0260e01b7bffffffffffffffffffffffffffffffffffffffffffffffffffffffff1916817bffffffffffffffffffffffffffffffffffffffffffffffffffffffff19161461146457836040517f64a0ae9200000000000000000000000000000000000000000000000000000000815260040161145b9190611ebb565b60405180910390fd5b505b5050505050565b606060405180602001604052806000815250905090565b606061148f82610d07565b50600061149a61146d565b905060008151116114ba57604051806020016040528060008152506114e5565b806114c484611897565b6040516020016114d5929190612420565b6040516020818303038152906040525b915050919050565b611507828260405180602001604052806000815250611965565b5050565b8060066000848152602001908152602001600020908161152b9190612822565b507ff8e1a15aba9398e019f0b49df1a4fde98ee17ae345cb5f6b5e2c27f5033e8ce78260405161155b9190611f7e565b60405180910390a15050565b60007f01ffc9a7000000000000000000000000000000000000000000000000000000007bffffffffffffffffffffffffffffffffffffffffffffffffffffffff1916827bffffffffffffffffffffffffffffffffffffffffffffffffffffffff1916149050919050565b60006002600083815260200190815260200160002060009054906101000a900473ffffffffffffffffffffffffffffffffffffffff169050919050565b80806116475750600073ffffffffffffffffffffffffffffffffffffffff168273ffffffffffffffffffffffffffffffffffffffff1614155b1561177b57600061165784610d07565b9050600073ffffffffffffffffffffffffffffffffffffffff168373ffffffffffffffffffffffffffffffffffffffff16141580156116c257508273ffffffffffffffffffffffffffffffffffffffff168173ffffffffffffffffffffffffffffffffffffffff1614155b80156116d557506116d38184610b0b565b155b1561171757826040517fa9fbf51f00000000000000000000000000000000000000000000000000000000815260040161170e9190611ebb565b60405180910390fd5b811561177957838573ffffffffffffffffffffffffffffffffffffffff168273ffffffffffffffffffffffffffffffffffffffff167f8c5be1e5ebec7d5bd14f71427d1e84f3dd0314c0f7b2291e5b200ac8c7c3b92560405160405180910390a45b505b836004600085815260200190815260200160002060006101000a81548173ffffffffffffffffffffffffffffffffffffffff021916908373ffffffffffffffffffffffffffffffffffffffff16021790555050505050565b6117de838383611989565b61189257600073ffffffffffffffffffffffffffffffffffffffff168373ffffffffffffffffffffffffffffffffffffffff160361185357806040517f7e27328900000000000000000000000000000000000000000000000000000000815260040161184a9190611f7e565b60405180910390fd5b81816040517f177e802f0000000000000000000000000000000000000000000000000000000081526004016118899291906128f4565b60405180910390fd5b505050565b6060600060016118a684611a4a565b01905060008167ffffffffffffffff8111156118c5576118c4612062565b5b6040519080825280601f01601f1916602001820160405280156118f75781602001600182028036833780820191505090505b509050600082602001820190505b60011561195a578080600190039150507f3031323334353637383961626364656600000000000000000000000000000000600a86061a8153600a858161194e5761194d61291d565b5b04945060008503611905575b819350505050919050565b61196f8383611b9d565b61198461197a610dcc565b60008585856112bc565b505050565b60008073ffffffffffffffffffffffffffffffffffffffff168373ffffffffffffffffffffffffffffffffffffffff1614158015611a4157508273ffffffffffffffffffffffffffffffffffffffff168473ffffffffffffffffffffffffffffffffffffffff161480611a025750611a018484610b0b565b5b80611a4057508273ffffffffffffffffffffffffffffffffffffffff16611a2883610d8f565b73ffffffffffffffffffffffffffffffffffffffff16145b5b90509392505050565b600080600090507a184f03e93ff9f4daa797ed6e38ed64bf6a1f0100000000000000008310611aa8577a184f03e93ff9f4daa797ed6e38ed64bf6a1f0100000000000000008381611a9e57611a9d61291d565b5b0492506040810190505b6d04ee2d6d415b85acef81000000008310611ae5576d04ee2d6d415b85acef81000000008381611adb57611ada61291d565b5b0492506020810190505b662386f26fc100008310611b1457662386f26fc100008381611b0a57611b0961291d565b5b0492506010810190505b6305f5e1008310611b3d576305f5e1008381611b3357611b3261291d565b5b0492506008810190505b6127108310611b62576127108381611b5857611b5761291d565b5b0492506004810190505b60648310611b855760648381611b7b57611b7a61291d565b5b0492506002810190505b600a8310611b94576001810190505b80915050919050565b600073ffffffffffffffffffffffffffffffffffffffff168273ffffffffffffffffffffffffffffffffffffffff1603611c0f5760006040517f64a0ae92000000000000000000000000000000000000000000000000000000008152600401611c069190611ebb565b60405180910390fd5b6000611c1d83836000610de6565b9050600073ffffffffffffffffffffffffffffffffffffffff168173ffffffffffffffffffffffffffffffffffffffff1614611c915760006040517f73c6ac6e000000000000000000000000000000000000000000000000000000008152600401611c889190611ebb565b60405180910390fd5b505050565b6000604051905090565b600080fd5b600080fd5b60007fffffffff0000000000000000000000000000000000000000000000000000000082169050919050565b611cdf81611caa565b8114611cea57600080fd5b50565b600081359050611cfc81611cd6565b92915050565b600060208284031215611d1857611d17611ca0565b5b6000611d2684828501611ced565b91505092915050565b60008115159050919050565b611d4481611d2f565b82525050565b6000602082019050611d5f6000830184611d3b565b92915050565b600081519050919050565b600082825260208201905092915050565b60005b83811015611d9f578082015181840152602081019050611d84565b60008484015250505050565b6000601f19601f8301169050919050565b6000611dc782611d65565b611dd18185611d70565b9350611de1818560208601611d81565b611dea81611dab565b840191505092915050565b60006020820190508181036000830152611e0f8184611dbc565b905092915050565b6000819050919050565b611e2a81611e17565b8114611e3557600080fd5b50565b600081359050611e4781611e21565b92915050565b600060208284031215611e6357611e62611ca0565b5b6000611e7184828501611e38565b91505092915050565b600073ffffffffffffffffffffffffffffffffffffffff82169050919050565b6000611ea582611e7a565b9050919050565b611eb581611e9a565b82525050565b6000602082019050611ed06000830184611eac565b92915050565b611edf81611e9a565b8114611eea57600080fd5b50565b600081359050611efc81611ed6565b92915050565b60008060408385031215611f1957611f18611ca0565b5b6000611f2785828601611eed565b9250506020611f3885828601611e38565b9150509250929050565b600060208284031215611f5857611f57611ca0565b5b6000611f6684828501611eed565b91505092915050565b611f7881611e17565b82525050565b6000602082019050611f936000830184611f6f565b92915050565b600080600060608486031215611fb257611fb1611ca0565b5b6000611fc086828701611eed565b9350506020611fd186828701611eed565b9250506040611fe286828701611e38565b9150509250925092565b611ff581611d2f565b811461200057600080fd5b50565b60008135905061201281611fec565b92915050565b6000806040838503121561202f5761202e611ca0565b5b600061203d85828601611eed565b925050602061204e85828601612003565b9150509250929050565b600080fd5b600080fd5b7f4e487b7100000000000000000000000000000000000000000000000000000000600052604160045260246000fd5b61209a82611dab565b810181811067ffffffffffffffff821117156120b9576120b8612062565b5b80604052505050565b60006120cc611c96565b90506120d88282612091565b919050565b600067ffffffffffffffff8211156120f8576120f7612062565b5b61210182611dab565b9050602081019050919050565b82818337600083830152505050565b600061213061212b846120dd565b6120c2565b90508281526020810184848401111561214c5761214b61205d565b5b61215784828561210e565b509392505050565b600082601f83011261217457612173612058565b5b813561218484826020860161211d565b91505092915050565b600080600080608085870312156121a7576121a6611ca0565b5b60006121b587828801611eed565b94505060206121c687828801611eed565b93505060406121d787828801611e38565b925050606085013567ffffffffffffffff8111156121f8576121f7611ca5565b5b6122048782880161215f565b91505092959194509250565b600067ffffffffffffffff82111561222b5761222a612062565b5b61223482611dab565b9050602081019050919050565b600061225461224f84612210565b6120c2565b9050828152602081018484840111156122705761226f61205d565b5b61227b84828561210e565b509392505050565b600082601f83011261229857612297612058565b5b81356122a8848260208601612241565b91505092915050565b600080604083850312156122c8576122c7611ca0565b5b60006122d685828601611eed565b925050602083013567ffffffffffffffff8111156122f7576122f6611ca5565b5b61230385828601612283565b9150509250929050565b6000806040838503121561232457612323611ca0565b5b600061233285828601611eed565b925050602061234385828601611eed565b9150509250929050565b7f4e487b7100000000000000000000000000000000000000000000000000000000600052602260045260246000fd5b6000600282049050600182168061239457607f821691505b6020821081036123a7576123a661234d565b5b50919050565b60006060820190506123c26000830186611eac565b6123cf6020830185611f6f565b6123dc6040830184611eac565b949350505050565b600081905092915050565b60006123fa82611d65565b61240481856123e4565b9350612414818560208601611d81565b80840191505092915050565b600061242c82856123ef565b915061243882846123ef565b91508190509392505050565b7f4120757365722063616e206d696e74206f6e6c79203130204e46547300000000600082015250565b600061247a601c83611d70565b915061248582612444565b602082019050919050565b600060208201905081810360008301526124a98161246d565b9050919050565b7f4d617820737570706c7920726561636865640000000000000000000000000000600082015250565b60006124e6601283611d70565b91506124f1826124b0565b602082019050919050565b60006020820190508181036000830152612515816124d9565b9050919050565b7f4e487b7100000000000000000000000000000000000000000000000000000000600052601160045260246000fd5b600061255682611e17565b91507fffffffffffffffffffffffffffffffffffffffffffffffffffffffffffffffff82036125885761258761251c565b5b600182019050919050565b600081519050919050565b600082825260208201905092915050565b60006125ba82612593565b6125c4818561259e565b93506125d4818560208601611d81565b6125dd81611dab565b840191505092915050565b60006080820190506125fd6000830187611eac565b61260a6020830186611eac565b6126176040830185611f6f565b818103606083015261262981846125af565b905095945050505050565b60008151905061264381611cd6565b92915050565b60006020828403121561265f5761265e611ca0565b5b600061266d84828501612634565b91505092915050565b60008190508160005260206000209050919050565b60006020601f8301049050919050565b600082821b905092915050565b6000600883026126d87fffffffffffffffffffffffffffffffffffffffffffffffffffffffffffffffff8261269b565b6126e2868361269b565b95508019841693508086168417925050509392505050565b6000819050919050565b600061271f61271a61271584611e17565b6126fa565b611e17565b9050919050565b6000819050919050565b61273983612704565b61274d61274582612726565b8484546126a8565b825550505050565b600090565b612762612755565b61276d818484612730565b505050565b5b818110156127915761278660008261275a565b600181019050612773565b5050565b601f8211156127d6576127a781612676565b6127b08461268b565b810160208510156127bf578190505b6127d36127cb8561268b565b830182612772565b50505b505050565b600082821c905092915050565b60006127f9600019846008026127db565b1980831691505092915050565b600061281283836127e8565b9150826002028217905092915050565b61282b82611d65565b67ffffffffffffffff81111561284457612843612062565b5b61284e825461237c565b612859828285612795565b600060209050601f83116001811461288c576000841561287a578287015190505b6128848582612806565b8655506128ec565b601f19841661289a86612676565b60005b828110156128c25784890151825560018201915060208501945060208101905061289d565b868310156128df57848901516128db601f8916826127e8565b8355505b6001600288020188555050505b505050505050565b60006040820190506129096000830185611eac565b6129166020830184611f6f565b9392505050565b7f4e487b7100000000000000000000000000000000000000000000000000000000600052601260045260246000fdfea26469706673582212207a452d2dbd18f6c319d25e4761669eff5cc8c5d4bdb769a786777a9347d424c864736f6c634300081b0033",
  "linkReferences": {},
  "deployedLinkReferences": {}
}