{
  "_format": "hh-sol-artifact-1",
  "contractName": "SudokuMarketplace",
  "sourceName": "contracts/SudokuMarketplace.sol",
  "abi": [
    {
      "inputs": [],
      "stateMutability": "nonpayable",
      "type": "constructor"
    },
    {
      "inputs": [
        {
          "internalType": "address",
          "name": "sender",
          "type": "address"
        },
        {
          "internalType": "uint256",
          "name": "tokenId",
          "type": "uint256"
        },
        {
          "internalType": "address",
          "name": "owner",
          "type": "address"
        }
      ],
      "name": "ERC721IncorrectOwner",
      "type": "error"
    },
    {
      "inputs": [
        {
          "internalType": "address",
          "name": "operator",
          "type": "address"
        },
        {
          "internalType": "uint256",
          "name": "tokenId",
          "type": "uint256"
        }
      ],
      "name": "ERC721InsufficientApproval",
      "type": "error"
    },
    {
      "inputs": [
        {
          "internalType": "address",
          "name": "approver",
          "type": "address"
        }
      ],
      "name": "ERC721InvalidApprover",
      "type": "error"
    },
    {
      "inputs": [
        {
          "internalType": "address",
          "name": "operator",
          "type": "address"
        }
      ],
      "name": "ERC721InvalidOperator",
      "type": "error"
    },
    {
      "inputs": [
        {
          "internalType": "address",
          "name": "owner",
          "type": "address"
        }
      ],
      "name": "ERC721InvalidOwner",
      "type": "error"
    },
    {
      "inputs": [
        {
          "internalType": "address",
          "name": "receiver",
          "type": "address"
        }
      ],
      "name": "ERC721InvalidReceiver",
      "type": "error"
    },
    {
      "inputs": [
        {
          "internalType": "address",
          "name": "sender",
          "type": "address"
        }
      ],
      "name": "ERC721InvalidSender",
      "type": "error"
    },
    {
      "inputs": [
        {
          "internalType": "uint256",
          "name": "tokenId",
          "type": "uint256"
        }
      ],
      "name": "ERC721NonexistentToken",
      "type": "error"
    },
    {
      "inputs": [
        {
          "internalType": "address",
          "name": "owner",
          "type": "address"
        }
      ],
      "name": "OwnableInvalidOwner",
      "type": "error"
    },
    {
      "inputs": [
        {
          "internalType": "address",
          "name": "account",
          "type": "address"
        }
      ],
      "name": "OwnableUnauthorizedAccount",
      "type": "error"
    },
    {
      "anonymous": false,
      "inputs": [
        {
          "indexed": true,
          "internalType": "address",
          "name": "owner",
          "type": "address"
        },
        {
          "indexed": true,
          "internalType": "address",
          "name": "approved",
          "type": "address"
        },
        {
          "indexed": true,
          "internalType": "uint256",
          "name": "tokenId",
          "type": "uint256"
        }
      ],
      "name": "Approval",
      "type": "event"
    },
    {
      "anonymous": false,
      "inputs": [
        {
          "indexed": true,
          "internalType": "address",
          "name": "owner",
          "type": "address"
        },
        {
          "indexed": true,
          "internalType": "address",
          "name": "operator",
          "type": "address"
        },
        {
          "indexed": false,
          "internalType": "bool",
          "name": "approved",
          "type": "bool"
        }
      ],
      "name": "ApprovalForAll",
      "type": "event"
    },
    {
      "anonymous": false,
      "inputs": [
        {
          "indexed": false,
          "internalType": "uint256",
          "name": "_fromTokenId",
          "type": "uint256"
        },
        {
          "indexed": false,
          "internalType": "uint256",
          "name": "_toTokenId",
          "type": "uint256"
        }
      ],
      "name": "BatchMetadataUpdate",
      "type": "event"
    },
    {
      "anonymous": false,
      "inputs": [
        {
          "indexed": true,
          "internalType": "uint256",
          "name": "tokenId",
          "type": "uint256"
        },
        {
          "indexed": true,
          "internalType": "address",
          "name": "buyer",
          "type": "address"
        }
      ],
      "name": "BuyNFT",
      "type": "event"
    },
    {
      "anonymous": false,
      "inputs": [
        {
          "indexed": true,
          "internalType": "uint256",
          "name": "tokenId",
          "type": "uint256"
        },
        {
          "indexed": false,
          "internalType": "uint256",
          "name": "price",
          "type": "uint256"
        }
      ],
      "name": "ListNFT",
      "type": "event"
    },
    {
      "anonymous": false,
      "inputs": [
        {
          "indexed": false,
          "internalType": "uint256",
          "name": "_tokenId",
          "type": "uint256"
        }
      ],
      "name": "MetadataUpdate",
      "type": "event"
    },
    {
      "anonymous": false,
      "inputs": [
        {
          "indexed": true,
          "internalType": "address",
          "name": "owner",
          "type": "address"
        },
        {
          "indexed": true,
          "internalType": "uint256",
          "name": "tokenId",
          "type": "uint256"
        },
        {
          "indexed": false,
          "internalType": "string",
          "name": "tokenURI",
          "type": "string"
        }
      ],
      "name": "MintNFT",
      "type": "event"
    },
    {
      "anonymous": false,
      "inputs": [
        {
          "indexed": true,
          "internalType": "address",
          "name": "previousOwner",
          "type": "address"
        },
        {
          "indexed": true,
          "internalType": "address",
          "name": "newOwner",
          "type": "address"
        }
      ],
      "name": "OwnershipTransferred",
      "type": "event"
    },
    {
      "anonymous": false,
      "inputs": [
        {
          "indexed": true,
          "internalType": "address",
          "name": "from",
          "type": "address"
        },
        {
          "indexed": true,
          "internalType": "address",
          "name": "to",
          "type": "address"
        },
        {
          "indexed": true,
          "internalType": "uint256",
          "name": "tokenId",
          "type": "uint256"
        }
      ],
      "name": "Transfer",
      "type": "event"
    },
    {
      "inputs": [
        {
          "internalType": "address",
          "name": "to",
          "type": "address"
        },
        {
          "internalType": "uint256",
          "name": "tokenId",
          "type": "uint256"
        }
      ],
      "name": "approve",
      "outputs": [],
      "stateMutability": "nonpayable",
      "type": "function"
    },
    {
      "inputs": [
        {
          "internalType": "address",
          "name": "owner",
          "type": "address"
        }
      ],
      "name": "balanceOf",
      "outputs": [
        {
          "internalType": "uint256",
          "name": "",
          "type": "uint256"
        }
      ],
      "stateMutability": "view",
      "type": "function"
    },
    {
      "inputs": [
        {
          "internalType": "uint256",
          "name": "tokenId",
          "type": "uint256"
        }
      ],
      "name": "buyNFT",
      "outputs": [],
      "stateMutability": "payable",
      "type": "function"
    },
    {
      "inputs": [],
      "name": "getAllListedNFTs",
      "outputs": [
        {
          "components": [
            {
              "internalType": "uint256",
              "name": "tokenId",
              "type": "uint256"
            },
            {
              "internalType": "address",
              "name": "owner",
              "type": "address"
            },
            {
              "internalType": "uint256",
              "name": "price",
              "type": "uint256"
            },
            {
              "internalType": "bool",
              "name": "isListed",
              "type": "bool"
            }
          ],
          "internalType": "struct SudokuMarketplace.NFTItem[]",
          "name": "",
          "type": "tuple[]"
        }
      ],
      "stateMutability": "view",
      "type": "function"
    },
    {
      "inputs": [
        {
          "internalType": "uint256",
          "name": "tokenId",
          "type": "uint256"
        }
      ],
      "name": "getApproved",
      "outputs": [
        {
          "internalType": "address",
          "name": "",
          "type": "address"
        }
      ],
      "stateMutability": "view",
      "type": "function"
    },
    {
      "inputs": [],
      "name": "getMintFee",
      "outputs": [
        {
          "internalType": "uint256",
          "name": "",
          "type": "uint256"
        }
      ],
      "stateMutability": "view",
      "type": "function"
    },
    {
      "inputs": [
        {
          "internalType": "address",
          "name": "user",
          "type": "address"
        }
      ],
      "name": "getUserNFTs",
      "outputs": [
        {
          "components": [
            {
              "internalType": "uint256",
              "name": "tokenId",
              "type": "uint256"
            },
            {
              "internalType": "address",
              "name": "owner",
              "type": "address"
            },
            {
              "internalType": "uint256",
              "name": "price",
              "type": "uint256"
            },
            {
              "internalType": "bool",
              "name": "isListed",
              "type": "bool"
            }
          ],
          "internalType": "struct SudokuMarketplace.NFTItem[]",
          "name": "",
          "type": "tuple[]"
        }
      ],
      "stateMutability": "view",
      "type": "function"
    },
    {
      "inputs": [
        {
          "internalType": "address",
          "name": "owner",
          "type": "address"
        },
        {
          "internalType": "address",
          "name": "operator",
          "type": "address"
        }
      ],
      "name": "isApprovedForAll",
      "outputs": [
        {
          "internalType": "bool",
          "name": "",
          "type": "bool"
        }
      ],
      "stateMutability": "view",
      "type": "function"
    },
    {
      "inputs": [
        {
          "internalType": "uint256",
          "name": "tokenId",
          "type": "uint256"
        },
        {
          "internalType": "uint256",
          "name": "price",
          "type": "uint256"
        }
      ],
      "name": "listNFT",
      "outputs": [],
      "stateMutability": "nonpayable",
      "type": "function"
    },
    {
      "inputs": [],
      "name": "mintFee",
      "outputs": [
        {
          "internalType": "uint256",
          "name": "",
          "type": "uint256"
        }
      ],
      "stateMutability": "view",
      "type": "function"
    },
    {
      "inputs": [
        {
          "internalType": "string",
          "name": "tokenURI",
          "type": "string"
        }
      ],
      "name": "mintNFT",
      "outputs": [],
      "stateMutability": "payable",
      "type": "function"
    },
    {
      "inputs": [],
      "name": "name",
      "outputs": [
        {
          "internalType": "string",
          "name": "",
          "type": "string"
        }
      ],
      "stateMutability": "view",
      "type": "function"
    },
    {
      "inputs": [],
      "name": "nextTokenId",
      "outputs": [
        {
          "internalType": "uint256",
          "name": "",
          "type": "uint256"
        }
      ],
      "stateMutability": "view",
      "type": "function"
    },
    {
      "inputs": [
        {
          "internalType": "uint256",
          "name": "",
          "type": "uint256"
        }
      ],
      "name": "nftItems",
      "outputs": [
        {
          "internalType": "uint256",
          "name": "tokenId",
          "type": "uint256"
        },
        {
          "internalType": "address",
          "name": "owner",
          "type": "address"
        },
        {
          "internalType": "uint256",
          "name": "price",
          "type": "uint256"
        },
        {
          "internalType": "bool",
          "name": "isListed",
          "type": "bool"
        }
      ],
      "stateMutability": "view",
      "type": "function"
    },
    {
      "inputs": [],
      "name": "owner",
      "outputs": [
        {
          "internalType": "address",
          "name": "",
          "type": "address"
        }
      ],
      "stateMutability": "view",
      "type": "function"
    },
    {
      "inputs": [
        {
          "internalType": "uint256",
          "name": "tokenId",
          "type": "uint256"
        }
      ],
      "name": "ownerOf",
      "outputs": [
        {
          "internalType": "address",
          "name": "",
          "type": "address"
        }
      ],
      "stateMutability": "view",
      "type": "function"
    },
    {
      "inputs": [],
      "name": "renounceOwnership",
      "outputs": [],
      "stateMutability": "nonpayable",
      "type": "function"
    },
    {
      "inputs": [
        {
          "internalType": "address",
          "name": "from",
          "type": "address"
        },
        {
          "internalType": "address",
          "name": "to",
          "type": "address"
        },
        {
          "internalType": "uint256",
          "name": "tokenId",
          "type": "uint256"
        }
      ],
      "name": "safeTransferFrom",
      "outputs": [],
      "stateMutability": "nonpayable",
      "type": "function"
    },
    {
      "inputs": [
        {
          "internalType": "address",
          "name": "from",
          "type": "address"
        },
        {
          "internalType": "address",
          "name": "to",
          "type": "address"
        },
        {
          "internalType": "uint256",
          "name": "tokenId",
          "type": "uint256"
        },
        {
          "internalType": "bytes",
          "name": "data",
          "type": "bytes"
        }
      ],
      "name": "safeTransferFrom",
      "outputs": [],
      "stateMutability": "nonpayable",
      "type": "function"
    },
    {
      "inputs": [
        {
          "internalType": "address",
          "name": "operator",
          "type": "address"
        },
        {
          "internalType": "bool",
          "name": "approved",
          "type": "bool"
        }
      ],
      "name": "setApprovalForAll",
      "outputs": [],
      "stateMutability": "nonpayable",
      "type": "function"
    },
    {
      "inputs": [
        {
          "internalType": "bytes4",
          "name": "interfaceId",
          "type": "bytes4"
        }
      ],
      "name": "supportsInterface",
      "outputs": [
        {
          "internalType": "bool",
          "name": "",
          "type": "bool"
        }
      ],
      "stateMutability": "view",
      "type": "function"
    },
    {
      "inputs": [],
      "name": "symbol",
      "outputs": [
        {
          "internalType": "string",
          "name": "",
          "type": "string"
        }
      ],
      "stateMutability": "view",
      "type": "function"
    },
    {
      "inputs": [
        {
          "internalType": "uint256",
          "name": "tokenId",
          "type": "uint256"
        }
      ],
      "name": "tokenURI",
      "outputs": [
        {
          "internalType": "string",
          "name": "",
          "type": "string"
        }
      ],
      "stateMutability": "view",
      "type": "function"
    },
    {
      "inputs": [
        {
          "internalType": "address",
          "name": "from",
          "type": "address"
        },
        {
          "internalType": "address",
          "name": "to",
          "type": "address"
        },
        {
          "internalType": "uint256",
          "name": "tokenId",
          "type": "uint256"
        }
      ],
      "name": "transferFrom",
      "outputs": [],
      "stateMutability": "nonpayable",
      "type": "function"
    },
    {
      "inputs": [
        {
          "internalType": "address",
          "name": "newOwner",
          "type": "address"
        }
      ],
      "name": "transferOwnership",
      "outputs": [],
      "stateMutability": "nonpayable",
      "type": "function"
    },
    {
      "inputs": [],
      "name": "withdrawFunds",
      "outputs": [],
      "stateMutability": "nonpayable",
      "type": "function"
    }
  ],
  "bytecode": "0x608060405266038d7ea4c6800060095534801561001b57600080fd5b50336040518060400160405280600981526020017f5375646f6b754e465400000000000000000000000000000000000000000000008152506040518060400160405280600481526020017f5355444f0000000000000000000000000000000000000000000000000000000081525081600090816100989190610448565b5080600190816100a89190610448565b505050600073ffffffffffffffffffffffffffffffffffffffff168173ffffffffffffffffffffffffffffffffffffffff160361011d5760006040517f1e4fbdf7000000000000000000000000000000000000000000000000000000008152600401610114919061055b565b60405180910390fd5b61012c8161013260201b60201c565b50610576565b6000600760009054906101000a900473ffffffffffffffffffffffffffffffffffffffff16905081600760006101000a81548173ffffffffffffffffffffffffffffffffffffffff021916908373ffffffffffffffffffffffffffffffffffffffff1602179055508173ffffffffffffffffffffffffffffffffffffffff168173ffffffffffffffffffffffffffffffffffffffff167f8be0079c531659141344cd1fd0a4f28419497f9722a3daafe3b4186f6b6457e060405160405180910390a35050565b600081519050919050565b7f4e487b7100000000000000000000000000000000000000000000000000000000600052604160045260246000fd5b7f4e487b7100000000000000000000000000000000000000000000000000000000600052602260045260246000fd5b6000600282049050600182168061027957607f821691505b60208210810361028c5761028b610232565b5b50919050565b60008190508160005260206000209050919050565b60006020601f8301049050919050565b600082821b905092915050565b6000600883026102f47fffffffffffffffffffffffffffffffffffffffffffffffffffffffffffffffff826102b7565b6102fe86836102b7565b95508019841693508086168417925050509392505050565b6000819050919050565b6000819050919050565b600061034561034061033b84610316565b610320565b610316565b9050919050565b6000819050919050565b61035f8361032a565b61037361036b8261034c565b8484546102c4565b825550505050565b600090565b61038861037b565b610393818484610356565b505050565b5b818110156103b7576103ac600082610380565b600181019050610399565b5050565b601f8211156103fc576103cd81610292565b6103d6846102a7565b810160208510156103e5578190505b6103f96103f1856102a7565b830182610398565b50505b505050565b600082821c905092915050565b600061041f60001984600802610401565b1980831691505092915050565b6000610438838361040e565b9150826002028217905092915050565b610451826101f8565b67ffffffffffffffff81111561046a57610469610203565b5b6104748254610261565b61047f8282856103bb565b600060209050601f8311600181146104b257600084156104a0578287015190505b6104aa858261042c565b865550610512565b601f1984166104c086610292565b60005b828110156104e8578489015182556001820191506020850194506020810190506104c3565b868310156105055784890151610501601f89168261040e565b8355505b6001600288020188555050505b505050505050565b600073ffffffffffffffffffffffffffffffffffffffff82169050919050565b60006105458261051a565b9050919050565b6105558161053a565b82525050565b6000602082019050610570600083018461054c565b92915050565b6137c7806105856000396000f3fe6080604052600436106101815760003560e01c806370a08231116100d157806395d89b411161008a578063c87b56dd11610064578063c87b56dd14610564578063e985e9c5146105a1578063f2fde38b146105de578063fb37e8831461060757610181565b806395d89b41146104e7578063a22cb46514610512578063b88d4fde1461053b57610181565b806370a08231146103e9578063715018a61461042657806375794a3c1461043d5780637a5caab3146104685780638da5cb5b1461049357806394383f14146104be57610181565b806324600fc31161013e57806351ed82881161011857806351ed82881461031357806352de4ee51461032f578063628213961461036c5780636352211e146103ac57610181565b806324600fc3146102a857806342842e0e146102bf5780634b58ffaa146102e857610181565b806301ffc9a71461018657806306fdde03146101c3578063081812fc146101ee578063095ea7b31461022b57806313966db51461025457806323b872dd1461027f575b600080fd5b34801561019257600080fd5b506101ad60048036038101906101a8919061280f565b610623565b6040516101ba9190612857565b60405180910390f35b3480156101cf57600080fd5b506101d8610684565b6040516101e59190612902565b60405180910390f35b3480156101fa57600080fd5b506102156004803603810190610210919061295a565b610716565b60405161022291906129c8565b60405180910390f35b34801561023757600080fd5b50610252600480360381019061024d9190612a0f565b610732565b005b34801561026057600080fd5b50610269610748565b6040516102769190612a5e565b60405180910390f35b34801561028b57600080fd5b506102a660048036038101906102a19190612a79565b61074e565b005b3480156102b457600080fd5b506102bd610850565b005b3480156102cb57600080fd5b506102e660048036038101906102e19190612a79565b6108a8565b005b3480156102f457600080fd5b506102fd6108c8565b60405161030a9190612bfd565b60405180910390f35b61032d6004803603810190610328919061295a565b610aa0565b005b34801561033b57600080fd5b5061035660048036038101906103519190612c1f565b610c77565b6040516103639190612bfd565b60405180910390f35b34801561037857600080fd5b50610393600480360381019061038e919061295a565b610e3e565b6040516103a39493929190612c4c565b60405180910390f35b3480156103b857600080fd5b506103d360048036038101906103ce919061295a565b610e9b565b6040516103e091906129c8565b60405180910390f35b3480156103f557600080fd5b50610410600480360381019061040b9190612c1f565b610ead565b60405161041d9190612a5e565b60405180910390f35b34801561043257600080fd5b5061043b610f67565b005b34801561044957600080fd5b50610452610f7b565b60405161045f9190612a5e565b60405180910390f35b34801561047457600080fd5b5061047d610f81565b60405161048a9190612a5e565b60405180910390f35b34801561049f57600080fd5b506104a8610f8b565b6040516104b591906129c8565b60405180910390f35b3480156104ca57600080fd5b506104e560048036038101906104e09190612c91565b610fb5565b005b3480156104f357600080fd5b506104fc6110f4565b6040516105099190612902565b60405180910390f35b34801561051e57600080fd5b5061053960048036038101906105349190612cfd565b611186565b005b34801561054757600080fd5b50610562600480360381019061055d9190612e72565b61119c565b005b34801561057057600080fd5b5061058b6004803603810190610586919061295a565b6111c1565b6040516105989190612902565b60405180910390f35b3480156105ad57600080fd5b506105c860048036038101906105c39190612ef5565b6112d4565b6040516105d59190612857565b60405180910390f35b3480156105ea57600080fd5b5061060560048036038101906106009190612c1f565b611368565b005b610621600480360381019061061c9190612fd6565b6113ee565b005b6000634906490660e01b7bffffffffffffffffffffffffffffffffffffffffffffffffffffffff1916827bffffffffffffffffffffffffffffffffffffffffffffffffffffffff1916148061067d575061067c82611585565b5b9050919050565b6060600080546106939061304e565b80601f01602080910402602001604051908101604052809291908181526020018280546106bf9061304e565b801561070c5780601f106106e15761010080835404028352916020019161070c565b820191906000526020600020905b8154815290600101906020018083116106ef57829003601f168201915b5050505050905090565b600061072182611667565b5061072b826116ef565b9050919050565b610744828261073f61172c565b611734565b5050565b60095481565b600073ffffffffffffffffffffffffffffffffffffffff168273ffffffffffffffffffffffffffffffffffffffff16036107c05760006040517f64a0ae920000000000000000000000000000000000000000000000000000000081526004016107b791906129c8565b60405180910390fd5b60006107d483836107cf61172c565b611746565b90508373ffffffffffffffffffffffffffffffffffffffff168173ffffffffffffffffffffffffffffffffffffffff161461084a578382826040517f64283d7b0000000000000000000000000000000000000000000000000000000081526004016108419392919061307f565b60405180910390fd5b50505050565b610858611960565b610860610f8b565b73ffffffffffffffffffffffffffffffffffffffff166108fc479081150290604051600060405180830381858888f193505050501580156108a5573d6000803e3d6000fd5b50565b6108c38383836040518060200160405280600081525061119c565b505050565b606060006008549050600080600090505b8281101561092657600a600082815260200190815260200160002060030160009054906101000a900460ff1615610919578180610915906130e5565b9250505b80806001019150506108d9565b5060008167ffffffffffffffff81111561094357610942612d47565b5b60405190808252806020026020018201604052801561097c57816020015b610969612763565b8152602001906001900390816109615790505b509050600080600090505b84811015610a9557600a600082815260200190815260200160002060030160009054906101000a900460ff1615610a8857600a6000828152602001908152602001600020604051806080016040529081600082015481526020016001820160009054906101000a900473ffffffffffffffffffffffffffffffffffffffff1673ffffffffffffffffffffffffffffffffffffffff1673ffffffffffffffffffffffffffffffffffffffff168152602001600282015481526020016003820160009054906101000a900460ff161515151581525050838381518110610a6e57610a6d61312d565b5b60200260200101819052508180610a84906130e5565b9250505b8080600101915050610987565b508194505050505090565b6000600a600083815260200190815260200160002090508060030160009054906101000a900460ff16610b08576040517f08c379a0000000000000000000000000000000000000000000000000000000008152600401610aff906131a8565b60405180910390fd5b8060020154341015610b4f576040517f08c379a0000000000000000000000000000000000000000000000000000000008152600401610b4690613214565b60405180910390fd5b60008160010160009054906101000a900473ffffffffffffffffffffffffffffffffffffffff169050338260010160006101000a81548173ffffffffffffffffffffffffffffffffffffffff021916908373ffffffffffffffffffffffffffffffffffffffff16021790555060008260030160006101000a81548160ff021916908315150217905550610be38133856119e7565b8073ffffffffffffffffffffffffffffffffffffffff166108fc83600201549081150290604051600060405180830381858888f19350505050158015610c2d573d6000803e3d6000fd5b503373ffffffffffffffffffffffffffffffffffffffff16837f079fc0f01dc38ba287c48d683564d13539db09719cb3532fee3c1b1b61bbcf9560405160405180910390a3505050565b60606000610c8483610ead565b90506000808267ffffffffffffffff811115610ca357610ca2612d47565b5b604051908082528060200260200182016040528015610cdc57816020015b610cc9612763565b815260200190600190039081610cc15790505b50905060005b600854811015610e32578573ffffffffffffffffffffffffffffffffffffffff16600a600083815260200190815260200160002060010160009054906101000a900473ffffffffffffffffffffffffffffffffffffffff1673ffffffffffffffffffffffffffffffffffffffff1603610e2557600a6000828152602001908152602001600020604051806080016040529081600082015481526020016001820160009054906101000a900473ffffffffffffffffffffffffffffffffffffffff1673ffffffffffffffffffffffffffffffffffffffff1673ffffffffffffffffffffffffffffffffffffffff168152602001600282015481526020016003820160009054906101000a900460ff161515151581525050828481518110610e0b57610e0a61312d565b5b60200260200101819052508280610e21906130e5565b9350505b8080600101915050610ce2565b50809350505050919050565b600a6020528060005260406000206000915090508060000154908060010160009054906101000a900473ffffffffffffffffffffffffffffffffffffffff16908060020154908060030160009054906101000a900460ff16905084565b6000610ea682611667565b9050919050565b60008073ffffffffffffffffffffffffffffffffffffffff168273ffffffffffffffffffffffffffffffffffffffff1603610f205760006040517f89c62b64000000000000000000000000000000000000000000000000000000008152600401610f1791906129c8565b60405180910390fd5b600360008373ffffffffffffffffffffffffffffffffffffffff1673ffffffffffffffffffffffffffffffffffffffff168152602001908152602001600020549050919050565b610f6f611960565b610f796000611b54565b565b60085481565b6000600954905090565b6000600760009054906101000a900473ffffffffffffffffffffffffffffffffffffffff16905090565b3373ffffffffffffffffffffffffffffffffffffffff16610fd583610e9b565b73ffffffffffffffffffffffffffffffffffffffff161461102b576040517f08c379a000000000000000000000000000000000000000000000000000000000815260040161102290613280565b60405180910390fd5b6000811161106e576040517f08c379a0000000000000000000000000000000000000000000000000000000008152600401611065906132ec565b60405180910390fd5b80600a6000848152602001908152602001600020600201819055506001600a600084815260200190815260200160002060030160006101000a81548160ff021916908315150217905550817fadc2524c8f93616be9bad3bcab121a8de2a297699e78d4762481efcd6d26a926826040516110e89190612a5e565b60405180910390a25050565b6060600180546111039061304e565b80601f016020809104026020016040519081016040528092919081815260200182805461112f9061304e565b801561117c5780601f106111515761010080835404028352916020019161117c565b820191906000526020600020905b81548152906001019060200180831161115f57829003601f168201915b5050505050905090565b61119861119161172c565b8383611c1a565b5050565b6111a784848461074e565b6111bb6111b261172c565b85858585611d89565b50505050565b60606111cc82611667565b5060006006600084815260200190815260200160002080546111ed9061304e565b80601f01602080910402602001604051908101604052809291908181526020018280546112199061304e565b80156112665780601f1061123b57610100808354040283529160200191611266565b820191906000526020600020905b81548152906001019060200180831161124957829003601f168201915b505050505090506000611277611f3a565b9050600081510361128c5781925050506112cf565b6000825111156112c15780826040516020016112a9929190613348565b604051602081830303815290604052925050506112cf565b6112ca84611f51565b925050505b919050565b6000600560008473ffffffffffffffffffffffffffffffffffffffff1673ffffffffffffffffffffffffffffffffffffffff16815260200190815260200160002060008373ffffffffffffffffffffffffffffffffffffffff1673ffffffffffffffffffffffffffffffffffffffff16815260200190815260200160002060009054906101000a900460ff16905092915050565b611370611960565b600073ffffffffffffffffffffffffffffffffffffffff168173ffffffffffffffffffffffffffffffffffffffff16036113e25760006040517f1e4fbdf70000000000000000000000000000000000000000000000000000000081526004016113d991906129c8565b60405180910390fd5b6113eb81611b54565b50565b600954341015611433576040517f08c379a000000000000000000000000000000000000000000000000000000000815260040161142a906133b8565b60405180910390fd5b600060085490506008600081548092919061144d906130e5565b919050555061145c3382611fba565b6114668183611fd8565b60405180608001604052808281526020013373ffffffffffffffffffffffffffffffffffffffff1681526020016000815260200160001515815250600a60008381526020019081526020016000206000820151816000015560208201518160010160006101000a81548173ffffffffffffffffffffffffffffffffffffffff021916908373ffffffffffffffffffffffffffffffffffffffff1602179055506040820151816002015560608201518160030160006101000a81548160ff021916908315150217905550905050803373ffffffffffffffffffffffffffffffffffffffff167f86094769a8d8b54a575d56650097d483bd4ecdeb3c8dd7ac9ac20df1e0d5ae03846040516115799190612902565b60405180910390a35050565b60007f80ac58cd000000000000000000000000000000000000000000000000000000007bffffffffffffffffffffffffffffffffffffffffffffffffffffffff1916827bffffffffffffffffffffffffffffffffffffffffffffffffffffffff1916148061165057507f5b5e139f000000000000000000000000000000000000000000000000000000007bffffffffffffffffffffffffffffffffffffffffffffffffffffffff1916827bffffffffffffffffffffffffffffffffffffffffffffffffffffffff1916145b80611660575061165f82612034565b5b9050919050565b6000806116738361209e565b9050600073ffffffffffffffffffffffffffffffffffffffff168173ffffffffffffffffffffffffffffffffffffffff16036116e657826040517f7e2732890000000000000000000000000000000000000000000000000000000081526004016116dd9190612a5e565b60405180910390fd5b80915050919050565b60006004600083815260200190815260200160002060009054906101000a900473ffffffffffffffffffffffffffffffffffffffff169050919050565b600033905090565b61174183838360016120db565b505050565b6000806117528461209e565b9050600073ffffffffffffffffffffffffffffffffffffffff168373ffffffffffffffffffffffffffffffffffffffff1614611794576117938184866122a0565b5b600073ffffffffffffffffffffffffffffffffffffffff168173ffffffffffffffffffffffffffffffffffffffff1614611825576117d66000856000806120db565b6001600360008373ffffffffffffffffffffffffffffffffffffffff1673ffffffffffffffffffffffffffffffffffffffff168152602001908152602001600020600082825403925050819055505b600073ffffffffffffffffffffffffffffffffffffffff168573ffffffffffffffffffffffffffffffffffffffff16146118a8576001600360008773ffffffffffffffffffffffffffffffffffffffff1673ffffffffffffffffffffffffffffffffffffffff168152602001908152602001600020600082825401925050819055505b846002600086815260200190815260200160002060006101000a81548173ffffffffffffffffffffffffffffffffffffffff021916908373ffffffffffffffffffffffffffffffffffffffff160217905550838573ffffffffffffffffffffffffffffffffffffffff168273ffffffffffffffffffffffffffffffffffffffff167fddf252ad1be2c89b69c2b068fc378daa952ba7f163c4a11628f55a4df523b3ef60405160405180910390a4809150509392505050565b61196861172c565b73ffffffffffffffffffffffffffffffffffffffff16611986610f8b565b73ffffffffffffffffffffffffffffffffffffffff16146119e5576119a961172c565b6040517f118cdaa70000000000000000000000000000000000000000000000000000000081526004016119dc91906129c8565b60405180910390fd5b565b600073ffffffffffffffffffffffffffffffffffffffff168273ffffffffffffffffffffffffffffffffffffffff1603611a595760006040517f64a0ae92000000000000000000000000000000000000000000000000000000008152600401611a5091906129c8565b60405180910390fd5b6000611a6783836000611746565b9050600073ffffffffffffffffffffffffffffffffffffffff168173ffffffffffffffffffffffffffffffffffffffff1603611ada57816040517f7e273289000000000000000000000000000000000000000000000000000000008152600401611ad19190612a5e565b60405180910390fd5b8373ffffffffffffffffffffffffffffffffffffffff168173ffffffffffffffffffffffffffffffffffffffff1614611b4e578382826040517f64283d7b000000000000000000000000000000000000000000000000000000008152600401611b459392919061307f565b60405180910390fd5b50505050565b6000600760009054906101000a900473ffffffffffffffffffffffffffffffffffffffff16905081600760006101000a81548173ffffffffffffffffffffffffffffffffffffffff021916908373ffffffffffffffffffffffffffffffffffffffff1602179055508173ffffffffffffffffffffffffffffffffffffffff168173ffffffffffffffffffffffffffffffffffffffff167f8be0079c531659141344cd1fd0a4f28419497f9722a3daafe3b4186f6b6457e060405160405180910390a35050565b600073ffffffffffffffffffffffffffffffffffffffff168273ffffffffffffffffffffffffffffffffffffffff1603611c8b57816040517f5b08ba18000000000000000000000000000000000000000000000000000000008152600401611c8291906129c8565b60405180910390fd5b80600560008573ffffffffffffffffffffffffffffffffffffffff1673ffffffffffffffffffffffffffffffffffffffff16815260200190815260200160002060008473ffffffffffffffffffffffffffffffffffffffff1673ffffffffffffffffffffffffffffffffffffffff16815260200190815260200160002060006101000a81548160ff0219169083151502179055508173ffffffffffffffffffffffffffffffffffffffff168373ffffffffffffffffffffffffffffffffffffffff167f17307eab39ab6107e8899845ad3d59bd9653f200f220920489ca2b5937696c3183604051611d7c9190612857565b60405180910390a3505050565b60008373ffffffffffffffffffffffffffffffffffffffff163b1115611f33578273ffffffffffffffffffffffffffffffffffffffff1663150b7a02868685856040518563ffffffff1660e01b8152600401611de8949392919061342d565b6020604051808303816000875af1925050508015611e2457506040513d601f19601f82011682018060405250810190611e21919061348e565b60015b611ea8573d8060008114611e54576040519150601f19603f3d011682016040523d82523d6000602084013e611e59565b606091505b506000815103611ea057836040517f64a0ae92000000000000000000000000000000000000000000000000000000008152600401611e9791906129c8565b60405180910390fd5b805181602001fd5b63150b7a0260e01b7bffffffffffffffffffffffffffffffffffffffffffffffffffffffff1916817bffffffffffffffffffffffffffffffffffffffffffffffffffffffff191614611f3157836040517f64a0ae92000000000000000000000000000000000000000000000000000000008152600401611f2891906129c8565b60405180910390fd5b505b5050505050565b606060405180602001604052806000815250905090565b6060611f5c82611667565b506000611f67611f3a565b90506000815111611f875760405180602001604052806000815250611fb2565b80611f9184612364565b604051602001611fa2929190613348565b6040516020818303038152906040525b915050919050565b611fd4828260405180602001604052806000815250612432565b5050565b80600660008481526020019081526020016000209081611ff89190613667565b507ff8e1a15aba9398e019f0b49df1a4fde98ee17ae345cb5f6b5e2c27f5033e8ce7826040516120289190612a5e565b60405180910390a15050565b60007f01ffc9a7000000000000000000000000000000000000000000000000000000007bffffffffffffffffffffffffffffffffffffffffffffffffffffffff1916827bffffffffffffffffffffffffffffffffffffffffffffffffffffffff1916149050919050565b60006002600083815260200190815260200160002060009054906101000a900473ffffffffffffffffffffffffffffffffffffffff169050919050565b80806121145750600073ffffffffffffffffffffffffffffffffffffffff168273ffffffffffffffffffffffffffffffffffffffff1614155b1561224857600061212484611667565b9050600073ffffffffffffffffffffffffffffffffffffffff168373ffffffffffffffffffffffffffffffffffffffff161415801561218f57508273ffffffffffffffffffffffffffffffffffffffff168173ffffffffffffffffffffffffffffffffffffffff1614155b80156121a257506121a081846112d4565b155b156121e457826040517fa9fbf51f0000000000000000000000000000000000000000000000000000000081526004016121db91906129c8565b60405180910390fd5b811561224657838573ffffffffffffffffffffffffffffffffffffffff168273ffffffffffffffffffffffffffffffffffffffff167f8c5be1e5ebec7d5bd14f71427d1e84f3dd0314c0f7b2291e5b200ac8c7c3b92560405160405180910390a45b505b836004600085815260200190815260200160002060006101000a81548173ffffffffffffffffffffffffffffffffffffffff021916908373ffffffffffffffffffffffffffffffffffffffff16021790555050505050565b6122ab838383612456565b61235f57600073ffffffffffffffffffffffffffffffffffffffff168373ffffffffffffffffffffffffffffffffffffffff160361232057806040517f7e2732890000000000000000000000000000000000000000000000000000000081526004016123179190612a5e565b60405180910390fd5b81816040517f177e802f000000000000000000000000000000000000000000000000000000008152600401612356929190613739565b60405180910390fd5b505050565b60606000600161237384612517565b01905060008167ffffffffffffffff81111561239257612391612d47565b5b6040519080825280601f01601f1916602001820160405280156123c45781602001600182028036833780820191505090505b509050600082602001820190505b600115612427578080600190039150507f3031323334353637383961626364656600000000000000000000000000000000600a86061a8153600a858161241b5761241a613762565b5b049450600085036123d2575b819350505050919050565b61243c838361266a565b61245161244761172c565b6000858585611d89565b505050565b60008073ffffffffffffffffffffffffffffffffffffffff168373ffffffffffffffffffffffffffffffffffffffff161415801561250e57508273ffffffffffffffffffffffffffffffffffffffff168473ffffffffffffffffffffffffffffffffffffffff1614806124cf57506124ce84846112d4565b5b8061250d57508273ffffffffffffffffffffffffffffffffffffffff166124f5836116ef565b73ffffffffffffffffffffffffffffffffffffffff16145b5b90509392505050565b600080600090507a184f03e93ff9f4daa797ed6e38ed64bf6a1f0100000000000000008310612575577a184f03e93ff9f4daa797ed6e38ed64bf6a1f010000000000000000838161256b5761256a613762565b5b0492506040810190505b6d04ee2d6d415b85acef810000000083106125b2576d04ee2d6d415b85acef810000000083816125a8576125a7613762565b5b0492506020810190505b662386f26fc1000083106125e157662386f26fc1000083816125d7576125d6613762565b5b0492506010810190505b6305f5e100831061260a576305f5e1008381612600576125ff613762565b5b0492506008810190505b612710831061262f57612710838161262557612624613762565b5b0492506004810190505b60648310612652576064838161264857612647613762565b5b0492506002810190505b600a8310612661576001810190505b80915050919050565b600073ffffffffffffffffffffffffffffffffffffffff168273ffffffffffffffffffffffffffffffffffffffff16036126dc5760006040517f64a0ae920000000000000000000000000000000000000000000000000000000081526004016126d391906129c8565b60405180910390fd5b60006126ea83836000611746565b9050600073ffffffffffffffffffffffffffffffffffffffff168173ffffffffffffffffffffffffffffffffffffffff161461275e5760006040517f73c6ac6e00000000000000000000000000000000000000000000000000000000815260040161275591906129c8565b60405180910390fd5b505050565b604051806080016040528060008152602001600073ffffffffffffffffffffffffffffffffffffffff168152602001600081526020016000151581525090565b6000604051905090565b600080fd5b600080fd5b60007fffffffff0000000000000000000000000000000000000000000000000000000082169050919050565b6127ec816127b7565b81146127f757600080fd5b50565b600081359050612809816127e3565b92915050565b600060208284031215612825576128246127ad565b5b6000612833848285016127fa565b91505092915050565b60008115159050919050565b6128518161283c565b82525050565b600060208201905061286c6000830184612848565b92915050565b600081519050919050565b600082825260208201905092915050565b60005b838110156128ac578082015181840152602081019050612891565b60008484015250505050565b6000601f19601f8301169050919050565b60006128d482612872565b6128de818561287d565b93506128ee81856020860161288e565b6128f7816128b8565b840191505092915050565b6000602082019050818103600083015261291c81846128c9565b905092915050565b6000819050919050565b61293781612924565b811461294257600080fd5b50565b6000813590506129548161292e565b92915050565b6000602082840312156129705761296f6127ad565b5b600061297e84828501612945565b91505092915050565b600073ffffffffffffffffffffffffffffffffffffffff82169050919050565b60006129b282612987565b9050919050565b6129c2816129a7565b82525050565b60006020820190506129dd60008301846129b9565b92915050565b6129ec816129a7565b81146129f757600080fd5b50565b600081359050612a09816129e3565b92915050565b60008060408385031215612a2657612a256127ad565b5b6000612a34858286016129fa565b9250506020612a4585828601612945565b9150509250929050565b612a5881612924565b82525050565b6000602082019050612a736000830184612a4f565b92915050565b600080600060608486031215612a9257612a916127ad565b5b6000612aa0868287016129fa565b9350506020612ab1868287016129fa565b9250506040612ac286828701612945565b9150509250925092565b600081519050919050565b600082825260208201905092915050565b6000819050602082019050919050565b612b0181612924565b82525050565b612b10816129a7565b82525050565b612b1f8161283c565b82525050565b608082016000820151612b3b6000850182612af8565b506020820151612b4e6020850182612b07565b506040820151612b616040850182612af8565b506060820151612b746060850182612b16565b50505050565b6000612b868383612b25565b60808301905092915050565b6000602082019050919050565b6000612baa82612acc565b612bb48185612ad7565b9350612bbf83612ae8565b8060005b83811015612bf0578151612bd78882612b7a565b9750612be283612b92565b925050600181019050612bc3565b5085935050505092915050565b60006020820190508181036000830152612c178184612b9f565b905092915050565b600060208284031215612c3557612c346127ad565b5b6000612c43848285016129fa565b91505092915050565b6000608082019050612c616000830187612a4f565b612c6e60208301866129b9565b612c7b6040830185612a4f565b612c886060830184612848565b95945050505050565b60008060408385031215612ca857612ca76127ad565b5b6000612cb685828601612945565b9250506020612cc785828601612945565b9150509250929050565b612cda8161283c565b8114612ce557600080fd5b50565b600081359050612cf781612cd1565b92915050565b60008060408385031215612d1457612d136127ad565b5b6000612d22858286016129fa565b9250506020612d3385828601612ce8565b9150509250929050565b600080fd5b600080fd5b7f4e487b7100000000000000000000000000000000000000000000000000000000600052604160045260246000fd5b612d7f826128b8565b810181811067ffffffffffffffff82111715612d9e57612d9d612d47565b5b80604052505050565b6000612db16127a3565b9050612dbd8282612d76565b919050565b600067ffffffffffffffff821115612ddd57612ddc612d47565b5b612de6826128b8565b9050602081019050919050565b82818337600083830152505050565b6000612e15612e1084612dc2565b612da7565b905082815260208101848484011115612e3157612e30612d42565b5b612e3c848285612df3565b509392505050565b600082601f830112612e5957612e58612d3d565b5b8135612e69848260208601612e02565b91505092915050565b60008060008060808587031215612e8c57612e8b6127ad565b5b6000612e9a878288016129fa565b9450506020612eab878288016129fa565b9350506040612ebc87828801612945565b925050606085013567ffffffffffffffff811115612edd57612edc6127b2565b5b612ee987828801612e44565b91505092959194509250565b60008060408385031215612f0c57612f0b6127ad565b5b6000612f1a858286016129fa565b9250506020612f2b858286016129fa565b9150509250929050565b600067ffffffffffffffff821115612f5057612f4f612d47565b5b612f59826128b8565b9050602081019050919050565b6000612f79612f7484612f35565b612da7565b905082815260208101848484011115612f9557612f94612d42565b5b612fa0848285612df3565b509392505050565b600082601f830112612fbd57612fbc612d3d565b5b8135612fcd848260208601612f66565b91505092915050565b600060208284031215612fec57612feb6127ad565b5b600082013567ffffffffffffffff81111561300a576130096127b2565b5b61301684828501612fa8565b91505092915050565b7f4e487b7100000000000000000000000000000000000000000000000000000000600052602260045260246000fd5b6000600282049050600182168061306657607f821691505b6020821081036130795761307861301f565b5b50919050565b600060608201905061309460008301866129b9565b6130a16020830185612a4f565b6130ae60408301846129b9565b949350505050565b7f4e487b7100000000000000000000000000000000000000000000000000000000600052601160045260246000fd5b60006130f082612924565b91507fffffffffffffffffffffffffffffffffffffffffffffffffffffffffffffffff8203613122576131216130b6565b5b600182019050919050565b7f4e487b7100000000000000000000000000000000000000000000000000000000600052603260045260246000fd5b7f4e4654206973206e6f74206c697374656420666f722073616c65000000000000600082015250565b6000613192601a8361287d565b915061319d8261315c565b602082019050919050565b600060208201905081810360008301526131c181613185565b9050919050565b7f4e6f7420656e6f7567682045544820746f20627579204e465400000000000000600082015250565b60006131fe60198361287d565b9150613209826131c8565b602082019050919050565b6000602082019050818103600083015261322d816131f1565b9050919050565b7f596f7520617265206e6f7420746865206f776e65720000000000000000000000600082015250565b600061326a60158361287d565b915061327582613234565b602082019050919050565b600060208201905081810360008301526132998161325d565b9050919050565b7f5072696365206d7573742062652067726561746572207468616e207a65726f00600082015250565b60006132d6601f8361287d565b91506132e1826132a0565b602082019050919050565b60006020820190508181036000830152613305816132c9565b9050919050565b600081905092915050565b600061332282612872565b61332c818561330c565b935061333c81856020860161288e565b80840191505092915050565b60006133548285613317565b91506133608284613317565b91508190509392505050565b7f4e6f7420656e6f7567682045544820746f206d696e74204e4654000000000000600082015250565b60006133a2601a8361287d565b91506133ad8261336c565b602082019050919050565b600060208201905081810360008301526133d181613395565b9050919050565b600081519050919050565b600082825260208201905092915050565b60006133ff826133d8565b61340981856133e3565b935061341981856020860161288e565b613422816128b8565b840191505092915050565b600060808201905061344260008301876129b9565b61344f60208301866129b9565b61345c6040830185612a4f565b818103606083015261346e81846133f4565b905095945050505050565b600081519050613488816127e3565b92915050565b6000602082840312156134a4576134a36127ad565b5b60006134b284828501613479565b91505092915050565b60008190508160005260206000209050919050565b60006020601f8301049050919050565b600082821b905092915050565b60006008830261351d7fffffffffffffffffffffffffffffffffffffffffffffffffffffffffffffffff826134e0565b61352786836134e0565b95508019841693508086168417925050509392505050565b6000819050919050565b600061356461355f61355a84612924565b61353f565b612924565b9050919050565b6000819050919050565b61357e83613549565b61359261358a8261356b565b8484546134ed565b825550505050565b600090565b6135a761359a565b6135b2818484613575565b505050565b5b818110156135d6576135cb60008261359f565b6001810190506135b8565b5050565b601f82111561361b576135ec816134bb565b6135f5846134d0565b81016020851015613604578190505b613618613610856134d0565b8301826135b7565b50505b505050565b600082821c905092915050565b600061363e60001984600802613620565b1980831691505092915050565b6000613657838361362d565b9150826002028217905092915050565b61367082612872565b67ffffffffffffffff81111561368957613688612d47565b5b613693825461304e565b61369e8282856135da565b600060209050601f8311600181146136d157600084156136bf578287015190505b6136c9858261364b565b865550613731565b601f1984166136df866134bb565b60005b82811015613707578489015182556001820191506020850194506020810190506136e2565b868310156137245784890151613720601f89168261362d565b8355505b6001600288020188555050505b505050505050565b600060408201905061374e60008301856129b9565b61375b6020830184612a4f565b9392505050565b7f4e487b7100000000000000000000000000000000000000000000000000000000600052601260045260246000fdfea26469706673582212202cc9c4f18fb690ce49a851e2176e46af1f75e67498de609aaf113b901e3a0b4064736f6c634300081b0033",
  "linkReferences": {},
  "deployedLinkReferences": {}
}