{
  "_format": "hh-sol-artifact-1",
  "contractName": "SquishySouls",
  "sourceName": "contracts/SquishySouls.sol",
  "abi": [
    {
      "inputs": [
        {
          "internalType": "string",
          "name": "_baseCID",
          "type": "string"
        }
      ],
      "stateMutability": "nonpayable",
      "type": "constructor"
    },
    {
      "inputs": [
        {
          "internalType": "address",
          "name": "sender",
          "type": "address"
        },
        {
          "internalType": "uint256",
          "name": "tokenId",
          "type": "uint256"
        },
        {
          "internalType": "address",
          "name": "owner",
          "type": "address"
        }
      ],
      "name": "ERC721IncorrectOwner",
      "type": "error"
    },
    {
      "inputs": [
        {
          "internalType": "address",
          "name": "operator",
          "type": "address"
        },
        {
          "internalType": "uint256",
          "name": "tokenId",
          "type": "uint256"
        }
      ],
      "name": "ERC721InsufficientApproval",
      "type": "error"
    },
    {
      "inputs": [
        {
          "internalType": "address",
          "name": "approver",
          "type": "address"
        }
      ],
      "name": "ERC721InvalidApprover",
      "type": "error"
    },
    {
      "inputs": [
        {
          "internalType": "address",
          "name": "operator",
          "type": "address"
        }
      ],
      "name": "ERC721InvalidOperator",
      "type": "error"
    },
    {
      "inputs": [
        {
          "internalType": "address",
          "name": "owner",
          "type": "address"
        }
      ],
      "name": "ERC721InvalidOwner",
      "type": "error"
    },
    {
      "inputs": [
        {
          "internalType": "address",
          "name": "receiver",
          "type": "address"
        }
      ],
      "name": "ERC721InvalidReceiver",
      "type": "error"
    },
    {
      "inputs": [
        {
          "internalType": "address",
          "name": "sender",
          "type": "address"
        }
      ],
      "name": "ERC721InvalidSender",
      "type": "error"
    },
    {
      "inputs": [
        {
          "internalType": "uint256",
          "name": "tokenId",
          "type": "uint256"
        }
      ],
      "name": "ERC721NonexistentToken",
      "type": "error"
    },
    {
      "inputs": [
        {
          "internalType": "address",
          "name": "owner",
          "type": "address"
        }
      ],
      "name": "OwnableInvalidOwner",
      "type": "error"
    },
    {
      "inputs": [
        {
          "internalType": "address",
          "name": "account",
          "type": "address"
        }
      ],
      "name": "OwnableUnauthorizedAccount",
      "type": "error"
    },
    {
      "anonymous": false,
      "inputs": [
        {
          "indexed": true,
          "internalType": "address",
          "name": "owner",
          "type": "address"
        },
        {
          "indexed": true,
          "internalType": "address",
          "name": "approved",
          "type": "address"
        },
        {
          "indexed": true,
          "internalType": "uint256",
          "name": "tokenId",
          "type": "uint256"
        }
      ],
      "name": "Approval",
      "type": "event"
    },
    {
      "anonymous": false,
      "inputs": [
        {
          "indexed": true,
          "internalType": "address",
          "name": "owner",
          "type": "address"
        },
        {
          "indexed": true,
          "internalType": "address",
          "name": "operator",
          "type": "address"
        },
        {
          "indexed": false,
          "internalType": "bool",
          "name": "approved",
          "type": "bool"
        }
      ],
      "name": "ApprovalForAll",
      "type": "event"
    },
    {
      "anonymous": false,
      "inputs": [
        {
          "indexed": false,
          "internalType": "uint256",
          "name": "_fromTokenId",
          "type": "uint256"
        },
        {
          "indexed": false,
          "internalType": "uint256",
          "name": "_toTokenId",
          "type": "uint256"
        }
      ],
      "name": "BatchMetadataUpdate",
      "type": "event"
    },
    {
      "anonymous": false,
      "inputs": [
        {
          "indexed": false,
          "internalType": "uint256",
          "name": "_tokenId",
          "type": "uint256"
        }
      ],
      "name": "MetadataUpdate",
      "type": "event"
    },
    {
      "anonymous": false,
      "inputs": [
        {
          "indexed": true,
          "internalType": "address",
          "name": "to",
          "type": "address"
        },
        {
          "indexed": false,
          "internalType": "uint256",
          "name": "tokenId",
          "type": "uint256"
        },
        {
          "indexed": false,
          "internalType": "string",
          "name": "tokenURI",
          "type": "string"
        }
      ],
      "name": "Mint",
      "type": "event"
    },
    {
      "anonymous": false,
      "inputs": [
        {
          "indexed": true,
          "internalType": "address",
          "name": "previousOwner",
          "type": "address"
        },
        {
          "indexed": true,
          "internalType": "address",
          "name": "newOwner",
          "type": "address"
        }
      ],
      "name": "OwnershipTransferred",
      "type": "event"
    },
    {
      "anonymous": false,
      "inputs": [
        {
          "indexed": true,
          "internalType": "address",
          "name": "from",
          "type": "address"
        },
        {
          "indexed": true,
          "internalType": "address",
          "name": "to",
          "type": "address"
        },
        {
          "indexed": true,
          "internalType": "uint256",
          "name": "tokenId",
          "type": "uint256"
        }
      ],
      "name": "Transfer",
      "type": "event"
    },
    {
      "inputs": [
        {
          "internalType": "address",
          "name": "to",
          "type": "address"
        },
        {
          "internalType": "uint256",
          "name": "tokenId",
          "type": "uint256"
        }
      ],
      "name": "approve",
      "outputs": [],
      "stateMutability": "nonpayable",
      "type": "function"
    },
    {
      "inputs": [
        {
          "internalType": "address",
          "name": "owner",
          "type": "address"
        }
      ],
      "name": "balanceOf",
      "outputs": [
        {
          "internalType": "uint256",
          "name": "",
          "type": "uint256"
        }
      ],
      "stateMutability": "view",
      "type": "function"
    },
    {
      "inputs": [],
      "name": "baseCID",
      "outputs": [
        {
          "internalType": "string",
          "name": "",
          "type": "string"
        }
      ],
      "stateMutability": "view",
      "type": "function"
    },
    {
      "inputs": [
        {
          "internalType": "uint256",
          "name": "tokenId",
          "type": "uint256"
        }
      ],
      "name": "getApproved",
      "outputs": [
        {
          "internalType": "address",
          "name": "",
          "type": "address"
        }
      ],
      "stateMutability": "view",
      "type": "function"
    },
    {
      "inputs": [],
      "name": "getRemainingTokens",
      "outputs": [
        {
          "internalType": "uint256",
          "name": "",
          "type": "uint256"
        }
      ],
      "stateMutability": "view",
      "type": "function"
    },
    {
      "inputs": [
        {
          "internalType": "address",
          "name": "user",
          "type": "address"
        }
      ],
      "name": "getUserMintedCount",
      "outputs": [
        {
          "internalType": "uint256",
          "name": "",
          "type": "uint256"
        }
      ],
      "stateMutability": "view",
      "type": "function"
    },
    {
      "inputs": [
        {
          "internalType": "address",
          "name": "owner",
          "type": "address"
        },
        {
          "internalType": "address",
          "name": "operator",
          "type": "address"
        }
      ],
      "name": "isApprovedForAll",
      "outputs": [
        {
          "internalType": "bool",
          "name": "",
          "type": "bool"
        }
      ],
      "stateMutability": "view",
      "type": "function"
    },
    {
      "inputs": [],
      "name": "maxTokens",
      "outputs": [
        {
          "internalType": "uint256",
          "name": "",
          "type": "uint256"
        }
      ],
      "stateMutability": "view",
      "type": "function"
    },
    {
      "inputs": [],
      "name": "maxTokensPerUser",
      "outputs": [
        {
          "internalType": "uint256",
          "name": "",
          "type": "uint256"
        }
      ],
      "stateMutability": "view",
      "type": "function"
    },
    {
      "inputs": [
        {
          "internalType": "address",
          "name": "to",
          "type": "address"
        }
      ],
      "name": "mint",
      "outputs": [],
      "stateMutability": "nonpayable",
      "type": "function"
    },
    {
      "inputs": [
        {
          "internalType": "address",
          "name": "to",
          "type": "address"
        },
        {
          "internalType": "uint256",
          "name": "quantity",
          "type": "uint256"
        }
      ],
      "name": "mintBatch",
      "outputs": [],
      "stateMutability": "nonpayable",
      "type": "function"
    },
    {
      "inputs": [
        {
          "internalType": "address",
          "name": "",
          "type": "address"
        }
      ],
      "name": "mintedTokensCount",
      "outputs": [
        {
          "internalType": "uint256",
          "name": "",
          "type": "uint256"
        }
      ],
      "stateMutability": "view",
      "type": "function"
    },
    {
      "inputs": [],
      "name": "name",
      "outputs": [
        {
          "internalType": "string",
          "name": "",
          "type": "string"
        }
      ],
      "stateMutability": "view",
      "type": "function"
    },
    {
      "inputs": [],
      "name": "owner",
      "outputs": [
        {
          "internalType": "address",
          "name": "",
          "type": "address"
        }
      ],
      "stateMutability": "view",
      "type": "function"
    },
    {
      "inputs": [
        {
          "internalType": "uint256",
          "name": "tokenId",
          "type": "uint256"
        }
      ],
      "name": "ownerOf",
      "outputs": [
        {
          "internalType": "address",
          "name": "",
          "type": "address"
        }
      ],
      "stateMutability": "view",
      "type": "function"
    },
    {
      "inputs": [],
      "name": "renounceOwnership",
      "outputs": [],
      "stateMutability": "nonpayable",
      "type": "function"
    },
    {
      "inputs": [
        {
          "internalType": "address",
          "name": "from",
          "type": "address"
        },
        {
          "internalType": "address",
          "name": "to",
          "type": "address"
        },
        {
          "internalType": "uint256",
          "name": "tokenId",
          "type": "uint256"
        }
      ],
      "name": "safeTransferFrom",
      "outputs": [],
      "stateMutability": "nonpayable",
      "type": "function"
    },
    {
      "inputs": [
        {
          "internalType": "address",
          "name": "from",
          "type": "address"
        },
        {
          "internalType": "address",
          "name": "to",
          "type": "address"
        },
        {
          "internalType": "uint256",
          "name": "tokenId",
          "type": "uint256"
        },
        {
          "internalType": "bytes",
          "name": "data",
          "type": "bytes"
        }
      ],
      "name": "safeTransferFrom",
      "outputs": [],
      "stateMutability": "nonpayable",
      "type": "function"
    },
    {
      "inputs": [
        {
          "internalType": "address",
          "name": "operator",
          "type": "address"
        },
        {
          "internalType": "bool",
          "name": "approved",
          "type": "bool"
        }
      ],
      "name": "setApprovalForAll",
      "outputs": [],
      "stateMutability": "nonpayable",
      "type": "function"
    },
    {
      "inputs": [
        {
          "internalType": "bytes4",
          "name": "interfaceId",
          "type": "bytes4"
        }
      ],
      "name": "supportsInterface",
      "outputs": [
        {
          "internalType": "bool",
          "name": "",
          "type": "bool"
        }
      ],
      "stateMutability": "view",
      "type": "function"
    },
    {
      "inputs": [],
      "name": "symbol",
      "outputs": [
        {
          "internalType": "string",
          "name": "",
          "type": "string"
        }
      ],
      "stateMutability": "view",
      "type": "function"
    },
    {
      "inputs": [
        {
          "internalType": "uint256",
          "name": "tokenId",
          "type": "uint256"
        }
      ],
      "name": "tokenURI",
      "outputs": [
        {
          "internalType": "string",
          "name": "",
          "type": "string"
        }
      ],
      "stateMutability": "view",
      "type": "function"
    },
    {
      "inputs": [
        {
          "internalType": "address",
          "name": "from",
          "type": "address"
        },
        {
          "internalType": "address",
          "name": "to",
          "type": "address"
        },
        {
          "internalType": "uint256",
          "name": "tokenId",
          "type": "uint256"
        }
      ],
      "name": "transferFrom",
      "outputs": [],
      "stateMutability": "nonpayable",
      "type": "function"
    },
    {
      "inputs": [
        {
          "internalType": "address",
          "name": "newOwner",
          "type": "address"
        }
      ],
      "name": "transferOwnership",
      "outputs": [],
      "stateMutability": "nonpayable",
      "type": "function"
    },
    {
      "inputs": [
        {
          "internalType": "string",
          "name": "_newBaseCID",
          "type": "string"
        }
      ],
      "name": "updateBaseCID",
      "outputs": [],
      "stateMutability": "nonpayable",
      "type": "function"
    },
    {
      "inputs": [
        {
          "internalType": "uint256",
          "name": "_newLimit",
          "type": "uint256"
        }
      ],
      "name": "updateMaxTokensPerUser",
      "outputs": [],
      "stateMutability": "nonpayable",
      "type": "function"
    }
  ],
  "bytecode": "0x60806040526064600855600560095534801561001a57600080fd5b506040516139d93803806139d9833981810160405281019061003c91906103e2565b336040518060400160405280600c81526020017f53717569736879536f756c7300000000000000000000000000000000000000008152506040518060400160405280600381526020017f53534c000000000000000000000000000000000000000000000000000000000081525081600090816100b8919061064c565b5080600190816100c8919061064c565b505050600073ffffffffffffffffffffffffffffffffffffffff168173ffffffffffffffffffffffffffffffffffffffff160361013d5760006040517f1e4fbdf7000000000000000000000000000000000000000000000000000000008152600401610134919061075f565b60405180910390fd5b61014c816101a760201b60201c565b5080600b908161015c919061064c565b5060005b6008548110156101a057600a8190806001815401808255809150506001900390600052602060002001600090919091909150558080600101915050610160565b505061077a565b6000600760009054906101000a900473ffffffffffffffffffffffffffffffffffffffff16905081600760006101000a81548173ffffffffffffffffffffffffffffffffffffffff021916908373ffffffffffffffffffffffffffffffffffffffff1602179055508173ffffffffffffffffffffffffffffffffffffffff168173ffffffffffffffffffffffffffffffffffffffff167f8be0079c531659141344cd1fd0a4f28419497f9722a3daafe3b4186f6b6457e060405160405180910390a35050565b6000604051905090565b600080fd5b600080fd5b600080fd5b600080fd5b6000601f19601f8301169050919050565b7f4e487b7100000000000000000000000000000000000000000000000000000000600052604160045260246000fd5b6102d48261028b565b810181811067ffffffffffffffff821117156102f3576102f261029c565b5b80604052505050565b600061030661026d565b905061031282826102cb565b919050565b600067ffffffffffffffff8211156103325761033161029c565b5b61033b8261028b565b9050602081019050919050565b60005b8381101561036657808201518184015260208101905061034b565b60008484015250505050565b600061038561038084610317565b6102fc565b9050828152602081018484840111156103a1576103a0610286565b5b6103ac848285610348565b509392505050565b600082601f8301126103c9576103c8610281565b5b81516103d9848260208601610372565b91505092915050565b6000602082840312156103f8576103f7610277565b5b600082015167ffffffffffffffff8111156104165761041561027c565b5b610422848285016103b4565b91505092915050565b600081519050919050565b7f4e487b7100000000000000000000000000000000000000000000000000000000600052602260045260246000fd5b6000600282049050600182168061047d57607f821691505b6020821081036104905761048f610436565b5b50919050565b60008190508160005260206000209050919050565b60006020601f8301049050919050565b600082821b905092915050565b6000600883026104f87fffffffffffffffffffffffffffffffffffffffffffffffffffffffffffffffff826104bb565b61050286836104bb565b95508019841693508086168417925050509392505050565b6000819050919050565b6000819050919050565b600061054961054461053f8461051a565b610524565b61051a565b9050919050565b6000819050919050565b6105638361052e565b61057761056f82610550565b8484546104c8565b825550505050565b600090565b61058c61057f565b61059781848461055a565b505050565b5b818110156105bb576105b0600082610584565b60018101905061059d565b5050565b601f821115610600576105d181610496565b6105da846104ab565b810160208510156105e9578190505b6105fd6105f5856104ab565b83018261059c565b50505b505050565b600082821c905092915050565b600061062360001984600802610605565b1980831691505092915050565b600061063c8383610612565b9150826002028217905092915050565b6106558261042b565b67ffffffffffffffff81111561066e5761066d61029c565b5b6106788254610465565b6106838282856105bf565b600060209050601f8311600181146106b657600084156106a4578287015190505b6106ae8582610630565b865550610716565b601f1984166106c486610496565b60005b828110156106ec578489015182556001820191506020850194506020810190506106c7565b868310156107095784890151610705601f891682610612565b8355505b6001600288020188555050505b505050505050565b600073ffffffffffffffffffffffffffffffffffffffff82169050919050565b60006107498261071e565b9050919050565b6107598161073e565b82525050565b60006020820190506107746000830184610750565b92915050565b613250806107896000396000f3fe608060405234801561001057600080fd5b506004361061018e5760003560e01c8063715018a6116100de578063b88d4fde11610097578063e985e9c511610071578063e985e9c51461046d578063e9d5596a1461049d578063ee43d43e146104cd578063f2fde38b146104eb5761018e565b8063b88d4fde14610403578063c87b56dd1461041f578063e83157421461044f5761018e565b8063715018a61461036757806383cdd85b146103715780638da5cb5b1461038d57806395d89b41146103ab578063a22cb465146103c9578063af35ae27146103e55761018e565b8063248b71fc1161014b5780634a7345b4116101255780634a7345b4146102cf5780636352211e146102eb5780636a6278421461031b57806370a08231146103375761018e565b8063248b71fc1461027957806325fdfaa21461029557806342842e0e146102b35761018e565b806301ffc9a71461019357806306fdde03146101c3578063081812fc146101e1578063095ea7b314610211578063103ee6081461022d57806323b872dd1461025d575b600080fd5b6101ad60048036038101906101a89190612157565b610507565b6040516101ba919061219f565b60405180910390f35b6101cb610568565b6040516101d8919061224a565b60405180910390f35b6101fb60048036038101906101f691906122a2565b6105fa565b6040516102089190612310565b60405180910390f35b61022b60048036038101906102269190612357565b610616565b005b61024760048036038101906102429190612397565b61062c565b60405161025491906123d3565b60405180910390f35b610277600480360381019061027291906123ee565b610675565b005b610293600480360381019061028e9190612357565b610777565b005b61029d6108b7565b6040516102aa919061224a565b60405180910390f35b6102cd60048036038101906102c891906123ee565b610945565b005b6102e960048036038101906102e491906122a2565b610965565b005b610305600480360381019061030091906122a2565b610977565b6040516103129190612310565b60405180910390f35b61033560048036038101906103309190612397565b610989565b005b610351600480360381019061034c9190612397565b610a60565b60405161035e91906123d3565b60405180910390f35b61036f610b1a565b005b61038b60048036038101906103869190612576565b610b2e565b005b610395610b49565b6040516103a29190612310565b60405180910390f35b6103b3610b73565b6040516103c0919061224a565b60405180910390f35b6103e360048036038101906103de91906125eb565b610c05565b005b6103ed610c1b565b6040516103fa91906123d3565b60405180910390f35b61041d600480360381019061041891906126cc565b610c28565b005b610439600480360381019061043491906122a2565b610c4d565b604051610446919061224a565b60405180910390f35b610457610d60565b60405161046491906123d3565b60405180910390f35b6104876004803603810190610482919061274f565b610d66565b604051610494919061219f565b60405180910390f35b6104b760048036038101906104b29190612397565b610dfa565b6040516104c491906123d3565b60405180910390f35b6104d5610e12565b6040516104e291906123d3565b60405180910390f35b61050560048036038101906105009190612397565b610e18565b005b6000634906490660e01b7bffffffffffffffffffffffffffffffffffffffffffffffffffffffff1916827bffffffffffffffffffffffffffffffffffffffffffffffffffffffff19161480610561575061056082610e9e565b5b9050919050565b606060008054610577906127be565b80601f01602080910402602001604051908101604052809291908181526020018280546105a3906127be565b80156105f05780601f106105c5576101008083540402835291602001916105f0565b820191906000526020600020905b8154815290600101906020018083116105d357829003601f168201915b5050505050905090565b600061060582610f80565b5061060f82611008565b9050919050565b6106288282610623611045565b61104d565b5050565b6000600c60008373ffffffffffffffffffffffffffffffffffffffff1673ffffffffffffffffffffffffffffffffffffffff168152602001908152602001600020549050919050565b600073ffffffffffffffffffffffffffffffffffffffff168273ffffffffffffffffffffffffffffffffffffffff16036106e75760006040517f64a0ae920000000000000000000000000000000000000000000000000000000081526004016106de9190612310565b60405180910390fd5b60006106fb83836106f6611045565b61105f565b90508373ffffffffffffffffffffffffffffffffffffffff168173ffffffffffffffffffffffffffffffffffffffff1614610771578382826040517f64283d7b000000000000000000000000000000000000000000000000000000008152600401610768939291906127ef565b60405180910390fd5b50505050565b600081116107ba576040517f08c379a00000000000000000000000000000000000000000000000000000000081526004016107b190612898565b60405180910390fd5b80600a805490501015610802576040517f08c379a00000000000000000000000000000000000000000000000000000000081526004016107f990612904565b60405180910390fd5b60095481600c60008573ffffffffffffffffffffffffffffffffffffffff1673ffffffffffffffffffffffffffffffffffffffff168152602001908152602001600020546108509190612953565b1115610891576040517f08c379a0000000000000000000000000000000000000000000000000000000008152600401610888906129d3565b60405180910390fd5b60005b818110156108b2576108a583611279565b8080600101915050610894565b505050565b600b80546108c4906127be565b80601f01602080910402602001604051908101604052809291908181526020018280546108f0906127be565b801561093d5780601f106109125761010080835404028352916020019161093d565b820191906000526020600020905b81548152906001019060200180831161092057829003601f168201915b505050505081565b61096083838360405180602001604052806000815250610c28565b505050565b61096d611410565b8060098190555050565b600061098282610f80565b9050919050565b6000600a80549050116109d1576040517f08c379a00000000000000000000000000000000000000000000000000000000081526004016109c890612a3f565b60405180910390fd5b600954600c60008373ffffffffffffffffffffffffffffffffffffffff1673ffffffffffffffffffffffffffffffffffffffff1681526020019081526020016000205410610a54576040517f08c379a0000000000000000000000000000000000000000000000000000000008152600401610a4b90612aab565b60405180910390fd5b610a5d81611279565b50565b60008073ffffffffffffffffffffffffffffffffffffffff168273ffffffffffffffffffffffffffffffffffffffff1603610ad35760006040517f89c62b64000000000000000000000000000000000000000000000000000000008152600401610aca9190612310565b60405180910390fd5b600360008373ffffffffffffffffffffffffffffffffffffffff1673ffffffffffffffffffffffffffffffffffffffff168152602001908152602001600020549050919050565b610b22611410565b610b2c6000611497565b565b610b36611410565b80600b9081610b459190612c77565b5050565b6000600760009054906101000a900473ffffffffffffffffffffffffffffffffffffffff16905090565b606060018054610b82906127be565b80601f0160208091040260200160405190810160405280929190818152602001828054610bae906127be565b8015610bfb5780601f10610bd057610100808354040283529160200191610bfb565b820191906000526020600020905b815481529060010190602001808311610bde57829003601f168201915b5050505050905090565b610c17610c10611045565b838361155d565b5050565b6000600a80549050905090565b610c33848484610675565b610c47610c3e611045565b858585856116cc565b50505050565b6060610c5882610f80565b506000600660008481526020019081526020016000208054610c79906127be565b80601f0160208091040260200160405190810160405280929190818152602001828054610ca5906127be565b8015610cf25780601f10610cc757610100808354040283529160200191610cf2565b820191906000526020600020905b815481529060010190602001808311610cd557829003601f168201915b505050505090506000610d0361187d565b90506000815103610d18578192505050610d5b565b600082511115610d4d578082604051602001610d35929190612d85565b60405160208183030381529060405292505050610d5b565b610d5684611894565b925050505b919050565b60085481565b6000600560008473ffffffffffffffffffffffffffffffffffffffff1673ffffffffffffffffffffffffffffffffffffffff16815260200190815260200160002060008373ffffffffffffffffffffffffffffffffffffffff1673ffffffffffffffffffffffffffffffffffffffff16815260200190815260200160002060009054906101000a900460ff16905092915050565b600c6020528060005260406000206000915090505481565b60095481565b610e20611410565b600073ffffffffffffffffffffffffffffffffffffffff168173ffffffffffffffffffffffffffffffffffffffff1603610e925760006040517f1e4fbdf7000000000000000000000000000000000000000000000000000000008152600401610e899190612310565b60405180910390fd5b610e9b81611497565b50565b60007f80ac58cd000000000000000000000000000000000000000000000000000000007bffffffffffffffffffffffffffffffffffffffffffffffffffffffff1916827bffffffffffffffffffffffffffffffffffffffffffffffffffffffff19161480610f6957507f5b5e139f000000000000000000000000000000000000000000000000000000007bffffffffffffffffffffffffffffffffffffffffffffffffffffffff1916827bffffffffffffffffffffffffffffffffffffffffffffffffffffffff1916145b80610f795750610f78826118fd565b5b9050919050565b600080610f8c83611967565b9050600073ffffffffffffffffffffffffffffffffffffffff168173ffffffffffffffffffffffffffffffffffffffff1603610fff57826040517f7e273289000000000000000000000000000000000000000000000000000000008152600401610ff691906123d3565b60405180910390fd5b80915050919050565b60006004600083815260200190815260200160002060009054906101000a900473ffffffffffffffffffffffffffffffffffffffff169050919050565b600033905090565b61105a83838360016119a4565b505050565b60008061106b84611967565b9050600073ffffffffffffffffffffffffffffffffffffffff168373ffffffffffffffffffffffffffffffffffffffff16146110ad576110ac818486611b69565b5b600073ffffffffffffffffffffffffffffffffffffffff168173ffffffffffffffffffffffffffffffffffffffff161461113e576110ef6000856000806119a4565b6001600360008373ffffffffffffffffffffffffffffffffffffffff1673ffffffffffffffffffffffffffffffffffffffff168152602001908152602001600020600082825403925050819055505b600073ffffffffffffffffffffffffffffffffffffffff168573ffffffffffffffffffffffffffffffffffffffff16146111c1576001600360008773ffffffffffffffffffffffffffffffffffffffff1673ffffffffffffffffffffffffffffffffffffffff168152602001908152602001600020600082825401925050819055505b846002600086815260200190815260200160002060006101000a81548173ffffffffffffffffffffffffffffffffffffffff021916908373ffffffffffffffffffffffffffffffffffffffff160217905550838573ffffffffffffffffffffffffffffffffffffffff168273ffffffffffffffffffffffffffffffffffffffff167fddf252ad1be2c89b69c2b068fc378daa952ba7f163c4a11628f55a4df523b3ef60405160405180910390a4809150509392505050565b6000611283611c2d565b90506000600a828154811061129b5761129a612da9565b5b906000526020600020015490506000600b6112b583611c72565b6040516020016112c6929190612ef3565b6040516020818303038152906040529050600a6001600a805490506112eb9190612f2d565b815481106112fc576112fb612da9565b5b9060005260206000200154600a848154811061131b5761131a612da9565b5b9060005260206000200181905550600a80548061133b5761133a612f61565b5b60019003818190600052602060002001600090559055600c60008573ffffffffffffffffffffffffffffffffffffffff1673ffffffffffffffffffffffffffffffffffffffff16815260200190815260200160002060008154809291906113a190612f90565b91905055506113b08483611d40565b6113ba8282611d5e565b8373ffffffffffffffffffffffffffffffffffffffff167f85a66b9141978db9980f7e0ce3b468cebf4f7999f32b23091c5c03e798b1ba7a8383604051611402929190612fd8565b60405180910390a250505050565b611418611045565b73ffffffffffffffffffffffffffffffffffffffff16611436610b49565b73ffffffffffffffffffffffffffffffffffffffff161461149557611459611045565b6040517f118cdaa700000000000000000000000000000000000000000000000000000000815260040161148c9190612310565b60405180910390fd5b565b6000600760009054906101000a900473ffffffffffffffffffffffffffffffffffffffff16905081600760006101000a81548173ffffffffffffffffffffffffffffffffffffffff021916908373ffffffffffffffffffffffffffffffffffffffff1602179055508173ffffffffffffffffffffffffffffffffffffffff168173ffffffffffffffffffffffffffffffffffffffff167f8be0079c531659141344cd1fd0a4f28419497f9722a3daafe3b4186f6b6457e060405160405180910390a35050565b600073ffffffffffffffffffffffffffffffffffffffff168273ffffffffffffffffffffffffffffffffffffffff16036115ce57816040517f5b08ba180000000000000000000000000000000000000000000000000000000081526004016115c59190612310565b60405180910390fd5b80600560008573ffffffffffffffffffffffffffffffffffffffff1673ffffffffffffffffffffffffffffffffffffffff16815260200190815260200160002060008473ffffffffffffffffffffffffffffffffffffffff1673ffffffffffffffffffffffffffffffffffffffff16815260200190815260200160002060006101000a81548160ff0219169083151502179055508173ffffffffffffffffffffffffffffffffffffffff168373ffffffffffffffffffffffffffffffffffffffff167f17307eab39ab6107e8899845ad3d59bd9653f200f220920489ca2b5937696c31836040516116bf919061219f565b60405180910390a3505050565b60008373ffffffffffffffffffffffffffffffffffffffff163b1115611876578273ffffffffffffffffffffffffffffffffffffffff1663150b7a02868685856040518563ffffffff1660e01b815260040161172b949392919061305d565b6020604051808303816000875af192505050801561176757506040513d601f19601f8201168201806040525081019061176491906130be565b60015b6117eb573d8060008114611797576040519150601f19603f3d011682016040523d82523d6000602084013e61179c565b606091505b5060008151036117e357836040517f64a0ae920000000000000000000000000000000000000000000000000000000081526004016117da9190612310565b60405180910390fd5b805181602001fd5b63150b7a0260e01b7bffffffffffffffffffffffffffffffffffffffffffffffffffffffff1916817bffffffffffffffffffffffffffffffffffffffffffffffffffffffff19161461187457836040517f64a0ae9200000000000000000000000000000000000000000000000000000000815260040161186b9190612310565b60405180910390fd5b505b5050505050565b606060405180602001604052806000815250905090565b606061189f82610f80565b5060006118aa61187d565b905060008151116118ca57604051806020016040528060008152506118f5565b806118d484611c72565b6040516020016118e5929190612d85565b6040516020818303038152906040525b915050919050565b60007f01ffc9a7000000000000000000000000000000000000000000000000000000007bffffffffffffffffffffffffffffffffffffffffffffffffffffffff1916827bffffffffffffffffffffffffffffffffffffffffffffffffffffffff1916149050919050565b60006002600083815260200190815260200160002060009054906101000a900473ffffffffffffffffffffffffffffffffffffffff169050919050565b80806119dd5750600073ffffffffffffffffffffffffffffffffffffffff168273ffffffffffffffffffffffffffffffffffffffff1614155b15611b115760006119ed84610f80565b9050600073ffffffffffffffffffffffffffffffffffffffff168373ffffffffffffffffffffffffffffffffffffffff1614158015611a5857508273ffffffffffffffffffffffffffffffffffffffff168173ffffffffffffffffffffffffffffffffffffffff1614155b8015611a6b5750611a698184610d66565b155b15611aad57826040517fa9fbf51f000000000000000000000000000000000000000000000000000000008152600401611aa49190612310565b60405180910390fd5b8115611b0f57838573ffffffffffffffffffffffffffffffffffffffff168273ffffffffffffffffffffffffffffffffffffffff167f8c5be1e5ebec7d5bd14f71427d1e84f3dd0314c0f7b2291e5b200ac8c7c3b92560405160405180910390a45b505b836004600085815260200190815260200160002060006101000a81548173ffffffffffffffffffffffffffffffffffffffff021916908373ffffffffffffffffffffffffffffffffffffffff16021790555050505050565b611b74838383611dba565b611c2857600073ffffffffffffffffffffffffffffffffffffffff168373ffffffffffffffffffffffffffffffffffffffff1603611be957806040517f7e273289000000000000000000000000000000000000000000000000000000008152600401611be091906123d3565b60405180910390fd5b81816040517f177e802f000000000000000000000000000000000000000000000000000000008152600401611c1f9291906130eb565b60405180910390fd5b505050565b6000600a80549050424433604051602001611c4a9392919061317d565b6040516020818303038152906040528051906020012060001c611c6d91906131e9565b905090565b606060006001611c8184611e7b565b01905060008167ffffffffffffffff811115611ca057611c9f61244b565b5b6040519080825280601f01601f191660200182016040528015611cd25781602001600182028036833780820191505090505b509050600082602001820190505b600115611d35578080600190039150507f3031323334353637383961626364656600000000000000000000000000000000600a86061a8153600a8581611d2957611d286131ba565b5b04945060008503611ce0575b819350505050919050565b611d5a828260405180602001604052806000815250611fce565b5050565b80600660008481526020019081526020016000209081611d7e9190612c77565b507ff8e1a15aba9398e019f0b49df1a4fde98ee17ae345cb5f6b5e2c27f5033e8ce782604051611dae91906123d3565b60405180910390a15050565b60008073ffffffffffffffffffffffffffffffffffffffff168373ffffffffffffffffffffffffffffffffffffffff1614158015611e7257508273ffffffffffffffffffffffffffffffffffffffff168473ffffffffffffffffffffffffffffffffffffffff161480611e335750611e328484610d66565b5b80611e7157508273ffffffffffffffffffffffffffffffffffffffff16611e5983611008565b73ffffffffffffffffffffffffffffffffffffffff16145b5b90509392505050565b600080600090507a184f03e93ff9f4daa797ed6e38ed64bf6a1f0100000000000000008310611ed9577a184f03e93ff9f4daa797ed6e38ed64bf6a1f0100000000000000008381611ecf57611ece6131ba565b5b0492506040810190505b6d04ee2d6d415b85acef81000000008310611f16576d04ee2d6d415b85acef81000000008381611f0c57611f0b6131ba565b5b0492506020810190505b662386f26fc100008310611f4557662386f26fc100008381611f3b57611f3a6131ba565b5b0492506010810190505b6305f5e1008310611f6e576305f5e1008381611f6457611f636131ba565b5b0492506008810190505b6127108310611f93576127108381611f8957611f886131ba565b5b0492506004810190505b60648310611fb65760648381611fac57611fab6131ba565b5b0492506002810190505b600a8310611fc5576001810190505b80915050919050565b611fd88383611ff2565b611fed611fe3611045565b60008585856116cc565b505050565b600073ffffffffffffffffffffffffffffffffffffffff168273ffffffffffffffffffffffffffffffffffffffff16036120645760006040517f64a0ae9200000000000000000000000000000000000000000000000000000000815260040161205b9190612310565b60405180910390fd5b60006120728383600061105f565b9050600073ffffffffffffffffffffffffffffffffffffffff168173ffffffffffffffffffffffffffffffffffffffff16146120e65760006040517f73c6ac6e0000000000000000000000000000000000000000000000000000000081526004016120dd9190612310565b60405180910390fd5b505050565b6000604051905090565b600080fd5b600080fd5b60007fffffffff0000000000000000000000000000000000000000000000000000000082169050919050565b612134816120ff565b811461213f57600080fd5b50565b6000813590506121518161212b565b92915050565b60006020828403121561216d5761216c6120f5565b5b600061217b84828501612142565b91505092915050565b60008115159050919050565b61219981612184565b82525050565b60006020820190506121b46000830184612190565b92915050565b600081519050919050565b600082825260208201905092915050565b60005b838110156121f45780820151818401526020810190506121d9565b60008484015250505050565b6000601f19601f8301169050919050565b600061221c826121ba565b61222681856121c5565b93506122368185602086016121d6565b61223f81612200565b840191505092915050565b600060208201905081810360008301526122648184612211565b905092915050565b6000819050919050565b61227f8161226c565b811461228a57600080fd5b50565b60008135905061229c81612276565b92915050565b6000602082840312156122b8576122b76120f5565b5b60006122c68482850161228d565b91505092915050565b600073ffffffffffffffffffffffffffffffffffffffff82169050919050565b60006122fa826122cf565b9050919050565b61230a816122ef565b82525050565b60006020820190506123256000830184612301565b92915050565b612334816122ef565b811461233f57600080fd5b50565b6000813590506123518161232b565b92915050565b6000806040838503121561236e5761236d6120f5565b5b600061237c85828601612342565b925050602061238d8582860161228d565b9150509250929050565b6000602082840312156123ad576123ac6120f5565b5b60006123bb84828501612342565b91505092915050565b6123cd8161226c565b82525050565b60006020820190506123e860008301846123c4565b92915050565b600080600060608486031215612407576124066120f5565b5b600061241586828701612342565b935050602061242686828701612342565b92505060406124378682870161228d565b9150509250925092565b600080fd5b600080fd5b7f4e487b7100000000000000000000000000000000000000000000000000000000600052604160045260246000fd5b61248382612200565b810181811067ffffffffffffffff821117156124a2576124a161244b565b5b80604052505050565b60006124b56120eb565b90506124c1828261247a565b919050565b600067ffffffffffffffff8211156124e1576124e061244b565b5b6124ea82612200565b9050602081019050919050565b82818337600083830152505050565b6000612519612514846124c6565b6124ab565b90508281526020810184848401111561253557612534612446565b5b6125408482856124f7565b509392505050565b600082601f83011261255d5761255c612441565b5b813561256d848260208601612506565b91505092915050565b60006020828403121561258c5761258b6120f5565b5b600082013567ffffffffffffffff8111156125aa576125a96120fa565b5b6125b684828501612548565b91505092915050565b6125c881612184565b81146125d357600080fd5b50565b6000813590506125e5816125bf565b92915050565b60008060408385031215612602576126016120f5565b5b600061261085828601612342565b9250506020612621858286016125d6565b9150509250929050565b600067ffffffffffffffff8211156126465761264561244b565b5b61264f82612200565b9050602081019050919050565b600061266f61266a8461262b565b6124ab565b90508281526020810184848401111561268b5761268a612446565b5b6126968482856124f7565b509392505050565b600082601f8301126126b3576126b2612441565b5b81356126c384826020860161265c565b91505092915050565b600080600080608085870312156126e6576126e56120f5565b5b60006126f487828801612342565b945050602061270587828801612342565b93505060406127168782880161228d565b925050606085013567ffffffffffffffff811115612737576127366120fa565b5b6127438782880161269e565b91505092959194509250565b60008060408385031215612766576127656120f5565b5b600061277485828601612342565b925050602061278585828601612342565b9150509250929050565b7f4e487b7100000000000000000000000000000000000000000000000000000000600052602260045260246000fd5b600060028204905060018216806127d657607f821691505b6020821081036127e9576127e861278f565b5b50919050565b60006060820190506128046000830186612301565b61281160208301856123c4565b61281e6040830184612301565b949350505050565b7f5175616e74697479206d7573742062652067726561746572207468616e207a6560008201527f726f000000000000000000000000000000000000000000000000000000000000602082015250565b60006128826022836121c5565b915061288d82612826565b604082019050919050565b600060208201905081810360008301526128b181612875565b9050919050565b7f4e6f7420656e6f756768204e4654732072656d61696e696e6700000000000000600082015250565b60006128ee6019836121c5565b91506128f9826128b8565b602082019050919050565b6000602082019050818103600083015261291d816128e1565b9050919050565b7f4e487b7100000000000000000000000000000000000000000000000000000000600052601160045260246000fd5b600061295e8261226c565b91506129698361226c565b925082820190508082111561298157612980612924565b5b92915050565b7f55736572206d696e74206c696d69742065786365656465640000000000000000600082015250565b60006129bd6018836121c5565b91506129c882612987565b602082019050919050565b600060208201905081810360008301526129ec816129b0565b9050919050565b7f416c6c20746f6b656e732068617665206265656e206d696e7465640000000000600082015250565b6000612a29601b836121c5565b9150612a34826129f3565b602082019050919050565b60006020820190508181036000830152612a5881612a1c565b9050919050565b7f55736572206d696e74206c696d69742072656163686564000000000000000000600082015250565b6000612a956017836121c5565b9150612aa082612a5f565b602082019050919050565b60006020820190508181036000830152612ac481612a88565b9050919050565b60008190508160005260206000209050919050565b60006020601f8301049050919050565b600082821b905092915050565b600060088302612b2d7fffffffffffffffffffffffffffffffffffffffffffffffffffffffffffffffff82612af0565b612b378683612af0565b95508019841693508086168417925050509392505050565b6000819050919050565b6000612b74612b6f612b6a8461226c565b612b4f565b61226c565b9050919050565b6000819050919050565b612b8e83612b59565b612ba2612b9a82612b7b565b848454612afd565b825550505050565b600090565b612bb7612baa565b612bc2818484612b85565b505050565b5b81811015612be657612bdb600082612baf565b600181019050612bc8565b5050565b601f821115612c2b57612bfc81612acb565b612c0584612ae0565b81016020851015612c14578190505b612c28612c2085612ae0565b830182612bc7565b50505b505050565b600082821c905092915050565b6000612c4e60001984600802612c30565b1980831691505092915050565b6000612c678383612c3d565b9150826002028217905092915050565b612c80826121ba565b67ffffffffffffffff811115612c9957612c9861244b565b5b612ca382546127be565b612cae828285612bea565b600060209050601f831160018114612ce15760008415612ccf578287015190505b612cd98582612c5b565b865550612d41565b601f198416612cef86612acb565b60005b82811015612d1757848901518255600182019150602085019450602081019050612cf2565b86831015612d345784890151612d30601f891682612c3d565b8355505b6001600288020188555050505b505050505050565b600081905092915050565b6000612d5f826121ba565b612d698185612d49565b9350612d798185602086016121d6565b80840191505092915050565b6000612d918285612d54565b9150612d9d8284612d54565b91508190509392505050565b7f4e487b7100000000000000000000000000000000000000000000000000000000600052603260045260246000fd5b60008154612de5816127be565b612def8186612d49565b94506001821660008114612e0a5760018114612e1f57612e52565b60ff1983168652811515820286019350612e52565b612e2885612acb565b60005b83811015612e4a57815481890152600182019150602081019050612e2b565b838801955050505b50505092915050565b7f2f00000000000000000000000000000000000000000000000000000000000000600082015250565b6000612e91600183612d49565b9150612e9c82612e5b565b600182019050919050565b7f2e6a736f6e000000000000000000000000000000000000000000000000000000600082015250565b6000612edd600583612d49565b9150612ee882612ea7565b600582019050919050565b6000612eff8285612dd8565b9150612f0a82612e84565b9150612f168284612d54565b9150612f2182612ed0565b91508190509392505050565b6000612f388261226c565b9150612f438361226c565b9250828203905081811115612f5b57612f5a612924565b5b92915050565b7f4e487b7100000000000000000000000000000000000000000000000000000000600052603160045260246000fd5b6000612f9b8261226c565b91507fffffffffffffffffffffffffffffffffffffffffffffffffffffffffffffffff8203612fcd57612fcc612924565b5b600182019050919050565b6000604082019050612fed60008301856123c4565b8181036020830152612fff8184612211565b90509392505050565b600081519050919050565b600082825260208201905092915050565b600061302f82613008565b6130398185613013565b93506130498185602086016121d6565b61305281612200565b840191505092915050565b60006080820190506130726000830187612301565b61307f6020830186612301565b61308c60408301856123c4565b818103606083015261309e8184613024565b905095945050505050565b6000815190506130b88161212b565b92915050565b6000602082840312156130d4576130d36120f5565b5b60006130e2848285016130a9565b91505092915050565b60006040820190506131006000830185612301565b61310d60208301846123c4565b9392505050565b6000819050919050565b61312f61312a8261226c565b613114565b82525050565b60008160601b9050919050565b600061314d82613135565b9050919050565b600061315f82613142565b9050919050565b613177613172826122ef565b613154565b82525050565b6000613189828661311e565b602082019150613199828561311e565b6020820191506131a98284613166565b601482019150819050949350505050565b7f4e487b7100000000000000000000000000000000000000000000000000000000600052601260045260246000fd5b60006131f48261226c565b91506131ff8361226c565b92508261320f5761320e6131ba565b5b82820690509291505056fea2646970667358221220b34b12dae776b8f72b22d053350d4e2409f42bb31cd3a4c840969d27ff2d197d64736f6c634300081b0033",
  "linkReferences": {},
  "deployedLinkReferences": {}
}