{
    "_format": "hh-sol-artifact-1",
    "contractName": "SquishySouls",
    "sourceName": "contracts/SquishySouls.sol",
    "abi": [
        {
            "inputs": [],
            "stateMutability": "nonpayable",
            "type": "constructor"
        },
        {
            "inputs": [
                {
                    "internalType": "address",
                    "name": "sender",
                    "type": "address"
                },
                {
                    "internalType": "uint256",
                    "name": "tokenId",
                    "type": "uint256"
                },
                {
                    "internalType": "address",
                    "name": "owner",
                    "type": "address"
                }
            ],
            "name": "ERC721IncorrectOwner",
            "type": "error"
        },
        {
            "inputs": [
                {
                    "internalType": "address",
                    "name": "operator",
                    "type": "address"
                },
                {
                    "internalType": "uint256",
                    "name": "tokenId",
                    "type": "uint256"
                }
            ],
            "name": "ERC721InsufficientApproval",
            "type": "error"
        },
        {
            "inputs": [
                {
                    "internalType": "address",
                    "name": "approver",
                    "type": "address"
                }
            ],
            "name": "ERC721InvalidApprover",
            "type": "error"
        },
        {
            "inputs": [
                {
                    "internalType": "address",
                    "name": "operator",
                    "type": "address"
                }
            ],
            "name": "ERC721InvalidOperator",
            "type": "error"
        },
        {
            "inputs": [
                {
                    "internalType": "address",
                    "name": "owner",
                    "type": "address"
                }
            ],
            "name": "ERC721InvalidOwner",
            "type": "error"
        },
        {
            "inputs": [
                {
                    "internalType": "address",
                    "name": "receiver",
                    "type": "address"
                }
            ],
            "name": "ERC721InvalidReceiver",
            "type": "error"
        },
        {
            "inputs": [
                {
                    "internalType": "address",
                    "name": "sender",
                    "type": "address"
                }
            ],
            "name": "ERC721InvalidSender",
            "type": "error"
        },
        {
            "inputs": [
                {
                    "internalType": "uint256",
                    "name": "tokenId",
                    "type": "uint256"
                }
            ],
            "name": "ERC721NonexistentToken",
            "type": "error"
        },
        {
            "inputs": [
                {
                    "internalType": "address",
                    "name": "owner",
                    "type": "address"
                }
            ],
            "name": "OwnableInvalidOwner",
            "type": "error"
        },
        {
            "inputs": [
                {
                    "internalType": "address",
                    "name": "account",
                    "type": "address"
                }
            ],
            "name": "OwnableUnauthorizedAccount",
            "type": "error"
        },
        {
            "anonymous": false,
            "inputs": [
                {
                    "indexed": true,
                    "internalType": "address",
                    "name": "owner",
                    "type": "address"
                },
                {
                    "indexed": true,
                    "internalType": "address",
                    "name": "approved",
                    "type": "address"
                },
                {
                    "indexed": true,
                    "internalType": "uint256",
                    "name": "tokenId",
                    "type": "uint256"
                }
            ],
            "name": "Approval",
            "type": "event"
        },
        {
            "anonymous": false,
            "inputs": [
                {
                    "indexed": true,
                    "internalType": "address",
                    "name": "owner",
                    "type": "address"
                },
                {
                    "indexed": true,
                    "internalType": "address",
                    "name": "operator",
                    "type": "address"
                },
                {
                    "indexed": false,
                    "internalType": "bool",
                    "name": "approved",
                    "type": "bool"
                }
            ],
            "name": "ApprovalForAll",
            "type": "event"
        },
        {
            "anonymous": false,
            "inputs": [
                {
                    "indexed": false,
                    "internalType": "uint256",
                    "name": "_fromTokenId",
                    "type": "uint256"
                },
                {
                    "indexed": false,
                    "internalType": "uint256",
                    "name": "_toTokenId",
                    "type": "uint256"
                }
            ],
            "name": "BatchMetadataUpdate",
            "type": "event"
        },
        {
            "anonymous": false,
            "inputs": [
                {
                    "indexed": false,
                    "internalType": "uint256",
                    "name": "_tokenId",
                    "type": "uint256"
                }
            ],
            "name": "MetadataUpdate",
            "type": "event"
        },
        {
            "anonymous": false,
            "inputs": [
                {
                    "indexed": true,
                    "internalType": "address",
                    "name": "to",
                    "type": "address"
                },
                {
                    "indexed": true,
                    "internalType": "uint256",
                    "name": "tokenId",
                    "type": "uint256"
                },
                {
                    "indexed": false,
                    "internalType": "string",
                    "name": "tokenURI",
                    "type": "string"
                }
            ],
            "name": "Mint",
            "type": "event"
        },
        {
            "anonymous": false,
            "inputs": [
                {
                    "indexed": true,
                    "internalType": "address",
                    "name": "previousOwner",
                    "type": "address"
                },
                {
                    "indexed": true,
                    "internalType": "address",
                    "name": "newOwner",
                    "type": "address"
                }
            ],
            "name": "OwnershipTransferred",
            "type": "event"
        },
        {
            "anonymous": false,
            "inputs": [
                {
                    "indexed": true,
                    "internalType": "address",
                    "name": "from",
                    "type": "address"
                },
                {
                    "indexed": true,
                    "internalType": "address",
                    "name": "to",
                    "type": "address"
                },
                {
                    "indexed": true,
                    "internalType": "uint256",
                    "name": "tokenId",
                    "type": "uint256"
                }
            ],
            "name": "Transfer",
            "type": "event"
        },
        {
            "inputs": [
                {
                    "internalType": "address",
                    "name": "to",
                    "type": "address"
                },
                {
                    "internalType": "uint256",
                    "name": "tokenId",
                    "type": "uint256"
                }
            ],
            "name": "approve",
            "outputs": [],
            "stateMutability": "nonpayable",
            "type": "function"
        },
        {
            "inputs": [
                {
                    "internalType": "address",
                    "name": "owner",
                    "type": "address"
                }
            ],
            "name": "balanceOf",
            "outputs": [
                {
                    "internalType": "uint256",
                    "name": "",
                    "type": "uint256"
                }
            ],
            "stateMutability": "view",
            "type": "function"
        },
        {
            "inputs": [
                {
                    "internalType": "uint256",
                    "name": "tokenId",
                    "type": "uint256"
                }
            ],
            "name": "getApproved",
            "outputs": [
                {
                    "internalType": "address",
                    "name": "",
                    "type": "address"
                }
            ],
            "stateMutability": "view",
            "type": "function"
        },
        {
            "inputs": [],
            "name": "getRemainingSupply",
            "outputs": [
                {
                    "internalType": "uint256",
                    "name": "",
                    "type": "uint256"
                }
            ],
            "stateMutability": "view",
            "type": "function"
        },
        {
            "inputs": [
                {
                    "internalType": "address",
                    "name": "owner",
                    "type": "address"
                },
                {
                    "internalType": "address",
                    "name": "operator",
                    "type": "address"
                }
            ],
            "name": "isApprovedForAll",
            "outputs": [
                {
                    "internalType": "bool",
                    "name": "",
                    "type": "bool"
                }
            ],
            "stateMutability": "view",
            "type": "function"
        },
        {
            "inputs": [],
            "name": "maxTokens",
            "outputs": [
                {
                    "internalType": "uint256",
                    "name": "",
                    "type": "uint256"
                }
            ],
            "stateMutability": "view",
            "type": "function"
        },
        {
            "inputs": [
                {
                    "internalType": "address",
                    "name": "to",
                    "type": "address"
                },
                {
                    "internalType": "string",
                    "name": "tokenURI",
                    "type": "string"
                }
            ],
            "name": "mint",
            "outputs": [],
            "stateMutability": "nonpayable",
            "type": "function"
        },
        {
            "inputs": [],
            "name": "name",
            "outputs": [
                {
                    "internalType": "string",
                    "name": "",
                    "type": "string"
                }
            ],
            "stateMutability": "view",
            "type": "function"
        },
        {
            "inputs": [],
            "name": "nextTokenId",
            "outputs": [
                {
                    "internalType": "uint256",
                    "name": "",
                    "type": "uint256"
                }
            ],
            "stateMutability": "view",
            "type": "function"
        },
        {
            "inputs": [],
            "name": "owner",
            "outputs": [
                {
                    "internalType": "address",
                    "name": "",
                    "type": "address"
                }
            ],
            "stateMutability": "view",
            "type": "function"
        },
        {
            "inputs": [
                {
                    "internalType": "uint256",
                    "name": "tokenId",
                    "type": "uint256"
                }
            ],
            "name": "ownerOf",
            "outputs": [
                {
                    "internalType": "address",
                    "name": "",
                    "type": "address"
                }
            ],
            "stateMutability": "view",
            "type": "function"
        },
        {
            "inputs": [],
            "name": "renounceOwnership",
            "outputs": [],
            "stateMutability": "nonpayable",
            "type": "function"
        },
        {
            "inputs": [
                {
                    "internalType": "address",
                    "name": "from",
                    "type": "address"
                },
                {
                    "internalType": "address",
                    "name": "to",
                    "type": "address"
                },
                {
                    "internalType": "uint256",
                    "name": "tokenId",
                    "type": "uint256"
                }
            ],
            "name": "safeTransferFrom",
            "outputs": [],
            "stateMutability": "nonpayable",
            "type": "function"
        },
        {
            "inputs": [
                {
                    "internalType": "address",
                    "name": "from",
                    "type": "address"
                },
                {
                    "internalType": "address",
                    "name": "to",
                    "type": "address"
                },
                {
                    "internalType": "uint256",
                    "name": "tokenId",
                    "type": "uint256"
                },
                {
                    "internalType": "bytes",
                    "name": "data",
                    "type": "bytes"
                }
            ],
            "name": "safeTransferFrom",
            "outputs": [],
            "stateMutability": "nonpayable",
            "type": "function"
        },
        {
            "inputs": [
                {
                    "internalType": "address",
                    "name": "operator",
                    "type": "address"
                },
                {
                    "internalType": "bool",
                    "name": "approved",
                    "type": "bool"
                }
            ],
            "name": "setApprovalForAll",
            "outputs": [],
            "stateMutability": "nonpayable",
            "type": "function"
        },
        {
            "inputs": [
                {
                    "internalType": "bytes4",
                    "name": "interfaceId",
                    "type": "bytes4"
                }
            ],
            "name": "supportsInterface",
            "outputs": [
                {
                    "internalType": "bool",
                    "name": "",
                    "type": "bool"
                }
            ],
            "stateMutability": "view",
            "type": "function"
        },
        {
            "inputs": [],
            "name": "symbol",
            "outputs": [
                {
                    "internalType": "string",
                    "name": "",
                    "type": "string"
                }
            ],
            "stateMutability": "view",
            "type": "function"
        },
        {
            "inputs": [
                {
                    "internalType": "uint256",
                    "name": "tokenId",
                    "type": "uint256"
                }
            ],
            "name": "tokenURI",
            "outputs": [
                {
                    "internalType": "string",
                    "name": "",
                    "type": "string"
                }
            ],
            "stateMutability": "view",
            "type": "function"
        },
        {
            "inputs": [
                {
                    "internalType": "address",
                    "name": "from",
                    "type": "address"
                },
                {
                    "internalType": "address",
                    "name": "to",
                    "type": "address"
                },
                {
                    "internalType": "uint256",
                    "name": "tokenId",
                    "type": "uint256"
                }
            ],
            "name": "transferFrom",
            "outputs": [],
            "stateMutability": "nonpayable",
            "type": "function"
        },
        {
            "inputs": [
                {
                    "internalType": "address",
                    "name": "newOwner",
                    "type": "address"
                }
            ],
            "name": "transferOwnership",
            "outputs": [],
            "stateMutability": "nonpayable",
            "type": "function"
        }
    ],
    "bytecode": "0x608060405234801561001057600080fd5b50336040518060400160405280600c81526020017f53717569736879536f756c7300000000000000000000000000000000000000008152506040518060400160405280600381526020017f53534c0000000000000000000000000000000000000000000000000000000000815250816000908161008d919061043d565b50806001908161009d919061043d565b505050600073ffffffffffffffffffffffffffffffffffffffff168173ffffffffffffffffffffffffffffffffffffffff16036101125760006040517f1e4fbdf70000000000000000000000000000000000000000000000000000000081526004016101099190610550565b60405180910390fd5b6101218161012760201b60201c565b5061056b565b6000600760009054906101000a900473ffffffffffffffffffffffffffffffffffffffff16905081600760006101000a81548173ffffffffffffffffffffffffffffffffffffffff021916908373ffffffffffffffffffffffffffffffffffffffff1602179055508173ffffffffffffffffffffffffffffffffffffffff168173ffffffffffffffffffffffffffffffffffffffff167f8be0079c531659141344cd1fd0a4f28419497f9722a3daafe3b4186f6b6457e060405160405180910390a35050565b600081519050919050565b7f4e487b7100000000000000000000000000000000000000000000000000000000600052604160045260246000fd5b7f4e487b7100000000000000000000000000000000000000000000000000000000600052602260045260246000fd5b6000600282049050600182168061026e57607f821691505b60208210810361028157610280610227565b5b50919050565b60008190508160005260206000209050919050565b60006020601f8301049050919050565b600082821b905092915050565b6000600883026102e97fffffffffffffffffffffffffffffffffffffffffffffffffffffffffffffffff826102ac565b6102f386836102ac565b95508019841693508086168417925050509392505050565b6000819050919050565b6000819050919050565b600061033a6103356103308461030b565b610315565b61030b565b9050919050565b6000819050919050565b6103548361031f565b61036861036082610341565b8484546102b9565b825550505050565b600090565b61037d610370565b61038881848461034b565b505050565b5b818110156103ac576103a1600082610375565b60018101905061038e565b5050565b601f8211156103f1576103c281610287565b6103cb8461029c565b810160208510156103da578190505b6103ee6103e68561029c565b83018261038d565b50505b505050565b600082821c905092915050565b6000610414600019846008026103f6565b1980831691505092915050565b600061042d8383610403565b9150826002028217905092915050565b610446826101ed565b67ffffffffffffffff81111561045f5761045e6101f8565b5b6104698254610256565b6104748282856103b0565b600060209050601f8311600181146104a75760008415610495578287015190505b61049f8582610421565b865550610507565b601f1984166104b586610287565b60005b828110156104dd578489015182556001820191506020850194506020810190506104b8565b868310156104fa57848901516104f6601f891682610403565b8355505b6001600288020188555050505b505050505050565b600073ffffffffffffffffffffffffffffffffffffffff82169050919050565b600061053a8261050f565b9050919050565b61054a8161052f565b82525050565b60006020820190506105656000830184610541565b92915050565b6128338061057a6000396000f3fe608060405234801561001057600080fd5b506004361061012c5760003560e01c80638da5cb5b116100ad578063d0def52111610071578063d0def5211461032f578063e4b7fb731461034b578063e831574214610369578063e985e9c514610387578063f2fde38b146103b75761012c565b80638da5cb5b1461028b57806395d89b41146102a9578063a22cb465146102c7578063b88d4fde146102e3578063c87b56dd146102ff5761012c565b806342842e0e116100f457806342842e0e146101e75780636352211e1461020357806370a0823114610233578063715018a61461026357806375794a3c1461026d5761012c565b806301ffc9a71461013157806306fdde0314610161578063081812fc1461017f578063095ea7b3146101af57806323b872dd146101cb575b600080fd5b61014b60048036038101906101469190611beb565b6103d3565b6040516101589190611c33565b60405180910390f35b610169610434565b6040516101769190611cde565b60405180910390f35b61019960048036038101906101949190611d36565b6104c6565b6040516101a69190611da4565b60405180910390f35b6101c960048036038101906101c49190611deb565b6104e2565b005b6101e560048036038101906101e09190611e2b565b6104f8565b005b61020160048036038101906101fc9190611e2b565b6105fa565b005b61021d60048036038101906102189190611d36565b61061a565b60405161022a9190611da4565b60405180910390f35b61024d60048036038101906102489190611e7e565b61062c565b60405161025a9190611eba565b60405180910390f35b61026b6106e6565b005b6102756106fa565b6040516102829190611eba565b60405180910390f35b610293610700565b6040516102a09190611da4565b60405180910390f35b6102b161072a565b6040516102be9190611cde565b60405180910390f35b6102e160048036038101906102dc9190611f01565b6107bc565b005b6102fd60048036038101906102f89190612076565b6107d2565b005b61031960048036038101906103149190611d36565b6107f7565b6040516103269190611cde565b60405180910390f35b6103496004803603810190610344919061219a565b61090a565b005b6103536109d7565b6040516103609190611eba565b60405180910390f35b6103716109ee565b60405161037e9190611eba565b60405180910390f35b6103a1600480360381019061039c91906121f6565b6109f4565b6040516103ae9190611c33565b60405180910390f35b6103d160048036038101906103cc9190611e7e565b610a88565b005b6000634906490660e01b7bffffffffffffffffffffffffffffffffffffffffffffffffffffffff1916827bffffffffffffffffffffffffffffffffffffffffffffffffffffffff1916148061042d575061042c82610b0e565b5b9050919050565b60606000805461044390612265565b80601f016020809104026020016040519081016040528092919081815260200182805461046f90612265565b80156104bc5780601f10610491576101008083540402835291602001916104bc565b820191906000526020600020905b81548152906001019060200180831161049f57829003601f168201915b5050505050905090565b60006104d182610bf0565b506104db82610c78565b9050919050565b6104f482826104ef610cb5565b610cbd565b5050565b600073ffffffffffffffffffffffffffffffffffffffff168273ffffffffffffffffffffffffffffffffffffffff160361056a5760006040517f64a0ae920000000000000000000000000000000000000000000000000000000081526004016105619190611da4565b60405180910390fd5b600061057e8383610579610cb5565b610ccf565b90508373ffffffffffffffffffffffffffffffffffffffff168173ffffffffffffffffffffffffffffffffffffffff16146105f4578382826040517f64283d7b0000000000000000000000000000000000000000000000000000000081526004016105eb93929190612296565b60405180910390fd5b50505050565b610615838383604051806020016040528060008152506107d2565b505050565b600061062582610bf0565b9050919050565b60008073ffffffffffffffffffffffffffffffffffffffff168273ffffffffffffffffffffffffffffffffffffffff160361069f5760006040517f89c62b640000000000000000000000000000000000000000000000000000000081526004016106969190611da4565b60405180910390fd5b600360008373ffffffffffffffffffffffffffffffffffffffff1673ffffffffffffffffffffffffffffffffffffffff168152602001908152602001600020549050919050565b6106ee610ee9565b6106f86000610f70565b565b60085481565b6000600760009054906101000a900473ffffffffffffffffffffffffffffffffffffffff16905090565b60606001805461073990612265565b80601f016020809104026020016040519081016040528092919081815260200182805461076590612265565b80156107b25780601f10610787576101008083540402835291602001916107b2565b820191906000526020600020905b81548152906001019060200180831161079557829003601f168201915b5050505050905090565b6107ce6107c7610cb5565b8383611036565b5050565b6107dd8484846104f8565b6107f16107e8610cb5565b858585856111a5565b50505050565b606061080282610bf0565b50600060066000848152602001908152602001600020805461082390612265565b80601f016020809104026020016040519081016040528092919081815260200182805461084f90612265565b801561089c5780601f106108715761010080835404028352916020019161089c565b820191906000526020600020905b81548152906001019060200180831161087f57829003601f168201915b5050505050905060006108ad611356565b905060008151036108c2578192505050610905565b6000825111156108f75780826040516020016108df929190612309565b60405160208183030381529060405292505050610905565b6109008461136d565b925050505b919050565b6103e860085410610950576040517f08c379a000000000000000000000000000000000000000000000000000000000815260040161094790612379565b60405180910390fd5b600060085490506008600081548092919061096a906123c8565b919050555061097983826113d6565b61098381836113f4565b808373ffffffffffffffffffffffffffffffffffffffff167f85a66b9141978db9980f7e0ce3b468cebf4f7999f32b23091c5c03e798b1ba7a846040516109ca9190611cde565b60405180910390a3505050565b60006008546103e86109e99190612410565b905090565b6103e881565b6000600560008473ffffffffffffffffffffffffffffffffffffffff1673ffffffffffffffffffffffffffffffffffffffff16815260200190815260200160002060008373ffffffffffffffffffffffffffffffffffffffff1673ffffffffffffffffffffffffffffffffffffffff16815260200190815260200160002060009054906101000a900460ff16905092915050565b610a90610ee9565b600073ffffffffffffffffffffffffffffffffffffffff168173ffffffffffffffffffffffffffffffffffffffff1603610b025760006040517f1e4fbdf7000000000000000000000000000000000000000000000000000000008152600401610af99190611da4565b60405180910390fd5b610b0b81610f70565b50565b60007f80ac58cd000000000000000000000000000000000000000000000000000000007bffffffffffffffffffffffffffffffffffffffffffffffffffffffff1916827bffffffffffffffffffffffffffffffffffffffffffffffffffffffff19161480610bd957507f5b5e139f000000000000000000000000000000000000000000000000000000007bffffffffffffffffffffffffffffffffffffffffffffffffffffffff1916827bffffffffffffffffffffffffffffffffffffffffffffffffffffffff1916145b80610be95750610be882611450565b5b9050919050565b600080610bfc836114ba565b9050600073ffffffffffffffffffffffffffffffffffffffff168173ffffffffffffffffffffffffffffffffffffffff1603610c6f57826040517f7e273289000000000000000000000000000000000000000000000000000000008152600401610c669190611eba565b60405180910390fd5b80915050919050565b60006004600083815260200190815260200160002060009054906101000a900473ffffffffffffffffffffffffffffffffffffffff169050919050565b600033905090565b610cca83838360016114f7565b505050565b600080610cdb846114ba565b9050600073ffffffffffffffffffffffffffffffffffffffff168373ffffffffffffffffffffffffffffffffffffffff1614610d1d57610d1c8184866116bc565b5b600073ffffffffffffffffffffffffffffffffffffffff168173ffffffffffffffffffffffffffffffffffffffff1614610dae57610d5f6000856000806114f7565b6001600360008373ffffffffffffffffffffffffffffffffffffffff1673ffffffffffffffffffffffffffffffffffffffff168152602001908152602001600020600082825403925050819055505b600073ffffffffffffffffffffffffffffffffffffffff168573ffffffffffffffffffffffffffffffffffffffff1614610e31576001600360008773ffffffffffffffffffffffffffffffffffffffff1673ffffffffffffffffffffffffffffffffffffffff168152602001908152602001600020600082825401925050819055505b846002600086815260200190815260200160002060006101000a81548173ffffffffffffffffffffffffffffffffffffffff021916908373ffffffffffffffffffffffffffffffffffffffff160217905550838573ffffffffffffffffffffffffffffffffffffffff168273ffffffffffffffffffffffffffffffffffffffff167fddf252ad1be2c89b69c2b068fc378daa952ba7f163c4a11628f55a4df523b3ef60405160405180910390a4809150509392505050565b610ef1610cb5565b73ffffffffffffffffffffffffffffffffffffffff16610f0f610700565b73ffffffffffffffffffffffffffffffffffffffff1614610f6e57610f32610cb5565b6040517f118cdaa7000000000000000000000000000000000000000000000000000000008152600401610f659190611da4565b60405180910390fd5b565b6000600760009054906101000a900473ffffffffffffffffffffffffffffffffffffffff16905081600760006101000a81548173ffffffffffffffffffffffffffffffffffffffff021916908373ffffffffffffffffffffffffffffffffffffffff1602179055508173ffffffffffffffffffffffffffffffffffffffff168173ffffffffffffffffffffffffffffffffffffffff167f8be0079c531659141344cd1fd0a4f28419497f9722a3daafe3b4186f6b6457e060405160405180910390a35050565b600073ffffffffffffffffffffffffffffffffffffffff168273ffffffffffffffffffffffffffffffffffffffff16036110a757816040517f5b08ba1800000000000000000000000000000000000000000000000000000000815260040161109e9190611da4565b60405180910390fd5b80600560008573ffffffffffffffffffffffffffffffffffffffff1673ffffffffffffffffffffffffffffffffffffffff16815260200190815260200160002060008473ffffffffffffffffffffffffffffffffffffffff1673ffffffffffffffffffffffffffffffffffffffff16815260200190815260200160002060006101000a81548160ff0219169083151502179055508173ffffffffffffffffffffffffffffffffffffffff168373ffffffffffffffffffffffffffffffffffffffff167f17307eab39ab6107e8899845ad3d59bd9653f200f220920489ca2b5937696c31836040516111989190611c33565b60405180910390a3505050565b60008373ffffffffffffffffffffffffffffffffffffffff163b111561134f578273ffffffffffffffffffffffffffffffffffffffff1663150b7a02868685856040518563ffffffff1660e01b81526004016112049493929190612499565b6020604051808303816000875af192505050801561124057506040513d601f19601f8201168201806040525081019061123d91906124fa565b60015b6112c4573d8060008114611270576040519150601f19603f3d011682016040523d82523d6000602084013e611275565b606091505b5060008151036112bc57836040517f64a0ae920000000000000000000000000000000000000000000000000000000081526004016112b39190611da4565b60405180910390fd5b805181602001fd5b63150b7a0260e01b7bffffffffffffffffffffffffffffffffffffffffffffffffffffffff1916817bffffffffffffffffffffffffffffffffffffffffffffffffffffffff19161461134d57836040517f64a0ae920000000000000000000000000000000000000000000000000000000081526004016113449190611da4565b60405180910390fd5b505b5050505050565b606060405180602001604052806000815250905090565b606061137882610bf0565b506000611383611356565b905060008151116113a357604051806020016040528060008152506113ce565b806113ad84611780565b6040516020016113be929190612309565b6040516020818303038152906040525b915050919050565b6113f082826040518060200160405280600081525061184e565b5050565b8060066000848152602001908152602001600020908161141491906126d3565b507ff8e1a15aba9398e019f0b49df1a4fde98ee17ae345cb5f6b5e2c27f5033e8ce7826040516114449190611eba565b60405180910390a15050565b60007f01ffc9a7000000000000000000000000000000000000000000000000000000007bffffffffffffffffffffffffffffffffffffffffffffffffffffffff1916827bffffffffffffffffffffffffffffffffffffffffffffffffffffffff1916149050919050565b60006002600083815260200190815260200160002060009054906101000a900473ffffffffffffffffffffffffffffffffffffffff169050919050565b80806115305750600073ffffffffffffffffffffffffffffffffffffffff168273ffffffffffffffffffffffffffffffffffffffff1614155b1561166457600061154084610bf0565b9050600073ffffffffffffffffffffffffffffffffffffffff168373ffffffffffffffffffffffffffffffffffffffff16141580156115ab57508273ffffffffffffffffffffffffffffffffffffffff168173ffffffffffffffffffffffffffffffffffffffff1614155b80156115be57506115bc81846109f4565b155b1561160057826040517fa9fbf51f0000000000000000000000000000000000000000000000000000000081526004016115f79190611da4565b60405180910390fd5b811561166257838573ffffffffffffffffffffffffffffffffffffffff168273ffffffffffffffffffffffffffffffffffffffff167f8c5be1e5ebec7d5bd14f71427d1e84f3dd0314c0f7b2291e5b200ac8c7c3b92560405160405180910390a45b505b836004600085815260200190815260200160002060006101000a81548173ffffffffffffffffffffffffffffffffffffffff021916908373ffffffffffffffffffffffffffffffffffffffff16021790555050505050565b6116c7838383611872565b61177b57600073ffffffffffffffffffffffffffffffffffffffff168373ffffffffffffffffffffffffffffffffffffffff160361173c57806040517f7e2732890000000000000000000000000000000000000000000000000000000081526004016117339190611eba565b60405180910390fd5b81816040517f177e802f0000000000000000000000000000000000000000000000000000000081526004016117729291906127a5565b60405180910390fd5b505050565b60606000600161178f84611933565b01905060008167ffffffffffffffff8111156117ae576117ad611f4b565b5b6040519080825280601f01601f1916602001820160405280156117e05781602001600182028036833780820191505090505b509050600082602001820190505b600115611843578080600190039150507f3031323334353637383961626364656600000000000000000000000000000000600a86061a8153600a8581611837576118366127ce565b5b049450600085036117ee575b819350505050919050565b6118588383611a86565b61186d611863610cb5565b60008585856111a5565b505050565b60008073ffffffffffffffffffffffffffffffffffffffff168373ffffffffffffffffffffffffffffffffffffffff161415801561192a57508273ffffffffffffffffffffffffffffffffffffffff168473ffffffffffffffffffffffffffffffffffffffff1614806118eb57506118ea84846109f4565b5b8061192957508273ffffffffffffffffffffffffffffffffffffffff1661191183610c78565b73ffffffffffffffffffffffffffffffffffffffff16145b5b90509392505050565b600080600090507a184f03e93ff9f4daa797ed6e38ed64bf6a1f0100000000000000008310611991577a184f03e93ff9f4daa797ed6e38ed64bf6a1f0100000000000000008381611987576119866127ce565b5b0492506040810190505b6d04ee2d6d415b85acef810000000083106119ce576d04ee2d6d415b85acef810000000083816119c4576119c36127ce565b5b0492506020810190505b662386f26fc1000083106119fd57662386f26fc1000083816119f3576119f26127ce565b5b0492506010810190505b6305f5e1008310611a26576305f5e1008381611a1c57611a1b6127ce565b5b0492506008810190505b6127108310611a4b576127108381611a4157611a406127ce565b5b0492506004810190505b60648310611a6e5760648381611a6457611a636127ce565b5b0492506002810190505b600a8310611a7d576001810190505b80915050919050565b600073ffffffffffffffffffffffffffffffffffffffff168273ffffffffffffffffffffffffffffffffffffffff1603611af85760006040517f64a0ae92000000000000000000000000000000000000000000000000000000008152600401611aef9190611da4565b60405180910390fd5b6000611b0683836000610ccf565b9050600073ffffffffffffffffffffffffffffffffffffffff168173ffffffffffffffffffffffffffffffffffffffff1614611b7a5760006040517f73c6ac6e000000000000000000000000000000000000000000000000000000008152600401611b719190611da4565b60405180910390fd5b505050565b6000604051905090565b600080fd5b600080fd5b60007fffffffff0000000000000000000000000000000000000000000000000000000082169050919050565b611bc881611b93565b8114611bd357600080fd5b50565b600081359050611be581611bbf565b92915050565b600060208284031215611c0157611c00611b89565b5b6000611c0f84828501611bd6565b91505092915050565b60008115159050919050565b611c2d81611c18565b82525050565b6000602082019050611c486000830184611c24565b92915050565b600081519050919050565b600082825260208201905092915050565b60005b83811015611c88578082015181840152602081019050611c6d565b60008484015250505050565b6000601f19601f8301169050919050565b6000611cb082611c4e565b611cba8185611c59565b9350611cca818560208601611c6a565b611cd381611c94565b840191505092915050565b60006020820190508181036000830152611cf88184611ca5565b905092915050565b6000819050919050565b611d1381611d00565b8114611d1e57600080fd5b50565b600081359050611d3081611d0a565b92915050565b600060208284031215611d4c57611d4b611b89565b5b6000611d5a84828501611d21565b91505092915050565b600073ffffffffffffffffffffffffffffffffffffffff82169050919050565b6000611d8e82611d63565b9050919050565b611d9e81611d83565b82525050565b6000602082019050611db96000830184611d95565b92915050565b611dc881611d83565b8114611dd357600080fd5b50565b600081359050611de581611dbf565b92915050565b60008060408385031215611e0257611e01611b89565b5b6000611e1085828601611dd6565b9250506020611e2185828601611d21565b9150509250929050565b600080600060608486031215611e4457611e43611b89565b5b6000611e5286828701611dd6565b9350506020611e6386828701611dd6565b9250506040611e7486828701611d21565b9150509250925092565b600060208284031215611e9457611e93611b89565b5b6000611ea284828501611dd6565b91505092915050565b611eb481611d00565b82525050565b6000602082019050611ecf6000830184611eab565b92915050565b611ede81611c18565b8114611ee957600080fd5b50565b600081359050611efb81611ed5565b92915050565b60008060408385031215611f1857611f17611b89565b5b6000611f2685828601611dd6565b9250506020611f3785828601611eec565b9150509250929050565b600080fd5b600080fd5b7f4e487b7100000000000000000000000000000000000000000000000000000000600052604160045260246000fd5b611f8382611c94565b810181811067ffffffffffffffff82111715611fa257611fa1611f4b565b5b80604052505050565b6000611fb5611b7f565b9050611fc18282611f7a565b919050565b600067ffffffffffffffff821115611fe157611fe0611f4b565b5b611fea82611c94565b9050602081019050919050565b82818337600083830152505050565b600061201961201484611fc6565b611fab565b90508281526020810184848401111561203557612034611f46565b5b612040848285611ff7565b509392505050565b600082601f83011261205d5761205c611f41565b5b813561206d848260208601612006565b91505092915050565b600080600080608085870312156120905761208f611b89565b5b600061209e87828801611dd6565b94505060206120af87828801611dd6565b93505060406120c087828801611d21565b925050606085013567ffffffffffffffff8111156120e1576120e0611b8e565b5b6120ed87828801612048565b91505092959194509250565b600067ffffffffffffffff82111561211457612113611f4b565b5b61211d82611c94565b9050602081019050919050565b600061213d612138846120f9565b611fab565b90508281526020810184848401111561215957612158611f46565b5b612164848285611ff7565b509392505050565b600082601f83011261218157612180611f41565b5b813561219184826020860161212a565b91505092915050565b600080604083850312156121b1576121b0611b89565b5b60006121bf85828601611dd6565b925050602083013567ffffffffffffffff8111156121e0576121df611b8e565b5b6121ec8582860161216c565b9150509250929050565b6000806040838503121561220d5761220c611b89565b5b600061221b85828601611dd6565b925050602061222c85828601611dd6565b9150509250929050565b7f4e487b7100000000000000000000000000000000000000000000000000000000600052602260045260246000fd5b6000600282049050600182168061227d57607f821691505b6020821081036122905761228f612236565b5b50919050565b60006060820190506122ab6000830186611d95565b6122b86020830185611eab565b6122c56040830184611d95565b949350505050565b600081905092915050565b60006122e382611c4e565b6122ed81856122cd565b93506122fd818560208601611c6a565b80840191505092915050565b600061231582856122d8565b915061232182846122d8565b91508190509392505050565b7f4d617820737570706c7920726561636865640000000000000000000000000000600082015250565b6000612363601283611c59565b915061236e8261232d565b602082019050919050565b6000602082019050818103600083015261239281612356565b9050919050565b7f4e487b7100000000000000000000000000000000000000000000000000000000600052601160045260246000fd5b60006123d382611d00565b91507fffffffffffffffffffffffffffffffffffffffffffffffffffffffffffffffff820361240557612404612399565b5b600182019050919050565b600061241b82611d00565b915061242683611d00565b925082820390508181111561243e5761243d612399565b5b92915050565b600081519050919050565b600082825260208201905092915050565b600061246b82612444565b612475818561244f565b9350612485818560208601611c6a565b61248e81611c94565b840191505092915050565b60006080820190506124ae6000830187611d95565b6124bb6020830186611d95565b6124c86040830185611eab565b81810360608301526124da8184612460565b905095945050505050565b6000815190506124f481611bbf565b92915050565b6000602082840312156125105761250f611b89565b5b600061251e848285016124e5565b91505092915050565b60008190508160005260206000209050919050565b60006020601f8301049050919050565b600082821b905092915050565b6000600883026125897fffffffffffffffffffffffffffffffffffffffffffffffffffffffffffffffff8261254c565b612593868361254c565b95508019841693508086168417925050509392505050565b6000819050919050565b60006125d06125cb6125c684611d00565b6125ab565b611d00565b9050919050565b6000819050919050565b6125ea836125b5565b6125fe6125f6826125d7565b848454612559565b825550505050565b600090565b612613612606565b61261e8184846125e1565b505050565b5b818110156126425761263760008261260b565b600181019050612624565b5050565b601f8211156126875761265881612527565b6126618461253c565b81016020851015612670578190505b61268461267c8561253c565b830182612623565b50505b505050565b600082821c905092915050565b60006126aa6000198460080261268c565b1980831691505092915050565b60006126c38383612699565b9150826002028217905092915050565b6126dc82611c4e565b67ffffffffffffffff8111156126f5576126f4611f4b565b5b6126ff8254612265565b61270a828285612646565b600060209050601f83116001811461273d576000841561272b578287015190505b61273585826126b7565b86555061279d565b601f19841661274b86612527565b60005b828110156127735784890151825560018201915060208501945060208101905061274e565b86831015612790578489015161278c601f891682612699565b8355505b6001600288020188555050505b505050505050565b60006040820190506127ba6000830185611d95565b6127c76020830184611eab565b9392505050565b7f4e487b7100000000000000000000000000000000000000000000000000000000600052601260045260246000fdfea264697066735822122097f0801c87f7856f249ccde1bbed9ae1a37bd8c490b79c16ddfde2cd8eb3bbfc64736f6c634300081b0033",
    "linkReferences": {},
    "deployedLinkReferences": {}
}